:100000006EC70000A4C70000A2C70000A0C7000080
:100010009EC700009CC700009AC7000098C7000058
:1000200096C7000094C7000092C700000C94D60841
:100030008EC700000C944D1E0C940C090C943909C9
:100040000C9466090C9493090C94C0090C94ED0966
:100050000C941A0A0C94470A0C94740A0C94A10A82
:1000600076C7000074C7000072C7000070C70000A8
:100070006EC700006CC700006AC7000068C70000B8
:1000800066C7000064C7000062C7000060C70000C8
:100090005EC700005CC700005AC7000058C70000D8
:1000A00056C7000054C7000052C7000050C70000E8
:1000B0004EC700004CC700000C94741E0C94900CAA
:1000C0000C94BD0C0C94EA0C0C94170D0C94440D7C
:1000D0000C94710D0C949E0D0C94CB0D0C94F80D9A
:1000E0000C94250E34C7000032C7000030C7000052
:1000F0002EC700002CC700002AC7000028C7000038
:1001000026C7000024C7000022C7000020C7000047
:100110001EC700001CC700001AC7000018C7000057
:1001200016C7000014C7000012C7000010C7000067
:100130000EC700000C94CE0A0C94FB0A0C94280BFA
:100140000C94550B0C94820B0C94AF0B0C94DC0BA1
:100150000C94090C0C94360C0C94630CF8C600003B
:10016000F6C60000F4C60000F2C60000F0C60000AB
:10017000EEC60000ECC60000EAC60000E8C60000BB
:10018000E6C60000E4C60000E2C60000E0C60000CB
:10019000DEC60000DCC60000DAC60000D8C60000DB
:1001A000D6C60000D4C60000D2C60000D0C60000EB
:1001B0000C94520E0C947F0E0C94AC0E0C94D90E31
:1001C0000C94060F0C94330FC2C60000C0C600008A
:1001D000BEC60000BCC60000BAC600000C9434A81D
:1001E0000C9478A8B4C60000B2C60000B0C60000E7
:1001F000AEC600000C9466260C942A275322412296
:10020000442247224A224D2250228D3077317B31C1
:100210007F318331EA31EE318F3193319731EE31D5
:100220009B319F31A331A7316531693187318B31E2
:10023000AB31B330B930C030C730CD302F312F3172
:10024000DB30E230E930F030F730FE302F3105316D
:100250000C3113312F312F311A3121312831D43063
:10026000C631CA31CE31D231D631DA31DE31E23166
:100270000F32133217321B3290329032843288326E
:100280009032903290329032903290328C32B43B35
:10029000BF3BCA3B4E3C4E3C4E3C4E3C4E3C4E3C23
:1002A0004E3C4E3C4E3C4E3C4E3C4E3C4E3C4E3CFE
:1002B0004E3CD53BE03BEB3B4E3C4E3C4E3C4E3C3B
:1002C0004E3C4E3C4E3C4E3C4E3C4E3C4E3CF63B37
:1002D000013C0C3C173C4E3C4E3C4E3C4E3C4E3C94
:1002E0004E3C4E3C4E3C4E3C4E3C4E3C4E3C223CEA
:1002F0004E3C4E3C4E3C4E3C4E3C4E3C4E3C4E3CAE
:100300004E3C4E3C4E3C4E3C4E3C4E3C4E3C2D3CBE
:10031000383C433C2B5BEB5AF65AEB5A025BEB5AE8
:10032000085B145BEB5A1A5BEB5AEB5AEB5AEB5A2D
:10033000EB5AEB5AEB5AEB5AEB5AEB5AEB5AEB5A95
:10034000EB5AEB5AEB5AEB5AEB5AEB5AEB5AEB5A85
:10035000EB5AEB5AEB5AEB5AEB5AEB5AEB5AEB5A75
:10036000EB5AEB5AEB5AEB5AEB5AEB5AEB5AEB5A65
:10037000EB5AEB5AEB5AEB5AEB5AEB5AEB5AEB5A55
:10038000EB5AEB5AEB5AEB5AEB5AEB5AEB5AEB5A45
:10039000EB5AE55AEB5A2B5BEB5AF65AEB5AFC5ADE
:1003A000025B085B0E5BEB5A145BEB5A1A5BEB5A71
:1003B000EB5AEB5AEB5AEB5AEB5AEB5AEB5AEB5A15
:1003C000EB5AEB5AEB5AEB5AEB5AEB5AEB5AEB5A05
:1003D000EB5AEB5AEB5AEB5AEB5AEB5AEB5AEB5AF5
:1003E000EB5AEB5AEB5AEB5AEB5AEB5AEB5AEB5AE5
:1003F000EB5AEB5AEB5AEB5AEB5AEB5AEB5AEB5AD5
:10040000EB5AEB5AEB5AEB5AEB5AEB5AEB5AEB5AC4
:10041000EB5AEB5AE55AEB5A2B5BEB5AF65AEB5A6E
:10042000FC5A025BEB5A085BEB5A0E5BEB5A145B0F
:100430001A5B83689C68B568CE68E7681869496983
:1004400052768579857985798579857985798579F2
:1004500085798579F7778478A978CE78F378857966
:100460008579627962796279627985798579857928
:1004700085793A785F7818793D79157B3180958058
:100480001A8175813284328493829983FC846B86CD
:10049000098798872788DE881D8CF7891D8C1D8C1D
:1004A0001D8CA07F1D8C1989F48A218B618B6F8D27
:1004B000228D298D308D378D3E8D458D4C8D538D00
:1004C0005A8D618D688D53927893E592F6920793D9
:1004D00071928092A792B692C59253925D925D926C
:1004E0005D925D927893D4926792679267926792D9
:1004F00078937893789378935D925D925D925D9214
:10050000E594F2949294A394B494C5949294A39491
:10051000B494C594F996F9960497F9965497FC9675
:10052000FC96FF96FC9622992A982A9822992A9856
:1005300022992A9822992A98229925982A982A98C5
:1005400025982A9820982A98229922992A982098C2
:100550002098F39DF99DB19DB99DBF9DC59DCD9DF1
:10056000D59DDF9D33A063A035A037A039A03BA067
:100570003DA03FA041A043A045A047A049A04BA05B
:100580004DA04FA051A053A055A057A059A05BA0CB
:100590005DA05FA06EA094A070A072A074A076A0D1
:1005A00078A07AA07CA07EA080A082A084A086A053
:1005B00088A08AA08CA08EA090A092A0ADA3B2A388
:1005C000BEA3BEA3BEA3BEA3BEA3BEA3BEA3BEA323
:1005D000BEA3BEA3BEA3BEA3BEA3BEA3BEA3BEA313
:1005E000BEA3BEA3A0A3BEA3BEA3BEA3BEA319A3C6
:1005F000BEA3BEA3BEA3BEA3BEA3BEA3BEA3BEA3F3
:100600004AA3BEA3BEA393A3BEA32AA3BEA3BEA315
:10061000BEA3BEA3BEA3BEA3BEA3BEA3BEA3BEA3D2
:10062000BEA3BEA3A0A3BEA3BEA3BEA3BEA319A385
:10063000BEA3BEA3BEA3BEA3BEA3BEA3BEA3BEA3B2
:100640004AA3BEA3BEA393A3BEA32AA3E8A381A5E6
:1006500008A481A581A581A581A581A581A581A5E4
:1006600041A481A581A581A5F1A381A53FA481A570
:1006700081A581A581A581A581A581A581A581A54A
:1006800081A581A581A581A581A581A5E8A381A5D5
:1006900008A481A581A581A581A581A581A581A5A4
:1006A00041A481A581A581A5F1A381A53FA47CA535
:1006B0007FA581A581A581A581A581A581A581A50C
:1006C00081A581A581A581A581A581A581A581A5FA
:1006D00081A581A581A581A581A581A581A581A5EA
:1006E00081A581A581A581A581A581A581A581A5DA
:1006F00081A567A473A581A581A581A551A489A41D
:1007000081A581A581A581A581A581A581A581A5B9
:1007100081A581A581A581A581A581A581A581A5A9
:1007200081A581A581A581A581A581A581A581A599
:1007300081A567A473A581A581A581A551A489A4DC
:100740005CA687A687A687A687A687A687A687A66C
:1007500087A687A687A687A687A687A687A687A631
:1007600087A687A687A687A687A619A687A687A68F
:1007700022A60EA687A687A687A661A687A687A615
:1007800087A687A638A63FA63BA687A64FA687A61C
:1007900087A687A687A687A687A687A687A687A6F1
:1007A00087A687A687A687A687A619A687A687A64F
:1007B00022A60EA687A687A687A661A687A687A6D5
:1007C00087A687A638A63FA63BA687A64FA6B6A6AD
:1007D00092A792A792A792A789A7C6A6BCA692A7FE
:1007E000BEA6BAA692A792A792A792A792A792A7EF
:1007F000C0A692A792A7B8A696A792A792A792A7DB
:1008000092A792A792A792A792A792A792A792A720
:1008100092A792A792A792A789A7C6A6BCA692A7BD
:10082000BEA6BAA692A792A792A792A792A792A7AE
:10083000C0A692A792A7B8A696A7D7A696A796A74E
:1008400096A796A796A796A796A796A75AA796A7FC
:1008500096A796A711A7F1A696A796A796A796A7DB
:1008600096A796A796A796A796A796A796A796A7A0
:1008700096A796A796A796A796A7D7A696A796A750
:1008800096A796A796A796A796A796A75AA796A7BC
:1008900096A796A711A7F1A6585659434320636F10
:1008A0006C6F72696D657472792064617461004E59
:1008B0006F20636F6C6F72696D657472792064610B
:1008C000746100594342435220636F6C6F7220730E
:1008D0007061636500545620666F726D6174203DCF
:1008E0003E20524742206C696D69746564207261D4
:1008F0006E676500504320666F726D6174203D3EE7
:10090000205247422066756C6C2072616E676500EC
:1009100052474220636F6C6F722073706163650091
:10092000556E6B6E6F776E207265736F6C75746940
:100930006F6E00313430307831303530702F3630D2
:10094000487A207265647563656420626C616E6BC1
:10095000696E6700313430307831303530702F3681
:1009600030487A003133363078373638702F3630A9
:10097000487A005755584741203139323078313262
:100980003030702F3630487A005753584120313676
:1009900038307831303530702F3630487A0055474E
:1009A0004120313630307831323030702F36304897
:1009B0007A00535847412031323830783130323460
:1009C000702F3630487A003132383078393630700E
:1009D0002F3630487A005758474120313238307826
:1009E000373638702F3630487A005847412031303A
:1009F000323478373638702F3630487A00535647BD
:100A0000412038303078363030702F3630487A0018
:100A10005647412036343078343830702F363048DD
:100A20007A00313038307831393230702F363048F2
:100A30007A003139323078313038307035392F36EC
:100A400030487A00373230783438306935392F36CB
:100A500030487A00313932307831303830693539C0
:100A60002F3630487A0031323830783732307035AE
:100A7000392F3630487A0037323078343830703594
:100A8000392F3630487A006572726F6E656F7573F4
:100A9000206576656E7420666F72207374616E6473
:100AA000617264206576656E742063616C6C62614E
:100AB000636B005265706561746572207374617454
:100AC0006520352072656163686564003A2077723D
:100AD0006F6E672076616C756500417564696F2083
:100AE0006672657175656E63793A203A20313932E4
:100AF000206B487A00417564696F20667265717574
:100B0000656E63793A203A203137362E34206B48AF
:100B10007A00417564696F206672657175656E63F0
:100B2000793A203A203936206B487A004175646959
:100B30006F206672657175656E63793A203A203868
:100B4000382E32206B487A00417564696F206672D6
:100B5000657175656E63793A203A203438206B48A8
:100B60007A00417564696F206672657175656E63A0
:100B7000793A203A2034342E31206B487A0041757E
:100B800064696F206672657175656E63793A2033AA
:100B900032206B487A0063616C63756C6174696FB5
:100BA0006E206572726F7200417564696F204453E4
:100BB00054207061636B65747300417564696F20C4
:100BC0004F4241207061636B6574730041756469C5
:100BD0006F20484252207061636B657473004175E9
:100BE00064696F2073616D706C65207061636B6503
:100BF0007473004465657020636F6C6F72206D6F55
:100C000064653A2033362062697473004465657008
:100C100020636F6C6F72206D6F64653A20333020F3
:100C200062697473004465657020636F6C6F722035
:100C30006D6F64653A2032342062697473004156E6
:100C4000204D75746520696E616374697665004135
:100C500056206D757465206163746976650044562D
:100C60004920284F45535329206D6F646500454541
:100C70005353206D6F6465006E6F74204844435079
:100C800020656E6372797074656420004844435037
:100C900020656E6372797074656420004456492043
:100CA0006D6F64650048444D49206D6F6465004177
:100CB00075746F6D617469632064657465637469CC
:100CC0006F6E206F66207265736F6C7574696F6EDE
:100CD0003A20004175746F6D6174696320494E500C
:100CE00055542041204C4F434B4544006572726F70
:100CF0006E656F7573206576656E7420666F722001
:100D0000696E666F6672616D652063616C6C6261AD
:100D1000636B0047616D7574206D65746164617407
:100D200061207061636B65747320726563656976B9
:100D3000656400494E464F4652414D453A204D505C
:100D4000454720726563656976656400494E464F84
:100D50004652414D453A20415544207265636569CC
:100D60007665640057726F6E6720636F6C6F72698F
:100D70006D6574727900636F6C6F72696D65747202
:100D8000793A657874656E6465642028787659438D
:100D9000432900636F6C6F72696D657472793A49AB
:100DA000545537303900636F6C6F72696D657472BA
:100DB000793A534D505445203137304D202F20493A
:100DC000545536303100636F6C6F72696D657472A3
:100DD000793A4E6F20646174610057726F6E6720BC
:100DE000636F6C6F7220696E64696361746F720007
:100DF0004675747572650059436243722034343409
:100E00000059436243722034323200524742004359
:100E10006F6C6F722073706163653D004156493A93
:100E20002077726F6E67207061636B6574207479D0
:100E30007065210041564920526563656976656495
:100E400000414350205265636569766564004953EB
:100E50005243322072656365697665640049535276
:100E6000433120726563656976656400496E666F1B
:100E7000206672616D653A2000526563656976652A
:100E80007220413A005377697463682070726F6210
:100E90006C656D004469676974616C204143544915
:100EA00056495459204445544543544544004469E7
:100EB000676974616C204143544956495459204C28
:100EC0004F535400556E6B6E6F776E3A2000423A66
:100ED0002000413A2000496E707574200000EBED4F
:100EE000F3E3E370FF27E552FC4C2FEF3FE52C7F47
:100EF000E217F30758F48EED9DEAAEEBBFEE819357
:100F00009193A193B193E217F307C8F311241FBE85
:100F1000CFEFCDBFDFE5DEBF00E00CBF1EE2A0E0FB
:100F2000B0E2EEEEF7E501E00BBF02C007900D92D4
:100F3000A439B107D9F723E3A4E9BEE201C01D92A9
:100F4000AB3DB207E1F70E94DC2B0C94F5AB58C81F
:100F5000089580E008953091593320915A33822FBB
:100F600090E00397E1F431111CC080915D339091C2
:100F70005E330497C1F484E99EE280935F339093DB
:100F8000603385ED97E0809363339093643384E01E
:100F900090E0809361339093623381E0089580E024
:100FA000089580E0089580E00895089581E0809399
:100FB000F82E08950F931F9302EF17E020E430E01E
:100FC00048E95EE260E085E00E9467251F910F918D
:100FD00008951092FC2E1092FA2E81E08093F82E44
:100FE000E9CF0895811101C0E5CF08952BEA37E0DC
:100FF0004CE850E26AEF7EE28CEF9EE232C0089548
:101000000F931F93CF932091F82E222329F1CFB76E
:10101000F89420E2E8EDFEE2DF011D922A95E9F75F
:1010200020E2FC01A8EDBEE201900D922A95E1F7C5
:1010300006ED17E020E230E048ED5EE260E084E893
:101040000E94672591E089278093F82ECFBF909169
:10105000F82E81E0892701C080E0CF911F910F9188
:101060000895CF93DF93EA014091573344230CF066
:1010700063C0407609F041C0209158332630E9F52D
:101080000E946819FC012285213299F520915A337A
:101090002132B9F49C01275F3F4F20935F33309397
:1010A0006033818520915D3330915E3390E0281765
:1010B000390708F4C901809361339093623381E06A
:1010C00064C0FC013785231316C0C0935F33D093EF
:1010D00060332089318980915D3390915E33281788
:1010E000390708F4C901809361339093623381E03A
:1010F0004CC080E04AC080E048C04032E9F5209111
:101100005833223019F0233061F038C080935F33B8
:101110009093603381E090E08093613390936233E9
:1011200034C060935F337093603381E090E08093CC
:1011300061339093623329C04076403209F5409183
:1011400058334A3039F04B3059F04930D9F4F9016D
:1011500019951BC020915A33FC01208381E015C0F2
:1011600080915D3390915E33892B71F48091593376
:10117000FB01808381E009C080E007C080E005C0FA
:1011800080E003C080E001C080E0DF91CF9108954E
:1011900080E1E0E2F4E08183818184FDFDCFE0E243
:1011A000F4E0648175818681978108951F920F9282
:1011B0000FB60F9211240BB60F922F933F934F93BC
:1011C0005F936F937F938F939F93AF93BF93CF93CF
:1011D000DF93EF93FF93E0E2F4E01282C0912F33AC
:1011E000D0913033209719F0D3DFFE011995FF918C
:1011F000EF91DF91CF91BF91AF919F918F917F91AF
:101200006F915F914F913F912F910F900BBE0F9077
:101210000FBE0F901F9018951F920F920FB60F924E
:1012200011240BB60F922F933F934F935F936F93BD
:101230007F938F939F93AF93BF93EF93FF93E0912F
:10124000442FF091452F309709F01995FF91EF91B8
:10125000BF91AF919F918F917F916F915F914F91CE
:101260003F912F910F900BBE0F900FBE0F901F90CC
:1012700018951F920F920FB60F9211240BB60F9272
:101280002F933F934F935F936F937F938F939F938E
:10129000AF93BF93EF93FF93E091422FF091432FD1
:1012A000309709F01995FF91EF91BF91AF919F9100
:1012B0008F917F916F915F914F913F912F910F90FF
:1012C0000BBE0F900FBE0F901F9018951F920F929C
:1012D0000FB60F9211240BB60F922F933F934F939B
:1012E0005F936F937F938F939F93AF93BF93EF938E
:1012F000FF93E091402FF091412F309709F019951D
:10130000FF91EF91BF91AF919F918F917F916F91DD
:101310005F914F913F912F910F900BBE0F900FBE99
:101320000F901F9018951F920F920FB60F921124D5
:101330000BB60F922F933F934F935F936F937F93CF
:101340008F939F93AF93BF93EF93FF93E0913E2FC3
:10135000F0913F2F309709F01995FF91EF91BF91D0
:10136000AF919F918F917F916F915F914F913F913D
:101370002F910F900BBE0F900FBE0F901F901895DE
:101380001F920F920FB60F9211240BB60F922F934C
:101390003F934F935F936F937F938F939F93AF93FD
:1013A000BF93EF93FF93E0913C2FF0913D2F309747
:1013B00009F01995FF91EF91BF91AF919F918F9196
:1013C0007F916F915F914F913F912F910F900BBE45
:1013D0000F900FBE0F901F9018951F920F920FB68F
:1013E0000F9211240BB60F922F933F934F935F935D
:1013F0006F937F938F939F93AF93BF93EF93FF93DD
:10140000E0913A2FF0913B2F309709F01995FF9119
:10141000EF91BF91AF919F918F917F916F915F916C
:101420004F913F912F910F900BBE0F900FBE0F90D9
:101430001F9018951F920F920FB60F9211240BB6A2
:101440000F922F933F934F935F936F937F938F935D
:101450009F93AF93BF93EF93FF93E091382FF09159
:10146000392F309709F01995FF91EF91BF91AF9106
:101470009F918F917F916F915F914F913F912F91AC
:101480000F900BBE0F900FBE0F901F9018951F92DC
:101490000F920FB60F9211240BB60F922F933F931A
:1014A0004F935F936F937F938F939F93AF93BF936C
:1014B000EF93FF93E091362FF091372F309709F09B
:1014C0001995FF91EF91BF91AF919F918F917F916E
:1014D0006F915F914F913F912F910F900BBE0F90A5
:1014E0000FBE0F901F9018951F920F920FB60F927C
:1014F00011240BB60F922F933F934F935F936F93EB
:101500007F938F939F93AF93BF93EF93FF93E0915C
:10151000342FF091352F309709F01995FF91EF9105
:10152000BF91AF919F918F917F916F915F914F91FB
:101530003F912F910F900BBE0F900FBE0F901F90F9
:1015400018951F920F920FB60F9211240BB60F929F
:101550002F933F934F935F936F937F938F939F93BB
:10156000AF93BF93EF93FF93E091322FF091332F1E
:10157000309709F01995FF91EF91BF91AF919F912D
:101580008F917F916F915F914F913F912F910F902C
:101590000BBE0F900FBE0F901F9018951F920F92C9
:1015A0000FB60F9211240BB60F922F933F934F93C8
:1015B0005F936F937F938F939F93AF93BF93EF93BB
:1015C000FF93E091302FF091312F309709F019956A
:1015D000FF91EF91BF91AF919F918F917F916F910B
:1015E0005F914F913F912F910F900BBE0F900FBEC7
:1015F0000F901F9018951F920F920FB60F92112403
:101600000BB60F922F933F934F935F936F937F93FC
:101610008F939F93AF93BF93EF93FF93E0912E2F00
:10162000F0912F2F309709F01995FF91EF91BF910D
:10163000AF919F918F917F916F915F914F913F916A
:101640002F910F900BBE0F900FBE0F901F9018950B
:101650001F920F920FB60F9211240BB60F922F9379
:101660003F934F935F936F937F938F939F93AF932A
:10167000BF93EF93FF93E0912C2FF0912D2F309794
:1016800009F01995FF91EF91BF91AF919F918F91C3
:101690007F916F915F914F913F912F910F900BBE72
:1016A0000F900FBE0F901F9018951F920F920FB6BC
:1016B0000F9211240BB60F922F933F934F935F938A
:1016C0006F937F938F939F93AF93BF93EF93FF930A
:1016D000E0912A2FF0912B2F309709F01995FF9167
:1016E000EF91BF91AF919F918F917F916F915F919A
:1016F0004F913F912F910F900BBE0F900FBE0F9007
:101700001F9018951F920F920FB60F9211240BB6CF
:101710000F922F933F934F935F936F937F938F938A
:101720009F93AF93BF93EF93FF93E091282FF09196
:10173000292F309709F01995FF91EF91BF91AF9143
:101740009F918F917F916F915F914F913F912F91D9
:101750000F900BBE0F900FBE0F901F9018951F9209
:101760000F920FB60F9211240BB60F922F933F9347
:101770004F935F936F937F938F939F93AF93BF9399
:10178000EF93FF93E091262FF091272F309709F0E8
:101790001995FF91EF91BF91AF919F918F917F919B
:1017A0006F915F914F913F912F910F900BBE0F90D2
:1017B0000FBE0F901F9018951F920F920FB60F92A9
:1017C00011240BB60F922F933F934F935F936F9318
:1017D0007F938F939F93AF93BF93EF93FF93E0918A
:1017E000242FF091252F309709F01995FF91EF9153
:1017F000BF91AF919F918F917F916F915F914F9129
:101800003F912F910F900BBE0F900FBE0F901F9026
:1018100018951F920F920FB60F9211240BB60F92CC
:101820002F933F934F935F936F937F938F939F93E8
:10183000AF93BF93EF93FF93E091222FF091232F6B
:10184000309709F01995FF91EF91BF91AF919F915A
:101850008F917F916F915F914F913F912F910F9059
:101860000BBE0F900FBE0F901F9018951F920F92F6
:101870000FB60F9211240BB60F922F933F934F93F5
:101880005F936F937F938F939F93AF93BF93EF93E8
:10189000FF93E091202FF091212F309709F01995B7
:1018A000FF91EF91BF91AF919F918F917F916F9138
:1018B0005F914F913F912F910F900BBE0F900FBEF4
:1018C0000F901F9018951F920F920FB60F92112430
:1018D0000BB60F922F933F934F935F936F937F932A
:1018E0008F939F93AF93BF93EF93FF93E0911E2F3E
:1018F000F0911F2F309709F01995FF91EF91BF914B
:10190000AF919F918F917F916F915F914F913F9197
:101910002F910F900BBE0F900FBE0F901F90189538
:101920001F920F920FB60F9211240BB60F922F93A6
:101930003F934F935F936F937F938F939F93AF9357
:10194000BF93EF93FF93E0911C2FF0911D2F3097E1
:1019500009F01995FF91EF91BF91AF919F918F91F0
:101960007F916F915F914F913F912F910F900BBE9F
:101970000F900FBE0F901F9018951F920F920FB6E9
:101980000F9211240BB60F922F933F934F935F93B7
:101990006F937F938F939F93AF93BF93EF93FF9337
:1019A000E0911A2FF0911B2F309709F01995FF91B4
:1019B000EF91BF91AF919F918F917F916F915F91C7
:1019C0004F913F912F910F900BBE0F900FBE0F9034
:1019D0001F9018951F920F920FB60F9211240BB6FD
:1019E0000F922F933F934F935F936F937F938F93B8
:1019F0009F93AF93BF93EF93FF93E091182FF091D4
:101A0000192F309709F01995FF91EF91BF91AF9180
:101A10009F918F917F916F915F914F913F912F9106
:101A20000F900BBE0F900FBE0F901F9018951F9236
:101A30000F920FB60F9211240BB60F922F933F9374
:101A40004F935F936F937F938F939F93AF93BF93C6
:101A5000EF93FF93E091162FF091172F309709F035
:101A60001995FF91EF91BF91AF919F918F917F91C8
:101A70006F915F914F913F912F910F900BBE0F90FF
:101A80000FBE0F901F9018951F920F920FB60F92D6
:101A900011240BB60F922F933F934F935F936F9345
:101AA0007F938F939F93AF93BF93EF93FF93E091B7
:101AB000142FF091152F309709F01995FF91EF91A0
:101AC000BF91AF919F918F917F916F915F914F9156
:101AD0003F912F910F900BBE0F900FBE0F901F9054
:101AE00018951F920F920FB60F9211240BB60F92FA
:101AF0002F933F934F935F936F937F938F939F9316
:101B0000AF93BF93EF93FF93E091122FF091132FB8
:101B1000309709F01995FF91EF91BF91AF919F9187
:101B20008F917F916F915F914F913F912F910F9086
:101B30000BBE0F900FBE0F901F9018951F920F9223
:101B40000FB60F9211240BB60F922F933F934F9322
:101B50005F936F937F938F939F93AF93BF93EF9315
:101B6000FF93E091102FF091112F309709F0199504
:101B7000FF91EF91BF91AF919F918F917F916F9165
:101B80005F914F913F912F910F900BBE0F900FBE21
:101B90000F901F9018951F920F920FB60F9211245D
:101BA0000BB60F922F933F934F935F936F937F9357
:101BB0008F939F93AF93BF93EF93FF93E0910E2F7B
:101BC000F0910F2F309709F01995FF91EF91BF9188
:101BD000AF919F918F917F916F915F914F913F91C5
:101BE0002F910F900BBE0F900FBE0F901F90189566
:101BF0001F920F920FB60F9211240BB60F922F93D4
:101C00003F934F935F936F937F938F939F93AF9384
:101C1000BF93EF93FF93E0910C2FF0910D2F30972E
:101C200009F01995FF91EF91BF91AF919F918F911D
:101C30007F916F915F914F913F912F910F900BBECC
:101C40000F900FBE0F901F9018951F920F920FB616
:101C50000F9211240BB60F922F933F934F935F93E4
:101C60006F937F938F939F93AF93BF93EF93FF9364
:101C7000E0910A2FF0910B2F309709F01995FF9101
:101C8000EF91BF91AF919F918F917F916F915F91F4
:101C90004F913F912F910F900BBE0F900FBE0F9061
:101CA0001F9018951F920F920FB60F9211240BB62A
:101CB0000F922F933F934F935F936F937F938F93E5
:101CC0009F93AF93BF93EF93FF93E091082FF09111
:101CD000092F309709F01995FF91EF91BF91AF91BE
:101CE0009F918F917F916F915F914F913F912F9134
:101CF0000F900BBE0F900FBE0F901F9018951F9264
:101D00000F920FB60F9211240BB60F922F933F93A1
:101D10004F935F936F937F938F939F93AF93BF93F3
:101D2000EF93FF93E091062FF091072F309709F082
:101D30001995FF91EF91BF91AF919F918F917F91F5
:101D40006F915F914F913F912F910F900BBE0F902C
:101D50000FBE0F901F9018951F920F920FB60F9203
:101D600011240BB60F922F933F934F935F936F9372
:101D70007F938F939F93AF93BF93EF93FF93E091E4
:101D8000042FF091052F309709F01995FF91EF91ED
:101D9000BF91AF919F918F917F916F915F914F9183
:101DA0003F912F910F900BBE0F900FBE0F901F9081
:101DB00018951F920F920FB60F9211240BB60F9227
:101DC0002F933F934F935F936F937F938F939F9343
:101DD000AF93BF93EF93FF93E091022FF091032F06
:101DE000309709F01995FF91EF91BF91AF919F91B5
:101DF0008F917F916F915F914F913F912F910F90B4
:101E00000BBE0F900FBE0F901F9018951F920F9250
:101E10000FB60F9211240BB60F922F933F934F934F
:101E20005F936F937F938F939F93AF93BF93EF9342
:101E3000FF93E091002FF091012F309709F0199551
:101E4000FF91EF91BF91AF919F918F917F916F9192
:101E50005F914F913F912F910F900BBE0F900FBE4E
:101E60000F901F9018951F920F920FB60F9211248A
:101E70000BB60F922F933F934F935F936F937F9384
:101E80008F939F93AF93BF93EF93FF93E091FE2EB9
:101E9000F091FF2E309709F01995FF91EF91BF91C6
:101EA000AF919F918F917F916F915F914F913F91F2
:101EB0002F910F900BBE0F900FBE0F901F90189593
:101EC0001F93CF93DF93CDB7DEB7C05BD109CDBFF2
:101ED000DEBFCE0101968093D1209093D22043E0C3
:101EE00050E060E280E096E07FD448E150E068E0B6
:101EF00080E696E079D48091462F811130C080E849
:101F00009AE1A6E0B0E0C855DF4F88839983AA83A1
:101F1000BB83C85AD04088E4C055DF4F8883C05B7C
:101F2000D04089E190E0A0E0B0E0C455DF4F888365
:101F30009983AA83BB83CC5AD04060E483E0FDD36D
:101F4000BE0168557F4F80E894E00E949B1E81117E
:101F500004C081E08093462F02C080E0D3C280E2BB
:101F6000E0E0F6E0868380E090E00196803E2EE29D
:101F70009207D9F780E2E0E0F6E0858380E89AE115
:101F8000A6E0B0E00197A109B1090097A105B1054C
:101F9000C9F725E6E0E6F6E00AC0215009F47FC261
:101FA00080E090E00196803A3FE09307D9F7808582
:101FB00083FDF3CF1092CF201092D02082E090E0EA
:101FC0008093D3209093D42041E06BEC70E280E8C2
:101FD00094E00E94B01E811164C281E08093CC2005
:101FE00082E090E08093CF209093D0208EE190E02B
:101FF0008093D3209093D42010E0E0E6F6E00BC06D
:102000001F5F153609F44FC280E090E00196803AD8
:102010002FE09207D9F7808583FFF2CF41E06BEC88
:1020200070E280E894E00E94B01E81113EC280E020
:1020300090E00196803E3EE29307D9F789E1E0E126
:10204000F2E2DE015F9601900D928A95E1F7BE0102
:10205000685C7F4F8BE0FB0111928A95E9F788E479
:1020600088AF85E089AF82E090E08CAF9DAFCE0174
:102070004F968EAF9FAF89E190E022968EAF9FAFD3
:10208000229740E080E894E00E94B01E81110FC2C8
:10209000CE018D5B9F4F22E1E9E2F2E2DC0101908B
:1020A0000D922A95E1F725E029AF1AAE22E030E043
:1020B0002CAF3DAF28E428AF8EAF9FAF82E190E018
:1020C00022968EAF9FAF229740E0BE01685C7F4FA3
:1020D00080E894E00E94B01E8111EBC1CE018B5AC2
:1020E0009F4F25E0EBE3F2E2DC0101900D922A958F
:1020F000E1F78EAF9FAF85E090E022968EAF9FAF65
:10210000229740E0BE01685C7F4F80E894E00E9427
:10211000B01E8111D0C1CE01865A9F4F2CE0E0E461
:10212000F2E2DC0101900D922A95E1F725E029AF5A
:102130001AAE22E030E02CAF3DAF28E428AF8EAFDE
:102140009FAF8CE090E022968EAF9FAF229740E049
:10215000BE01685C7F4F80E894E00E94B01E811150
:10216000ACC1E0E6F6E00BC01F5F153608F0A7C172
:1021700080E090E00196803A2FE09207D9F78085C1
:1021800083FDF2CF1092CF201092D02086E090E015
:102190008093D3209093D42041E06BEC70E280E8F0
:1021A00094E00E94B01E81118CC1CE018A599F4FCC
:1021B00022E1ECE4F2E2DC0101900D922A95E1F7D4
:1021C00025E029AF1AAE22E030E02CAF3DAF28E485
:1021D00028AF8EAF9FAF82E190E022968EAF9FAF87
:1021E000229740E0BE01685C7F4F80E894E00E9447
:1021F000B01E811168C1E0E6F6E00BC01F5F153626
:1022000008F063C180E090E00196803A3FE09307D8
:10221000D9F7808583FDF2CF1092CF201092D02085
:1022200086E090E08093D3209093D42041E06BEC43
:1022300070E280E894E00E94B01E811148C1CE0196
:1022400088589F4F22E1EEE5F2E2DC0101900D9209
:102250002A95E1F725E029AF1AAE22E030E02CAF55
:102260003DAF28E428AF8EAF9FAF82E190E0229689
:102270008EAF9FAF229740E0BE01685C7F4F80E841
:1022800094E00E94B01E811124C1E0E6F6E00BC08C
:102290001F5F153608F01FC180E090E00196803A7C
:1022A0002FE09207D9F7808583FDF2CF1092CF20DF
:1022B0001092D02086E090E08093D3209093D42099
:1022C00041E06BEC70E280E894E00E94B01E811166
:1022D00004C11092CF201092D02086E090E080932D
:1022E000D3209093D42041E06BEC70E280E894E03E
:1022F0000E94B01E8111F3C01092CF201092D02006
:1023000086E090E08093D3209093D42041E06BEC62
:1023100070E280E894E00E94B01E8111E2C0CE011C
:1023200086579F4F2CE0E0E7F2E2DC0101900D922E
:102330002A95E1F725E029AF1AAE22E030E02CAF74
:102340003DAF28E428AF8EAF9FAF8CE090E022969F
:102350008EAF9FAF229740E0BE01685C7F4F80E860
:1023600094E00E94B01E8111BEC0E0E6F6E00BC012
:102370001F5F153608F0B9C080E090E00196803A02
:102380003FE09307D9F7808583FDF2CF1092CF20ED
:102390001092D02086E090E08093D3209093D420B8
:1023A00041E06BEC70E280E894E00E94B01E811185
:1023B0009EC0CE018A569F4F22E1ECE7F2E2DC019B
:1023C00001900D922A95E1F725E029AF1AAE22E09F
:1023D00030E02CAF3DAF28E428AF8EAF9FAF82E155
:1023E00090E022968EAF9FAF229740E0BE01685CDE
:1023F0007F4F80E894E00E94B01E81117AC0E0E631
:10240000F6E00BC01F5F153608F075C080E090E065
:102410000196803A2FE09207D9F7808583FDF2CFAD
:102420001092CF201092D02086E090E08093D320AD
:102430009093D42041E06BEC70E280E894E00E943D
:10244000B01E81115AC01092CF201092D02086E089
:1024500090E08093D3209093D42041E06BEC70E225
:1024600080E894E00E94B01E811149C01092CF20F4
:102470001092D02086E090E08093D3209093D420D7
:1024800041E06BEC70E280E894E00E94B01E8111A4
:1024900038C081E0809331331092323333C080E012
:1024A00031C080E02FC080E02DC080E02BC080E0F4
:1024B00029C080E027C080E025C080E023C080E004
:1024C00021C080E01FC080E01DC080E01BC080E014
:1024D00019C080E017C080E015C080E013C080E024
:1024E00011C080E00FC080E00DC080E00BC080E034
:1024F00009C080E007C080E005C080E003C080E044
:1025000001C080E0C055DF4FCDBFDEBFDF91CF916E
:102510001F910895CF93DF93CDB7DEB76097CDBFFE
:10252000DEBFE0E6F6E0808583FD2DC01092CF206F
:102530001092D02080E190E08093D3209093D4201B
:10254000CE0101968093D1209093D22041E06BEC94
:1025500070E280E894E00E94B01E8C818093323358
:1025600088E0FE013796A3E3B3E301900D928A95CC
:10257000E1F781E393E30E940008E0E6F6E080855E
:1025800083FFFDCF02C080E001C081E06096CDBF37
:10259000DEBFDF91CF910895CF93DF93CDB7DEB744
:1025A000E797CDBFDEBF26E1EEE8F2E2CE0101966D
:1025B000DC0101900D922A95E1F7BE01695E7F4F23
:1025C0002BE0FB0111922A95E9F728E42F8B25E0F7
:1025D000288F22E030E02B8F3C8F8D8F9E8F86E1FD
:1025E00090E08F8F98A340E080E894E00E94B01EB6
:1025F00081112AC086E1E4EAF2E2DE0192960190BE
:102600000D928A95E1F785E0888F198E82E090E03F
:102610008B8F9C8F88E48F8BCE0182968D8F9E8FBF
:1026200086E190E08F8F98A340E0BE01695E7F4F06
:1026300080E894E00E94B01E811108C08FED92E204
:102640000E942B2881E003C080E001C080E0E79673
:10265000CDBFDEBFDF91CF910895CF93DF9300D040
:102660001F92CDB7DEB78FEF80937000809371001B
:102670008093720080937300809374008093750040
:102680008093760064E081E490E00E94811C6CE11C
:1026900070E082E00E945E1D8A836DE170E082E05E
:1026A0000E945E1D898389819A81019621F480E4CC
:1026B00093E289839A8389819A818B839C83E0E664
:1026C000F0E082838C8183838FB7F894E0E5F0E0BB
:1026D0009081926090838FBF818181FFFDCF8FB702
:1026E000F894A0E5B0E016969C911697997F1696FF
:1026F0009C931697E0E6F0E090E895839BEB968339
:1027000016969C911697946016969C939081916072
:1027100090838FBF61E080E490E00E94811C8FB7BE
:10272000F894E0E5F0E090819E7F90838FBF24963F
:10273000CDBFDEBFDF91CF9108959FB7F894E82F0A
:10274000F0E0E059FF4F60958081682360839FBF70
:1027500008959FB7F894E82FF0E0E059FF4F80818B
:10276000682B60839FBF0895863011F468E101C033
:1027700060E0E0E5F0E0818181FD24C08FB7F8944E
:102780009081926090838FBF818181FFFDCF8FB751
:10279000F894A0E5B0E016969C911697997F16964E
:1027A0009C931697E0E6F0E090E895839BEB968388
:1027B00016969C911697946016969C9390819160C2
:1027C00090838FBF636084E490E00E94811C60E48A
:1027D00080E0B3CF089560E480E0BBDF60E084E494
:1027E00090E00C94811C0895CF93DF93FC017096C8
:1027F00020E030E0C62FD0E0DE01022E02C0B59509
:10280000A7950A94E2F7A0FD50832F5F3F4F3196C2
:102810002830310589F740FF0AC041FF03C0FC01A1
:10282000658302C0FC016683FC01618302C0FC0178
:102830006283DF91CF910895CF93DF93EC01C03C89
:1028400028E0D20721F468E083E077DF06C0803C0F
:10285000994019F468E084E070DF888180618883A2
:10286000DF91CF910895FF920F931F93CF93DF9342
:10287000EC01F42EB901A80100E016E32EE631E0E8
:102880000E94681D88234CF088819F2D990F990F15
:102890009C70837FF92EF82AF882DF91CF911F91E7
:1028A0000F91FF900895FB018081E82FE695E69552
:1028B000E69540E2E49FF0011124FA5F877021E081
:1028C00030E0A90102C0440F551F8A95E2F7468304
:1028D0000895FB018081E82FE695E695E69540E2B4
:1028E000E49FF0011124FA5F877021E030E0A90134
:1028F00002C0440F551F8A95E2F745830895089555
:1029000008950895089508950895089508950895DF
:1029100008950895089580915E30815080935E30CF
:10292000089580E0089580E008956DE670E380E00A
:102930000C94ADA7089510925E3010926A301092F8
:102940006B3081EA8093603080E280936130109236
:10295000623010926330109264301092653082E0E1
:1029600090E08093663090936730109268301092B8
:10297000693080E092ECA1E0B0E080936D309093FC
:102980006E30A0936F30B09370301092713010920F
:10299000723088E0809373306DE670E380E00E94CF
:1029A000ADA780E00E94542C882329F090915E30DE
:1029B0009F5F90935E300895FF920F931F93CF9384
:1029C000DF9380914B2F81119CC00E94A824882303
:1029D00051F0C0914C2FD0914D2F0E94B524C817B3
:1029E000D90759F48EC0C0914C2FD0914D2F0E9421
:1029F000B024C817D90709F484C0DFB7F894C09190
:102A00004E2FEC2FF0E0EE0FFF1FE15BF04D8081C9
:102A10009181892B09F58091482F9091492F01963A
:102A20008093482F9093492F0E94A824811107C0BA
:102A30008091482F9091492F8436910558F00E943B
:102A4000A824882349F08091482F9091492F803203
:102A5000934010F4DFBF55C01092482F1092492FB9
:102A600080914A2F811106C081E0C11180E08093DE
:102A70004E2F04C081E0C11180E0C82F81E0809317
:102A80004B2FDFBFD0E0FE01EE0FFF1FE15BF04DEB
:102A9000FF24F394808191818034910509F4F12C15
:102AA000FF2091F00E94A824882339F00E94B524C9
:102AB00080934C2F90934D2F0BC00E94B024809395
:102AC0004C2F90934D2F04C010924C2F10924D2FED
:102AD000FE01EE0FFF1FE15BF04D20813181AE0161
:102AE0000024569547950794569547950794542F7B
:102AF000402D4C5A504D07E815E16F2D81E80E949A
:102B00006725DF91CF911F910F91FF90089581115B
:102B100015C020914E2F81E090E0222311F080E03B
:102B200090E0FC01EE0FFF1FE15BF04D108211827F
:102B300010924A2F10924B2F80E03ECF089580E0F4
:102B40003BCF08950F931F93862F90916C30911176
:102B50001EC040916A3050916B30209168303091A6
:102B600069304217530799F020916A3030916B30E9
:102B700020936830309369300AEE15E12AE030E0A6
:102B800040E650E360E00E94672580936C301F911F
:102B90000F9108952FB7F894662359F080916A3009
:102BA00090916B30482B592B40936A3050936B3087
:102BB0000CC080916A3090916B30409550954823BD
:102BC000592340936A3050936B302FBF63E880E005
:102BD000B9CF089510926C3080916A3090916B302B
:102BE000837880936A3090936B30E8E6F0E38081DD
:102BF0009181837880839183642F80E0A3CF0895AF
:102C000080915D30815080935D3080915D300E9475
:102C10005B2C10925C300895809157338823ECF43C
:102C20008076803209F045C080915833813209F0B6
:102C300042C080915D3390915E330797F1F58DE648
:102C400090E380935F339093603387E090E08093CC
:102C500061339093623381E008958076803279F514
:102C600080915833803219F08232D9F02AC0809195
:102C70005D3390915E33079731F585E994E1809358
:102C80006333909364338DE690E380935F33909346
:102C9000603387E090E0809361339093623381E00A
:102CA000089560915933617080E00E94602C81E04A
:102CB000089580E0089580E0089580E0089580E020
:102CC000089580E0089580E0089540E150E061E0DB
:102CD00080E060CF089540E450E061E080E05ACFAA
:102CE00008954FB7F8942091D52F3091D62FE091C9
:102CF000D72FF0E0EE0FFF1FE852F04D8081918159
:102D0000821B930B4FBF0895ECDF21E0892B09F460
:102D100020E0822F08950F931F93CF93DF934FB737
:102D2000F8945091D72F8091D42F811110C0209109
:102D3000D52F3091D62FC52FD0E0FE01EE0FFF1F0B
:102D4000E852F04D808191812817390718F44FBF60
:102D500080E028C01092D52F1092D62F81E051111B
:102D600080E08093D72F81E08093D42F4FBF80E005
:102D7000CBDF882319F080E00E942CA8AE0100244C
:102D8000569547950794569547950794542F402D8F
:102D90004452504D09E017E120E430E061E082E068
:102DA0000E946725DF91CF911F910F910895109296
:102DB0005D3010924B2F10924A2F10924E2F10928E
:102DC0004F2F1092502F1092512F1092522F10927D
:102DD0004C2F10924D2F80E0EFDD1092D42F1092E7
:102DE000D72F1092D82F1092D92F1092D52F109242
:102DF000D62F80E090DF882359F090915D309F5F5F
:102E000090935D3090915D30913011F490935C30EF
:102E100008950F931F93942F811129C08091D72F6C
:102E2000E1E08111E0E061157105B1F4F0E000240A
:102E3000F695E7950794F695E7950794FE2FE02D14
:102E4000AF014452504D09E017E120E430E061E069
:102E5000892F0E9467250BC0F0E0EE0FFF1FE8529C
:102E6000F04D608371831092D42F80E054DF1F9166
:102E70000F91089580E048CF08951F93CF93DF937B
:102E800011E080917330893009F010E060E070E06B
:102E90003FB7F8948091D52F9091D62F2091D72FBE
:102EA0003FBF30E0F901EE0FFF1FE852F04D4081C7
:102EB00051818417950730F080915C308111E8CF03
:102EC00090E020C0F9010024F695E7950794F69567
:102ED000E7950794FE2FE02DE80FF91FE452F04D1F
:102EE0002081EB01C22B01968093D52F9093D62F92
:102EF00080E011DF112321F07C2F662710E0C8CF7E
:102F00008C2F9D2FDF91CF911F91089580E0B5CF39
:102F100008955FB7F89420914E2FE22FF0E0EE0F66
:102F2000FF1FE15BF04D8081918141E0211140E084
:102F3000E42FF0E0EE0FFF1FE15BF04D20813181C7
:102F40008034910589F460914B2F61110DC060911F
:102F50004A2F611109C081E080934A2F40934E2F80
:102F600020E430E080E090E05FBF280F391F80E868
:102F700090E0821B930B0895CCDF21E0892B09F4AC
:102F800020E0822F089580E0F7CF08951F93CF931C
:102F9000DF93162FC72FD1E080917330893009F06D
:102FA000D0E080E0E9DF811107C080915C308111C1
:102FB000F8CF80E090E02BC06FB7F89420914E2FAF
:102FC00030E0F901EE0FFF1FE15BF04D8081918150
:102FD000AC014F5F5F4F40835183F9010024F695A8
:102FE000E7950794F695E7950794FE2FE02D8E0F51
:102FF0009F1FFC01EC5AF04D10836FBFDD2329F0B9
:103000001C2FCC0FCC0BD0E0CCCF81E090E0DF9137
:10301000CF911F910895BC0180E0B8CF08957F92B1
:103020008F929F92AF92BF92CF92DF92EF92FF92D8
:103030000F931F93CF93DF936B018A0180917330BD
:10304000893011F4000F111F6894AA24A6F8B12C3E
:1030500080E092DF811107C080915C308111F8CF50
:10306000802F912F38C07FB6F89480904E2F912CEE
:10307000F401EE0FFF1FE15BF04DE080F180C50130
:103080008E199F09E8018017910708F4EC01C4012B
:103090000024969587950794969587950794982F81
:1030A000802D8E0D9F1DAE01B6018C5A904D0E9451
:1030B00000A9F401EE0FFF1FE15BF04DEC0EFD1EC9
:1030C000E082F1827FBECC0EDD1E0C1B1D0B09F0D1
:1030D000BFCF80E090E0DF91CF911F910F91FF90E3
:1030E000EF90DF90CF90BF90AF909F908F907F90A8
:1030F0000895AB01BC0180E092CF0895E091793052
:10310000F0917A300190F081E02D228133812E0FF1
:103110003F1FFC014081E40FF11DE217F307A0F40B
:1031200081818430A1F0861306C014C0818184306F
:10313000A1F08617A9F08081E80FF11DE217F307CF
:10314000A8F380E090E0089580E090E0089580E0AA
:1031500090E008958E2F9F2F089580E090E00895CD
:103160008E2F9F2F0895809159338F770C94AA2426
:10317000089590917B30992381F1E0917930F0911D
:103180007A300190F081E02D9481891740F5E09329
:103190007730F0937830228133812E0F3F1FE21772
:1031A000F307F8F49181943061F49281981309C087
:1031B0009381961306C0E0937730F093783081E0E6
:1031C00008959081E90FF11DE217F30758F3E0939A
:1031D0007730F093783080E0089580E0089580E0C3
:1031E000089580E00895FF920F931F93CF93DF938C
:1031F000C82F60E0BEDFF82E882381F1A0917930DE
:10320000B0917A30EC2FF0E0EE0FFF1F12962D9167
:103210003C911397E20FF31F00811181D80116969C
:10322000ED91FC9117971995682F8C2FA2DFF82E3E
:103230008823A1F0C0917730D091783065E0CE013D
:103240005DDFEC01009721F08A810E942826F6CFED
:10325000D8011296ED91FC91139719958F2DDF915E
:10326000CF911F910F91FF9008951F93CF93DF93FC
:10327000182F7FDF882341F1C0917730D0917830CB
:1032800065E0CE013BDFEC01009749F04C815D81A8
:103290006B818A810E94C1248111F2CF15C0A09157
:1032A0007930B0917A30812F90E0880F991F129673
:1032B000ED91FC911397E80FF91F0190F081E02D3B
:1032C0000190F081E02D1995DF91CF911F91089524
:1032D000809177309091783008950C94322408953D
:1032E000CF9380917B308823C1F0E0917930F091C9
:1032F0007A300190F081E02D8481882371F0C0E064
:103300008C2F71DFCF5FE0917930F0917A300190AE
:10331000F081E02D8481C81798F310927B3081E012
:1033200090E080937C3090937D30CF9108950E94FF
:10333000F523D6CF0895CF9380917B30882341F138
:10334000E0917930F0917A30A081B18114968C911E
:103350008823F1F0C0E08C2F90E0880F991F028045
:10336000F381E02DE80FF91F0190F081E02D00843A
:10337000F185E02D309709F01995CF5FE091793014
:10338000F0917A30A081B18114968C91C81718F30E
:10339000CF910895EF92FF920F931F93CF93DF93F6
:1033A000109261331092623310926333109264333F
:1033B00010926533109266332091573322230CF01C
:1033C00085C280915D3390915E33009709F083C28E
:1033D00079C22F7109F0A4C030915833363089F08A
:1033E000383009F491C031119BC0029741F462E07A
:1033F00070E08CE790E30E94B82401E0E6C100E0B1
:10340000E4C12091593330915A33832F9927823068
:10341000910581F08330910579F1019709F06CC035
:103420008091002090910120DC016C9170E00E945D
:10343000B82451C0E0910020F09101208189281723
:1034400008F05CC0C9019927880F991F880F991F40
:10345000E0910220F0910320E80FF91F8081918113
:10346000FC01628173810E94B824E0915F33F09186
:10347000603382E081832FC033272130310589F00A
:1034800048F02230310509F42BC22330310509F40C
:103490002BC236C064E070E088E091E20E94B8245C
:1034A0001AC08FEF90E227E0382FACEEB0E2E82FA1
:1034B000F92F819190E08D939D938E2F831B82171E
:1034C000C0F3220F62E0620F6093EA2070E08AEEA0
:1034D00090E20E94B82480915D3390915E332091F8
:1034E0006133309162338217930760F480936133C4
:1034F0009093623301E069C100E067C100E065C1FB
:1035000000E063C101E061C1019741F461E070E056
:103510008BE790E30E94B82401E057C100E055C159
:10352000213009F040C0309158333A30E1F501972D
:10353000A1F580917B30882391F1C0915B33D091CC
:103540005C33E0907930F0907A30D701ED91FC91C6
:103550008481C81730F560E08C2F0BDE082F88239C
:1035600009F433C1CE019927880F991FD70112960C
:10357000ED91FC911397E80FF91F0190F081E02D78
:103580000680F781E02D19958093763061E070E038
:1035900086E790E30E94B82418C100E016C100E05D
:1035A00014C100E012C1223009F011C1209158333A
:1035B000211106C1029789F480915B330E94222574
:1035C00090E0809374309093753062E070E084E70F
:1035D00090E30E94B82401E0F8C000E0F6C02F712B
:1035E00009F091C080915833833009F4EBC018F48E
:1035F0008130B1F088C0853019F0893061F183C025
:1036000080915D3390915E33892B41F483EB98E197
:10361000809363339093643301E0D7C000E0D5C05A
:1036200080915D3390915E33892B89F48091593379
:1036300090915A33019769F480917C3090917D305C
:103640008D7F80937C3090937D3001E0BEC000E0A0
:10365000BCC000E0BAC080915D3390915E33892B8D
:1036600009F047C00E94AD24882309F444C020918A
:10367000593330915A333327E0910020F0910120E3
:10368000818990E082179307C0F12ADE8091593337
:1036900090915A3380937B30882389F19927815008
:1036A000904C880F991F880F991FE0910220F0918C
:1036B0000320E80FF91FE0937930F0937A300190FE
:1036C000F081E02D84818823E1F0C0E060E08C2F60
:1036D000CCDD082F882309F478C0CF5FE0917930E2
:1036E000F0917A300190F081E02D8481C81770F359
:1036F0006CC000E06AC000E068C000E066C001E0A5
:1037000064C001E062C0213009F5809158338B30EC
:10371000E9F480915D3390915E33892B99F4809127
:103720007B30882389F0C0915B33D09159338C2F43
:103730005ADD082F882309F448C06D2F8C2F95DDA2
:10374000082F43C000E041C000E03FC0223009F034
:103750003EC080915833813019F08330B9F034C0C5
:1037600080915D3390915E33892B61F48091593360
:1037700090915A33892B41F480915B330E943D250F
:10378000082F23C000E021C000E01FC080915D33FE
:1037900090915E33892B81F48091593390915A3303
:1037A000892B61F4CBE5D3E388810E94EF258881E2
:1037B0000E944526082F09C000E007C000E005C0B0
:1037C00000E003C000E001C000E0011191C0809161
:1037D00057338F718130C1F580917B308823A1F1FF
:1037E000C0915B33D0915C330091793010917A3085
:1037F000D801ED91FC918481C81730F560E08C2FE1
:10380000B8DC882309F1CE019927880F991FD801C8
:103810001296ED91FC911397E80FF91F0081118129
:10382000D8011696ED91FC9117971995682F8C2F5A
:10383000A0DC882349F0D8011496ED91FC911597EE
:103840001995082F811154C0809157338F718230A0
:10385000D9F580917B30882389F1E0917930F0911E
:103860007A30A081B18114968C91882349F110E0BF
:10387000212F30E0220F331F0280F381E02DE20F71
:10388000F31FC081D181EE81FF811995682F812FAF
:1038900070DC082F882361F1EC81FD811995082FD8
:1038A000811126C01F5FE0917930F0917A30A081BC
:1038B000B18114968C911817D8F21AC000E018C084
:1038C00000E016C000E014C000E012C0822F807635
:1038D00009F07DCF84CE322F307609F078CF79CDC4
:1038E00024E08AEF90E2E0CD27E08EEE92E2DCCD9C
:1038F000802FDF91CF911F910F91FF90EF9008954E
:1039000008951BBEFC0128ED24BF60830895E0EC00
:10391000F1E027852223ECF3ECECF1E02081286034
:103920002083DC01B05F8C919081977F9083089514
:10393000E0ECF1E087858823ECF3E0ECF1E08785AB
:1039400081FF06C086E3828761E08BEC91E0D9CFEE
:103950000895E0ECF1E097859923ECF3ECECF1E0CD
:10396000908198609083A82FB0E0B05F6C938081C5
:10397000877F80830895FF920F931F93CF93DF93E8
:10398000182FF92EC62FE0ECF1E00285D1DFE0EC34
:10399000F1E027852223ECF36C2F812FDADFC0ECD6
:1039A000D1E01A82F982188385E38A8761E08BEC83
:1039B00091E0A7DF0A87DF91CF911F910F91FF90D0
:1039C0000895EF92FF920F931F93CF93DF938C0193
:1039D000E0ECF1E087858823ECF3780180E2E80EE3
:1039E000F11CE8018C2F801B6991B3DFCE15DF0538
:1039F000C9F7DF91CF911F910F91FF90EF9008953C
:103A00001F93CF93DF93E0ECF1E097859923ECF3DC
:103A100020E2829FC0011124C0ECD1E01A82998378
:103A200088831A8585E38A8761E08BEC91E069DF02
:103A30001A87DF91CF911F910895CF92DF92EF9275
:103A4000FF920F931F93CF93DF93EC017B018A01C9
:103A50004115510551F1CE018F719927892BB1F490
:103A60000032110598F0C701ACDFCE01969587951D
:103A7000929582958F7089279F708927C1DFA096C4
:103A800080E2E80EF11C005211090CC06E01EFEF4C
:103A9000CE1ADE0AF70161917F01CE016CDF015081
:103AA0001109E60101151105B1F6DF91CF911F91C2
:103AB0000F91FF90EF90DF90CF9008954091CA0151
:103AC000E62FF72F8093CA0184914093CA0108958D
:103AD000CF92DF92EF92FF920F931F93CF93DF93DA
:103AE000EC016A017B01DB01CA010197A109B1095F
:103AF000BC01CD01600F711F821F931FA7019601AA
:103B00000E94CBA82138310541055105F8F4213434
:103B100060F4213260F4213160F4293060F4253002
:103B200060F4233060F090E00BC093E009C092E0B5
:103B300007C092E805C091E003C091E801C090E899
:103B400088818C77892B888381E001C08FEFDF919A
:103B5000CF911F910F91FF90EF90DF90CF9008953C
:103B6000CF93DF93E0917E30F0917F30848183FFAB
:103B700008C08860848383E0838386EF80938830E5
:103B800089C0982F947131F083E083838FEF809305
:103B9000883080C086FF45C0A0918030B0918130D0
:103BA000809182309091833014962D913C9115979D
:103BB000821793076CF49C012F5F3F4F2093823054
:103BC00030938330A80FB91F11968C91878362C000
:103BD000809184309091853018962D913C91199761
:103BE00082179307C8F420918630222321F0868122
:103BF000816086834FC016962D913C911797AC013A
:103C00004F5F5F4F4093843050938530D901A80FA8
:103C1000B91F8C9187833EC083E0838310928830E4
:103C200039C08823A4F5A0918030B0918130809173
:103C300084309091853018962D913C911997821778
:103C40009307F8F416964D915C9117979C012F5F9E
:103C50003F4F20938430309385306781EA01C80F4D
:103C6000D91F688318968D919C9119972817390749
:103C700018F482E083830EC087E08383109288303B
:103C800009C083E0838389EF8093883003C08BEF82
:103C900080938830DF91CF9108951F920F920FB6D5
:103CA0000F9211240BB60F922F933F934F935F9374
:103CB0006F937F938F939F93AF93BF93EF93FF93F4
:103CC0004FDFFF91EF91BF91AF919F918F917F91C6
:103CD0006F915F914F913F912F910F900BBE0F907D
:103CE0000FBE0F901F9018951F920F920FB60F9254
:103CF00011240BB60F922F933F934F935F936F93C3
:103D00007F938F939F93AF93BF93EF93FF9328DF9E
:103D1000FF91EF91BF91AF919F918F917F916F91A3
:103D20005F914F913F912F910F900BBE0F900FBE5F
:103D30000F901F901895FC01DB0114968C918583E0
:103D400088EB818381E084831092873010928830E1
:103D5000E0EAF0E0828182608283789480E00895D6
:103D6000009709F453C06115710509F451C0FB01B6
:103D700032852091873002C031114CC02111FCCF17
:103D80002FB7F89431E03093873030E830938830A3
:103D90002FBF80937E3090937F30609380307093FC
:103DA00081301092823010928330109284301092C1
:103DB000853040938630FB012081522F550F24819E
:103DC0003581232B11F4411103C0FC01568303C03C
:103DD0005160FC015683E8E8F0E380818038E9F324
:103DE000E0917E30F0917F3084818370813049F0A2
:103DF000AEE7B0E3ED91FC9111978481837081303F
:103E0000C9F78091883010928730089588EF08951F
:103E100088EF089586EF0895FC01818185FFFDCF2D
:103E2000608380E090E00895FC0181818823ECF7B5
:103E3000808108954F925F926F927F928F929F92AE
:103E4000AF92BF92CF92DF92EF92FF920F931F93A8
:103E5000CF93DF93EC014A015B0128013901D901BD
:103E6000C801689412F8B695A7959795879516940A
:103E7000D1F7B901A801032E36E1769567955795DC
:103E800047953A95D1F7302D2C8122FD08C0B69583
:103E9000A795979587957695679557954795881532
:103EA0009905AA05BB0508F4A6C084169506A606C2
:103EB000B70608F4A2C08C8182FD04C0880C991C4E
:103EC000AA1CBB1CC301B201A50194010E94CBA88E
:103ED0002F3F31054105510508F491C0C12CD12C6B
:103EE0007601CA9419EF05C02C153D054E055F05F6
:103EF00068F0CC0CDD1CEE1CFF1C1D3F14F4689414
:103F0000C0F81F5F173081F7212F50C0212F1123D8
:103F10000CF04CC0D501C401880F991FAA1FBB1F0C
:103F2000880F991FAA1FBB1F880F991FAA1FBB1FAD
:103F3000481A590A6A0A7B0A1E3FF4F46DEF7FEFB4
:103F4000611B710917FD739504C0440C551C661C58
:103F5000771C6A95D2F7D501C401B695A7959795B8
:103F60008795BC01CD01640D751D861D971DA501AA
:103F700094010E94CBA836C023E0210FD501C401D3
:103F800004C0880F991FAA1FBB1F2A95D2F79C0156
:103F9000AD01B695A79597958795BC01CD01640DA8
:103FA000751D861D971D0E94CBA81CC02D5FD501D5
:103FB000C40104C0880F991FAA1FBB1F2A95D2F7FE
:103FC0009C01AD01B695A79597958795BC01CD014C
:103FD000640D751D861D971D0E94CBA821503109C7
:103FE00041095109832F8F701295107F182B1F8361
:103FF0002E8381E018C080E016C080E014C0D50197
:10400000C401880F991FAA1FBB1F880F991FAA1FE1
:10401000BB1F880F991FAA1FBB1F481A590A6A0A9B
:104020007B0A19EF8BCFDF91CF911F910F91FF90FA
:10403000EF90DF90CF90BF90AF909F908F907F9048
:104040006F905F904F9008950F931F93CF93DF93DE
:10405000EC018B01009709F403C1803C910529F420
:1040600060E180E00E949D13FBC0C03881E0D8076A
:1040700029F462E080E00E949D13F2C0C115E1E0E6
:10408000DE0729F461E080E00E949D13E9C0C0389A
:10409000F3E0DF0729F461E081E00E949D13E0C0B6
:1040A000C03983E0D80729F461E082E00E949D13C3
:1040B000D7C0C115E2E0DE0729F462E081E00E948A
:1040C0009D13CEC0C034F2E0DF0729F462E082E045
:1040D0000E949D13C5C0C03283E0D80729F464E074
:1040E00082E00E949D13BCC0C115E8E0DE0729F400
:1040F00061E083E00E949D13B3C0C115F9E0DF07C2
:1041000029F461E084E00E949D13AAC0C1158AE0F1
:10411000D80729F461E085E00E949D13A1C0C11574
:10412000EBE0DE0729F461E086E00E949D1398C071
:10413000C034F8E0DF0729F462E083E00E949D13B9
:104140008FC0C03489E0D80729F462E084E00E947F
:104150009D1386C0C034EAE0DE0729F462E085E002
:104160000E949D137DC0C039F8E0DF0729F464E0A8
:1041700083E00E949D1374C0C03989E0D80729F4F8
:1041800064E084E00E949D136BC0C039EAE0DE0762
:1041900029F464E085E00E949D1362C0C039FBE011
:1041A000DF0729F464E086E00E949D1359C0C03CFB
:1041B00088E0D80729F468E083E00E949D1350C08E
:1041C000C03CE9E0DE0729F468E084E00E949D132A
:1041D00047C0C03AF8E0DF0729F460E183E00E94BD
:1041E0009D133EC0C03A89E0D80729F460E184E01D
:1041F0000E949D1335C0C03AEAE0DE0729F460E171
:1042000085E00E949D132CC0C03AFBE0DF0729F433
:1042100060E186E00E949D1323C0C03B88E0D80780
:1042200029F460E283E00E949D131AC0C03BE9E0DC
:10423000DE0729F460E284E00E949D1311C0C038BB
:10424000F4E0DF0729F460E483E00E949D1308C0D6
:10425000C03A84E0D80721F460E485E00E949D1311
:104260008D818F738D83F80194818581892B96814F
:10427000992311F098E001C090E0892B8D83F8011B
:10428000408151816281738100E016E32EE631E0C6
:10429000CE01D0DD9C8198609C839C8190619C8341
:1042A000DF91CF911F910F910895811118C09091C6
:1042B000E832992389F09FB7F894E2E5F3E320818F
:1042C000215020839FBF08C09FB7F894E2E5F3E335
:1042D00020812F5F20839FBF8093E83208959091C3
:1042E000E832992389F3F8CF0F93E8ECF4E080816A
:1042F0008F7D808380818F7D8083ECE8F2E302E014
:10430000059310928E3210928F3200E2069300E4F1
:104310000693E4E8F2E300E2069300E406931092C9
:1043200063331092643310926533109266331092A7
:10433000613310926233109268320F9108950F9397
:1043400085E080936832EDE8F2E304E00593E5E868
:10435000F2E304E005930F9108950F9383E08093B7
:10436000683210928E3210928F32ECE8F2E302E063
:1043700006930F910895E0916333F0916433309781
:1043800009F0199508950F93CF93DF9380916832C8
:10439000833019F4F0DFA8DF60C08091643290911F
:1043A0006532C0916133D0916233C81BD90B71F56E
:1043B0002091663230916732820F931F809366326C
:1043C0009093673220915D3330915E33821793076B
:1043D00021F080918930882341F084E08093683215
:1043E000E4E8F2E302E0069338C0E0916533F0912F
:1043F0006633309799F01995882381F010926432D2
:1044000010926532C0916133D0916233C034D105CE
:1044100028F010928930C0E4D0E003C081E080939E
:104420008930C0938E32D0938F32809164329091D4
:10443000653220915F3330916033280F391F20930C
:10444000903230939132C80FD91FC0936432D09309
:104450006532ECE8F2E302E00693DF91CF910F9131
:104460000895FC018181877090E0FC013197E7306D
:10447000F10520F4E250FF4F0C94EDA888E090E0A5
:10448000089580E290E0089580E490E0089580E847
:1044900090E0089580E091E0089580E092E0089532
:1044A0008FEF93E0089580E190E00895282F2F701A
:1044B00030E0220F331F992787FD90958827990FA9
:1044C000881F9927820F931F02979C01220F331F89
:1044D000220F331F220F331F820F931F86539E4CD0
:1044E00008950F93CF938091CC0480FF63C081E047
:1044F0008093CC04E4E8F2E300E80693ECE8F2E30E
:1045000000E806938093CA04E4E8F2E300E106932E
:1045100080916832882329F08350823008F42BDFA1
:10452000E3DE8091863290918732089709F044C08B
:1045300088E0E4E2F2E3A7E5B3E301900D928A9507
:10454000E1F7E8ECF4E08081806280838081806222
:1045500080830E94CA19C82F811103C0F0DEC1E018
:104560002CC08091573388236CF4109266321092DD
:104570006732109264321092653282E08093683222
:1045800002DF1BC020915D3330915E33232B11F489
:10459000E4DE13C0109266321092673210926432D9
:1045A0001092653281E080936832E4E8F2E302E041
:1045B000069303C0C0E001C0C1E08C2FCF910F91E2
:1045C0000895BF92CF92DF92EF92FF920F931F93C5
:1045D000CF93DF93B82E6ADFEC011B2D111F11273B
:1045E000111F8B2D8F70E82EF12CEE0CFF1CE10EAD
:1045F000F11CC701880F991F880F991F880F991FF9
:104600009C012C573D4C7901C9012BDF6C01112312
:1046100009F45BC0D70116962D913C9117978D81B7
:104620009E81280F391F2D833E838B819C81281703
:104630003907C9F1FC01E21BF30B9F012115F4E0DE
:104640003F0740F02FEF33E0C901B6010E94B7A841
:10465000281B390B888181FF0AC0C901B6010E945D
:10466000B7A841E0892B09F040E0942F01C090E009
:10467000888190FB81F98883D70116961D921C9240
:10468000179712962D933C93139729813A818D8128
:104690009E81820F931F14968D939C931597F7011B
:1046A00002E0069398C0888181FF87C08D7F888350
:1046B000D70116961D921C92179712961D921C9266
:1046C0001397F70102E0069386C0D70112960D9169
:1046D0001C911397888182FF15C0E981FA812D8191
:1046E0003E818B819C81B6010E94B7A8B0E4BB9E3D
:1046F000B0011124665B7F4CAC01CF01820F931F88
:104700000E9400A92D813E81200F311F2D833E8301
:10471000EB81FC81E217F30710F4ED83FE83D701F0
:1047200016968D919C9117978017910709F045C0B7
:104730008D819E81E817F90709F43FC0E81BF90B4A
:10474000E115B4E0FB0748F0EFEFF3E0CF01B6016D
:104750000E94B7A8E81BF90B06C0CF01B6010E9462
:10476000B7A8E81BF90BD70112961D921C9213975C
:10477000EC15FD0578F4888184608883B0E4BB9EE5
:10478000C0011124865B9F4CF70184839583C68208
:10479000D7820FC029813A818D819E81820F931F1C
:1047A000D70114968D939C9315971696ED93FC93D1
:1047B0001797F70102E006930EC0888180FF0BC0B7
:1047C0008E7F8883EF81F885309729F06D817E8117
:1047D0004B2D80E01995DF91CF911F910F91FF90A4
:1047E000EF90DF90CF90BF900895CF93CFB7F8941C
:1047F000E1ECF4E080818E7F80831092C00410820F
:104800000E94EB1380E051DD8FB7F894E6E5F3E307
:104810009081915090838FBFCFBFCF910895CF9358
:10482000CFB7F89481E041DDEAECF4E080E48083E6
:1048300080E28083E1ECF4E0808181608083A9ECF8
:10484000B4E08C9182608C93E8ECF4E08081806429
:1048500080838C9181608C93808180688083CFBFBE
:10486000CF910895CF93DF93C0E6D0E0188280E324
:104870000E94B413E0ECF4E080818064808381E0E6
:104880008883CFB7F89480E090E0FC01EE0FFF1F23
:10489000EE0FFF1FEE0FFF1FEB57FD4C108201962E
:1048A0008C30910591F780E090E0FC01EE0FFF1F46
:1048B000EE0FFF1FEE0FFF1FE80FF91FE653FE4C30
:1048C00020812E7F208301968A30910571F76AE15D
:1048D00070E082E0F3D88F3F19F08093FA0403C0B0
:1048E0008FE18093FA046BE170E082E0E7D88F3FBC
:1048F00019F08093FB0403C08FE18093FB04E0EC8C
:10490000F4E08081856080838081806880838081FD
:104910008061808384E892E38683978380818062CC
:1049200080838FEF8093C504E8ECF4E080818160A0
:1049300080831092E8328FB7F894E6E5F3E3908134
:104940009F5F90838FBF6BDFCFBFDF91CF910895C3
:1049500080E008958093C30408958091C30408956E
:104960008091E4329091E532089580E090E00895DE
:1049700080935F33909360336093613370936233BD
:104980000895E82FEF70F0E0EE0FFF1F992787FDE5
:1049900090958827990F881F9927E80FF91FEE0F28
:1049A000FF1FEE0FFF1FEE0FFF1FEC57FD4C818125
:1049B000807C09F043C06370613029F010F480E41A
:1049C00003C080E801C080EC40385105E1F050F4AC
:1049D00040325105A1F04034510599F04031510564
:1049E00061F419C0411592E0590789F04F3F93E0F7
:1049F000590779F04115514041F020E00DC022E007
:104A00000BC023E009C024E007C025E005C026E074
:104A100003C027E001C021E0118296E09083822B41
:104A200081838181807C803C21F481818770873003
:104A300039F081818062818381E0089580E008956A
:104A400081E00895E82FEF70F0E0EE0FFF1F992747
:104A500087FD90958827990F881F9927E80FF91FE0
:104A6000EE0FFF1FEE0FFF1FEE0FFF1FEC57FD4C69
:104A7000818182FB882780F90895E82FEF70F0E0AC
:104A8000EE0FFF1F282F332727FD30952227330FE6
:104A9000221F3327E20FF31FEE0FFF1FEE0FFF1F42
:104AA000EE0FFF1FEC57FD4C918192FF0EC09181DC
:104AB0009B7F9183FBDCFC01808180FF06C08E7FA1
:104AC00080830780F085E02D199581E008957F921D
:104AD0008F929F92AF92BF92CF92DF92EF92FF920E
:104AE0000F931F93CF93DF93982E862E5A0169015F
:104AF000DDDC7C01792C771C7724771CC92DCF70E5
:104B0000D0E0CC0FDD1FC70DD11DCC0FDD1FCC0FAA
:104B1000DD1FCC0FDD1FCC57DD4C8981807C09F473
:104B20004CC08981807C803C19F0898182FD47C01E
:104B30008FB7F894F701908190FF03C08FBF712C5D
:104B40003FC0F7019081916090838FBFF701A182F0
:104B5000B282C382D48215821682078310878110A5
:104B600006C091E0C114D10419F090E001C091E0B9
:104B7000F701808190FB81F98B7F8083772019F08A
:104B80001E821F8215C08981807C803C69F4CE0121
:104B900068DCBC01C6010E94B7A8892B29F0F70187
:104BA00080818E7F80830CC01A821B821E821F82AE
:104BB000892D07DD7724739403C0712C01C0712CFB
:104BC000872DDF91CF911F910F91FF90EF90DF9094
:104BD000CF90BF90AF909F908F907F900895FF925D
:104BE0000F931F93CF93DF93182FF82EFF1CFF24F2
:104BF000FF1CC82FCF70D0E0CC0FDD1FCF0DD11D13
:104C0000CC0FDD1FCC0FDD1FCC0FDD1FCC57DD4CD3
:104C10004DDCDC01FE0102E005938C9180FF12C0A7
:104C20008E7F8C931796ED91FC911897309751F0E9
:104C3000FF2019F06E817F8102C06A817B81412F44
:104C400081E01995DF91CF911F910F91FF90089509
:104C5000CF93C82FC4DFEC2FEF70F0E0EE0FFF1FF3
:104C60008C2F992787FD90958827990F881F992762
:104C7000E80FF91FEE0FFF1FEE0FFF1FEE0FFF1FD4
:104C8000EC57FD4C1182CF9108950F93E82FEF70F0
:104C9000F0E0EE0FFF1F282F332727FD3095222746
:104CA000330F221F3327E20FF31FEE0FFF1FEE0F0C
:104CB000FF1FEE0FFF1FEC57FD4C91819460918315
:104CC00001E006938CDF81E00F9108951F920F920F
:104CD0000FB60F9211240BB60F920F932F933F93A1
:104CE0004F935F936F937F938F939F93AF93BF93F4
:104CF000CF93EF93FF938091CB0488233CF480E81B
:104D00008093CA040E949B19C7D58FC08091CB04A1
:104D100082FF20C084E08093CA0480918C3286FF99
:104D200084C08091CC0481FD80C0DBDB81117DC01B
:104D300080916832813011F410DB77C0843009F043
:104D400074C0EDE8F2E304E00593E5E8F2E304E083
:104D500005936BC08091CB0481FF62C082E0809399
:104D6000CA048091843286FF60C08091CC0481FDAA
:104D70005CC0B7DB811159C080916832823041F448
:104D800084E080936832E4E8F2E302E006934DC0E9
:104D9000833009F04AC0EDE8F2E304E00593E5E86A
:104DA000F2E304E0059341C080E18093CA04C1E0CE
:104DB0008C2F15DF8C2F806812DFCF5FC530C1F7D5
:104DC0000E9470191092C304E5E8F2E3108296E0A5
:104DD0009093843283E48083EDE8F2E31082909331
:104DE0008C32808384E292E380938832909389327C
:104DF0007BDA1BC08091CB0486FF07C080E48093E0
:104E0000CA0480E052DA42D510C08091CB0485FFFD
:104E10000CC080E28093CA0481E047DA3AD505C02D
:104E20008091CB0484FDC0CFE5CFFF91EF91CF916E
:104E3000BF91AF919F918F917F916F915F914F91B2
:104E40003F912F910F910F900BBE0F900FBE0F90BF
:104E50001F9018951F920F920FB60F9211240BB648
:104E60000F920F931F932F933F934F935F936F93E3
:104E70007F938F939F93AF93BF93CF93DF93EF93E2
:104E8000FF938091CC0481FD03C02BDB8111B9C05D
:104E900082E08093CC048091C5048195880FE4E87A
:104EA000F2E3E81BF1092081318124583243369521
:104EB00027953695279536952795822F869520FF3D
:104EC00002C090E801C090E0890FE82FEF70F0E099
:104ED000EE0FFF1F282F332727FD30952227330F92
:104EE000221F3327E20FF31FEE0FFF1FEE0FFF1FEE
:104EF000EE0FFF1FEC57FD4C908195FF82C000E242
:104F00000693811179C080916832843019F433DAC4
:104F1000EBD977C0C0918632D091873280916133CE
:104F200090916233009164321091653298012C0F98
:104F30003D1F8217930718F4EC01C01BD10B809121
:104F40005F3390916033AE0164E272E3800F911F92
:104F50000E9400A90C0F1D1F00936432109365324C
:104F6000C034D10569F48091663290916732800F28
:104F7000911F20915D3330915E338217930788F043
:104F80000093613310936233E0916533F09166339F
:104F9000309729F01995811102C0D1D932C0DDD9DD
:104FA00030C0809161339091623308171907F9F48A
:104FB000E0916533F0916633309711F4C0D921C088
:104FC0001995811102C0BBD91CC020916632309165
:104FD00067328091643290916532820F931F809383
:104FE0006632909367321092643210926532E4E830
:104FF000F2E302E0069305C0803811F4C4D901C081
:10500000E0DAFF91EF91DF91CF91BF91AF919F9146
:105010008F917F916F915F914F913F912F911F9150
:105020000F910F900BBE0F900FBE0F901F90189511
:105030000E949719EEEFF0E082E08CBF199408957A
:10504000FC0101900020E9F73197BF01681B790B43
:105050000C9479180895CF93DF93EC01F1DF86EF7C
:1050600092E2EEDF69EF72E2CE010E9409A9892B7C
:1050700019F486EF92E2E4DFDF91CF910895209159
:105080000C21622309F0E7CF089580930C21089545
:10509000CF92DF92EF92FF920F931F93CF93DF9304
:1050A000082F10E0000F111FE801C559DC4C888162
:1050B00099810E941C14B80169597C4CFB01C08085
:1050C000D12CE12CF12C00E412E42FE030E040E0A0
:1050D000888199810E943314E881F98180818064FC
:1050E000808381E0DF91CF911F910F91FF90EF902E
:1050F000DF90CF90089508950895BF92CF92DF92E8
:10510000EF92FF920F931F93CF93DF93B62EC82F8A
:10511000D0E06E01CC0CDD1C860109591C4CA601A7
:1051200045595C4C7A01B801DA018D919C910E943D
:105130005314F601E859FC4C8081E82FE695E6957A
:10514000E695B0E2EB9FF0011124FA5F877021E051
:1051500030E0A90102C0440F551F8A95E2F746834B
:10516000D701ED91FC911197B382ED91FC91828171
:105170008823ECF78AEF8383FE01EE0FFF1FE559CA
:10518000FC4C0190F081E02D82818823ECF7CE0168
:10519000880F991FDC01A859BC4C2C91A22FA69511
:1051A000A695A69530E2A39FD0011124BA5F27707F
:1051B00041E050E0BA0102C0660F771F2A95E2F77E
:1051C00015966C932FEF2383FC01E559FC4C01905D
:1051D000F081E02D82818823ECF7F3808FEF8383C9
:1051E000CC0FDD1FC559DC4CE881F9818281882311
:1051F000ECF7C381B801CF010E9469148C2F90E0B5
:10520000982F88278F0D911DDF91CF911F910F91BE
:10521000FF90EF90DF90CF90BF9008959F92AF9254
:10522000BF92CF92DF92EF92FF920F931F93CF9393
:10523000DF93962EA42EB52E082F10E06801CC0C1B
:10524000DD1CA60149595C4C7A01E601C559DC4CCC
:10525000BA01888199810E945314F601E859FC4CE7
:105260008081E82FE695E695E69550E2E59FF0010E
:105270001124FA5F877021E030E0B90102C0660FA7
:10528000771F8A95E2F76683E881F9819382E88146
:10529000F98182818823ECF7C801880F991FDC010E
:1052A000A859BC4C2C91A22FA695A695A69570E264
:1052B000A79FD0011124BA5F277041E050E0BA01E6
:1052C00002C0660F771F2A95E2F715966C93A382AA
:1052D000FC01E559FC4C0190F081E02D828188238E
:1052E000ECF7B382F801EE0FFF1FE559FC4C01907B
:1052F000F081E02D82818823ECF7B701CF010E9475
:105300006914DF91CF911F910F91FF90EF90DF9083
:10531000CF90BF90AF909F900895CF93C82F48E251
:1053200050E06FEB7BDF40E053E567E070E0415019
:105330005109610971094115510561057105B9F7F7
:1053400040E150E06FEB8C2F69DF40E059E06DE306
:1053500070E041505109610971094115510561051C
:105360007105B9F749E250E06FEB8C2F57DF40E051
:1053700053E567E070E04150510961097109411539
:10538000510561057105B9F741E150E06FEB8C2FD4
:1053900045DFCF9108957F928F929F92AF92BF92F7
:1053A000CF92DF92EF92FF920F931F93CF93DF93F1
:1053B000762E842E952EA22EB32E082F10E0680193
:1053C000CC0CDD1CE601C959DC4CA60145595C4CEE
:1053D0007A01BE01DA018D919C910E945314F6016D
:1053E000E859FC4C8081E82FE695E695E695B0E219
:1053F000EB9FF0011124FA5F877021E030E0A901F2
:1054000002C0440F551F8A95E2F74683D701ED91FC
:10541000FC9111977382ED91FC9182818823ECF7C6
:10542000C801880F991FDC01A859BC4C2C91A22FF0
:10543000A695A695A69530E2A39FD0011124BA5F48
:10544000277041E050E0BA0102C0660F771F2A952D
:10545000E2F715966C938382FC01E559FC4C0190B0
:10546000F081E02D82818823ECF79382F801EE0F22
:10547000FF1FE559FC4C0190F081E02D82818823CB
:10548000ECF7A382F801EE0FFF1FE559FC4C0190E9
:10549000F081E02D82818823ECF7B382F801EE0FD2
:1054A000FF1FE559FC4C0190F081E02D828188239B
:1054B000ECF7BE01CF010E946914DF91CF911F91DB
:1054C0000F91FF90EF90DF90CF90BF90AF909F90A3
:1054D0008F907F900895CF93C82F4AEF50E064EDEE
:1054E0009DDE60EB8C2F09DECF910895CF93C82FFE
:1054F00040E854E86EE170E04150510961097109DA
:105500004115510561057105B9F781E08093E932D4
:105510008C2FE1DF8832984229F087E093E29BDD0F
:1055200080E09FC046E152E061EB8C2F77DE40E3E4
:1055300056E062EB8C2F72DE4CE858E263EB8C2F66
:105540006DDE48E354E064EB8C2F68DE40E857E002
:1055500065EB8C2F63DE47E050E266EB8C2F5EDE5E
:105560004AE054E169EC8C2F59DE43E050E06EEDE7
:105570008C2F54DE44E050E066ED8C2F4FDE40E38C
:1055800050EC6AEB8C2F4ADE48E050E06BEB8C2F3E
:1055900045DE41E050E069EB8C2F40DE41E050E019
:1055A00064EC8C2F3BDE40E45DE063E070E0415052
:1055B0005109610971094115510561057105B9F775
:1055C00042E053E067EB8C2F29DE40E050E068EBCF
:1055D0008C2F24DE43E050E06CEB8C2F1FDE2FEF8E
:1055E00030E041E55FE06FEB8C2FD5DE42E050E02C
:1055F0006CEB8C2F13DE43E554E06FEB8C2F0EDE4B
:1056000045E550E06FEB8C2F09DE42E453E067EB99
:105610008C2F04DE40E050E068EB8C2FFFDD41E092
:1056200050E06CEB8C2FFADD49E250E06FEB8C2FF1
:10563000F5DD40E053E567E070E041505109610954
:1056400071094115510561057105B9F741E150E056
:105650006FEB8C2FE3DD4BE453E067EB8C2FDEDD4B
:1056600081E0CF91089584E18093673389E080934E
:10567000683380EC98E080936B3390936C3380E0D8
:1056800007DD80E033CF0895E82FF0E0EE0FFF1F35
:10569000E859FC4C8081E82FE695E695E69540E2D6
:1056A000E49FF0011124FA5F877021E030E0A90146
:1056B00002C0440F551F8A95E2F745830895E82FED
:1056C000F0E0EE0FFF1FE859FC4C8081E82FE695D3
:1056D000E695E69540E2E49FF0011124FA5F8770B9
:1056E00021E030E0A90102C0440F551F8A95E2F77E
:1056F00046830895813099F48BE193E2ACDC84E039
:10570000E0E0F6E0868380E090E00196803A2FE0CA
:105710009207D9F784E0E0E0F6E0858308958230CF
:1057200099F486E293E297DC80E1E0E0F6E086839C
:1057300080E090E00196803A2FE09207D9F780E16F
:10574000E0E0F6E08583089581E393E284CC089558
:1057500081E0E0E2F6E0868380E090E00196803A26
:105760002FE09207D9F781E0E0E2F6E08583089523
:10577000CF93C42F813051F480EA9BE00E940C1F2C
:105780006C2F80EA9BE00E940C1F03C08FE393E222
:1057900062DCCF910895813051F4606880EA9BE02B
:1057A0000E940C1F80EA9BE00C94141F08958FE365
:1057B00093E251DC80E00895C0EAD0E017E01A835C
:1057C0000E942D131A83109251331092523310926B
:1057D0005333109254331092553381E080935633F3
:1057E0000E94801C76D078940E947F140E948014BE
:1057F0003ADF0E94600F8093472F0E94F6A1E0EAF3
:10580000F6E080E4858380E886830E946D198FD658
:105810008091EC32882321F080E06DDC1092EC3234
:105820008091EB32882321F080E066DC1092EB322D
:1058300081E08093ED3280912D33882321F00E9406
:1058400089A610922D3380E090E001968832910570
:10585000E1F78091472F81110E948A128091ED32E9
:10586000882349F36ED68091EC32882331F0109270
:10587000EC3280E03BDE80E03EDC8091EB3288233E
:10588000D1F280E039DC1092EB32D5CF0C94801449
:1058900008950C94811408958091EA32882319F0B8
:1058A0005FD80C948A14089591E09093EA320E9494
:1058B00018A881E008951092EA320C9423A8089564
:1058C000662319F00C94821408950C94831408959F
:1058D000089543E050E060E880E496E00E94F4130D
:1058E00043E050E060E280E496E00E94F41340E080
:1058F00050E060E480E496E00E94F41343E050E05E
:1059000060E180E496E00E94F41343E050E062E03E
:1059100080E296E00E94F41341E050E062E080E013
:1059200096E00E94F41343E050E064E080E096E0EB
:105930000E94F41343E050E061E080EA96E00E94A8
:10594000F41343E050E060E280E696E00E94F41336
:1059500040E050E064E080E696E00E94F41341E00D
:1059600050E062E080EA96E00E94F41341E050E0EB
:1059700060E480EA96E00E94F41341E050E060E8C1
:1059800080EA96E00E94F41343E050E064E080E493
:1059900096E00E94F41343E050E068E080E496E073
:1059A0000E94F4136DE071E280EA9BE00E942420E3
:1059B000811103C088E493E24EDB43E050E061E0F4
:1059C00080E296E00E94F41343E050E061E080EA58
:1059D00096E00C94F4130895CF93DF93CDB7DEB720
:1059E000A897CDBFDEBFFC01DE011196CE018996DE
:1059F00024912D93222321F03196A817B907C1F7DE
:105A000018A6CE01019627DBA896CDBFDEBFDF9199
:105A1000CF910895CF93DF93D82FC62F87E593E2D8
:105A20001ADB86ED9EE0D8DFCC2319F0C13029F0D7
:105A300008C082ED9EE0D0DF07C08EEC9EE0CCDF98
:105A400003C084EC9EE0C8DFDD2319F0D13069F09B
:105A50001AC084E99EE0C0DF81E08093F0321092AA
:105A6000F1328FEF80933A2111C08EEA9EE0B4DFCD
:105A70008FEF80933A2181E08093EB321092F032E5
:105A80001092F13203C084EC9EE0A6DFDF91CF914B
:105A90000895EF92FF920F931F93CF93DF93CDB7AB
:105AA000DEB76497CDBFDEBF8C017B01009709F4A0
:105AB00045C0FF926F931F938F9384E693E29F9369
:105AC0008F93CE0101969F938F930E943FA9CDBFE4
:105AD000DEBF073E93E0190799F4FF92EF928CE640
