:100000006EC70000A4C70000A2C70000A0C7000080
:100010009EC700009CC700009AC7000098C7000058
:1000200096C7000094C7000092C700000C94D60841
:100030008EC700000C944D1E0C940C090C943909C9
:100040000C9466090C9493090C94C0090C94ED0966
:100050000C941A0A0C94470A0C94740A0C94A10A82
:1000600076C7000074C7000072C7000070C70000A8
:100070006EC700006CC700006AC7000068C70000B8
:1000800066C7000064C7000062C7000060C70000C8
:100090005EC700005CC700005AC7000058C70000D8
:1000A00056C7000054C7000052C7000050C70000E8
:1000B0004EC700004CC700000C94741E0C94900CAA
:1000C0000C94BD0C0C94EA0C0C94170D0C94440D7C
:1000D0000C94710D0C949E0D0C94CB0D0C94F80D9A
:1000E0000C94250E34C7000032C7000030C7000052
:1000F0002EC700002CC700002AC7000028C7000038
:1001000026C7000024C7000022C7000020C7000047
:100110001EC700001CC700001AC7000018C7000057
:1001200016C7000014C7000012C7000010C7000067
:100130000EC700000C94CE0A0C94FB0A0C94280BFA
:100140000C94550B0C94820B0C94AF0B0C94DC0BA1
:100150000C94090C0C94360C0C94630CF8C600003B
:10016000F6C60000F4C60000F2C60000F0C60000AB
:10017000EEC60000ECC60000EAC60000E8C60000BB
:10018000E6C60000E4C60000E2C60000E0C60000CB
:10019000DEC60000DCC60000DAC60000D8C60000DB
:1001A000D6C60000D4C60000D2C60000D0C60000EB
:1001B0000C94520E0C947F0E0C94AC0E0C94D90E31
:1001C0000C94060F0C94330FC2C60000C0C600008A
:1001D000BEC60000BCC60000BAC600000C94D2A87F
:1001E0000C9416A9B4C60000B2C60000B0C6000048
:1001F000AEC600000C9466260C942A275322412296
:10020000442247224A224D2250222B3115321932E4
:100210001D32213288328C322D32313235328C32DD
:1002200039323D32413245320332073225322932EA
:100230004932513157315E3165316B31CD31CD317C
:100240007931803187318E3195319C31CD31A33177
:10025000AA31B131CD31CD31B831BF31C631723172
:10026000643268326C327032743278327C3280326E
:10027000AD32B132B532B9322E332E33223326337A
:100280002E332E332E332E332E332E332A33523C3D
:100290005D3C683CEC3CEC3CEC3CEC3CEC3CEC3C31
:1002A000EC3CEC3CEC3CEC3CEC3CEC3CEC3CEC3C0E
:1002B000EC3C733C7E3C893CEC3CEC3CEC3CEC3C48
:1002C000EC3CEC3CEC3CEC3CEC3CEC3CEC3C943C46
:1002D0009F3CAA3CB53CEC3CEC3CEC3CEC3CEC3CA4
:1002E000EC3CEC3CEC3CEC3CEC3CEC3CEC3CC03CFA
:1002F000EC3CEC3CEC3CEC3CEC3CEC3CEC3CEC3CBE
:10030000EC3CEC3CEC3CEC3CEC3CEC3CEC3CCB3CCE
:10031000D63CE13CC95B895B945B895BA05B895BF4
:10032000A65BB25B895BB85B895B895B895B895B38
:10033000895B895B895B895B895B895B895B895B9D
:10034000895B895B895B895B895B895B895B895B8D
:10035000895B895B895B895B895B895B895B895B7D
:10036000895B895B895B895B895B895B895B895B6D
:10037000895B895B895B895B895B895B895B895B5D
:10038000895B895B895B895B895B895B895B895B4D
:10039000895B835B895BC95B895B945B895B9A5BE7
:1003A000A05BA65BAC5B895BB25B895BB85B895B7E
:1003B000895B895B895B895B895B895B895B895B1D
:1003C000895B895B895B895B895B895B895B895B0D
:1003D000895B895B895B895B895B895B895B895BFD
:1003E000895B895B895B895B895B895B895B895BED
:1003F000895B895B895B895B895B895B895B895BDD
:10040000895B895B895B895B895B895B895B895BCC
:10041000895B895B835B895BC95B895B945B895B77
:100420009A5BA05B895BA65B895BAC5B895BB25B1B
:10043000B85B21693A6953696C698569B669E7698E
:10044000F076237A237A237A237A237A237A237AFB
:10045000237A237A9578227947796C799179237A6E
:10046000237A007A007A007A007A237A237A237A30
:10047000237AD878FD78B679DB79B37BCF80338166
:10048000B8811382D084D084318337849A850987D8
:10049000A7873688C5887C89BB8C958ABB8CBB8C2A
:1004A000BB8C3E80BB8CB789928BBF8BFF8B0D8E34
:1004B000C08DC78DCE8DD58DDC8DE38DEA8DF18D10
:1004C000F88DFF8D068EF192169483939493A593E5
:1004D0000F931E93459354936393F192FB92FB9277
:1004E000FB92FB92169472930593059305930593E3
:1004F0001694169416941694FB92FB92FB92FB9220
:100500008395909530954195529563953095419599
:100510005295639597979797A2979797F2979A977F
:100520009A979D979A97C099C898C898C099C89863
:10053000C099C898C099C898C099C398C898C898D5
:10054000C398C898BE98C898C099C099C898BE98D2
:10055000BE98919E979E4F9E579E5D9E639E6B9EFA
:10056000739E7D9ED1A001A1D3A0D5A0D7A0D9A074
:10057000DBA0DDA0DFA0E1A0E3A0E5A0E7A0E9A06B
:10058000EBA0EDA0EFA0F1A0F3A0F5A0F7A0F9A0DB
:10059000FBA0FDA00CA132A10EA110A112A114A1DB
:1005A00016A118A11AA11CA11EA120A122A124A15B
:1005B00026A128A12AA12CA12EA130A14BA450A490
:1005C0005CA45CA45CA45CA45CA45CA45CA45CA42B
:1005D0005CA45CA45CA45CA45CA45CA45CA45CA41B
:1005E0005CA45CA43EA45CA45CA45CA45CA4B7A3CF
:1005F0005CA45CA45CA45CA45CA45CA45CA45CA4FB
:10060000E8A35CA45CA431A45CA4C8A35CA45CA41F
:100610005CA45CA45CA45CA45CA45CA45CA45CA4DA
:100620005CA45CA43EA45CA45CA45CA45CA4B7A38E
:100630005CA45CA45CA45CA45CA45CA45CA45CA4BA
:10064000E8A35CA45CA431A45CA4C8A386A41FA6F0
:10065000A6A41FA61FA61FA61FA61FA61FA61FA6ED
:10066000DFA41FA61FA61FA68FA41FA6DDA41FA67A
:100670001FA61FA61FA61FA61FA61FA61FA61FA652
:100680001FA61FA61FA61FA61FA61FA686A41FA6DD
:10069000A6A41FA61FA61FA61FA61FA61FA61FA6AD
:1006A000DFA41FA61FA61FA68FA41FA6DDA41AA63F
:1006B0001DA61FA61FA61FA61FA61FA61FA61FA614
:1006C0001FA61FA61FA61FA61FA61FA61FA61FA602
:1006D0001FA61FA61FA61FA61FA61FA61FA61FA6F2
:1006E0001FA61FA61FA61FA61FA61FA61FA61FA6E2
:1006F0001FA605A511A61FA61FA61FA6EFA427A526
:100700001FA61FA61FA61FA61FA61FA61FA61FA6C1
:100710001FA61FA61FA61FA61FA61FA61FA61FA6B1
:100720001FA61FA61FA61FA61FA61FA61FA61FA6A1
:100730001FA605A511A61FA61FA61FA6EFA427A5E5
:10074000FAA625A725A725A725A725A725A725A775
:1007500025A725A725A725A725A725A725A725A739
:1007600025A725A725A725A725A7B7A625A725A798
:10077000C0A6ACA625A725A725A7FFA625A725A720
:1007800025A725A7D6A6DDA6D9A625A7EDA625A728
:1007900025A725A725A725A725A725A725A725A7F9
:1007A00025A725A725A725A725A7B7A625A725A758
:1007B000C0A6ACA625A725A725A7FFA625A725A7E0
:1007C00025A725A7D6A6DDA6D9A625A7EDA654A7B9
:1007D00030A830A830A830A827A864A75AA730A806
:1007E0005CA758A730A830A830A830A830A830A8F7
:1007F0005EA730A830A856A734A830A830A830A8E3
:1008000030A830A830A830A830A830A830A830A828
:1008100030A830A830A830A827A864A75AA730A8C5
:100820005CA758A730A830A830A830A830A830A8B6
:100830005EA730A830A856A734A875A734A834A856
:1008400034A834A834A834A834A834A8F8A734A805
:1008500034A834A8AFA78FA734A834A834A834A8E4
:1008600034A834A834A834A834A834A834A834A8A8
:1008700034A834A834A834A834A875A734A834A858
:1008800034A834A834A834A834A834A8F8A734A8C5
:1008900034A834A8AFA78FA7585659434320636F95
:1008A0006C6F72696D657472792064617461004E59
:1008B0006F20636F6C6F72696D657472792064610B
:1008C000746100594342435220636F6C6F7220730E
:1008D0007061636500545620666F726D6174203DCF
:1008E0003E20524742206C696D69746564207261D4
:1008F0006E676500504320666F726D6174203D3EE7
:10090000205247422066756C6C2072616E676500EC
:1009100052474220636F6C6F722073706163650091
:10092000556E6B6E6F776E207265736F6C75746940
:100930006F6E00313430307831303530702F3630D2
:10094000487A207265647563656420626C616E6BC1
:10095000696E6700313430307831303530702F3681
:1009600030487A003133363078373638702F3630A9
:10097000487A005755584741203139323078313262
:100980003030702F3630487A005753584120313676
:1009900038307831303530702F3630487A0055474E
:1009A0004120313630307831323030702F36304897
:1009B0007A00535847412031323830783130323460
:1009C000702F3630487A003132383078393630700E
:1009D0002F3630487A005758474120313238307826
:1009E000373638702F3630487A005847412031303A
:1009F000323478373638702F3630487A00535647BD
:100A0000412038303078363030702F3630487A0018
:100A10005647412036343078343830702F363048DD
:100A20007A00313038307831393230702F363048F2
:100A30007A003139323078313038307035392F36EC
:100A400030487A00373230783438306935392F36CB
:100A500030487A00313932307831303830693539C0
:100A60002F3630487A0031323830783732307035AE
:100A7000392F3630487A0037323078343830703594
:100A8000392F3630487A006572726F6E656F7573F4
:100A9000206576656E7420666F72207374616E6473
:100AA000617264206576656E742063616C6C62614E
:100AB000636B005265706561746572207374617454
:100AC0006520352072656163686564003A2077723D
:100AD0006F6E672076616C756500417564696F2083
:100AE0006672657175656E63793A203A20313932E4
:100AF000206B487A00417564696F20667265717574
:100B0000656E63793A203A203137362E34206B48AF
:100B10007A00417564696F206672657175656E63F0
:100B2000793A203A203936206B487A004175646959
:100B30006F206672657175656E63793A203A203868
:100B4000382E32206B487A00417564696F206672D6
:100B5000657175656E63793A203A203438206B48A8
:100B60007A00417564696F206672657175656E63A0
:100B7000793A203A2034342E31206B487A0041757E
:100B800064696F206672657175656E63793A2033AA
:100B900032206B487A0063616C63756C6174696FB5
:100BA0006E206572726F7200417564696F204453E4
:100BB00054207061636B65747300417564696F20C4
:100BC0004F4241207061636B6574730041756469C5
:100BD0006F20484252207061636B657473004175E9
:100BE00064696F2073616D706C65207061636B6503
:100BF0007473004465657020636F6C6F72206D6F55
:100C000064653A2033362062697473004465657008
:100C100020636F6C6F72206D6F64653A20333020F3
:100C200062697473004465657020636F6C6F722035
:100C30006D6F64653A2032342062697473004156E6
:100C4000204D75746520696E616374697665004135
:100C500056206D757465206163746976650044562D
:100C60004920284F45535329206D6F646500454541
:100C70005353206D6F6465006E6F74204844435079
:100C800020656E6372797074656420004844435037
:100C900020656E6372797074656420004456492043
:100CA0006D6F64650048444D49206D6F6465004177
:100CB00075746F6D617469632064657465637469CC
:100CC0006F6E206F66207265736F6C7574696F6EDE
:100CD0003A20004175746F6D6174696320494E500C
:100CE00055542041204C4F434B4544006572726F70
:100CF0006E656F7573206576656E7420666F722001
:100D0000696E666F6672616D652063616C6C6261AD
:100D1000636B0047616D7574206D65746164617407
:100D200061207061636B65747320726563656976B9
:100D3000656400494E464F4652414D453A204D505C
:100D4000454720726563656976656400494E464F84
:100D50004652414D453A20415544207265636569CC
:100D60007665640057726F6E6720636F6C6F72698F
:100D70006D6574727900636F6C6F72696D65747202
:100D8000793A657874656E6465642028787659438D
:100D9000432900636F6C6F72696D657472793A49AB
:100DA000545537303900636F6C6F72696D657472BA
:100DB000793A534D505445203137304D202F20493A
:100DC000545536303100636F6C6F72696D657472A3
:100DD000793A4E6F20646174610057726F6E6720BC
:100DE000636F6C6F7220696E64696361746F720007
:100DF0004675747572650059436243722034343409
:100E00000059436243722034323200524742004359
:100E10006F6C6F722073706163653D004156493A93
:100E20002077726F6E67207061636B6574207479D0
:100E30007065210041564920526563656976656495
:100E400000414350205265636569766564004953EB
:100E50005243322072656365697665640049535276
:100E6000433120726563656976656400496E666F1B
:100E7000206672616D653A2000526563656976652A
:100E80007220413A005377697463682070726F6210
:100E90006C656D004469676974616C204143544915
:100EA00056495459204445544543544544004469E7
:100EB000676974616C204143544956495459204C28
:100EC0004F535400556E6B6E6F776E3A2000423A66
:100ED0002000413A2000496E707574200000EFEF49
:100EE000F3E3E370FF27E150FC4C2FEF3FE52C7F4D
:100EF000E217F30758F48EED9DEAAEEBBFEE819357
:100F00009193A193B193E217F307C8F311241FBE85
:100F1000CFEFCDBFDFE5DEBF00E00CBF1EE2A0E0FB
:100F2000B0E2EAE2F9E501E00BBF02C007900D92E2
:100F3000AA3BB107D9F723E3AAEBBEE201C01D9299
:100F4000AF3FB207E1F70E947A2C0C9493AC58C8DB
:100F5000089580E0089530917D3320917E33822F73
:100F600090E00397E1F431111CC08091813390919E
:100F700082330497C1F48AEB9EE28093833390938B
:100F8000843385ED97E0809387339093883384E0B2
:100F900090E0809385339093863381E0089580E0DC
:100FA000089580E0089580E00895089581E0809399
:100FB0001E2F08950F931F9302EF17E020E430E0F7
:100FC0004EEB5EE260E085E00E9467251F910F9185
:100FD00008951092222F1092202F81E080931E2FCF
:100FE000E9CF0895811101C0E5CF08952BEA37E0DC
:100FF0004CE850E260E27FE282E29FE232C0089574
:101000000F931F93CF9320911E2F222329F1CFB747
:10101000F89420E2EEEFFEE2DF011D922A95E9F757
:1010200020E2FC01AEEFBEE201900D922A95E1F7BD
:1010300006ED17E020E230E04EEF5EE260E084E88B
:101040000E94672591E0892780931E2FCFBF909142
:101050001E2F81E0892701C080E0CF911F910F9161
:101060000895CF93DF93EA0140917B3344230CF042
:1010700063C0407609F041C020917C332630E9F509
:101080000E946819FC012285213299F520917E3356
:101090002132B9F49C01275F3F4F20938333309373
:1010A00084338185209181333091823390E02817F9
:1010B000390708F4C901809385339093863381E022
:1010C00064C0FC013785231316C0C0938333D093CB
:1010D000843320893189809181339091823328171C
:1010E000390708F4C901809385339093863381E0F2
:1010F0004CC080E04AC080E048C04032E9F5209111
:101100007C33223019F0233061F038C08093833370
:101110009093843381E090E080938533909386337D
:1011200034C0609383337093843381E090E0809384
:1011300085339093863329C04076403209F540913B
:101140007C334A3039F04B3059F04930D9F4F90149
:1011500019951BC020917E33FC01208381E015C0CE
:101160008091813390918233892B71F480917D330A
:10117000FB01808381E009C080E007C080E005C0FA
:1011800080E003C080E001C080E0DF91CF9108954E
:1011900080E1E0E2F4E08183818184FDFDCFE0E243
:1011A000F4E0648175818681978108951F920F9282
:1011B0000FB60F9211240BB60F922F933F934F93BC
:1011C0005F936F937F938F939F93AF93BF93CF93CF
:1011D000DF93EF93FF93E0E2F4E01282C091533388
:1011E000D0915433209719F0D3DFFE011995FF9168
:1011F000EF91DF91CF91BF91AF919F918F917F91AF
:101200006F915F914F913F912F910F900BBE0F9077
:101210000FBE0F901F9018951F920F920FB60F924E
:1012200011240BB60F922F933F934F935F936F93BD
:101230007F938F939F93AF93BF93EF93FF93E0912F
:101240006A2FF0916B2F309709F01995FF91EF916C
:10125000BF91AF919F918F917F916F915F914F91CE
:101260003F912F910F900BBE0F900FBE0F901F90CC
:1012700018951F920F920FB60F9211240BB60F9272
:101280002F933F934F935F936F937F938F939F938E
:10129000AF93BF93EF93FF93E091682FF091692F85
:1012A000309709F01995FF91EF91BF91AF919F9100
:1012B0008F917F916F915F914F913F912F910F90FF
:1012C0000BBE0F900FBE0F901F9018951F920F929C
:1012D0000FB60F9211240BB60F922F933F934F939B
:1012E0005F936F937F938F939F93AF93BF93EF938E
:1012F000FF93E091662FF091672F309709F01995D1
:10130000FF91EF91BF91AF919F918F917F916F91DD
:101310005F914F913F912F910F900BBE0F900FBE99
:101320000F901F9018951F920F920FB60F921124D5
:101330000BB60F922F933F934F935F936F937F93CF
:101340008F939F93AF93BF93EF93FF93E091642F9D
:10135000F091652F309709F01995FF91EF91BF91AA
:10136000AF919F918F917F916F915F914F913F913D
:101370002F910F900BBE0F900FBE0F901F901895DE
:101380001F920F920FB60F9211240BB60F922F934C
:101390003F934F935F936F937F938F939F93AF93FD
:1013A000BF93EF93FF93E091622FF091632F3097FB
:1013B00009F01995FF91EF91BF91AF919F918F9196
:1013C0007F916F915F914F913F912F910F900BBE45
:1013D0000F900FBE0F901F9018951F920F920FB68F
:1013E0000F9211240BB60F922F933F934F935F935D
:1013F0006F937F938F939F93AF93BF93EF93FF93DD
:10140000E091602FF091612F309709F01995FF91CD
:10141000EF91BF91AF919F918F917F916F915F916C
:101420004F913F912F910F900BBE0F900FBE0F90D9
:101430001F9018951F920F920FB60F9211240BB6A2
:101440000F922F933F934F935F936F937F938F935D
:101450009F93AF93BF93EF93FF93E0915E2FF09133
:101460005F2F309709F01995FF91EF91BF91AF91E0
:101470009F918F917F916F915F914F913F912F91AC
:101480000F900BBE0F900FBE0F901F9018951F92DC
:101490000F920FB60F9211240BB60F922F933F931A
:1014A0004F935F936F937F938F939F93AF93BF936C
:1014B000EF93FF93E0915C2FF0915D2F309709F04F
:1014C0001995FF91EF91BF91AF919F918F917F916E
:1014D0006F915F914F913F912F910F900BBE0F90A5
:1014E0000FBE0F901F9018951F920F920FB60F927C
:1014F00011240BB60F922F933F934F935F936F93EB
:101500007F938F939F93AF93BF93EF93FF93E0915C
:101510005A2FF0915B2F309709F01995FF91EF91B9
:10152000BF91AF919F918F917F916F915F914F91FB
:101530003F912F910F900BBE0F900FBE0F901F90F9
:1015400018951F920F920FB60F9211240BB60F929F
:101550002F933F934F935F936F937F938F939F93BB
:10156000AF93BF93EF93FF93E091582FF091592FD2
:10157000309709F01995FF91EF91BF91AF919F912D
:101580008F917F916F915F914F913F912F910F902C
:101590000BBE0F900FBE0F901F9018951F920F92C9
:1015A0000FB60F9211240BB60F922F933F934F93C8
:1015B0005F936F937F938F939F93AF93BF93EF93BB
:1015C000FF93E091562FF091572F309709F019951E
:1015D000FF91EF91BF91AF919F918F917F916F910B
:1015E0005F914F913F912F910F900BBE0F900FBEC7
:1015F0000F901F9018951F920F920FB60F92112403
:101600000BB60F922F933F934F935F936F937F93FC
:101610008F939F93AF93BF93EF93FF93E091542FDA
:10162000F091552F309709F01995FF91EF91BF91E7
:10163000AF919F918F917F916F915F914F913F916A
:101640002F910F900BBE0F900FBE0F901F9018950B
:101650001F920F920FB60F9211240BB60F922F9379
:101660003F934F935F936F937F938F939F93AF932A
:10167000BF93EF93FF93E091522FF091532F309748
:1016800009F01995FF91EF91BF91AF919F918F91C3
:101690007F916F915F914F913F912F910F900BBE72
:1016A0000F900FBE0F901F9018951F920F920FB6BC
:1016B0000F9211240BB60F922F933F934F935F938A
:1016C0006F937F938F939F93AF93BF93EF93FF930A
:1016D000E091502FF091512F309709F01995FF911B
:1016E000EF91BF91AF919F918F917F916F915F919A
:1016F0004F913F912F910F900BBE0F900FBE0F9007
:101700001F9018951F920F920FB60F9211240BB6CF
:101710000F922F933F934F935F936F937F938F938A
:101720009F93AF93BF93EF93FF93E0914E2FF09170
:101730004F2F309709F01995FF91EF91BF91AF911D
:101740009F918F917F916F915F914F913F912F91D9
:101750000F900BBE0F900FBE0F901F9018951F9209
:101760000F920FB60F9211240BB60F922F933F9347
:101770004F935F936F937F938F939F93AF93BF9399
:10178000EF93FF93E0914C2FF0914D2F309709F09C
:101790001995FF91EF91BF91AF919F918F917F919B
:1017A0006F915F914F913F912F910F900BBE0F90D2
:1017B0000FBE0F901F9018951F920F920FB60F92A9
:1017C00011240BB60F922F933F934F935F936F9318
:1017D0007F938F939F93AF93BF93EF93FF93E0918A
:1017E0004A2FF0914B2F309709F01995FF91EF9107
:1017F000BF91AF919F918F917F916F915F914F9129
:101800003F912F910F900BBE0F900FBE0F901F9026
:1018100018951F920F920FB60F9211240BB60F92CC
:101820002F933F934F935F936F937F938F939F93E8
:10183000AF93BF93EF93FF93E091482FF091492F1F
:10184000309709F01995FF91EF91BF91AF919F915A
:101850008F917F916F915F914F913F912F910F9059
:101860000BBE0F900FBE0F901F9018951F920F92F6
:101870000FB60F9211240BB60F922F933F934F93F5
:101880005F936F937F938F939F93AF93BF93EF93E8
:10189000FF93E091462FF091472F309709F019956B
:1018A000FF91EF91BF91AF919F918F917F916F9138
:1018B0005F914F913F912F910F900BBE0F900FBEF4
:1018C0000F901F9018951F920F920FB60F92112430
:1018D0000BB60F922F933F934F935F936F937F932A
:1018E0008F939F93AF93BF93EF93FF93E091442F18
:1018F000F091452F309709F01995FF91EF91BF9125
:10190000AF919F918F917F916F915F914F913F9197
:101910002F910F900BBE0F900FBE0F901F90189538
:101920001F920F920FB60F9211240BB60F922F93A6
:101930003F934F935F936F937F938F939F93AF9357
:10194000BF93EF93FF93E091422FF091432F309795
:1019500009F01995FF91EF91BF91AF919F918F91F0
:101960007F916F915F914F913F912F910F900BBE9F
:101970000F900FBE0F901F9018951F920F920FB6E9
:101980000F9211240BB60F922F933F934F935F93B7
:101990006F937F938F939F93AF93BF93EF93FF9337
:1019A000E091402FF091412F309709F01995FF9168
:1019B000EF91BF91AF919F918F917F916F915F91C7
:1019C0004F913F912F910F900BBE0F900FBE0F9034
:1019D0001F9018951F920F920FB60F9211240BB6FD
:1019E0000F922F933F934F935F936F937F938F93B8
:1019F0009F93AF93BF93EF93FF93E0913E2FF091AE
:101A00003F2F309709F01995FF91EF91BF91AF915A
:101A10009F918F917F916F915F914F913F912F9106
:101A20000F900BBE0F900FBE0F901F9018951F9236
:101A30000F920FB60F9211240BB60F922F933F9374
:101A40004F935F936F937F938F939F93AF93BF93C6
:101A5000EF93FF93E0913C2FF0913D2F309709F0E9
:101A60001995FF91EF91BF91AF919F918F917F91C8
:101A70006F915F914F913F912F910F900BBE0F90FF
:101A80000FBE0F901F9018951F920F920FB60F92D6
:101A900011240BB60F922F933F934F935F936F9345
:101AA0007F938F939F93AF93BF93EF93FF93E091B7
:101AB0003A2FF0913B2F309709F01995FF91EF9154
:101AC000BF91AF919F918F917F916F915F914F9156
:101AD0003F912F910F900BBE0F900FBE0F901F9054
:101AE00018951F920F920FB60F9211240BB60F92FA
:101AF0002F933F934F935F936F937F938F939F9316
:101B0000AF93BF93EF93FF93E091382FF091392F6C
:101B1000309709F01995FF91EF91BF91AF919F9187
:101B20008F917F916F915F914F913F912F910F9086
:101B30000BBE0F900FBE0F901F9018951F920F9223
:101B40000FB60F9211240BB60F922F933F934F9322
:101B50005F936F937F938F939F93AF93BF93EF9315
:101B6000FF93E091362FF091372F309709F01995B8
:101B7000FF91EF91BF91AF919F918F917F916F9165
:101B80005F914F913F912F910F900BBE0F900FBE21
:101B90000F901F9018951F920F920FB60F9211245D
:101BA0000BB60F922F933F934F935F936F937F9357
:101BB0008F939F93AF93BF93EF93FF93E091342F55
:101BC000F091352F309709F01995FF91EF91BF9162
:101BD000AF919F918F917F916F915F914F913F91C5
:101BE0002F910F900BBE0F900FBE0F901F90189566
:101BF0001F920F920FB60F9211240BB60F922F93D4
:101C00003F934F935F936F937F938F939F93AF9384
:101C1000BF93EF93FF93E091322FF091332F3097E2
:101C200009F01995FF91EF91BF91AF919F918F911D
:101C30007F916F915F914F913F912F910F900BBECC
:101C40000F900FBE0F901F9018951F920F920FB616
:101C50000F9211240BB60F922F933F934F935F93E4
:101C60006F937F938F939F93AF93BF93EF93FF9364
:101C7000E091302FF091312F309709F01995FF91B5
:101C8000EF91BF91AF919F918F917F916F915F91F4
:101C90004F913F912F910F900BBE0F900FBE0F9061
:101CA0001F9018951F920F920FB60F9211240BB62A
:101CB0000F922F933F934F935F936F937F938F93E5
:101CC0009F93AF93BF93EF93FF93E0912E2FF091EB
:101CD0002F2F309709F01995FF91EF91BF91AF9198
:101CE0009F918F917F916F915F914F913F912F9134
:101CF0000F900BBE0F900FBE0F901F9018951F9264
:101D00000F920FB60F9211240BB60F922F933F93A1
:101D10004F935F936F937F938F939F93AF93BF93F3
:101D2000EF93FF93E0912C2FF0912D2F309709F036
:101D30001995FF91EF91BF91AF919F918F917F91F5
:101D40006F915F914F913F912F910F900BBE0F902C
:101D50000FBE0F901F9018951F920F920FB60F9203
:101D600011240BB60F922F933F934F935F936F9372
:101D70007F938F939F93AF93BF93EF93FF93E091E4
:101D80002A2FF0912B2F309709F01995FF91EF91A1
:101D9000BF91AF919F918F917F916F915F914F9183
:101DA0003F912F910F900BBE0F900FBE0F901F9081
:101DB00018951F920F920FB60F9211240BB60F9227
:101DC0002F933F934F935F936F937F938F939F9343
:101DD000AF93BF93EF93FF93E091282FF091292FBA
:101DE000309709F01995FF91EF91BF91AF919F91B5
:101DF0008F917F916F915F914F913F912F910F90B4
:101E00000BBE0F900FBE0F901F9018951F920F9250
:101E10000FB60F9211240BB60F922F933F934F934F
:101E20005F936F937F938F939F93AF93BF93EF9342
:101E3000FF93E091262FF091272F309709F0199505
:101E4000FF91EF91BF91AF919F918F917F916F9192
:101E50005F914F913F912F910F900BBE0F900FBE4E
:101E60000F901F9018951F920F920FB60F9211248A
:101E70000BB60F922F933F934F935F936F937F9384
:101E80008F939F93AF93BF93EF93FF93E091242F92
:101E9000F091252F309709F01995FF91EF91BF919F
:101EA000AF919F918F917F916F915F914F913F91F2
:101EB0002F910F900BBE0F900FBE0F901F90189593
:101EC0001F93CF93DF93CDB7DEB7C05BD109CDBFF2
:101ED000DEBFCE0101968093D1209093D22043E0C3
:101EE00050E060E280E096E07FD448E150E068E0B6
:101EF00080E696E079D480916C2F811130C080E823
:101F00009AE1A6E0B0E0C855DF4F88839983AA83A1
:101F1000BB83C85AD04088E4C055DF4F8883C05B7C
:101F2000D04089E190E0A0E0B0E0C455DF4F888365
:101F30009983AA83BB83CC5AD04060E483E0FDD36D
:101F4000BE0168557F4F80E894E00E949B1E81117E
:101F500004C081E080936C2F02C080E0D3C280E295
:101F6000E0E0F6E0868380E090E00196803E2EE29D
:101F70009207D9F780E2E0E0F6E0858380E89AE115
:101F8000A6E0B0E00197A109B1090097A105B1054C
:101F9000C9F725E6E0E6F6E00AC0215009F47FC261
:101FA00080E090E00196803A3FE09307D9F7808582
:101FB00083FDF3CF1092CF201092D02082E090E0EA
:101FC0008093D3209093D42041E06BEC70E280E8C2
:101FD00094E00E94B01E811164C281E08093CC2005
:101FE00082E090E08093CF209093D0208EE190E02B
:101FF0008093D3209093D42010E0E0E6F6E00BC06D
:102000001F5F153609F44FC280E090E00196803AD8
:102010002FE09207D9F7808583FFF2CF41E06BEC88
:1020200070E280E894E00E94B01E81113EC280E020
:1020300090E00196803E3EE29307D9F789E1E0E126
:10204000F2E2DE015F9601900D928A95E1F7BE0102
:10205000685C7F4F8BE0FB0111928A95E9F788E479
:1020600088AF85E089AF82E090E08CAF9DAFCE0174
:102070004F968EAF9FAF89E190E022968EAF9FAFD3
:10208000229740E080E894E00E94B01E81110FC2C8
:10209000CE018D5B9F4F22E1E9E2F2E2DC0101908B
:1020A0000D922A95E1F725E029AF1AAE22E030E043
:1020B0002CAF3DAF28E428AF8EAF9FAF82E190E018
:1020C00022968EAF9FAF229740E0BE01685C7F4FA3
:1020D00080E894E00E94B01E8111EBC1CE018B5AC2
:1020E0009F4F25E0EBE3F2E2DC0101900D922A958F
:1020F000E1F78EAF9FAF85E090E022968EAF9FAF65
:10210000229740E0BE01685C7F4F80E894E00E9427
:10211000B01E8111D0C1CE01865A9F4F2CE0E0E461
:10212000F2E2DC0101900D922A95E1F725E029AF5A
:102130001AAE22E030E02CAF3DAF28E428AF8EAFDE
:102140009FAF8CE090E022968EAF9FAF229740E049
:10215000BE01685C7F4F80E894E00E94B01E811150
:10216000ACC1E0E6F6E00BC01F5F153608F0A7C172
:1021700080E090E00196803A2FE09207D9F78085C1
:1021800083FDF2CF1092CF201092D02086E090E015
:102190008093D3209093D42041E06BEC70E280E8F0
:1021A00094E00E94B01E81118CC1CE018A599F4FCC
:1021B00022E1ECE4F2E2DC0101900D922A95E1F7D4
:1021C00025E029AF1AAE22E030E02CAF3DAF28E485
:1021D00028AF8EAF9FAF82E190E022968EAF9FAF87
:1021E000229740E0BE01685C7F4F80E894E00E9447
:1021F000B01E811168C1E0E6F6E00BC01F5F153626
:1022000008F063C180E090E00196803A3FE09307D8
:10221000D9F7808583FDF2CF1092CF201092D02085
:1022200086E090E08093D3209093D42041E06BEC43
:1022300070E280E894E00E94B01E811148C1CE0196
:1022400088589F4F22E1EEE5F2E2DC0101900D9209
:102250002A95E1F725E029AF1AAE22E030E02CAF55
:102260003DAF28E428AF8EAF9FAF82E190E0229689
:102270008EAF9FAF229740E0BE01685C7F4F80E841
:1022800094E00E94B01E811124C1E0E6F6E00BC08C
:102290001F5F153608F01FC180E090E00196803A7C
:1022A0002FE09207D9F7808583FDF2CF1092CF20DF
:1022B0001092D02086E090E08093D3209093D42099
:1022C00041E06BEC70E280E894E00E94B01E811166
:1022D00004C11092CF201092D02086E090E080932D
:1022E000D3209093D42041E06BEC70E280E894E03E
:1022F0000E94B01E8111F3C01092CF201092D02006
:1023000086E090E08093D3209093D42041E06BEC62
:1023100070E280E894E00E94B01E8111E2C0CE011C
:1023200086579F4F2CE0E0E7F2E2DC0101900D922E
:102330002A95E1F725E029AF1AAE22E030E02CAF74
:102340003DAF28E428AF8EAF9FAF8CE090E022969F
:102350008EAF9FAF229740E0BE01685C7F4F80E860
:1023600094E00E94B01E8111BEC0E0E6F6E00BC012
:102370001F5F153608F0B9C080E090E00196803A02
:102380003FE09307D9F7808583FDF2CF1092CF20ED
:102390001092D02086E090E08093D3209093D420B8
:1023A00041E06BEC70E280E894E00E94B01E811185
:1023B0009EC0CE018A569F4F22E1ECE7F2E2DC019B
:1023C00001900D922A95E1F725E029AF1AAE22E09F
:1023D00030E02CAF3DAF28E428AF8EAF9FAF82E155
:1023E00090E022968EAF9FAF229740E0BE01685CDE
:1023F0007F4F80E894E00E94B01E81117AC0E0E631
:10240000F6E00BC01F5F153608F075C080E090E065
:102410000196803A2FE09207D9F7808583FDF2CFAD
:102420001092CF201092D02086E090E08093D320AD
:102430009093D42041E06BEC70E280E894E00E943D
:10244000B01E81115AC01092CF201092D02086E089
:1024500090E08093D3209093D42041E06BEC70E225
:1024600080E894E00E94B01E811149C01092CF20F4
:102470001092D02086E090E08093D3209093D420D7
:1024800041E06BEC70E280E894E00E94B01E8111A4
:1024900038C081E0809355331092563333C080E0CA
:1024A00031C080E02FC080E02DC080E02BC080E0F4
:1024B00029C080E027C080E025C080E023C080E004
:1024C00021C080E01FC080E01DC080E01BC080E014
:1024D00019C080E017C080E015C080E013C080E024
:1024E00011C080E00FC080E00DC080E00BC080E034
:1024F00009C080E007C080E005C080E003C080E044
:1025000001C080E0C055DF4FCDBFDEBFDF91CF916E
:102510001F910895CF93DF93CDB7DEB76097CDBFFE
:10252000DEBFE0E6F6E0808583FD2DC01092CF206F
:102530001092D02080E190E08093D3209093D4201B
:10254000CE0101968093D1209093D22041E06BEC94
:1025500070E280E894E00E94B01E8C818093563334
:1025600088E0FE013796A7E5B3E301900D928A95C6
:10257000E1F785E593E30E940008E0E6F6E0808558
:1025800083FFFDCF02C080E001C081E06096CDBF37
:10259000DEBFDF91CF910895CF93DF93CDB7DEB744
:1025A000E797CDBFDEBF26E1EEE8F2E2CE0101966D
:1025B000DC0101900D922A95E1F7BE01695E7F4F23
:1025C0002BE0FB0111922A95E9F728E42F8B25E0F7
:1025D000288F22E030E02B8F3C8F8D8F9E8F86E1FD
:1025E00090E08F8F98A340E080E894E00E94B01EB6
:1025F00081112AC086E1E4EAF2E2DE0192960190BE
:102600000D928A95E1F785E0888F198E82E090E03F
:102610008B8F9C8F88E48F8BCE0182968D8F9E8FBF
:1026200086E190E08F8F98A340E0BE01695E7F4F06
:1026300080E894E00E94B01E811108C08FED92E204
:102640000E942B2881E003C080E001C080E0E79673
:10265000CDBFDEBFDF91CF910895CF93DF9300D040
:102660001F92CDB7DEB78FEF80937000809371001B
:102670008093720080937300809374008093750040
:102680008093760064E081E490E00E94811C6CE11C
:1026900070E082E00E945E1D8A836DE170E082E05E
:1026A0000E945E1D898389819A81019621F480E4CC
:1026B00093E289839A8389819A818B839C83E0E664
:1026C000F0E082838C8183838FB7F894E0E5F0E0BB
:1026D0009081926090838FBF818181FFFDCF8FB702
:1026E000F894A0E5B0E016969C911697997F1696FF
:1026F0009C931697E0E6F0E090E895839BEB968339
:1027000016969C911697946016969C939081916072
:1027100090838FBF61E080E490E00E94811C8FB7BE
:10272000F894E0E5F0E090819E7F90838FBF24963F
:10273000CDBFDEBFDF91CF9108959FB7F894E82F0A
:10274000F0E0E059FF4F60958081682360839FBF70
:1027500008959FB7F894E82FF0E0E059FF4F80818B
:10276000682B60839FBF0895863011F468E101C033
:1027700060E0E0E5F0E0818181FD24C08FB7F8944E
:102780009081926090838FBF818181FFFDCF8FB751
:10279000F894A0E5B0E016969C911697997F16964E
:1027A0009C931697E0E6F0E090E895839BEB968388
:1027B00016969C911697946016969C9390819160C2
:1027C00090838FBF636084E490E00E94811C60E48A
:1027D00080E0B3CF089560E480E0BBDF60E084E494
:1027E00090E00C94811C0895CF93DF93FC017096C8
:1027F00020E030E0C62FD0E0DE01022E02C0B59509
:10280000A7950A94E2F7A0FD50832F5F3F4F3196C2
:102810002830310589F740FF0AC041FF03C0FC01A1
:10282000658302C0FC016683FC01618302C0FC0178
:102830006283DF91CF910895CF93DF93EC01C03C89
:1028400028E0D20721F468E083E077DF06C0803C0F
:10285000994019F468E084E070DF888180618883A2
:10286000DF91CF910895FF920F931F93CF93DF9342
:10287000EC01F42EB901A80100E016E32EE631E0E8
:102880000E94681D88234CF088819F2D990F990F15
:102890009C70837FF92EF82AF882DF91CF911F91E7
:1028A0000F91FF900895FB018081E82FE695E69552
:1028B000E69540E2E49FF0011124FA5F877021E081
:1028C00030E0A90102C0440F551F8A95E2F7468304
:1028D0000895FB018081E82FE695E695E69540E2B4
:1028E000E49FF0011124FA5F877021E030E0A90134
:1028F00002C0440F551F8A95E2F745830895089555
:1029000008950895089508950895089508950895DF
:102910000895089508958091843081508093843083
:10292000089580E0089580E0089563E970E380E011
:102930000C944BA80895109284301092903010920D
:10294000913081EA8093863080E2809387301092C4
:1029500088301092893010928A3010928B3082E049
:1029600090E080938C3090938D3010928E30109246
:102970008F3080E092ECA1E0B0E0809393309093B0
:102980009430A0939530B093963010929730109277
:10299000983088E08093993063E970E380E00E948A
:1029A0004BA880E00E94F12C882329F0909184307C
:1029B0009F5F909384300895FF920F931F93CF935E
:1029C000DF938091712F81119CC00E94A8248823DD
:1029D00051F0C091722FD091732F0E94B524C81767
:1029E000D90759F48EC0C091722FD091732F0E94D5
:1029F000B024C817D90709F484C0DFB7F894C09190
:102A0000742FEC2FF0E0EE0FFF1FEB58F04D80819C
:102A10009181892B09F580916E2F90916F2F0196EE
:102A200080936E2F90936F2F0E94A824811107C06E
:102A300080916E2F90916F2F8436910558F00E94EF
:102A4000A824882349F080916E2F90916F2F8032B7
:102A5000934010F4DFBF55C010926E2F10926F2F6D
:102A60008091702F811106C081E0C11180E08093B8
:102A7000742F04C081E0C11180E0C82F81E08093F1
:102A8000712FDFBFD0E0FE01EE0FFF1FEB58F04DBE
:102A9000FF24F394808191818034910509F4F12C15
:102AA000FF2091F00E94A824882339F00E94B524C9
:102AB0008093722F9093732F0BC00E94B024809349
:102AC000722F9093732F04C01092722F1092732F55
:102AD000FE01EE0FFF1FEB58F04D20813181AE015A
:102AE0000024569547950794569547950794542F7B
:102AF000402D4658504D07E815E16F2D81E80E94A2
:102B00006725DF91CF911F910F91FF90089581115B
:102B100015C02091742F81E090E0222311F080E015
:102B200090E0FC01EE0FFF1FEB58F04D1082118278
:102B30001092702F1092712F80E03ECF089580E0A8
:102B40003BCF08950F931F93862F90919230911150
:102B50001EC0409190305091913020918E30309134
:102B60008F304217530799F0209190303091913077
:102B700020938E3030938F300AEE15E12AE030E05A
:102B800046E850E360E00E946725809392301F91F1
:102B90000F9108952FB7F894662359F080919030E3
:102BA00090919130482B592B409390305093913015
:102BB0000CC0809190309091913040955095482371
:102BC000592340939030509391302FBF63E880E0B9
:102BD000B9CF0895109292308091903090919130B9
:102BE00083788093903090939130EEE8F0E3808189
:102BF0009181837880839183642F80E0A3CF0895AF
:102C000080918330815080938330809183300E9403
:102C1000F82C10928230089580917B338823ECF455
:102C20008076803209F045C080917C33813209F092
:102C300042C080918133909182330797F1F583E907
:102C400090E3809383339093843387E090E0809384
:102C500085339093863381E008958076803279F5CC
:102C600080917C33803219F08232D9F02AC0809171
:102C7000813390918233079731F585E994E1809310
:102C800087339093883383E990E3809383339093E1
:102C9000843387E090E0809385339093863381E09E
:102CA000089560917D33617080E00E94FD2C81E089
:102CB000089580E0089580E0089580E0089580E020
:102CC000089580E0089580E0089540E150E061E0DB
:102CD00080E060CF089540E450E061E080E05ACFAA
:102CE00008954FB7F8942091FB2F3091FC2FE0917D
:102CF000FD2FF0E0EE0FFF1FE250F04D808191813B
:102D0000821B930B4FBF0895ECDF21E0892B09F460
:102D100020E0822F08950F931F93CF93DF934FB737
:102D2000F8945091FD2F8091FA2F811110C02091BD
:102D3000FB2F3091FC2FC52FD0E0FE01EE0FFF1FBF
:102D4000E250F04D808191812817390718F44FBF68
:102D500080E028C01092FB2F1092FC2F81E05111CF
:102D600080E08093FD2F81E08093FA2F4FBF80E0B9
:102D7000CBDF882319F080E00E94CAA8AE010024AE
:102D8000569547950794569547950794542F402D8F
:102D90004E5F5F4C09E017E120E430E061E082E043
:102DA0000E946725DF91CF911F910F910895109296
:102DB00083301092712F1092702F1092742F1092F6
:102DC000752F1092762F1092772F1092782F1092E5
:102DD000722F1092732F80E0EFDD1092FA2F109275
:102DE000FD2F1092FE2F1092FF2F1092FB2F1092AA
:102DF000FC2F80E090DF882359F0909183309F5F13
:102E00009093833090918330913011F4909382307D
:102E100008950F931F93942F811129C08091FD2F46
:102E2000E1E08111E0E061157105B1F4F0E000240A
:102E3000F695E7950794F695E7950794FE2FE02D14
:102E4000AF014E5F5F4C09E017E120E430E061E044
:102E5000892F0E9467250BC0F0E0EE0FFF1FE250A4
:102E6000F04D608371831092FA2F80E054DF1F9140
:102E70000F91089580E048CF08951F93CF93DF937B
:102E800011E080919930893009F010E060E070E045
:102E90003FB7F8948091FB2F9091FC2F2091FD2F4C
:102EA0003FBF30E0F901EE0FFF1FE250F04D4081CF
:102EB00051818417950730F0809182308111E8CFDD
:102EC00090E020C0F9010024F695E7950794F69567
:102ED000E7950794FE2FE02DE80FF91FEE5FFF4CFA
:102EE0002081EB01C22B01968093FB2F9093FC2F46
:102EF00080E011DF112321F07C2F662710E0C8CF7E
:102F00008C2F9D2FDF91CF911F91089580E0B5CF39
:102F100008955FB7F8942091742FE22FF0E0EE0F40
:102F2000FF1FEB58F04D8081918141E0211140E07D
:102F3000E42FF0E0EE0FFF1FEB58F04D20813181C0
:102F40008034910589F46091712F61110DC06091F9
:102F5000702F611109C081E08093702F4093742F0E
:102F600020E430E080E090E05FBF280F391F80E868
:102F700090E0821B930B0895CCDF21E0892B09F4AC
:102F800020E0822F089580E0F7CF08951F93CF931C
:102F9000DF93162FC72FD1E080919930893009F047
:102FA000D0E080E0E9DF811107C08091823081119B
:102FB000F8CF80E090E02BC06FB7F8942091742F89
:102FC00030E0F901EE0FFF1FEB58F04D8081918149
:102FD000AC014F5F5F4F40835183F9010024F695A8
:102FE000E7950794F695E7950794FE2FE02D8E0F51
:102FF0009F1FFC01E658F04D10836FBFDD2329F0C1
:103000001C2FCC0FCC0BD0E0CCCF81E090E0DF9137
:10301000CF911F910895BC0180E0B8CF08957F92B1
:103020008F929F92AF92BF92CF92DF92EF92FF92D8
:103030000F931F93CF93DF936B018A018091993097
:10304000893011F4000F111F6894AA24A6F8B12C3E
:1030500080E092DF811107C0809182308111F8CF2A
:10306000802F912F38C07FB6F8948090742F912CC8
:10307000F401EE0FFF1FEB58F04DE080F180C50129
:103080008E199F09E8018017910708F4EC01C4012B
:103090000024969587950794969587950794982F81
:1030A000802D8E0D9F1DAE01B6018658904D0E9459
:1030B0009EA9F401EE0FFF1FEB58F04DEC0EFD1E24
:1030C000E082F1827FBECC0EDD1E0C1B1D0B09F0D1
:1030D000BFCF80E090E0DF91CF911F910F91FF90E3
:1030E000EF90DF90CF90BF90AF909F908F907F90A8
:1030F0000895AB01BC0180E092CF0895E0919F302C
:10310000F091A0300190F081E02D228133812E0FCB
:103110003F1FFC014081E40FF11DE217F307A0F40B
:1031200081818430A1F0861306C014C0818184306F
:10313000A1F08617A9F08081E80FF11DE217F307CF
:10314000A8F380E090E0089580E090E0089580E0AA
:1031500090E008958E2F9F2F089580E090E00895CD
:103160008E2F9F2F089580917D338F770C94AA2402
:1031700008959091A130992381F1E0919F30F091D1
:10318000A0300190F081E02D9481891740F5E09303
:103190009D30F0939E30228133812E0F3F1FE21726
:1031A000F307F8F49181943061F49281981309C087
:1031B0009381961306C0E0939D30F0939E3081E09A
:1031C00008959081E90FF11DE217F30758F3E0939A
:1031D0009D30F0939E3080E0089580E0089580E077
:1031E000089580E00895FF920F931F93CF93DF938C
:1031F000C82F60E0BEDFF82E882381F1A0919F30B8
:10320000B091A030EC2FF0E0EE0FFF1F12962D9141
:103210003C911397E20FF31F00811181D80116969C
:10322000ED91FC9117971995682F8C2FA2DFF82E3E
:103230008823A1F0C0919D30D0919E3065E0CE01F1
:103240005DDFEC01009721F08A810E942826F6CFED
:10325000D8011296ED91FC91139719958F2DDF915E
:10326000CF911F910F91FF9008951F93CF93DF93FC
:10327000182F7FDF882341F1C0919D30D0919E307F
:1032800065E0CE013BDFEC01009749F04C815D81A8
:103290006B818A810E94C1248111F2CF15C0A09157
:1032A0009F30B091A030812F90E0880F991F129627
:1032B000ED91FC911397E80FF91F0190F081E02D3B
:1032C0000190F081E02D1995DF91CF911F91089524
:1032D00080919D3090919E3008950C9432240895F1
:1032E000CF938091A1308823C1F0E0919F30F0917D
:1032F000A0300190F081E02D8481882371F0C0E03E
:103300008C2F71DFCF5FE0919F30F091A030019062
:10331000F081E02D8481C81798F31092A13081E0EC
:1033200090E08093A2309093A330CF9108950E94B3
:10333000F523D6CF0895CF938091A130882341F112
:10334000E0919F30F091A030A081B18114968C91D2
:103350008823F1F0C0E08C2F90E0880F991F028045
:10336000F381E02DE80FF91F0190F081E02D00843A
:10337000F185E02D309709F01995CF5FE0919F30EE
:10338000F091A030A081B18114968C91C81718F3E8
:10339000CF910895EF92FF920F931F93CF93DF93F6
:1033A00010928533109286331092873310928833AF
:1033B0001092893310928A3320917B3322230CF0B0
:1033C00085C28091813390918233009709F083C246
:1033D00079C22F7109F0A4C030917C33363089F066
:1033E000383009F491C031119BC0029741F462E07A
:1033F00070E082EA90E30E94B82401E0E6C100E0B8
:10340000E4C120917D3330917E33832F9927823020
:10341000910581F08330910579F1019709F06CC035
:103420008091002090910120DC016C9170E00E945D
:10343000B82451C0E0910020F09101208189281723
:1034400008F05CC0C9019927880F991F880F991F40
:10345000E0910220F0910320E80FF91F8081918113
:10346000FC01628173810E94B824E0918333F09162
:10347000843382E081832FC033272130310589F0E6
:1034800048F02230310509F42BC22330310509F40C
:103490002BC236C064E070E088E091E20E94B8245C
:1034A0001AC08FEF90E227E0382FACEEB0E2E82FA1
:1034B000F92F819190E08D939D938E2F831B82171E
:1034C000C0F3220F62E0620F6093EA2070E08AEEA0
:1034D00090E20E94B82480918133909182332091B0
:1034E0008533309186338217930760F48093853358
:1034F0009093863301E069C100E067C100E065C1D7
:1035000000E063C101E061C1019741F461E070E056
:1035100081EA90E30E94B82401E057C100E055C160
:10352000213009F040C030917C333A30E1F5019709
:10353000A1F58091A130882391F1C0917F33D09182
:103540008033E0909F30F090A030D701ED91FC9156
:103550008481C81730F560E08C2F0BDE082F88239C
:1035600009F433C1CE019927880F991FD70112960C
:10357000ED91FC911397E80FF91F0190F081E02D78
:103580000680F781E02D199580939C3061E070E012
:103590008CE990E30E94B82418C100E016C100E055
:1035A00014C100E012C1223009F011C120917C3316
:1035B000211106C1029789F480917F330E94222550
:1035C00090E080939A3090939B3062E070E08AE9BB
:1035D00090E30E94B82401E0F8C000E0F6C02F712B
:1035E00009F091C080917C33833009F4EBC018F46A
:1035F0008130B1F088C0853019F0893061F183C025
:103600008091813390918233892B41F483EB98E14F
:10361000809387339093883301E0D7C000E0D5C012
:103620008091813390918233892B89F480917D330D
:1036300090917E33019769F48091A2309091A330EC
:103640008D7F8093A2309093A33001E0BEC000E054
:10365000BCC000E0BAC08091813390918233892B45
:1036600009F047C00E94AD24882309F444C020918A
:103670007D3330917E333327E0910020F09101209B
:10368000818990E082179307C0F12ADE80917D3313
:1036900090917E338093A130882389F199278150BE
:1036A000904C880F991F880F991FE0910220F0918C
:1036B0000320E80FF91FE0939F30F093A0300190B2
:1036C000F081E02D84818823E1F0C0E060E08C2F60
:1036D000CCDD082F882309F478C0CF5FE0919F30BC
:1036E000F091A0300190F081E02D8481C81770F333
:1036F0006CC000E06AC000E068C000E066C001E0A5
:1037000064C001E062C0213009F580917C338B30C8
:10371000E9F48091813390918233892B99F48091DF
:10372000A130882389F0C0917F33D0917D338C2FD5
:103730005ADD082F882309F448C06D2F8C2F95DDA2
:10374000082F43C000E041C000E03FC0223009F034
:103750003EC080917C33813019F08330B9F034C0A1
:103760008091813390918233892B61F480917D33F4
:1037700090917E33892B41F480917F330E943D25C7
:10378000082F23C000E021C000E01FC080918133DA
:1037900090918233892B81F480917D3390917E3397
:1037A000892B61F4CFE7D3E388810E94EF258881DC
:1037B0000E944526082F09C000E007C000E005C0B0
:1037C00000E003C000E001C000E0011191C0809161
:1037D0007B338F718130C1F58091A1308823A1F1B5
:1037E000C0917F33D091803300919F301091A030F1
:1037F000D801ED91FC918481C81730F560E08C2FE1
:10380000B8DC882309F1CE019927880F991FD801C8
:103810001296ED91FC911397E80FF91F0081118129
:10382000D8011696ED91FC9117971995682F8C2F5A
:10383000A0DC882349F0D8011496ED91FC911597EE
:103840001995082F811154C080917B338F7182307C
:10385000D9F58091A130882389F1E0919F30F091D2
:10386000A030A081B18114968C91882349F110E099
:10387000212F30E0220F331F0280F381E02DE20F71
:10388000F31FC081D181EE81FF811995682F812FAF
:1038900070DC082F882361F1EC81FD811995082FD8
:1038A000811126C01F5FE0919F30F091A030A08170
:1038B000B18114968C911817D8F21AC000E018C084
:1038C00000E016C000E014C000E012C0822F807635
:1038D00009F07DCF84CE322F307609F078CF79CDC4
:1038E00024E08AEF90E2E0CD27E08EEE92E2DCCD9C
:1038F000802FDF91CF911F910F91FF90EF9008954E
:1039000008951BBEFC0128ED24BF60830895E0EC00
:10391000F1E027852223ECF3ECECF1E02081286034
:103920002083DC01B05F8C919081977F9083089514
:10393000E0ECF1E087858823ECF3E0ECF1E08785AB
:1039400081FF06C086E3828761E08BEC91E0D9CFEE
:103950000895E0ECF1E097859923ECF3ECECF1E0CD
:10396000908198609083A82FB0E0B05F6C938081C5
:10397000877F80830895FF920F931F93CF93DF93E8
:10398000182FF92EC62FE0ECF1E00285D1DFE0EC34
:10399000F1E027852223ECF36C2F812FDADFC0ECD6
:1039A000D1E01A82F982188385E38A8761E08BEC83
:1039B00091E0A7DF0A87DF91CF911F910F91FF90D0
:1039C0000895EF92FF920F931F93CF93DF938C0193
:1039D000E0ECF1E087858823ECF3780180E2E80EE3
:1039E000F11CE8018C2F801B6991B3DFCE15DF0538
:1039F000C9F7DF91CF911F910F91FF90EF9008953C
:103A00001F93CF93DF93E0ECF1E097859923ECF3DC
:103A100020E2829FC0011124C0ECD1E01A82998378
:103A200088831A8585E38A8761E08BEC91E069DF02
:103A30001A87DF91CF911F910895CF92DF92EF9275
:103A4000FF920F931F93CF93DF93EC017B018A01C9
:103A50004115510551F1CE018F719927892BB1F490
:103A60000032110598F0C701ACDFCE01969587951D
:103A7000929582958F7089279F708927C1DFA096C4
:103A800080E2E80EF11C005211090CC06E01EFEF4C
:103A9000CE1ADE0AF70161917F01CE016CDF015081
:103AA0001109E60101151105B1F6DF91CF911F91C2
:103AB0000F91FF90EF90DF90CF9008954091CA0151
:103AC000E62FF72F8093CA0184914093CA0108958D
:103AD000CF92DF92EF92FF920F931F93CF93DF93DA
:103AE000EC016A017B01DB01CA010197A109B1095F
:103AF000BC01CD01600F711F821F931FA7019601AA
:103B00000E9469A92138310541055105F8F4213495
:103B100060F4213260F4213160F4293060F4253002
:103B200060F4233060F090E00BC093E009C092E0B5
:103B300007C092E805C091E003C091E801C090E899
:103B400088818C77892B888381E001C08FEFDF919A
:103B5000CF911F910F91FF90EF90DF90CF9008953C
:103B6000CF93DF93E091A430F091A530848183FF5F
:103B700008C08860848383E0838386EF8093AE30BF
:103B800089C0982F947131F083E083838FEF809305
:103B9000AE3080C086FF45C0A091A630B091A7305E
:103BA0008091A8309091A93014962D913C91159751
:103BB000821793076CF49C012F5F3F4F2093A8302E
:103BC0003093A930A80FB91F11968C91878362C0DA
:103BD0008091AA309091AB3018962D913C91199715
:103BE00082179307C8F42091AC30222321F08681FC
:103BF000816086834FC016962D913C911797AC013A
:103C00004F5F5F4F4093AA305093AB30D901A80F5C
:103C1000B91F8C9187833EC083E083831092AE30BE
:103C200039C08823A4F5A091A630B091A730809127
:103C3000AA309091AB3018962D913C91199782172C
:103C40009307F8F416964D915C9117979C012F5F9E
:103C50003F4F2093AA303093AB306781EA01C80F01
:103C6000D91F688318968D919C9119972817390749
:103C700018F482E083830EC087E083831092AE3015
:103C800009C083E0838389EF8093AE3003C08BEF5C
:103C90008093AE30DF91CF9108951F920F920FB6AF
:103CA0000F9211240BB60F922F933F934F935F9374
:103CB0006F937F938F939F93AF93BF93EF93FF93F4
:103CC0004FDFFF91EF91BF91AF919F918F917F91C6
:103CD0006F915F914F913F912F910F900BBE0F907D
:103CE0000FBE0F901F9018951F920F920FB60F9254
:103CF00011240BB60F922F933F934F935F936F93C3
:103D00007F938F939F93AF93BF93EF93FF9328DF9E
:103D1000FF91EF91BF91AF919F918F917F916F91A3
:103D20005F914F913F912F910F900BBE0F900FBE5F
:103D30000F901F901895FC01DB0114968C918583E0
:103D400088EB818381E084831092AD301092AE3095
:103D5000E0EAF0E0828182608283789480E00895D6
:103D6000009709F453C06115710509F451C0FB01B6
:103D700032852091AD3002C031114CC02111FCCFF1
:103D80002FB7F89431E03093AD3030E83093AE3057
:103D90002FBF8093A4309093A5306093A63070938A
:103DA000A7301092A8301092A9301092AA30109229
:103DB000AB304093AC30FB012081522F550F248152
:103DC0003581232B11F4411103C0FC01568303C03C
:103DD0005160FC015683EEEAF0E380818038E9F31C
:103DE000E091A430F091A53084818370813049F056
:103DF000A4EAB0E3ED91FC91119784818370813046
:103E0000C9F78091AE301092AD30089588EF0895D3
:103E100088EF089586EF0895FC01818185FFFDCF2D
:103E2000608380E090E00895FC0181818823ECF7B5
:103E3000808108954F925F926F927F928F929F92AE
:103E4000AF92BF92CF92DF92EF92FF920F931F93A8
:103E5000CF93DF93EC014A015B0128013901D901BD
:103E6000C801689412F8B695A7959795879516940A
:103E7000D1F7B901A801032E36E1769567955795DC
:103E800047953A95D1F7302D2C8122FD08C0B69583
:103E9000A795979587957695679557954795881532
:103EA0009905AA05BB0508F4A6C084169506A606C2
:103EB000B70608F4A2C08C8182FD04C0880C991C4E
:103EC000AA1CBB1CC301B201A50194010E9469A9EF
:103ED0002F3F31054105510508F491C0C12CD12C6B
:103EE0007601CA9419EF05C02C153D054E055F05F6
:103EF00068F0CC0CDD1CEE1CFF1C1D3F14F4689414
:103F0000C0F81F5F173081F7212F50C0212F1123D8
:103F10000CF04CC0D501C401880F991FAA1FBB1F0C
:103F2000880F991FAA1FBB1F880F991FAA1FBB1FAD
:103F3000481A590A6A0A7B0A1E3FF4F46DEF7FEFB4
:103F4000611B710917FD739504C0440C551C661C58
:103F5000771C6A95D2F7D501C401B695A7959795B8
:103F60008795BC01CD01640D751D861D971DA501AA
:103F700094010E9469A936C023E0210FD501C40134
:103F800004C0880F991FAA1FBB1F2A95D2F79C0156
:103F9000AD01B695A79597958795BC01CD01640DA8
:103FA000751D861D971D0E9469A91CC02D5FD50136
:103FB000C40104C0880F991FAA1FBB1F2A95D2F7FE
:103FC0009C01AD01B695A79597958795BC01CD014C
:103FD000640D751D861D971D0E9469A92150310928
:103FE00041095109832F8F701295107F182B1F8361
:103FF0002E8381E018C080E016C080E014C0D50197
:10400000C401880F991FAA1FBB1F880F991FAA1FE1
:10401000BB1F880F991FAA1FBB1F481A590A6A0A9B
:104020007B0A19EF8BCFDF91CF911F910F91FF90FA
:10403000EF90DF90CF90BF90AF909F908F907F9048
:104040006F905F904F9008950F931F93CF93DF93DE
:10405000EC018B01009709F403C1803C910529F420
:1040600060E180E00E949D13FBC0C03881E0D8076A
:1040700029F462E080E00E949D13F2C0C115E1E0E6
:10408000DE0729F461E080E00E949D13E9C0C0389A
:10409000F3E0DF0729F461E081E00E949D13E0C0B6
:1040A000C03983E0D80729F461E082E00E949D13C3
:1040B000D7C0C115E2E0DE0729F462E081E00E948A
:1040C0009D13CEC0C034F2E0DF0729F462E082E045
:1040D0000E949D13C5C0C03283E0D80729F464E074
:1040E00082E00E949D13BCC0C115E8E0DE0729F400
:1040F00061E083E00E949D13B3C0C115F9E0DF07C2
:1041000029F461E084E00E949D13AAC0C1158AE0F1
:10411000D80729F461E085E00E949D13A1C0C11574
:10412000EBE0DE0729F461E086E00E949D1398C071
:10413000C034F8E0DF0729F462E083E00E949D13B9
:104140008FC0C03489E0D80729F462E084E00E947F
:104150009D1386C0C034EAE0DE0729F462E085E002
:104160000E949D137DC0C039F8E0DF0729F464E0A8
:1041700083E00E949D1374C0C03989E0D80729F4F8
:1041800064E084E00E949D136BC0C039EAE0DE0762
:1041900029F464E085E00E949D1362C0C039FBE011
:1041A000DF0729F464E086E00E949D1359C0C03CFB
:1041B00088E0D80729F468E083E00E949D1350C08E
:1041C000C03CE9E0DE0729F468E084E00E949D132A
:1041D00047C0C03AF8E0DF0729F460E183E00E94BD
:1041E0009D133EC0C03A89E0D80729F460E184E01D
:1041F0000E949D1335C0C03AEAE0DE0729F460E171
:1042000085E00E949D132CC0C03AFBE0DF0729F433
:1042100060E186E00E949D1323C0C03B88E0D80780
:1042200029F460E283E00E949D131AC0C03BE9E0DC
:10423000DE0729F460E284E00E949D1311C0C038BB
:10424000F4E0DF0729F460E483E00E949D1308C0D6
:10425000C03A84E0D80721F460E485E00E949D1311
:104260008D818F738D83F80194818581892B96814F
:10427000992311F098E001C090E0892B8D83F8011B
:10428000408151816281738100E016E32EE631E0C6
:10429000CE01D0DD9C8198609C839C8190619C8341
:1042A000DF91CF911F910F910895811118C09091C6
:1042B0000C33992389F09FB7F894E6E7F3E3208164
:1042C000215020839FBF08C09FB7F894E6E7F3E32F
:1042D00020812F5F20839FBF80930C33089590919E
:1042E0000C33992389F3F8CF0F93E8ECF4E0808145
:1042F0008F7D808380818F7D8083E0EBF2E302E01D
:1043000005931092B2321092B33200E2069300E4A9
:104310000693E8EAF2E300E2069300E406931092C3
:104320008733109288331092893310928A33109217
:1043300085331092863310928E320F9108950F9329
:1043400085E080938E32E1EBF2E304E00593E9EA45
:10435000F2E304E005930F9108950F9383E08093B7
:104360008E321092B2321092B332E0EBF2E302E0FE
:1043700006930F910895E0918733F0918833309739
:1043800009F0199508950F93CF93DF9380918E32A2
:10439000833019F4F0DFA8DF60C080918A329091F9
:1043A0008B32C0918533D0918633C81BD90B71F500
:1043B00020918C3230918D32820F931F80938C32FA
:1043C00090938D32209181333091823382179307FD
:1043D00021F08091AF30882341F084E080938E32C9
:1043E000E8EAF2E302E0069338C0E0918933F09105
:1043F0008A33309799F01995882381F010928A3288
:1044000010928B32C0918533D0918633C034D10560
:1044100028F01092AF30C0E4D0E003C081E0809378
:10442000AF30C093B232D093B33280918A32909140
:104430008B322091833330918433280F391F20939E
:10444000B4323093B532C80FD91FC0938A32D0939B
:104450008B32E0EBF2E302E00693DF91CF910F9114
:104460000895FC018181877090E0FC013197E7306D
:10447000F10520F4E250FF4F0C948BA988E090E006
:10448000089580E290E0089580E490E0089580E847
:1044900090E0089580E091E0089580E092E0089532
:1044A0008FEF93E0089580E190E00895282F2F701A
:1044B00030E0220F331F992787FD90958827990FA9
:1044C000881F9927820F931F02979C01220F331F89
:1044D000220F331F220F331F820F931F80519E4CD8
:1044E00008950F93CF938091CC0480FF63C081E047
:1044F0008093CC04E8EAF2E300E80693E0EBF2E311
:1045000000E806938093CA04E8EAF2E300E1069328
:1045100080918E32882329F08350823008F42BDF7B
:10452000E3DE8091AA329091AB32089709F044C043
:1045300088E0EAE4F2E3ABE7B3E301900D928A95F9
:10454000E1F7E8ECF4E08081806280838081806222
:1045500080830E94CA19C82F811103C0F0DEC1E018
:104560002CC080917B3388236CF410928C32109293
:104570008D3210928A3210928B3282E080938E328A
:1045800002DF1BC02091813330918233232B11F441
:10459000E4DE13C010928C3210928D3210928A3267
:1045A00010928B3281E080938E32E8EAF2E302E0EF
:1045B000069303C0C0E001C0C1E08C2FCF910F91E2
:1045C0000895BF92CF92DF92EF92FF920F931F93C5
:1045D000CF93DF93B82E6ADFEC011B2D111F11273B
:1045E000111F8B2D8F70E82EF12CEE0CFF1CE10EAD
:1045F000F11CC701880F991F880F991F880F991FF9
:104600009C0128553D4C7901C9012BDF6C01112318
:1046100009F45BC0D70116962D913C9117978D81B7
:104620009E81280F391F2D833E838B819C81281703
:104630003907C9F1FC01E21BF30B9F012115F4E0DE
:104640003F0740F02FEF33E0C901B6010E9455A9A2
:10465000281B390B888181FF0AC0C901B6010E945D
:1046600055A941E0892B09F040E0942F01C090E06A
:10467000888190FB81F98883D70116961D921C9240
:10468000179712962D933C93139729813A818D8128
:104690009E81820F931F14968D939C931597F7011B
:1046A00002E0069398C0888181FF87C08D7F888350
:1046B000D70116961D921C92179712961D921C9266
:1046C0001397F70102E0069386C0D70112960D9169
:1046D0001C911397888182FF15C0E981FA812D8191
:1046E0003E818B819C81B6010E9455A9B0E4BB9E9E
:1046F000B001112460597F4CAC01CF01820F931F90
:104700000E949EA92D813E81200F311F2D833E8363
:10471000EB81FC81E217F30710F4ED83FE83D701F0
:1047200016968D919C9117978017910709F045C0B7
:104730008D819E81E817F90709F43FC0E81BF90B4A
:10474000E115B4E0FB0748F0EFEFF3E0CF01B6016D
:104750000E9455A9E81BF90B06C0CF01B6010E94C3
:1047600055A9E81BF90BD70112961D921C921397BD
:10477000EC15FD0578F4888184608883B0E4BB9EE5
:10478000C001112480599F4CF70184839583C68210
:10479000D7820FC029813A818D819E81820F931F1C
:1047A000D70114968D939C9315971696ED93FC93D1
:1047B0001797F70102E006930EC0888180FF0BC0B7
:1047C0008E7F8883EF81F885309729F06D817E8117
:1047D0004B2D80E01995DF91CF911F910F91FF90A4
:1047E000EF90DF90CF90BF900895CF93CFB7F8941C
:1047F000E1ECF4E080818E7F80831092C00410820F
:104800000E94EB1380E051DD8FB7F894EAE7F3E301
:104810009081915090838FBFCFBFCF910895CF9358
:10482000CFB7F89481E041DDEAECF4E080E48083E6
:1048300080E28083E1ECF4E0808181608083A9ECF8
:10484000B4E08C9182608C93E8ECF4E08081806429
:1048500080838C9181608C93808180688083CFBFBE
:10486000CF910895CF93DF93C0E6D0E0188280E324
:104870000E94B413E0ECF4E080818064808381E0E6
:104880008883CFB7F89480E090E0FC01EE0FFF1F23
:10489000EE0FFF1FEE0FFF1FE755FD4C1082019634
:1048A0008C30910591F780E090E0FC01EE0FFF1F46
:1048B000EE0FFF1FEE0FFF1FE80FF91FE051FE4C38
:1048C00020812E7F208301968A30910571F76AE15D
:1048D00070E082E0F3D88F3F19F08093FA0403C0B0
:1048E0008FE18093FA046BE170E082E0E7D88F3FBC
:1048F00019F08093FB0403C08FE18093FB04E0EC8C
:10490000F4E08081856080838081806880838081FD
:104910008061808388EA92E38683978380818062C6
:1049200080838FEF8093C504E8ECF4E080818160A0
:10493000808310920C338FB7F894EAE7F3E3908109
:104940009F5F90838FBF6BDFCFBFDF91CF910895C3
:1049500080E008958093C30408958091C30408956E
:104960008091083390910933089580E090E0089594
:10497000809383339093843360938533709386332D
:104980000895E82FEF70F0E0EE0FFF1F992787FDE5
:1049900090958827990F881F9927E80FF91FEE0F28
:1049A000FF1FEE0FFF1FEE0FFF1FE855FD4C81812B
:1049B000807C09F043C06370613029F010F480E41A
:1049C00003C080E801C080EC40385105E1F050F4AC
:1049D00040325105A1F04034510599F04031510564
:1049E00061F419C0411592E0590789F04F3F93E0F7
:1049F000590779F04115514041F020E00DC022E007
:104A00000BC023E009C024E007C025E005C026E074
:104A100003C027E001C021E0118296E09083822B41
:104A200081838181807C803C21F481818770873003
:104A300039F081818062818381E0089580E008956A
:104A400081E00895E82FEF70F0E0EE0FFF1F992747
:104A500087FD90958827990F881F9927E80FF91FE0
:104A6000EE0FFF1FEE0FFF1FEE0FFF1FE855FD4C6F
:104A7000818182FB882780F90895E82FEF70F0E0AC
:104A8000EE0FFF1F282F332727FD30952227330FE6
:104A9000221F3327E20FF31FEE0FFF1FEE0FFF1F42
:104AA000EE0FFF1FE855FD4C918192FF0EC09181E2
:104AB0009B7F9183FBDCFC01808180FF06C08E7FA1
:104AC00080830780F085E02D199581E008957F921D
:104AD0008F929F92AF92BF92CF92DF92EF92FF920E
:104AE0000F931F93CF93DF93982E862E5A0169015F
:104AF000DDDC7C01792C771C7724771CC92DCF70E5
:104B0000D0E0CC0FDD1FC70DD11DCC0FDD1FCC0FAA
:104B1000DD1FCC0FDD1FC855DD4C8981807C09F479
:104B20004CC08981807C803C19F0898182FD47C01E
:104B30008FB7F894F701908190FF03C08FBF712C5D
:104B40003FC0F7019081916090838FBFF701A182F0
:104B5000B282C382D48215821682078310878110A5
:104B600006C091E0C114D10419F090E001C091E0B9
:104B7000F701808190FB81F98B7F8083772019F08A
:104B80001E821F8215C08981807C803C69F4CE0121
:104B900068DCBC01C6010E9455A9892B29F0F701E8
:104BA00080818E7F80830CC01A821B821E821F82AE
:104BB000892D07DD7724739403C0712C01C0712CFB
:104BC000872DDF91CF911F910F91FF90EF90DF9094
:104BD000CF90BF90AF909F908F907F900895FF925D
:104BE0000F931F93CF93DF93182FF82EFF1CFF24F2
:104BF000FF1CC82FCF70D0E0CC0FDD1FCF0DD11D13
:104C0000CC0FDD1FCC0FDD1FCC0FDD1FC855DD4CD9
:104C10004DDCDC01FE0102E005938C9180FF12C0A7
:104C20008E7F8C931796ED91FC911897309751F0E9
:104C3000FF2019F06E817F8102C06A817B81412F44
:104C400081E01995DF91CF911F910F91FF90089509
:104C5000CF93C82FC4DFEC2FEF70F0E0EE0FFF1FF3
:104C60008C2F992787FD90958827990F881F992762
:104C7000E80FF91FEE0FFF1FEE0FFF1FEE0FFF1FD4
:104C8000E855FD4C1182CF9108950F93E82FEF70F6
:104C9000F0E0EE0FFF1F282F332727FD3095222746
:104CA000330F221F3327E20FF31FEE0FFF1FEE0F0C
:104CB000FF1FEE0FFF1FE855FD4C9181946091831B
:104CC00001E006938CDF81E00F9108951F920F920F
:104CD0000FB60F9211240BB60F920F932F933F93A1
:104CE0004F935F936F937F938F939F93AF93BF93F4
:104CF000CF93EF93FF938091CB0488233CF480E81B
:104D00008093CA040E949B1963D68FC08091CB0404
:104D100082FF20C084E08093CA048091B03286FF75
:104D200084C08091CC0481FD80C0DBDB81117DC01B
:104D300080918E32813011F410DB77C0843009F01D
:104D400074C0E1EBF2E304E00593E9EAF2E304E086
:104D500005936BC08091CB0481FF62C082E0809399
:104D6000CA048091A83286FF60C08091CC0481FD86
:104D70005CC0B7DB811159C080918E32823041F422
:104D800084E080938E32E8EAF2E302E006934DC0BD
:104D9000833009F04AC0E1EBF2E304E00593E9EA6D
:104DA000F2E304E0059341C080E18093CA04C1E0CE
:104DB0008C2F15DF8C2F806812DFCF5FC530C1F7D5
:104DC0000E9470191092C304E9EAF2E3108296E09F
:104DD0009093A83283E48083E1EBF2E31082909316
:104DE000B03280838AE492E38093AC329093AD3208
:104DF0007BDA1BC08091CB0486FF07C080E48093E0
:104E0000CA0480E052DADED510C08091CB0485FF61
:104E10000CC080E28093CA0481E047DAD6D505C091
:104E20008091CB0484FDC0CFE5CFFF91EF91CF916E
:104E3000BF91AF919F918F917F916F915F914F91B2
:104E40003F912F910F910F900BBE0F900FBE0F90BF
:104E50001F9018951F920F920FB60F9211240BB648
:104E60000F920F931F932F933F934F935F936F93E3
:104E70007F938F939F93AF93BF93CF93DF93EF93E2
:104E8000FF938091CC0481FD03C02BDB8111B9C05D
:104E900082E08093CC048091C5048195880FE8EA74
:104EA000F2E3E81BF10920813181285A324336951B
:104EB00027953695279536952795822F869520FF3D
:104EC00002C090E801C090E0890FE82FEF70F0E099
:104ED000EE0FFF1F282F332727FD30952227330F92
:104EE000221F3327E20FF31FEE0FFF1FEE0FFF1FEE
:104EF000EE0FFF1FE855FD4C908195FF82C000E248
:104F00000693811179C080918E32843019F433DA9E
:104F1000EBD977C0C091AA32D091AB328091853362
:104F20009091863300918A3210918B3298012C0F28
:104F30003D1F8217930718F4EC01C01BD10B809121
:104F4000833390918433AE016AE472E3800F911F42
:104F50000E949EA90C0F1D1F00938A3210938B3262
:104F6000C034D10569F480918C3290918D32800FDC
:104F7000911F20918133309182338217930788F0FB
:104F80000093853310938633E0918933F0918A330F
:104F9000309729F01995811102C0D1D932C0DDD9DD
:104FA00030C0809185339091863308171907F9F442
:104FB000E0918933F0918A33309711F4C0D921C040
:104FC0001995811102C0BBD91CC020918C3230913F
:104FD0008D3280918A3290918B32820F931F809311
:104FE0008C3290938D3210928A3210928B32E8EA92
:104FF000F2E302E0069305C0803811F4C4D901C081
:10500000E0DAFF91EF91DF91CF91BF91AF919F9146
:105010008F917F916F915F914F913F912F911F9150
:105020000F910F900BBE0F900FBE0F901F90189511
:105030000E949719EEEFF0E082E08CBF199408957A
:10504000FC0101900020E9F73197BF01681B790B43
:105050000C9479180895CF93DF93EC01F1DF86EF7C
:1050600092E2EEDF69EF72E2CE010E94A7A9892BDE
:1050700019F486EF92E2E4DFDF91CF910895209159
:105080000C21622309F0E7CF089580930C21089545
:10509000CF92DF92EF92FF920F931F93CF93DF9304
:1050A000082F10E0000F111FE801C157DC4C888168
:1050B00099810E941C14B80165577C4CFB01C0808B
:1050C000D12CE12CF12C00E412E42FE030E040E0A0
:1050D000888199810E943314E881F98180818064FC
:1050E000808381E0DF91CF911F910F91FF90EF902E
:1050F000DF90CF900895BF92CF92DF92EF92FF9210
:105100000F931F93CF93DF93B62EC82FD0E06E017D
:10511000CC0CDD1C860105571C4CA60141575C4C8C
:105120007A01B801DA018D919C910E945314F60125
:10513000E457FC4C8081E82FE695E695E695B0E2D1
:10514000EB9FF0011124FA5F877021E030E0A901A4
:1051500002C0440F551F8A95E2F74683D701ED91AF
:10516000FC911197B382ED91FC9182818823ECF739
:105170008AEF8383FE01EE0FFF1FE157FC4C019085
:10518000F081E02D82818823ECF7CE01880F991FF2
:10519000DC01A457BC4C2C91A22FA695A695A695F0
:1051A00030E2A39FD0011124BA5F277041E050E0A4
:1051B000BA0102C0660F771F2A95E2F715966C9325
:1051C0002FEF2383FC01E157FC4C0190F081E02D8F
:1051D00082818823ECF7F3808FEF8383CC0FDD1F70
:1051E000C157DC4CE881F98182818823ECF7C381C7
:1051F000B801CF010E9469148C2F90E0982F882766
:105200008F0D911DDF91CF911F910F91FF90EF9026
:10521000DF90CF90BF9008959F92AF92BF92CF92B0
:10522000DF92EF92FF920F931F93CF93DF93962E0F
:10523000A42EB52E082F10E06801CC0CDD1CA601B1
:1052400045575C4C7A01E601C157DC4CBA018881B4
:1052500099810E945314F601E457FC4C8081E82F99
:10526000E695E695E69550E2E59FF0011124FA5F98
:10527000877021E030E0B90102C0660F771F8A9580
:10528000E2F76683E881F9819382E881F98182817E
:105290008823ECF7C801880F991FDC01A457BC4C88
:1052A0002C91A22FA695A695A69570E2A79FD00156
:1052B0001124BA5F277041E050E0BA0102C0660FC6
:1052C000771F2A95E2F715966C93A382FC01E157AC
:1052D000FC4C0190F081E02D82818823ECF7B382B1
:1052E000F801EE0FFF1FE157FC4C0190F081E02D1B
:1052F00082818823ECF7B701CF010E946914DF9106
:10530000CF911F910F91FF90EF90DF90CF90BF90C2
:10531000AF909F900895CF93C82F48E250E06FEB75
:105320007BDF40E053E567E070E0415051096109DF
:1053300071094115510561057105B9F740E150E06A
:105340006FEB8C2F69DF40E059E06DE370E0415076
:105350005109610971094115510561057105B9F7D7
:1053600049E250E06FEB8C2F57DF40E053E567E0F8
:1053700070E04150510961097109411551056105FC
:105380007105B9F741E150E06FEB8C2F45DFCF910C
:105390000895CF93C82F87E093E25DDE40E85AE19D
:1053A00066E070E0415051096109710941155105EC
:1053B00061057105B9F741E050E06CEB8C2F2CDFF3
:1053C00080E090E0019681152AEF9207D9F741E13C
:1053D00050E06FEB8C2F20DF40E450E66AE070E095
:1053E0004150510961097109411551056105710566
:1053F000B9F749E250E06FEB8C2F0EDF40E858E33D
:1054000061E070E041505109610971094115510590
:1054100061057105B9F742E050E06CEB8C2FFCDEC2
:105420004EEF57E06FEB8C2FF7DE40E85AE166E075
:1054300070E041505109610971094115510561053B
:105440007105B9F749EA5AEF6FEB8C2FE5DE80E082
:1054500090E0019681152AEF9207D9F74EEF50E0C0
:105460006FEB8C2FD9DE80E090E0019681152AEF5A
:105470009207D9F741E050E06CEB8C2FCDDE80E055
:1054800090E0019681152AEF9207D9F74BE453E09B
:1054900067EB8C2FC1DECF910895CF93C82F89E1A0
:1054A00093E2D9DD43E453E067EB8C2FB5DE20E0D7
:1054B00030E02F5F3F4F21158AEF3807D1F741E0E9
:1054C00050E06CEB8C2FA8DE20E030E02F5F3F4FE8
:1054D00021158AEF3807D1F748E250E06FEB8C2FA7
:1054E0009BDE20E030E02F5F3F4F21158AEF380729
:1054F000D1F740E150E06FEB8C2F8EDE80E898E32F
:10550000A1E0B0E00197A109B1090097A105B1059B
:10551000C9F7CF910895CF93C82F4AEF50E064EDBB
:105520007BDE60EB8C2FE7DDCF910895CF93C82F02
:1055300040E854E86EE170E0415051096109710999
:105540004115510561057105B9F781E080930D336F
:105550008C2FE1DF8832984229F08CE293E27BDDE8
:1055600080E01DC146E152E061EB8C2F55DE4CE935
:1055700056E062EB8C2F50DE40E258E263EB8C2F5A
:105580004BDE48E354E064EB8C2F46DE40E857E006
:1055900065EB8C2F41DE47E050E266EB8C2F3CDE62
:1055A0004AE054E169EC8C2F37DE43E050E06EEDC9
:1055B0008C2F32DE44E050E066ED8C2F2DDE40E390
:1055C00050EC6AEB8C2F28DE48E050E06BEB8C2F20
:1055D00023DE41E050E069EB8C2F1EDE41E050E01D
:1055E00064EC8C2F19DE40E45DE063E070E0415034
:1055F0005109610971094115510561057105B9F735
:1056000042E053E067EB8C2F07DE40E050E068EBB0
:105610008C2F02DE42E050E06CEB8C2FFDDD80E051
:1056200090E0019681152AEF9207D9F740EB54E0FC
:105630006FEB8C2FF1DD80E090E0019681152AEF71
:105640009207D9F746ED51E06FEB8C2FE5DD80E056
:1056500090E0019681152AEF9207D9F742E453E0D2
:1056600067EB8C2FD9DD80E090E0019681152AEF61
:105670009207D9F740E050E068EB8C2FCDDD80E059
:1056800090E0019681152AEF9207D9F742E050E0A9
:105690006CEB8C2FC1DD80E090E0019681152AEF44
:1056A0009207D9F74EEF54E06FEB8C2FB5DD80E019
:1056B00090E0019681152AEF9207D9F74EE550E068
:1056C0006FEB8C2FA9DD80E090E0019681152AEF29
:1056D0009207D9F744E457E46FEB8C2F9DDD80E00F
:1056E00090E0019681152AEF9207D9F74EEF57E027
:1056F0006FEB8C2F91DD80E090E0019681152AEF11
:105700009207D9F749EA5AE66FEB8C2F85DD80E0E6
:1057100090E0019681152AEF9207D9F74EEF5AE0F3
:105720006FEB8C2F79DD20E030E02F5F3F4F2115AC
:105730008AEF3807D1F744E152E56FEB8C2F6CDD2F
:1057400020E030E02F5F3F4F21158AEF3807D1F777
:105750004EEF50E06FEB8C2F5FDD20E030E02F5FED
:105760003F4F21158AEF3807D1F745E351E06FEB42
:105770008C2F52DD20E030E02F5F3F4F21158AEF64
:105780003807D1F745E550E06FEB8C2F45DD80E021
:1057900090E0019681152AEF9207D9F781E0CF9129
:1057A000089584E180938B3389E080938C3380EC7F
:1057B00098E080938F339093903380E069DC80E0B1
:1057C000B5CE0895E82FF0E0EE0FFF1FE457FC4C34
:1057D0008081E82FE695E695E69540E2E49FF001AA
:1057E0001124FA5F877021E030E0A90102C0440F64
:1057F000551F8A95E2F745830895E82FF0E0EE0FF4
:10580000FF1FE457FC4C8081E82FE695E695E6956E
:1058100040E2E49FF0011124FA5F877021E030E05C
:10582000A90102C0440F551F8A95E2F746830895E7
:10583000813099F480E493E20EDC84E0E0E0F6E06D
:10584000868380E090E00196803A2FE09207D9F7B6
:1058500084E0E0E0F6E085830895823099F48BE4FB
:1058600093E2F9DB80E1E0E0F6E0868380E090E01F
:105870000196803A2FE09207D9F780E1E0E0F6E068
:105880008583089586E593E2E6CB089581E0E0E222
:10589000F6E0868380E090E00196803A2FE0920760
:1058A000D9F781E0E0E2F6E085830895CF93C42F35
:1058B000813051F480EA9BE00E940C1F6C2F80EA3B
:1058C0009BE00E940C1F03C084E693E2C4DBCF91EF
:1058D0000895813051F4606880EA9BE00E940C1FBB
:1058E00080EA9BE00C94141F089584E693E2B3DBF6
:1058F00080E00895C0EAD0E017E01A830E942D13DB
:105900001A83109275331092763310927733109277
:1059100078331092793381E080937A330E94801C2F
:1059200075D078940E947F140E9480143ADF0E9400
:10593000600F80936D2F0E9494A2E0EAF6E080E46D
:10594000858380E886830E946D198FD680911033FD
:10595000882321F080E01DDD1092103380910F33F9
:10596000882321F080E099DD10920F3381E080934D
:10597000113380915133882321F00E9427A7109280
:10598000513380E090E0019688329105E1F78091F3
:105990006D2F81110E948A1280911133882349F35F
:1059A0006ED680911033882321F01092103380E05E
:1059B000F0DC80910F338823E1F280E06EDD1092FD
:1059C0000F33D7CF0C94801408950C94811408954C
:1059D00080910E33882321F00E94B0240C948A1405
:1059E000089591E090930E330E94B6A881E0089547
:1059F00010920E330C94C1A80895662319F00C94EC
:105A0000821408950C9483140895089543E050E09F
:105A100060E880E496E00E94F41343E050E060E226
:105A200080E496E00E94F41340E050E060E480E4FB
:105A300096E00E94F41343E050E060E180E496E0D9
:105A40000E94F41343E050E062E080E296E00E949E
:105A5000F41341E050E062E080E096E00E94F4132D
:105A600043E050E064E080E096E00E94F41343E0FD
:105A700050E061E080EA96E00E94F41343E050E0D9
:105A800060E280E696E00E94F41340E050E064E0BB
:105A900080E696E00E94F41341E050E062E080EA84
:105AA00096E00E94F41341E050E060E480EA96E062
:105AB0000E94F41341E050E060E880EA96E00E9422
:105AC000F41343E050E064E080E496E00E94F413B5
:105AD00043E050E068E080E496E00E94F4136DE05B
