:100000006EC70000A4C70000A2C70000A0C7000080
:100010009EC700009CC700009AC7000098C7000058
:1000200096C7000094C7000092C700000C94D60841
:100030008EC700000C943D1E0C940C090C943909D9
:100040000C9466090C9493090C94C0090C94ED0966
:100050000C941A0A0C94470A0C94740A0C94A10A82
:1000600076C7000074C7000072C7000070C70000A8
:100070006EC700006CC700006AC7000068C70000B8
:1000800066C7000064C7000062C7000060C70000C8
:100090005EC700005CC700005AC7000058C70000D8
:1000A00056C7000054C7000052C7000050C70000E8
:1000B0004EC700004CC700000C94641E0C94900CBA
:1000C0000C94BD0C0C94EA0C0C94170D0C94440D7C
:1000D0000C94710D0C949E0D0C94CB0D0C94F80D9A
:1000E0000C94250E34C7000032C7000030C7000052
:1000F0002EC700002CC700002AC7000028C7000038
:1001000026C7000024C7000022C7000020C7000047
:100110001EC700001CC700001AC7000018C7000057
:1001200016C7000014C7000012C7000010C7000067
:100130000EC700000C94CE0A0C94FB0A0C94280BFA
:100140000C94550B0C94820B0C94AF0B0C94DC0BA1
:100150000C94090C0C94360C0C94630CF8C600003B
:10016000F6C60000F4C60000F2C60000F0C60000AB
:10017000EEC60000ECC60000EAC60000E8C60000BB
:10018000E6C60000E4C60000E2C60000E0C60000CB
:10019000DEC60000DCC60000DAC60000D8C60000DB
:1001A000D6C60000D4C60000D2C60000D0C60000EB
:1001B0000C94520E0C947F0E0C94AC0E0C94D90E31
:1001C0000C94060F0C94330FC2C60000C0C600008A
:1001D000BEC60000BCC60000BAC600000C94CAA887
:1001E0000C940EA9B4C60000B2C60000B0C6000050
:1001F000AEC600000C9456260C941A2743223122D6
:10020000342237223A223D22402223310D3211324C
:100210001532193280328432253229322D3284321D
:100220003132353239323D32FB31FF311D3221322C
:10023000413249314F3156315D316331C531C531BC
:10024000713178317F3186318D319431C5319B31B7
:10025000A231A931C531C531B031B731BE316A31B2
:100260005C326032643268326C32703274327832AE
:10027000A532A932AD32B132263326331A331E33BA
:1002800026332633263326332633263322334A3C7D
:10029000553C603CE43CE43CE43CE43CE43CE43C71
:1002A000E43CE43CE43CE43CE43CE43CE43CE43C4E
:1002B000E43C6B3C763C813CE43CE43CE43CE43C88
:1002C000E43CE43CE43CE43CE43CE43CE43C8C3C86
:1002D000973CA23CAD3CE43CE43CE43CE43CE43CE4
:1002E000E43CE43CE43CE43CE43CE43CE43CB83C3A
:1002F000E43CE43CE43CE43CE43CE43CE43CE43CFE
:10030000E43CE43CE43CE43CE43CE43CE43CC33C0E
:10031000CE3CD93CC15B815B8C5B815B985B815B34
:100320009E5BAA5B815BB05B815B815B815B815B78
:10033000815B815B815B815B815B815B815B815BDD
:10034000815B815B815B815B815B815B815B815BCD
:10035000815B815B815B815B815B815B815B815BBD
:10036000815B815B815B815B815B815B815B815BAD
:10037000815B815B815B815B815B815B815B815B9D
:10038000815B815B815B815B815B815B815B815B8D
:10039000815B7B5B815BC15B815B8C5B815B925B27
:1003A000985B9E5BA45B815BAA5B815BB05B815BBE
:1003B000815B815B815B815B815B815B815B815B5D
:1003C000815B815B815B815B815B815B815B815B4D
:1003D000815B815B815B815B815B815B815B815B3D
:1003E000815B815B815B815B815B815B815B815B2D
:1003F000815B815B815B815B815B815B815B815B1D
:10040000815B815B815B815B815B815B815B815B0C
:10041000815B815B7B5B815BC15B815B8C5B815BB7
:10042000925B985B815B9E5B815BA45B815BAA5B5B
:10043000B05B196932694B6964697D69AE69DF69CE
:10044000E8761B7A1B7A1B7A1B7A1B7A1B7A1B7A3B
:100450001B7A1B7A8D781A793F79647989791B7AAE
:100460001B7AF879F879F879F8791B7A1B7A1B7A74
:100470001B7AD078F578AE79D379AB7BC7802B81A6
:10048000B0810B82C884C88429832F849285018718
:100490009F872E88BD887489B38C8D8AB38CB38C6A
:1004A000B38C3680B38CAF898A8BB78BF78B058E74
:1004B000B88DBF8DC68DCD8DD48DDB8DE28DE98D50
:1004C000F08DF78DFE8DE9920E947B938C939D9326
:1004D000079316933D934C935B93E992F392F392B7
:1004E000F392F3920E946A93FD92FD92FD92FD9227
:1004F0000E940E940E940E94F392F392F392F39260
:100500007B958895289539954A955B9528953995D9
:100510004A955B958F978F979A978F97EA979297BF
:10052000929795979297B899C098C098B899C098A3
:10053000B899C098B899C098B899BB98C098C09815
:10054000BB98C098B698C098B899B899C098B69812
:10055000B698899E8F9E479E4F9E559E5B9E639E3A
:100560006B9E759EC9A0F9A0CBA0CDA0CFA0D1A0B5
:10057000D3A0D5A0D7A0D9A0DBA0DDA0DFA0E1A0AB
:10058000E3A0E5A0E7A0E9A0EBA0EDA0EFA0F1A01B
:10059000F3A0F5A004A12AA106A108A10AA10CA11B
:1005A0000EA110A112A114A116A118A11AA11CA19B
:1005B0001EA120A122A124A126A128A143A448A4D0
:1005C00054A454A454A454A454A454A454A454A46B
:1005D00054A454A454A454A454A454A454A454A45B
:1005E00054A454A436A454A454A454A454A4AFA30F
:1005F00054A454A454A454A454A454A454A454A43B
:10060000E0A354A454A429A454A4C0A354A454A45F
:1006100054A454A454A454A454A454A454A454A41A
:1006200054A454A436A454A454A454A454A4AFA3CE
:1006300054A454A454A454A454A454A454A454A4FA
:10064000E0A354A454A429A454A4C0A37EA417A630
:100650009EA417A617A617A617A617A617A617A62D
:10066000D7A417A617A617A687A417A6D5A417A6BA
:1006700017A617A617A617A617A617A617A617A692
:1006800017A617A617A617A617A617A67EA417A61D
:100690009EA417A617A617A617A617A617A617A6ED
:1006A000D7A417A617A617A687A417A6D5A412A67F
:1006B00015A617A617A617A617A617A617A617A654
:1006C00017A617A617A617A617A617A617A617A642
:1006D00017A617A617A617A617A617A617A617A632
:1006E00017A617A617A617A617A617A617A617A622
:1006F00017A6FDA409A617A617A617A6E7A41FA567
:1007000017A617A617A617A617A617A617A617A601
:1007100017A617A617A617A617A617A617A617A6F1
:1007200017A617A617A617A617A617A617A617A6E1
:1007300017A6FDA409A617A617A617A6E7A41FA526
:10074000F2A61DA71DA71DA71DA71DA71DA71DA7B5
:100750001DA71DA71DA71DA71DA71DA71DA71DA779
:100760001DA71DA71DA71DA71DA7AFA61DA71DA7D8
:10077000B8A6A4A61DA71DA71DA7F7A61DA71DA760
:100780001DA71DA7CEA6D5A6D1A61DA7E5A61DA768
:100790001DA71DA71DA71DA71DA71DA71DA71DA739
:1007A0001DA71DA71DA71DA71DA7AFA61DA71DA798
:1007B000B8A6A4A61DA71DA71DA7F7A61DA71DA720
:1007C0001DA71DA7CEA6D5A6D1A61DA7E5A64CA7F9
:1007D00028A828A828A828A81FA85CA752A728A846
:1007E00054A750A728A828A828A828A828A828A837
:1007F00056A728A828A84EA72CA828A828A828A823
:1008000028A828A828A828A828A828A828A828A868
:1008100028A828A828A828A81FA85CA752A728A805
:1008200054A750A728A828A828A828A828A828A8F6
:1008300056A728A828A84EA72CA86DA72CA82CA896
:100840002CA82CA82CA82CA82CA82CA8F0A72CA845
:100850002CA82CA8A7A787A72CA82CA82CA82CA824
:100860002CA82CA82CA82CA82CA82CA82CA82CA8E8
:100870002CA82CA82CA82CA82CA86DA72CA82CA898
:100880002CA82CA82CA82CA82CA82CA8F0A72CA805
:100890002CA82CA8A7A787A7585659434320636FB5
:1008A0006C6F72696D657472792064617461004E59
:1008B0006F20636F6C6F72696D657472792064610B
:1008C000746100594342435220636F6C6F7220730E
:1008D0007061636500545620666F726D6174203DCF
:1008E0003E20524742206C696D69746564207261D4
:1008F0006E676500504320666F726D6174203D3EE7
:10090000205247422066756C6C2072616E676500EC
:1009100052474220636F6C6F722073706163650091
:10092000556E6B6E6F776E207265736F6C75746940
:100930006F6E00313430307831303530702F3630D2
:10094000487A207265647563656420626C616E6BC1
:10095000696E6700313430307831303530702F3681
:1009600030487A003133363078373638702F3630A9
:10097000487A005755584741203139323078313262
:100980003030702F3630487A005753584120313676
:1009900038307831303530702F3630487A0055474E
:1009A0004120313630307831323030702F36304897
:1009B0007A00535847412031323830783130323460
:1009C000702F3630487A003132383078393630700E
:1009D0002F3630487A005758474120313238307826
:1009E000373638702F3630487A005847412031303A
:1009F000323478373638702F3630487A00535647BD
:100A0000412038303078363030702F3630487A0018
:100A10005647412036343078343830702F363048DD
:100A20007A00313038307831393230702F363048F2
:100A30007A003139323078313038307035392F36EC
:100A400030487A00373230783438306935392F36CB
:100A500030487A00313932307831303830693539C0
:100A60002F3630487A0031323830783732307035AE
:100A7000392F3630487A0037323078343830703594
:100A8000392F3630487A006572726F6E656F7573F4
:100A9000206576656E7420666F72207374616E6473
:100AA000617264206576656E742063616C6C62614E
:100AB000636B005265706561746572207374617454
:100AC0006520352072656163686564003A2077723D
:100AD0006F6E672076616C756500417564696F2083
:100AE0006672657175656E63793A203A20313932E4
:100AF000206B487A00417564696F20667265717574
:100B0000656E63793A203A203137362E34206B48AF
:100B10007A00417564696F206672657175656E63F0
:100B2000793A203A203936206B487A004175646959
:100B30006F206672657175656E63793A203A203868
:100B4000382E32206B487A00417564696F206672D6
:100B5000657175656E63793A203A203438206B48A8
:100B60007A00417564696F206672657175656E63A0
:100B7000793A203A2034342E31206B487A0041757E
:100B800064696F206672657175656E63793A2033AA
:100B900032206B487A0063616C63756C6174696FB5
:100BA0006E206572726F7200417564696F204453E4
:100BB00054207061636B65747300417564696F20C4
:100BC0004F4241207061636B6574730041756469C5
:100BD0006F20484252207061636B657473004175E9
:100BE00064696F2073616D706C65207061636B6503
:100BF0007473004465657020636F6C6F72206D6F55
:100C000064653A2033362062697473004465657008
:100C100020636F6C6F72206D6F64653A20333020F3
:100C200062697473004465657020636F6C6F722035
:100C30006D6F64653A2032342062697473004156E6
:100C4000204D75746520696E616374697665004135
:100C500056206D757465206163746976650044562D
:100C60004920284F45535329206D6F646500454541
:100C70005353206D6F6465006E6F74204844435079
:100C800020656E6372797074656420004844435037
:100C900020656E6372797074656420004456492043
:100CA0006D6F64650048444D49206D6F6465004177
:100CB00075746F6D617469632064657465637469CC
:100CC0006F6E206F66207265736F6C7574696F6EDE
:100CD0003A20004175746F6D6174696320494E500C
:100CE00055542041204C4F434B4544006572726F70
:100CF0006E656F7573206576656E7420666F722001
:100D0000696E666F6672616D652063616C6C6261AD
:100D1000636B0047616D7574206D65746164617407
:100D200061207061636B65747320726563656976B9
:100D3000656400494E464F4652414D453A204D505C
:100D4000454720726563656976656400494E464F84
:100D50004652414D453A20415544207265636569CC
:100D60007665640057726F6E6720636F6C6F72698F
:100D70006D6574727900636F6C6F72696D65747202
:100D8000793A657874656E6465642028787659438D
:100D9000432900636F6C6F72696D657472793A49AB
:100DA000545537303900636F6C6F72696D657472BA
:100DB000793A534D505445203137304D202F20493A
:100DC000545536303100636F6C6F72696D657472A3
:100DD000793A4E6F20646174610057726F6E6720BC
:100DE000636F6C6F7220696E64696361746F720007
:100DF0004675747572650059436243722034343409
:100E00000059436243722034323200524742004359
:100E10006F6C6F722073706163653D004156493A93
:100E20002077726F6E67207061636B6574207479D0
:100E30007065210041564920526563656976656495
:100E400000414350205265636569766564004953EB
:100E50005243322072656365697665640049535276
:100E6000433120726563656976656400496E666F1B
:100E7000206672616D653A2000526563656976652A
:100E80007220413A005377697463682070726F6210
:100E90006C656D004469676974616C204143544915
:100EA00056495459204445544543544544004469E7
:100EB000676974616C204143544956495459204C28
:100EC0004F535400556E6B6E6F776E3A2000423A66
:100ED0002000413A2000496E707574200000E7EE52
:100EE000F3E3E370FF27E951FC4C2FEF3FE52C7F44
:100EF000E217F30758F48EED9DEAAEEBBFEE819357
:100F00009193A193B193E217F307C8F311241FBE85
:100F1000CFEFCDBFDFE5DEBF00E00CBF1EE2A0E0FB
:100F2000B0E2EAE1F9E501E00BBF02C007900D92E3
:100F3000A03AB107D9F723E3A0EABEE201C01D92AF
:100F4000A73EB207E1F70E946A2C0C948BAC58C8FC
:100F5000089580E008953091653320916633822FA3
:100F600090E00397E1F431111CC0809169339091B6
:100F70006A330497C1F480EA9EE280936B339093C6
:100F80006C3385ED97E080936F339093703384E0FA
:100F900090E080936D3390936E3381E0089580E00C
:100FA000089580E0089580E00895089581E0809399
:100FB000042F08950F931F9302EF17E020E430E011
:100FC00044EA5EE260E085E00E9457251F910F91A0
:100FD00008951092082F1092062F81E08093042F1D
:100FE000E9CF0895811101C0E5CF08952BEA37E0DC
:100FF0004CE850E266E07FE288E09FE232C008956C
:101000000F931F93CF932091042F222329F1CFB761
:10101000F89420E2E4EEFEE2DF011D922A95E9F762
:1010200020E2FC01A4EEBEE201900D922A95E1F7C8
:1010300006ED17E020E230E044EE5EE260E084E896
:101040000E94572591E089278093042FCFBF90916C
:10105000042F81E0892701C080E0CF911F910F917B
:101060000895CF93DF93EA014091633344230CF05A
:1010700063C0407609F041C0209164332630E9F521
:101080000E945819FC012285213299F5209166337E
:101090002132B9F49C01275F3F4F20936B3330938B
:1010A0006C3381852091693330916A3390E0281741
:1010B000390708F4C90180936D3390936E3381E052
:1010C00064C0FC013785231316C0C0936B33D093E3
:1010D0006C33208931898091693390916A33281764
:1010E000390708F4C90180936D3390936E3381E022
:1010F0004CC080E04AC080E048C04032E9F5209111
:101100006433223019F0233061F038C080936B33A0
:1011100090936C3381E090E080936D3390936E33C5
:1011200034C060936B3370936C3381E090E08093B4
:101130006D3390936E3329C04076403209F540916B
:1011400064334A3039F04B3059F04930D9F4F90161
:1011500019951BC020916633FC01208381E015C0E6
:101160008091693390916A33892B71F48091653352
:10117000FB01808381E009C080E007C080E005C0FA
:1011800080E003C080E001C080E0DF91CF9108954E
:1011900080E1E0E2F4E08183818184FDFDCFE0E243
:1011A000F4E0648175818681978108951F920F9282
:1011B0000FB60F9211240BB60F922F933F934F93BC
:1011C0005F936F937F938F939F93AF93BF93CF93CF
:1011D000DF93EF93FF93E0E2F4E01282C0913B33A0
:1011E000D0913C33209719F0D3DFFE011995FF9180
:1011F000EF91DF91CF91BF91AF919F918F917F91AF
:101200006F915F914F913F912F910F900BBE0F9077
:101210000FBE0F901F9018951F920F920FB60F924E
:1012200011240BB60F922F933F934F935F936F93BD
:101230007F938F939F93AF93BF93EF93FF93E0912F
:10124000502FF091512F309709F01995FF91EF91A0
:10125000BF91AF919F918F917F916F915F914F91CE
:101260003F912F910F900BBE0F900FBE0F901F90CC
:1012700018951F920F920FB60F9211240BB60F9272
:101280002F933F934F935F936F937F938F939F938E
:10129000AF93BF93EF93FF93E0914E2FF0914F2FB9
:1012A000309709F01995FF91EF91BF91AF919F9100
:1012B0008F917F916F915F914F913F912F910F90FF
:1012C0000BBE0F900FBE0F901F9018951F920F929C
:1012D0000FB60F9211240BB60F922F933F934F939B
:1012E0005F936F937F938F939F93AF93BF93EF938E
:1012F000FF93E0914C2FF0914D2F309709F0199505
:10130000FF91EF91BF91AF919F918F917F916F91DD
:101310005F914F913F912F910F900BBE0F900FBE99
:101320000F901F9018951F920F920FB60F921124D5
:101330000BB60F922F933F934F935F936F937F93CF
:101340008F939F93AF93BF93EF93FF93E0914A2FB7
:10135000F0914B2F309709F01995FF91EF91BF91C4
:10136000AF919F918F917F916F915F914F913F913D
:101370002F910F900BBE0F900FBE0F901F901895DE
:101380001F920F920FB60F9211240BB60F922F934C
:101390003F934F935F936F937F938F939F93AF93FD
:1013A000BF93EF93FF93E091482FF091492F30972F
:1013B00009F01995FF91EF91BF91AF919F918F9196
:1013C0007F916F915F914F913F912F910F900BBE45
:1013D0000F900FBE0F901F9018951F920F920FB68F
:1013E0000F9211240BB60F922F933F934F935F935D
:1013F0006F937F938F939F93AF93BF93EF93FF93DD
:10140000E091462FF091472F309709F01995FF9101
:10141000EF91BF91AF919F918F917F916F915F916C
:101420004F913F912F910F900BBE0F900FBE0F90D9
:101430001F9018951F920F920FB60F9211240BB6A2
:101440000F922F933F934F935F936F937F938F935D
:101450009F93AF93BF93EF93FF93E091442FF0914D
:10146000452F309709F01995FF91EF91BF91AF91FA
:101470009F918F917F916F915F914F913F912F91AC
:101480000F900BBE0F900FBE0F901F9018951F92DC
:101490000F920FB60F9211240BB60F922F933F931A
:1014A0004F935F936F937F938F939F93AF93BF936C
:1014B000EF93FF93E091422FF091432F309709F083
:1014C0001995FF91EF91BF91AF919F918F917F916E
:1014D0006F915F914F913F912F910F900BBE0F90A5
:1014E0000FBE0F901F9018951F920F920FB60F927C
:1014F00011240BB60F922F933F934F935F936F93EB
:101500007F938F939F93AF93BF93EF93FF93E0915C
:10151000402FF091412F309709F01995FF91EF91ED
:10152000BF91AF919F918F917F916F915F914F91FB
:101530003F912F910F900BBE0F900FBE0F901F90F9
:1015400018951F920F920FB60F9211240BB60F929F
:101550002F933F934F935F936F937F938F939F93BB
:10156000AF93BF93EF93FF93E0913E2FF0913F2F06
:10157000309709F01995FF91EF91BF91AF919F912D
:101580008F917F916F915F914F913F912F910F902C
:101590000BBE0F900FBE0F901F9018951F920F92C9
:1015A0000FB60F9211240BB60F922F933F934F93C8
:1015B0005F936F937F938F939F93AF93BF93EF93BB
:1015C000FF93E0913C2FF0913D2F309709F0199552
:1015D000FF91EF91BF91AF919F918F917F916F910B
:1015E0005F914F913F912F910F900BBE0F900FBEC7
:1015F0000F901F9018951F920F920FB60F92112403
:101600000BB60F922F933F934F935F936F937F93FC
:101610008F939F93AF93BF93EF93FF93E0913A2FF4
:10162000F0913B2F309709F01995FF91EF91BF9101
:10163000AF919F918F917F916F915F914F913F916A
:101640002F910F900BBE0F900FBE0F901F9018950B
:101650001F920F920FB60F9211240BB60F922F9379
:101660003F934F935F936F937F938F939F93AF932A
:10167000BF93EF93FF93E091382FF091392F30977C
:1016800009F01995FF91EF91BF91AF919F918F91C3
:101690007F916F915F914F913F912F910F900BBE72
:1016A0000F900FBE0F901F9018951F920F920FB6BC
:1016B0000F9211240BB60F922F933F934F935F938A
:1016C0006F937F938F939F93AF93BF93EF93FF930A
:1016D000E091362FF091372F309709F01995FF914F
:1016E000EF91BF91AF919F918F917F916F915F919A
:1016F0004F913F912F910F900BBE0F900FBE0F9007
:101700001F9018951F920F920FB60F9211240BB6CF
:101710000F922F933F934F935F936F937F938F938A
:101720009F93AF93BF93EF93FF93E091342FF0918A
:10173000352F309709F01995FF91EF91BF91AF9137
:101740009F918F917F916F915F914F913F912F91D9
:101750000F900BBE0F900FBE0F901F9018951F9209
:101760000F920FB60F9211240BB60F922F933F9347
:101770004F935F936F937F938F939F93AF93BF9399
:10178000EF93FF93E091322FF091332F309709F0D0
:101790001995FF91EF91BF91AF919F918F917F919B
:1017A0006F915F914F913F912F910F900BBE0F90D2
:1017B0000FBE0F901F9018951F920F920FB60F92A9
:1017C00011240BB60F922F933F934F935F936F9318
:1017D0007F938F939F93AF93BF93EF93FF93E0918A
:1017E000302FF091312F309709F01995FF91EF913B
:1017F000BF91AF919F918F917F916F915F914F9129
:101800003F912F910F900BBE0F900FBE0F901F9026
:1018100018951F920F920FB60F9211240BB60F92CC
:101820002F933F934F935F936F937F938F939F93E8
:10183000AF93BF93EF93FF93E0912E2FF0912F2F53
:10184000309709F01995FF91EF91BF91AF919F915A
:101850008F917F916F915F914F913F912F910F9059
:101860000BBE0F900FBE0F901F9018951F920F92F6
:101870000FB60F9211240BB60F922F933F934F93F5
:101880005F936F937F938F939F93AF93BF93EF93E8
:10189000FF93E0912C2FF0912D2F309709F019959F
:1018A000FF91EF91BF91AF919F918F917F916F9138
:1018B0005F914F913F912F910F900BBE0F900FBEF4
:1018C0000F901F9018951F920F920FB60F92112430
:1018D0000BB60F922F933F934F935F936F937F932A
:1018E0008F939F93AF93BF93EF93FF93E0912A2F32
:1018F000F0912B2F309709F01995FF91EF91BF913F
:10190000AF919F918F917F916F915F914F913F9197
:101910002F910F900BBE0F900FBE0F901F90189538
:101920001F920F920FB60F9211240BB60F922F93A6
:101930003F934F935F936F937F938F939F93AF9357
:10194000BF93EF93FF93E091282FF091292F3097C9
:1019500009F01995FF91EF91BF91AF919F918F91F0
:101960007F916F915F914F913F912F910F900BBE9F
:101970000F900FBE0F901F9018951F920F920FB6E9
:101980000F9211240BB60F922F933F934F935F93B7
:101990006F937F938F939F93AF93BF93EF93FF9337
:1019A000E091262FF091272F309709F01995FF919C
:1019B000EF91BF91AF919F918F917F916F915F91C7
:1019C0004F913F912F910F900BBE0F900FBE0F9034
:1019D0001F9018951F920F920FB60F9211240BB6FD
:1019E0000F922F933F934F935F936F937F938F93B8
:1019F0009F93AF93BF93EF93FF93E091242FF091C8
:101A0000252F309709F01995FF91EF91BF91AF9174
:101A10009F918F917F916F915F914F913F912F9106
:101A20000F900BBE0F900FBE0F901F9018951F9236
:101A30000F920FB60F9211240BB60F922F933F9374
:101A40004F935F936F937F938F939F93AF93BF93C6
:101A5000EF93FF93E091222FF091232F309709F01D
:101A60001995FF91EF91BF91AF919F918F917F91C8
:101A70006F915F914F913F912F910F900BBE0F90FF
:101A80000FBE0F901F9018951F920F920FB60F92D6
:101A900011240BB60F922F933F934F935F936F9345
:101AA0007F938F939F93AF93BF93EF93FF93E091B7
:101AB000202FF091212F309709F01995FF91EF9188
:101AC000BF91AF919F918F917F916F915F914F9156
:101AD0003F912F910F900BBE0F900FBE0F901F9054
:101AE00018951F920F920FB60F9211240BB60F92FA
:101AF0002F933F934F935F936F937F938F939F9316
:101B0000AF93BF93EF93FF93E0911E2FF0911F2FA0
:101B1000309709F01995FF91EF91BF91AF919F9187
:101B20008F917F916F915F914F913F912F910F9086
:101B30000BBE0F900FBE0F901F9018951F920F9223
:101B40000FB60F9211240BB60F922F933F934F9322
:101B50005F936F937F938F939F93AF93BF93EF9315
:101B6000FF93E0911C2FF0911D2F309709F01995EC
:101B7000FF91EF91BF91AF919F918F917F916F9165
:101B80005F914F913F912F910F900BBE0F900FBE21
:101B90000F901F9018951F920F920FB60F9211245D
:101BA0000BB60F922F933F934F935F936F937F9357
:101BB0008F939F93AF93BF93EF93FF93E0911A2F6F
:101BC000F0911B2F309709F01995FF91EF91BF917C
:101BD000AF919F918F917F916F915F914F913F91C5
:101BE0002F910F900BBE0F900FBE0F901F90189566
:101BF0001F920F920FB60F9211240BB60F922F93D4
:101C00003F934F935F936F937F938F939F93AF9384
:101C1000BF93EF93FF93E091182FF091192F309716
:101C200009F01995FF91EF91BF91AF919F918F911D
:101C30007F916F915F914F913F912F910F900BBECC
:101C40000F900FBE0F901F9018951F920F920FB616
:101C50000F9211240BB60F922F933F934F935F93E4
:101C60006F937F938F939F93AF93BF93EF93FF9364
:101C7000E091162FF091172F309709F01995FF91E9
:101C8000EF91BF91AF919F918F917F916F915F91F4
:101C90004F913F912F910F900BBE0F900FBE0F9061
:101CA0001F9018951F920F920FB60F9211240BB62A
:101CB0000F922F933F934F935F936F937F938F93E5
:101CC0009F93AF93BF93EF93FF93E091142FF09105
:101CD000152F309709F01995FF91EF91BF91AF91B2
:101CE0009F918F917F916F915F914F913F912F9134
:101CF0000F900BBE0F900FBE0F901F9018951F9264
:101D00000F920FB60F9211240BB60F922F933F93A1
:101D10004F935F936F937F938F939F93AF93BF93F3
:101D2000EF93FF93E091122FF091132F309709F06A
:101D30001995FF91EF91BF91AF919F918F917F91F5
:101D40006F915F914F913F912F910F900BBE0F902C
:101D50000FBE0F901F9018951F920F920FB60F9203
:101D600011240BB60F922F933F934F935F936F9372
:101D70007F938F939F93AF93BF93EF93FF93E091E4
:101D8000102FF091112F309709F01995FF91EF91D5
:101D9000BF91AF919F918F917F916F915F914F9183
:101DA0003F912F910F900BBE0F900FBE0F901F9081
:101DB00018951F920F920FB60F9211240BB60F9227
:101DC0002F933F934F935F936F937F938F939F9343
:101DD000AF93BF93EF93FF93E0910E2FF0910F2FEE
:101DE000309709F01995FF91EF91BF91AF919F91B5
:101DF0008F917F916F915F914F913F912F910F90B4
:101E00000BBE0F900FBE0F901F9018951F920F9250
:101E10000FB60F9211240BB60F922F933F934F934F
:101E20005F936F937F938F939F93AF93BF93EF9342
:101E3000FF93E0910C2FF0910D2F309709F0199539
:101E4000FF91EF91BF91AF919F918F917F916F9192
:101E50005F914F913F912F910F900BBE0F900FBE4E
:101E60000F901F9018951F920F920FB60F9211248A
:101E70000BB60F922F933F934F935F936F937F9384
:101E80008F939F93AF93BF93EF93FF93E0910A2FAC
:101E9000F0910B2F309709F01995FF91EF91BF91B9
:101EA000AF919F918F917F916F915F914F913F91F2
:101EB0002F910F900BBE0F900FBE0F901F90189593
:101EC0001F93CF93DF93CDB7DEB7C95AD109CDBFEA
:101ED000DEBFCE0101968093D1209093D22043E0C3
:101EE00050E060E280E096E06FD448E150E068E0C6
:101EF00080E696E069D48091522F811130C080E84D
:101F00009AE1A6E0B0E0CF55DF4F88839983AA839A
:101F1000BB83C15AD04088E4C755DF4F8883C95A74
:101F2000D04089E190E0A0E0B0E0CB55DF4F88835E
:101F30009983AA83BB83C55AD04060E483E0EDD384
:101F4000BE016F557F4F80E894E00E948B1E811187
:101F500004C081E08093522F02C080E0C3C280E2BF
:101F6000E0E0F6E0868380E090E00196803E2EE29D
:101F70009207D9F780E2E0E0F6E0858380E89AE115
:101F8000A6E0B0E00197A109B1090097A105B1054C
:101F9000C9F725E6E0E6F6E00AC0215009F46FC271
:101FA00080E090E00196803A3FE09307D9F7808582
:101FB00083FDF3CF1092CF201092D02082E090E0EA
:101FC0008093D3209093D42041E06BEC70E280E8C2
:101FD00094E00E94A01E811154C281E08093CC2025
:101FE00082E090E08093CF209093D0208EE190E02B
:101FF0008093D3209093D42010E0E0E6F6E00BC06D
:102000001F5F153609F43FC280E090E00196803AE8
:102010002FE09207D9F7808583FFF2CF41E06BEC88
:1020200070E280E894E00E94A01E81112EC280E040
:1020300090E00196803E3EE29307D9F782E1E0E12D
:10204000F2E2DE015F9601900D928A95E1F7BE0102
:102050006F5C7F4F8BE0FB0111928A95E9F788E472
:1020600089AB85E08AAB82E090E08DAB9EABCE0180
:102070004F968FAB98AF82E190E089AF9AAF40E086
:1020800080E894E00E94A01E811101C282E1E0E19B
:10209000F2E2DE01DC9601900D928A95E1F785E08F
:1020A0008AAB1BAA82E090E08DAB9EAB88E489AB43
:1020B000CE01CC968FAB98AF82E190E089AF9AAF1A
:1020C00040E0BE016F5C7F4F80E894E00E94A01E5C
:1020D0008111DFC1CE01825B9F4F25E0E2E2F2E297
:1020E000DC0101900D922A95E1F78FAB98AF85E066
:1020F00090E089AF9AAF40E0BE016F5C7F4F80E80F
:1021000094E00E94A01E8111C6C1CE018D5A9F4F3E
:102110002CE0E7E2F2E2DC0101900D922A95E1F772
:1021200025E02AAB1BAA22E030E02DAB3EAB28E431
:1021300029AB8FAB98AF8CE090E089AF9AAF40E0CD
:10214000BE016F5C7F4F80E894E00E94A01E811169
:10215000A4C1E0E6F6E00BC01F5F153608F09FC192
:1021600080E090E00196803A2FE09207D9F78085D1
:1021700083FDF2CF1092CF201092D02086E090E025
:102180008093D3209093D42041E06BEC70E280E800
:1021900094E00E94A01E811184C1CE01815A9F4FFC
:1021A00022E1E3E3F2E2DC0101900D922A95E1F7EE
:1021B00025E02AAB1BAA22E030E02DAB3EAB28E4A1
:1021C00029AB8FAB98AF82E190E089AF9AAF40E046
:1021D000BE016F5C7F4F80E894E00E94A01E8111D9
:1021E00062C1E0E6F6E00BC01F5F153608F05DC186
:1021F00080E090E00196803A3FE09307D9F7808530
:1022000083FDF2CF1092CF201092D02086E090E094
:102210008093D3209093D42041E06BEC70E280E86F
:1022200094E00E94A01E811142C1CE018F589F4FA1
:1022300022E1E5E4F2E2DC0101900D922A95E1F75A
:1022400025E02AAB1BAA22E030E02DAB3EAB28E410
:1022500029AB8FAB98AF82E190E089AF9AAF40E0B5
:10226000BE016F5C7F4F80E894E00E94A01E811148
:1022700020C1E0E6F6E00BC01F5F153608F01BC179
:1022800080E090E00196803A2FE09207D9F78085B0
:1022900083FDF2CF1092CF201092D02086E090E004
:1022A0008093D3209093D42041E06BEC70E280E8DF
:1022B00094E00E94A01E811100C11092CF201092C4
:1022C000D02086E090E08093D3209093D42041E00A
:1022D0006BEC70E280E894E00E94A01E8111EFC0D8
:1022E0001092CF201092D02086E090E08093D320EF
:1022F0009093D42041E06BEC70E280E894E00E947F
:10230000A01E8111DEC0CE018D579F4F2CE0E7E566
:10231000F2E2DC0101900D922A95E1F725E02AAB6B
:102320001BAA22E030E02DAB3EAB28E429AB8FABFB
:1023300098AF8CE090E089AF9AAF40E0BE016F5C4F
:102340007F4F80E894E00E94A01E8111BCC0E0E6AF
:10235000F6E00BC01F5F153608F0B7C080E090E0D4
:102360000196803A3FE09307D9F7808583FDF2CF4D
:102370001092CF201092D02086E090E08093D3205E
:102380009093D42041E06BEC70E280E894E00E94EE
:10239000A01E81119CC0CE0181579F4F22E1E3E630
:1023A000F2E2DC0101900D922A95E1F725E02AABDB
:1023B0001BAA22E030E02DAB3EAB28E429AB8FAB6B
:1023C00098AF82E190E089AF9AAF40E0BE016F5CC8
:1023D0007F4F80E894E00E94A01E81117AC0E0E661
:1023E000F6E00BC01F5F153608F075C080E090E086
:1023F0000196803A2FE09207D9F7808583FDF2CFCE
:102400001092CF201092D02086E090E08093D320CD
:102410009093D42041E06BEC70E280E894E00E945D
:10242000A01E81115AC01092CF201092D02086E0B9
:1024300090E08093D3209093D42041E06BEC70E245
:1024400080E894E00E94A01E811149C01092CF2024
:102450001092D02086E090E08093D3209093D420F7
:1024600041E06BEC70E280E894E00E94A01E8111D4
:1024700038C081E080933D3310923E3333C080E01A
:1024800031C080E02FC080E02DC080E02BC080E014
:1024900029C080E027C080E025C080E023C080E024
:1024A00021C080E01FC080E01DC080E01BC080E034
:1024B00019C080E017C080E015C080E013C080E044
:1024C00011C080E00FC080E00DC080E00BC080E054
:1024D00009C080E007C080E005C080E003C080E064
:1024E00001C080E0C755DF4FCDBFDEBFDF91CF9188
:1024F0001F910895CF93DF93CDB7DEB76097CDBF1F
:10250000DEBFE0E6F6E0808583FD2DC01092CF208F
:102510001092D02080E190E08093D3209093D4203B
:10252000CE0101968093D1209093D22041E06BECB4
:1025300070E280E894E00E94A01E8C8180933E337C
:1025400088E0FE013796AFE3B3E301900D928A95E0
:10255000E1F78DE393E30E940008E0E6F6E0808572
:1025600083FFFDCF02C080E001C081E06096CDBF57
:10257000DEBFDF91CF910895CF93DF93CDB7DEB764
:10258000E797CDBFDEBF26E1E5E7F2E2CE01019697
:10259000DC0101900D922A95E1F7BE01695E7F4F43
:1025A0002BE0FB0111922A95E9F728E42F8B25E017
:1025B000288F22E030E02B8F3C8F8D8F9E8F86E11D
:1025C00090E08F8F98A340E080E894E00E94A01EE6
:1025D00081112AC086E1EBE8F2E2DE0192960190D9
:1025E0000D928A95E1F785E0888F198E82E090E060
:1025F0008B8F9C8F88E48F8BCE0182968D8F9E8FE0
:1026000086E190E08F8F98A340E0BE01695E7F4F26
:1026100080E894E00E94A01E811108C086EC92E23E
:102620000E941B2881E003C080E001C080E0E796A3
:10263000CDBFDEBFDF91CF910895CF93DF9300D060
:102640001F92CDB7DEB78FEF80937000809371003B
:102650008093720080937300809374008093750060
:102660008093760064E081E490E00E94711C6CE14C
:1026700070E082E00E944E1D8A836DE170E082E08E
:102680000E944E1D898389819A81019621F480E4FC
:1026900093E289839A8389819A818B839C83E0E684
:1026A000F0E082838C8183838FB7F894E0E5F0E0DB
:1026B0009081926090838FBF818181FFFDCF8FB722
:1026C000F894A0E5B0E016969C911697997F16961F
:1026D0009C931697E0E6F0E090E895839BEB968359
:1026E00016969C911697946016969C939081916093
:1026F00090838FBF61E080E490E00E94711C8FB7EF
:10270000F894E0E5F0E090819E7F90838FBF24965F
:10271000CDBFDEBFDF91CF9108959FB7F894E82F2A
:10272000F0E0E059FF4F60958081682360839FBF90
:1027300008959FB7F894E82FF0E0E059FF4F8081AB
:10274000682B60839FBF0895863011F468E101C053
:1027500060E0E0E5F0E0818181FD24C08FB7F8946E
:102760009081926090838FBF818181FFFDCF8FB771
:10277000F894A0E5B0E016969C911697997F16966E
:102780009C931697E0E6F0E090E895839BEB9683A8
:1027900016969C911697946016969C9390819160E2
:1027A00090838FBF636084E490E00E94711C60E4BA
:1027B00080E0B3CF089560E480E0BBDF60E084E4B4
:1027C00090E00C94711C0895CF93DF93FC017096F8
:1027D00020E030E0C62FD0E0DE01022E02C0B59529
:1027E000A7950A94E2F7A0FD50832F5F3F4F3196E3
:1027F0002830310589F740FF0AC041FF03C0FC01C2
:10280000658302C0FC016683FC01618302C0FC0198
:102810006283DF91CF910895CF93DF93EC01C03CA9
:1028200028E0D20721F468E083E077DF06C0803C2F
:10283000994019F468E084E070DF888180618883C2
:10284000DF91CF910895FF920F931F93CF93DF9362
:10285000EC01F42EB901A80100E016E32EE631E008
:102860000E94581D88234CF088819F2D990F990F45
:102870009C70837FF92EF82AF882DF91CF911F9107
:102880000F91FF900895FB018081E82FE695E69572
:10289000E69540E2E49FF0011124FA5F877021E0A1
:1028A00030E0A90102C0440F551F8A95E2F7468324
:1028B0000895FB018081E82FE695E695E69540E2D4
:1028C000E49FF0011124FA5F877021E030E0A90154
:1028D00002C0440F551F8A95E2F745830895089575
:1028E0000895089508950895089508950895089500
:1028F00008950895089580916A30815080936A30D8
:10290000089580E0089580E0089569E770E380E02D
:102910000C9443A8089510926A3010927630109269
:10292000773081EA80936C3080E280936D30109232
:102930006E3010926F30109270301092713082E0D1
:1029400090E08093723090937330109274301092B4
:10295000753080E092ECA1E0B0E080937930909304
:102960007A30A0937B30B0937C3010927D301092FF
:102970007E3088E080937F3069E770E380E00E94DA
:1029800043A880E00E94E92C882329F090916A30C6
:102990009F5F90936A300895FF920F931F93CF9398
:1029A000DF938091572F81119CC00E949824882327
:1029B00051F0C091582FD091592F0E94A524C817CB
:1029C000D90759F48EC0C091582FD091592F0E9429
:1029D000A024C817D90709F484C0DFB7F894C091C0
:1029E0005A2FEC2FF0E0EE0FFF1FE55AF04D8081DB
:1029F0009181892B09F58091542F9091552F019643
:102A00008093542F9093552F0E949824811107C0D2
:102A10008091542F9091552F8436910558F00E9443
:102A20009824882349F08091542F9091552F80321B
:102A3000934010F4DFBF55C01092542F1092552FC1
:102A40008091562F811106C081E0C11180E08093F2
:102A50005A2F04C081E0C11180E0C82F81E080932B
:102A6000572FDFBFD0E0FE01EE0FFF1FE55AF04DFC
:102A7000FF24F394808191818034910509F4F12C35
:102A8000FF2091F00E949824882339F00E94A52409
:102A90008093582F9093592F0BC00E94A0248093AD
:102AA000582F9093592F04C01092582F1092592FDD
:102AB000FE01EE0FFF1FE55AF04D20813181AE017E
:102AC0000024569547950794569547950794542F9B
:102AD000402D405A504D07E715E16F2D81E80E94C7
:102AE0005725DF91CF911F910F91FF90089581118C
:102AF00015C020915A2F81E090E0222311F080E050
:102B000090E0FC01EE0FFF1FE55AF04D108211829C
:102B10001092562F1092572F80E03ECF089580E0FC
:102B20003BCF08950F931F93862F9091783091118A
:102B30001EC04091763050917730209174303091A2
:102B400075304217530799F02091763030917730E5
:102B500020937430309375300AED15E12AE030E0AF
:102B60004CE650E360E00E945725809378301F9137
:102B70000F9108952FB7F894662359F0809176301D
:102B800090917730482B592B409376305093773083
:102B90000CC08091763090917730409550954823C5
:102BA000592340937630509377302FBF63E880E00D
:102BB000B9CF089510927830809176309091773027
:102BC00083788093763090937730E4E7F0E38081E8
:102BD0009181837880839183642F80E0A3CF0895CF
:102BE00080916930815080936930809169300E9472
:102BF000F02C109268300895809163338823ECF4B0
:102C00008076803209F045C080916433813209F0CA
:102C100042C08091693390916A330797F1F589E753
:102C200090E380936B3390936C3387E090E08093D4
:102C30006D3390936E3381E008958076803279F51C
:102C400080916433803219F08232D9F02AC08091A9
:102C5000693390916A33079731F585E894E1809361
:102C60006F339093703389E790E380936B33909345
:102C70006C3387E090E080936D3390936E3381E006
:102C8000089560916533617080E00E94F52C81E0C9
:102C9000089580E0089580E0089580E0089580E040
:102CA000089580E0089580E0089540E150E061E0FB
:102CB00080E060CF089540E450E061E080E05ACFCA
:102CC00008954FB7F8942091E12F3091E22FE091D1
:102CD000E32FF0E0EE0FFF1FEC51F04D808191816A
:102CE000821B930B4FBF0895ECDF21E0892B09F481
:102CF00020E0822F08950F931F93CF93DF934FB758
:102D0000F8945091E32F8091E02F811110C0209111
:102D1000E12F3091E22FC52FD0E0FE01EE0FFF1F13
:102D2000EC51F04D808191812817390718F44FBF7D
:102D300080E028C01092E12F1092E22F81E0511123
:102D400080E08093E32F81E08093E02F4FBF80E00D
:102D5000CBDF882319F080E00E94C2A8AE010024D6
:102D6000569547950794569547950794542F402DAF
:102D70004851504D09EF16E120E430E061E082E077
:102D80000E945725DF91CF911F910F9108951092C6
:102D900069301092572F1092562F10925A2F10927E
:102DA0005B2F10925C2F10925D2F10925E2F10926D
:102DB000582F1092592F80E0EFDD1092E02F1092E3
:102DC000E32F1092E42F1092E52F1092E12F109232
:102DD000E22F80E090DF882359F0909169309F5F67
:102DE0009093693090916930913011F490936830EC
:102DF00008950F931F93942F811129C08091E32F81
:102E0000E1E08111E0E061157105B1F4F0E000242A
:102E1000F695E7950794F695E7950794FE2FE02D34
:102E2000AF014851504D09EF16E120E430E061E078
:102E3000892F0E9457250BC0F0E0EE0FFF1FEC51C9
:102E4000F04D608371831092E02F80E054DF1F917A
:102E50000F91089580E048CF08951F93CF93DF939B
:102E600011E080917F30893009F010E060E070E07F
:102E70003FB7F8948091E12F9091E22F2091E32FBA
:102E80003FBF30E0F901EE0FFF1FEC51F04D4081E4
:102E900051818417950730F0809168308111E8CF17
:102EA00090E020C0F9010024F695E7950794F69587
:102EB000E7950794FE2FE02DE80FF91FE851F04D3C
:102EC0002081EB01C22B01968093E12F9093E22F9A
:102ED00080E011DF112321F07C2F662710E0C8CF9E
:102EE0008C2F9D2FDF91CF911F91089580E0B5CF5A
:102EF00008955FB7F89420915A2FE22FF0E0EE0F7B
:102F0000FF1FE55AF04D8081918141E0211140E0A1
:102F1000E42FF0E0EE0FFF1FE55AF04D20813181E4
:102F20008034910589F46091572F61110DC0609133
:102F3000562F611109C081E08093562F40935A2F7C
:102F400020E430E080E090E05FBF280F391F80E888
:102F500090E0821B930B0895CCDF21E0892B09F4CC
:102F600020E0822F089580E0F7CF08951F93CF933C
:102F7000DF93162FC72FD1E080917F30893009F081
:102F8000D0E080E0E9DF811107C0809168308111D5
:102F9000F8CF80E090E02BC06FB7F89420915A2FC3
:102FA00030E0F901EE0FFF1FE55AF04D808191816D
:102FB000AC014F5F5F4F40835183F9010024F695C8
:102FC000E7950794F695E7950794FE2FE02D8E0F71
:102FD0009F1FFC01E05AF04D10836FBFDD2329F0E5
:102FE0001C2FCC0FCC0BD0E0CCCF81E090E0DF9158
:102FF000CF911F910895BC0180E0B8CF08957F92D2
:103000008F929F92AF92BF92CF92DF92EF92FF92F8
:103010000F931F93CF93DF936B018A0180917F30D1
:10302000893011F4000F111F6894AA24A6F8B12C5E
:1030300080E092DF811107C0809168308111F8CF64
:10304000802F912F38C07FB6F89480905A2F912C02
:10305000F401EE0FFF1FE55AF04DE080F180C5014D
:103060008E199F09E8018017910708F4EC01C4014B
:103070000024969587950794969587950794982FA1
:10308000802D8E0D9F1DAE01B601805A904D0E947D
:1030900096A9F401EE0FFF1FE55AF04DEC0EFD1E50
:1030A000E082F1827FBECC0EDD1E0C1B1D0B09F0F1
:1030B000BFCF80E090E0DF91CF911F910F91FF9003
:1030C000EF90DF90CF90BF90AF909F908F907F90C8
:1030D0000895AB01BC0180E092CF0895E091853066
:1030E000F09186300190F081E02D228133812E0F06
:1030F0003F1FFC014081E40FF11DE217F307A0F42C
:1031000081818430A1F0861306C014C0818184308F
:10311000A1F08617A9F08081E80FF11DE217F307EF
:10312000A8F380E090E0089580E090E0089580E0CA
:1031300090E008958E2F9F2F089580E090E00895ED
:103140008E2F9F2F0895809165338F770C949A244A
:10315000089590918730992381F1E0918530F09125
:1031600086300190F081E02D9481891740F5E0933D
:103170008330F0938430228133812E0F3F1FE2177A
:10318000F307F8F49181943061F49281981309C0A7
:103190009381961306C0E0938330F093843081E0EE
:1031A00008959081E90FF11DE217F30758F3E093BA
:1031B0008330F093843080E0089580E0089580E0CB
:1031C000089580E00895FF920F931F93CF93DF93AC
:1031D000C82F60E0BEDFF82E882381F1A0918530F2
:1031E000B0918630EC2FF0E0EE0FFF1F12962D917C
:1031F0003C911397E20FF31F00811181D8011696BD
:10320000ED91FC9117971995682F8C2FA2DFF82E5E
:103210008823A1F0C0918330D091843065E0CE0145
:103220005DDFEC01009721F08A810E941826F6CF1D
:10323000D8011296ED91FC91139719958F2DDF917E
:10324000CF911F910F91FF9008951F93CF93DF931C
:10325000182F7FDF882341F1C0918330D0918430D3
:1032600065E0CE013BDFEC01009749F04C815D81C8
:103270006B818A810E94B1248111F2CF15C0A09187
:103280008530B0918630812F90E0880F991F12967B
:10329000ED91FC911397E80FF91F0190F081E02D5B
:1032A0000190F081E02D1995DF91CF911F91089544
:1032B000809183309091843008950C942224089555
:1032C000CF93809187308823C1F0E0918530F091D1
:1032D00086300190F081E02D8481882371F0C0E078
:1032E0008C2F71DFCF5FE0918530F09186300190B7
:1032F000F081E02D8481C81798F31092873081E027
:1033000090E08093883090938930CF9108950E9407
:10331000E523D6CF0895CF9380918730882341F15C
:10332000E0918530F0918630A081B18114968C9126
:103330008823F1F0C0E08C2F90E0880F991F028065
:10334000F381E02DE80FF91F0190F081E02D00845A
:10335000F185E02D309709F01995CF5FE091853028
:10336000F0918630A081B18114968C91C81718F322
:10337000CF910895EF92FF920F931F93CF93DF9316
:1033800010926D3310926E3310926F33109270332F
:1033900010927133109272332091633322230CF018
:1033A00085C28091693390916A33009709F083C296
:1033B00079C22F7109F0A4C030916433363089F09E
:1033C000383009F491C031119BC0029741F462E09A
:1033D00070E088E890E30E94A82401E0E6C100E0E4
:1033E000E4C12091653330916633832F9927823071
:1033F000910581F08330910579F1019709F06CC056
:103400008091002090910120DC016C9170E00E947D
:10341000A82451C0E0910020F09101208189281753
:1034200008F05CC0C9019927880F991F880F991F60
:10343000E0910220F0910320E80FF91F8081918133
:10344000FC01628173810E94A824E0916B33F091AA
:103450006C3382E081832FC033272130310589F01E
:1034600048F02230310509F42BC22330310509F42C
:103470002BC236C064E070E088E091E20E94A8248C
:103480001AC08FEF90E227E0382FACEEB0E2E82FC1
:10349000F92F819190E08D939D938E2F831B82173E
:1034A000C0F3220F62E0620F6093EA2070E08AEEC0
:1034B00090E20E94A8248091693390916A33209110
:1034C0006D3330916E338217930760F480936D33C0
:1034D00090936E3301E069C100E067C100E065C10F
:1034E00000E063C101E061C1019741F461E070E077
:1034F00087E890E30E94A82401E057C100E055C18D
:10350000213009F040C0309164333A30E1F5019741
:10351000A1F580918730882391F1C0916733D091D4
:103520006833E0908530F0908630D701ED91FC91C2
:103530008481C81730F560E08C2F0BDE082F8823BC
:1035400009F433C1CE019927880F991FD70112962C
:10355000ED91FC911397E80FF91F0190F081E02D98
:103560000680F781E02D19958093823061E070E04C
:1035700082E890E30E94A82418C100E016C100E090
:1035800014C100E012C1223009F011C1209164334E
:10359000211106C1029789F4809167330E94122598
:1035A00090E0809380309093813062E070E080E81A
:1035B00090E30E94A82401E0F8C000E0F6C02F715B
:1035C00009F091C080916433833009F4EBC018F4A2
:1035D0008130B1F088C0853019F0893061F183C045
:1035E0008091693390916A33892B41F483EA98E1A1
:1035F00080936F339093703301E0D7C000E0D5C063
:103600008091693390916A33892B89F48091653375
:1036100090916633019769F4809188309091893058
:103620008D7F809388309093893001E0BEC000E0A8
:10363000BCC000E0BAC08091693390916A33892B95
:1036400009F047C00E949D24882309F444C02091BA
:103650006533309166333327E0910020F0910120EB
:10366000818990E082179307C0F12ADE809165334B
:103670009091663380938730882389F19927815010
:10368000904C880F991F880F991FE0910220F091AC
:103690000320E80FF91FE0938530F0938630019006
:1036A000F081E02D84818823E1F0C0E060E08C2F80
:1036B000CCDD082F882309F478C0CF5FE0918530F6
:1036C000F09186300190F081E02D8481C81770F36D
:1036D0006CC000E06AC000E068C000E066C001E0C5
:1036E00064C001E062C0213009F5809164338B3001
:1036F000E9F48091693390916A33892B99F4809130
:103700008730882389F0C0916733D09165338C2F3F
:103710005ADD082F882309F448C06D2F8C2F95DDC2
:10372000082F43C000E041C000E03FC0223009F054
:103730003EC080916433813019F08330B9F034C0D9
:103740008091693390916A33892B61F4809165335C
:1037500090916633892B41F4809167330E942D2527
:10376000082F23C000E021C000E01FC08091693312
:1037700090916A33892B81F48091653390916633FF
:10378000892B61F4C7E6D3E388810E94DF25888115
:103790000E943526082F09C000E007C000E005C0E0
:1037A00000E003C000E001C000E0011191C0809181
:1037B00063338F718130C1F5809187308823A1F107
:1037C000C0916733D0916833009185301091863075
:1037D000D801ED91FC918481C81730F560E08C2F01
:1037E000B8DC882309F1CE019927880F991FD801E9
:1037F0001296ED91FC911397E80FF91F008111814A
:10380000D8011696ED91FC9117971995682F8C2F7A
:10381000A0DC882349F0D8011496ED91FC9115970E
:103820001995082F811154C0809163338F718230B4
:10383000D9F580918730882389F1E0918530F09126
:103840008630A081B18114968C91882349F110E0D3
:10385000212F30E0220F331F0280F381E02DE20F91
:10386000F31FC081D181EE81FF811995682F812FCF
:1038700070DC082F882361F1EC81FD811995082FF8
:10388000811126C01F5FE0918530F0918630A081C4
:10389000B18114968C911817D8F21AC000E018C0A4
:1038A00000E016C000E014C000E012C0822F807655
:1038B00009F07DCF84CE322F307609F078CF79CDE4
:1038C00024E08AEF90E2E0CD27E085ED92E2DCCDC6
:1038D000802FDF91CF911F910F91FF90EF9008956E
:1038E00008951BBEFC0128ED24BF60830895E0EC21
:1038F000F1E027852223ECF3ECECF1E02081286055
:103900002083DC01B05F8C919081977F9083089534
:10391000E0ECF1E087858823ECF3E0ECF1E08785CB
:1039200081FF06C086E3828761E08BEC91E0D9CF0E
:103930000895E0ECF1E097859923ECF3ECECF1E0ED
:10394000908198609083A82FB0E0B05F6C938081E5
:10395000877F80830895FF920F931F93CF93DF9308
:10396000182FF92EC62FE0ECF1E00285D1DFE0EC54
:10397000F1E027852223ECF36C2F812FDADFC0ECF6
:10398000D1E01A82F982188385E38A8761E08BECA3
:1039900091E0A7DF0A87DF91CF911F910F91FF90F0
:1039A0000895EF92FF920F931F93CF93DF938C01B3
:1039B000E0ECF1E087858823ECF3780180E2E80E03
:1039C000F11CE8018C2F801B6991B3DFCE15DF0558
:1039D000C9F7DF91CF911F910F91FF90EF9008955C
:1039E0001F93CF93DF93E0ECF1E097859923ECF3FD
:1039F00020E2829FC0011124C0ECD1E01A82998399
:103A000088831A8585E38A8761E08BEC91E069DF22
:103A10001A87DF91CF911F910895CF92DF92EF9295
:103A2000FF920F931F93CF93DF93EC017B018A01E9
:103A30004115510551F1CE018F719927892BB1F4B0
:103A40000032110598F0C701ACDFCE01969587953D
:103A5000929582958F7089279F708927C1DFA096E4
:103A600080E2E80EF11C005211090CC06E01EFEF6C
:103A7000CE1ADE0AF70161917F01CE016CDF0150A1
:103A80001109E60101151105B1F6DF91CF911F91E2
:103A90000F91FF90EF90DF90CF9008954091CA0171
:103AA000E62FF72F8093CA0184914093CA010895AD
:103AB000CF92DF92EF92FF920F931F93CF93DF93FA
:103AC000EC016A017B01DB01CA010197A109B1097F
:103AD000BC01CD01600F711F821F931FA7019601CA
:103AE0000E9461A92138310541055105F8F42134BE
:103AF00060F4213260F4213160F4293060F4253023
:103B000060F4233060F090E00BC093E009C092E0D5
:103B100007C092E805C091E003C091E801C090E8B9
:103B200088818C77892B888381E001C08FEFDF91BA
:103B3000CF911F910F91FF90EF90DF90CF9008955C
:103B4000CF93DF93E0918A30F0918B30848183FFB3
:103B500008C08860848383E0838386EF80939430F9
:103B600089C0982F947131F083E083838FEF809325
:103B7000943080C086FF45C0A0918C30B0918D30CC
:103B800080918E3090918F3014962D913C911597A5
:103B9000821793076CF49C012F5F3F4F20938E3068
:103BA00030938F30A80FB91F11968C91878362C014
:103BB000809190309091913018962D913C91199769
:103BC00082179307C8F420919230222321F0868136
:103BD000816086834FC016962D913C911797AC015A
:103BE0004F5F5F4F4093903050939130D901A80FB1
:103BF000B91F8C9187833EC083E0838310929430F9
:103C000039C08823A4F5A0918C30B0918D3080917B
:103C100090309091913018962D913C911997821780
:103C20009307F8F416964D915C9117979C012F5FBE
:103C30003F4F20939030309391306781EA01C80F55
:103C4000D91F688318968D919C9119972817390769
:103C500018F482E083830EC087E08383109294304F
:103C600009C083E0838389EF8093943003C08BEF96
:103C700080939430DF91CF9108951F920F920FB6E9
:103C80000F9211240BB60F922F933F934F935F9394
:103C90006F937F938F939F93AF93BF93EF93FF9314
:103CA0004FDFFF91EF91BF91AF919F918F917F91E6
:103CB0006F915F914F913F912F910F900BBE0F909D
:103CC0000FBE0F901F9018951F920F920FB60F9274
:103CD00011240BB60F922F933F934F935F936F93E3
:103CE0007F938F939F93AF93BF93EF93FF9328DFBF
:103CF000FF91EF91BF91AF919F918F917F916F91C4
:103D00005F914F913F912F910F900BBE0F900FBE7F
:103D10000F901F901895FC01DB0114968C91858300
:103D200088EB818381E084831092933010929430E9
:103D3000E0EAF0E0828182608283789480E00895F6
:103D4000009709F453C06115710509F451C0FB01D6
:103D500032852091933002C031114CC02111FCCF2B
:103D60002FB7F89431E03093933030E830939430AB
:103D70002FBF80938A3090938B3060938C307093F8
:103D80008D3010928E3010928F30109290301092B1
:103D9000913040939230FB012081522F550F2481A6
:103DA0003581232B11F4411103C0FC01568303C05C
:103DB0005160FC015683E4E9F0E380818038E9F347
:103DC000E0918A30F0918B3084818370813049F0AA
:103DD000AAE8B0E3ED91FC91119784818370813062
:103DE000C9F78091943010929330089588EF089528
:103DF00088EF089586EF0895FC01818185FFFDCF4E
:103E0000608380E090E00895FC0181818823ECF7D5
:103E1000808108954F925F926F927F928F929F92CE
:103E2000AF92BF92CF92DF92EF92FF920F931F93C8
:103E3000CF93DF93EC014A015B0128013901D901DD
:103E4000C801689412F8B695A7959795879516942A
:103E5000D1F7B901A801032E36E1769567955795FC
:103E600047953A95D1F7302D2C8122FD08C0B695A3
:103E7000A795979587957695679557954795881552
:103E80009905AA05BB0508F4A6C084169506A606E2
:103E9000B70608F4A2C08C8182FD04C0880C991C6E
:103EA000AA1CBB1CC301B201A50194010E9461A917
:103EB0002F3F31054105510508F491C0C12CD12C8B
:103EC0007601CA9419EF05C02C153D054E055F0516
:103ED00068F0CC0CDD1CEE1CFF1C1D3F14F4689434
:103EE000C0F81F5F173081F7212F50C0212F1123F9
:103EF0000CF04CC0D501C401880F991FAA1FBB1F2D
:103F0000880F991FAA1FBB1F880F991FAA1FBB1FCD
:103F1000481A590A6A0A7B0A1E3FF4F46DEF7FEFD4
:103F2000611B710917FD739504C0440C551C661C78
:103F3000771C6A95D2F7D501C401B695A7959795D8
:103F40008795BC01CD01640D751D861D971DA501CA
:103F500094010E9461A936C023E0210FD501C4015C
:103F600004C0880F991FAA1FBB1F2A95D2F79C0176
:103F7000AD01B695A79597958795BC01CD01640DC8
:103F8000751D861D971D0E9461A91CC02D5FD5015E
:103F9000C40104C0880F991FAA1FBB1F2A95D2F71E
:103FA0009C01AD01B695A79597958795BC01CD016C
:103FB000640D751D861D971D0E9461A92150310950
:103FC00041095109832F8F701295107F182B1F8381
:103FD0002E8381E018C080E016C080E014C0D501B7
:103FE000C401880F991FAA1FBB1F880F991FAA1F02
:103FF000BB1F880F991FAA1FBB1F481A590A6A0ABC
:104000007B0A19EF8BCFDF91CF911F910F91FF901A
:10401000EF90DF90CF90BF90AF909F908F907F9068
:104020006F905F904F9008950F931F93CF93DF93FE
:10403000EC018B01009709F403C1803C910529F440
:1040400060E180E00E948D13FBC0C03881E0D8079A
:1040500029F462E080E00E948D13F2C0C115E1E016
:10406000DE0729F461E080E00E948D13E9C0C038CA
:10407000F3E0DF0729F461E081E00E948D13E0C0E6
:10408000C03983E0D80729F461E082E00E948D13F3
:10409000D7C0C115E2E0DE0729F462E081E00E94AA
:1040A0008D13CEC0C034F2E0DF0729F462E082E075
:1040B0000E948D13C5C0C03283E0D80729F464E0A4
:1040C00082E00E948D13BCC0C115E8E0DE0729F430
:1040D00061E083E00E948D13B3C0C115F9E0DF07F2
:1040E00029F461E084E00E948D13AAC0C1158AE022
:1040F000D80729F461E085E00E948D13A1C0C115A5
:10410000EBE0DE0729F461E086E00E948D1398C0A1
:10411000C034F8E0DF0729F462E083E00E948D13E9
:104120008FC0C03489E0D80729F462E084E00E949F
:104130008D1386C0C034EAE0DE0729F462E085E032
:104140000E948D137DC0C039F8E0DF0729F464E0D8
:1041500083E00E948D1374C0C03989E0D80729F428
:1041600064E084E00E948D136BC0C039EAE0DE0792
:1041700029F464E085E00E948D1362C0C039FBE041
:10418000DF0729F464E086E00E948D1359C0C03C2B
:1041900088E0D80729F468E083E00E948D1350C0BE
:1041A000C03CE9E0DE0729F468E084E00E948D135A
:1041B00047C0C03AF8E0DF0729F460E183E00E94DD
:1041C0008D133EC0C03A89E0D80729F460E184E04D
:1041D0000E948D1335C0C03AEAE0DE0729F460E1A1
:1041E00085E00E948D132CC0C03AFBE0DF0729F464
:1041F00060E186E00E948D1323C0C03B88E0D807B1
:1042000029F460E283E00E948D131AC0C03BE9E00C
:10421000DE0729F460E284E00E948D1311C0C038EB
:10422000F4E0DF0729F460E483E00E948D1308C006
:10423000C03A84E0D80721F460E485E00E948D1341
:104240008D818F738D83F80194818581892B96816F
:10425000992311F098E001C090E0892B8D83F8013B
:10426000408151816281738100E016E32EE631E0E6
:10427000CE01D0DD9C8198609C839C8190619C8361
:10428000DF91CF911F910F910895811118C09091E6
:10429000F432992389F09FB7F894EEE5F3E3208197
:1042A000215020839FBF08C09FB7F894EEE5F3E349
:1042B00020812F5F20839FBF8093F43208959091D7
:1042C000F432992389F3F8CF0F93E8ECF4E080817E
:1042D0008F7D808380818F7D8083E8E9F2E302E037
:1042E000059310929A3210929B3200E2069300E4FA
:1042F0000693E0E9F2E300E2069300E406931092ED
:104300006F33109270331092713310927233109297
:104310006D3310926E33109274320F9108950F9393
:1043200085E080937432E9E9F2E304E00593E1E982
:10433000F2E304E005930F9108950F9383E08093D7
:10434000743210929A3210929B32E8E9F2E302E062
:1043500006930F910895E0916F33F0917033309789
:1043600009F0199508950F93CF93DF9380917432DC
:10437000833019F4F0DFA8DF60C080917032909133
:104380007132C0916D33D0916E33C81BD90B71F56A
:104390002091723230917332820F931F8093723268
:1043A000909373322091693330916A338217930767
:1043B00021F080919530882341F084E0809374321D
:1043C000E0E9F2E302E0069338C0E0917133F09146
:1043D0007233309799F01995882381F010927032DA
:1043E00010927132C0916D33D0916E33C034D105CB
:1043F00028F010929530C0E4D0E003C081E08093B3
:104400009530C0939A32D0939B32809170329091C4
:10441000713220916B3330916C33280F391F209308
:104420009C3230939D32C80FD91FC0937032D09305
:104430007132E8E9F2E302E00693DF91CF910F9148
:104440000895FC018181877090E0FC013197E7308D
:10445000F10520F4E250FF4F0C9483A988E090E02E
:10446000089580E290E0089580E490E0089580E867
:1044700090E0089580E091E0089580E092E0089552
:104480008FEF93E0089580E190E00895282F2F703A
:1044900030E0220F331F992787FD90958827990FC9
:1044A000881F9927820F931F02979C01220F331FA9
:1044B000220F331F220F331F820F931F8A529E4CED
:1044C00008950F93CF938091CC0480FF63C081E067
:1044D0008093CC04E0E9F2E300E80693E8E9F2E334
:1044E00000E806938093CA04E0E9F2E300E1069352
:1044F00080917432882329F08350823008F42BDFB6
:10450000E3DE8091923290919332089709F044C093
:1045100088E0E0E3F2E3A3E6B3E301900D928A952D
:10452000E1F7E8ECF4E08081806280838081806242
:1045300080830E94BA19C82F811103C0F0DEC1E048
:104540002CC08091633388236CF4109272321092E5
:104550007332109270321092713282E08093743212
:1045600002DF1BC02091693330916A33232B11F491
:10457000E4DE13C0109272321092733210927032D5
:104580001092713281E080937432E0E9F2E302E04C
:10459000069303C0C0E001C0C1E08C2FCF910F9102
:1045A0000895BF92CF92DF92EF92FF920F931F93E5
:1045B000CF93DF93B82E6ADFEC011B2D111F11275B
:1045C000111F8B2D8F70E82EF12CEE0CFF1CE10ECD
:1045D000F11CC701880F991F880F991F880F991F19
:1045E0009C0120573D4C7901C9012BDF6C0111233F
:1045F00009F45BC0D70116962D913C9117978D81D8
:104600009E81280F391F2D833E838B819C81281723
:104610003907C9F1FC01E21BF30B9F012115F4E0FE
:104620003F0740F02FEF33E0C901B6010E944DA9CA
:10463000281B390B888181FF0AC0C901B6010E947D
:104640004DA941E0892B09F040E0942F01C090E092
:10465000888190FB81F98883D70116961D921C9260
:10466000179712962D933C93139729813A818D8148
:104670009E81820F931F14968D939C931597F7013B
:1046800002E0069398C0888181FF87C08D7F888370
:10469000D70116961D921C92179712961D921C9286
:1046A0001397F70102E0069386C0D70112960D9189
:1046B0001C911397888182FF15C0E981FA812D81B1
:1046C0003E818B819C81B6010E944DA9B0E4BB9EC6
:1046D000B00111246A5A7F4CAC01CF01820F931FA5
:1046E0000E9496A92D813E81200F311F2D833E838C
:1046F000EB81FC81E217F30710F4ED83FE83D70111
:1047000016968D919C9117978017910709F045C0D7
:104710008D819E81E817F90709F43FC0E81BF90B6A
:10472000E115B4E0FB0748F0EFEFF3E0CF01B6018D
:104730000E944DA9E81BF90B06C0CF01B6010E94EB
:104740004DA9E81BF90BD70112961D921C921397E5
:10475000EC15FD0578F4888184608883B0E4BB9E05
:10476000C00111248A5A9F4CF70184839583C68225
:10477000D7820FC029813A818D819E81820F931F3C
:10478000D70114968D939C9315971696ED93FC93F1
:104790001797F70102E006930EC0888180FF0BC0D7
:1047A0008E7F8883EF81F885309729F06D817E8137
:1047B0004B2D80E01995DF91CF911F910F91FF90C4
:1047C000EF90DF90CF90BF900895CF93CFB7F8943C
:1047D000E1ECF4E080818E7F80831092C00410822F
:1047E0000E94DB1380E051DD8FB7F894E2E6F3E33B
:1047F0009081915090838FBFCFBFCF910895CF9379
:10480000CFB7F89481E041DDEAECF4E080E4808306
:1048100080E28083E1ECF4E0808181608083A9EC18
:10482000B4E08C9182608C93E8ECF4E08081806449
:1048300080838C9181608C93808180688083CFBFDE
:10484000CF910895CF93DF93C0E6D0E0188280E344
:104850000E94A413E0ECF4E080818064808381E016
:104860008883CFB7F89480E090E0FC01EE0FFF1F43
:10487000EE0FFF1FEE0FFF1FEF56FD4C108201964B
:104880008C30910591F780E090E0FC01EE0FFF1F66
:10489000EE0FFF1FEE0FFF1FE80FF91FEA52FE4C4D
:1048A00020812E7F208301968A30910571F76AE17D
:1048B00070E082E0F3D88F3F19F08093FA0403C0D0
:1048C0008FE18093FA046BE170E082E0E7D88F3FDC
:1048D00019F08093FB0403C08FE18093FB04E0ECAC
:1048E000F4E080818560808380818068808380811E
:1048F0008061808380E992E38683978380818062F0
:1049000080838FEF8093C504E8ECF4E080818160C0
:1049100080831092F4328FB7F894E2E6F3E390814B
:104920009F5F90838FBF6BDFCFBFDF91CF910895E3
:1049300080E008958093C30408958091C30408958E
:104940008091F0329091F132089580E090E00895E6
:1049500080936B3390936C3360936D3370936E33AD
:104960000895E82FEF70F0E0EE0FFF1F992787FD05
:1049700090958827990F881F9927E80FF91FEE0F48
:10498000FF1FEE0FFF1FEE0FFF1FE057FD4C818151
:10499000807C09F043C06370613029F010F480E43A
:1049A00003C080E801C080EC40385105E1F050F4CC
:1049B00040325105A1F04034510599F04031510584
:1049C00061F419C0411592E0590789F04F3F93E017
:1049D000590779F04115514041F020E00DC022E027
:1049E0000BC023E009C024E007C025E005C026E095
:1049F00003C027E001C021E0118296E09083822B62
:104A000081838181807C803C21F481818770873023
:104A100039F081818062818381E0089580E008958A
:104A200081E00895E82FEF70F0E0EE0FFF1F992767
:104A300087FD90958827990F881F9927E80FF91F00
:104A4000EE0FFF1FEE0FFF1FEE0FFF1FE057FD4C95
:104A5000818182FB882780F90895E82FEF70F0E0CC
:104A6000EE0FFF1F282F332727FD30952227330F06
:104A7000221F3327E20FF31FEE0FFF1FEE0FFF1F62
:104A8000EE0FFF1FE057FD4C918192FF0EC0918108
:104A90009B7F9183FBDCFC01808180FF06C08E7FC1
:104AA00080830780F085E02D199581E008957F923D
:104AB0008F929F92AF92BF92CF92DF92EF92FF922E
:104AC0000F931F93CF93DF93982E862E5A0169017F
:104AD000DDDC7C01792C771C7724771CC92DCF7005
:104AE000D0E0CC0FDD1FC70DD11DCC0FDD1FCC0FCB
:104AF000DD1FCC0FDD1FC057DD4C8981807C09F4A0
:104B00004CC08981807C803C19F0898182FD47C03E
:104B10008FB7F894F701908190FF03C08FBF712C7D
:104B20003FC0F7019081916090838FBFF701A18210
:104B3000B282C382D48215821682078310878110C5
:104B400006C091E0C114D10419F090E001C091E0D9
:104B5000F701808190FB81F98B7F8083772019F0AA
:104B60001E821F8215C08981807C803C69F4CE0141
:104B700068DCBC01C6010E944DA9892B29F0F70110
:104B800080818E7F80830CC01A821B821E821F82CE
:104B9000892D07DD7724739403C0712C01C0712C1B
:104BA000872DDF91CF911F910F91FF90EF90DF90B4
:104BB000CF90BF90AF909F908F907F900895FF927D
:104BC0000F931F93CF93DF93182FF82EFF1CFF2412
:104BD000FF1CC82FCF70D0E0CC0FDD1FCF0DD11D33
:104BE000CC0FDD1FCC0FDD1FCC0FDD1FC057DD4C00
:104BF0004DDCDC01FE0102E005938C9180FF12C0C8
:104C00008E7F8C931796ED91FC911897309751F009
:104C1000FF2019F06E817F8102C06A817B81412F64
:104C200081E01995DF91CF911F910F91FF90089529
:104C3000CF93C82FC4DFEC2FEF70F0E0EE0FFF1F13
:104C40008C2F992787FD90958827990F881F992782
:104C5000E80FF91FEE0FFF1FEE0FFF1FEE0FFF1FF4
:104C6000E057FD4C1182CF9108950F93E82FEF701C
:104C7000F0E0EE0FFF1F282F332727FD3095222766
:104C8000330F221F3327E20FF31FEE0FFF1FEE0F2C
:104C9000FF1FEE0FFF1FE057FD4C91819460918341
:104CA00001E006938CDF81E00F9108951F920F922F
:104CB0000FB60F9211240BB60F920F932F933F93C1
:104CC0004F935F936F937F938F939F93AF93BF9314
:104CD000CF93EF93FF938091CB0488233CF480E83B
:104CE0008093CA040E948B196BD68FC08091CB042D
:104CF00082FF20C084E08093CA048091983286FFAE
:104D000084C08091CC0481FD80C0DBDB81117DC03B
:104D100080917432813011F410DB77C0843009F057
:104D200074C0E9E9F2E304E00593E1E9F2E304E0A9
:104D300005936BC08091CB0481FF62C082E08093B9
:104D4000CA048091903286FF60C08091CC0481FDBE
:104D50005CC0B7DB811159C080917432823041F45C
:104D600084E080937432E0E9F2E302E006934DC000
:104D7000833009F04AC0E9E9F2E304E00593E1E990
:104D8000F2E304E0059341C080E18093CA04C1E0EE
:104D90008C2F15DF8C2F806812DFCF5FC530C1F7F5
:104DA0000E9460191092C304E1E9F2E3108296E0D8
:104DB0009093903283E48083E9E9F2E31082909348
:104DC0009832808380E392E380939432909395327B
:104DD0007BDA1BC08091CB0486FF07C080E4809300
:104DE000CA0480E052DAE6D510C08091CB0485FF7A
:104DF0000CC080E28093CA0481E047DADED505C0AA
:104E00008091CB0484FDC0CFE5CFFF91EF91CF918E
:104E1000BF91AF919F918F917F916F915F914F91D2
:104E20003F912F910F910F900BBE0F900FBE0F90DF
:104E30001F9018951F920F920FB60F9211240BB668
:104E40000F920F931F932F933F934F935F936F9303
:104E50007F938F939F93AF93BF93CF93DF93EF9302
:104E6000FF938091CC0481FD03C02BDB8111B9C07D
:104E700082E08093CC048091C5048195880FE0E99D
:104E8000F2E3E81BF1092081318120593243369544
:104E900027953695279536952795822F869520FF5D
:104EA00002C090E801C090E0890FE82FEF70F0E0B9
:104EB000EE0FFF1F282F332727FD30952227330FB2
:104EC000221F3327E20FF31FEE0FFF1FEE0FFF1F0E
:104ED000EE0FFF1FE057FD4C908195FF82C000E26E
:104EE0000693811179C080917432843019F433DAD9
:104EF000EBD977C0C0919232D091933280916D33CB
:104F000090916E33009170321091713298012C0F94
:104F10003D1F8217930718F4EC01C01BD10B809141
:104F20006B3390916C33AE0160E372E3800F911F9D
:104F30000E9496A90C0F1D1F0093703210937132BE
:104F4000C034D10569F48091723290917332800F30
:104F5000911F2091693330916A338217930788F04B
:104F600000936D3310936E33E0917133F09172338F
:104F7000309729F01995811102C0D1D932C0DDD9FD
:104F800030C080916D3390916E3308171907F9F492
:104F9000E0917133F0917233309711F4C0D921C090
:104FA0001995811102C0BBD91CC020917232309179
:104FB00073328091703290917132820F931F80937F
:104FC0007232909373321092703210927132E0E923
:104FD000F2E302E0069305C0803811F4C4D901C0A1
:104FE000E0DAFF91EF91DF91CF91BF91AF919F9167
:104FF0008F917F916F915F914F913F912F911F9171
:105000000F910F900BBE0F900FBE0F901F90189531
:105010000E948719EEEFF0E082E08CBF19940895AA
:10502000FC0101900020E9F73197BF01681B790B63
:105030000C9469180895CF93DF93EC01F1DF8DEDA7
:1050400092E2EEDF60EE72E2CE010E949FA9892B10
:1050500019F48DED92E2E4DFDF91CF910895209174
:105060000C21622309F0E7CF089580930C21089565
:10507000CF92DF92EF92FF920F931F93CF93DF9324
:10508000082F10E0000F111FE801C958DC4C88817F
:1050900099810E940C14B8016D587C4CFB01C080B2
:1050A000D12CE12CF12C00E412E42FE030E040E0C0
:1050B000888199810E942314E881F981808180642C
:1050C000808381E0DF91CF911F910F91FF90EF904E
:1050D000DF90CF900895BF92CF92DF92EF92FF9230
:1050E0000F931F93CF93DF93B62EC82FD0E06E019E
:1050F000CC0CDD1C86010D581C4CA60149585C4C9B
:105100007A01B801DA018D919C910E944314F60155
:10511000EC58FC4C8081E82FE695E695E695B0E2E8
:10512000EB9FF0011124FA5F877021E030E0A901C4
:1051300002C0440F551F8A95E2F74683D701ED91CF
:10514000FC911197B382ED91FC9182818823ECF759
:105150008AEF8383FE01EE0FFF1FE958FC4C01909C
:10516000F081E02D82818823ECF7CE01880F991F12
:10517000DC01AC58BC4C2C91A22FA695A695A69507
:1051800030E2A39FD0011124BA5F277041E050E0C4
:10519000BA0102C0660F771F2A95E2F715966C9345
:1051A0002FEF2383FC01E958FC4C0190F081E02DA6
:1051B00082818823ECF7F3808FEF8383CC0FDD1F90
:1051C000C958DC4CE881F98182818823ECF7C381DE
:1051D000B801CF010E9459148C2F90E0982F882796
:1051E0008F0D911DDF91CF911F910F91FF90EF9047
:1051F000DF90CF90BF9008959F92AF92BF92CF92D1
:10520000DF92EF92FF920F931F93CF93DF93962E2F
:10521000A42EB52E082F10E06801CC0CDD1CA601D1
:105220004D585C4C7A01E601C958DC4CBA018881C2
:1052300099810E944314F601EC58FC4C8081E82FC0
:10524000E695E695E69550E2E59FF0011124FA5FB8
:10525000877021E030E0B90102C0660F771F8A95A0
:10526000E2F76683E881F9819382E881F98182819E
:105270008823ECF7C801880F991FDC01AC58BC4C9F
:105280002C91A22FA695A695A69570E2A79FD00176
:105290001124BA5F277041E050E0BA0102C0660FE6
:1052A000771F2A95E2F715966C93A382FC01E958C3
:1052B000FC4C0190F081E02D82818823ECF7B382D1
:1052C000F801EE0FFF1FE958FC4C0190F081E02D32
:1052D00082818823ECF7B701CF010E945914DF9136
:1052E000CF911F910F91FF90EF90DF90CF90BF90E3
:1052F000AF909F900895CF93C82F48E250E06FEB96
:105300007BDF40E053E567E070E0415051096109FF
:1053100071094115510561057105B9F740E150E08A
:105320006FEB8C2F69DF40E059E06DE370E0415096
:105330005109610971094115510561057105B9F7F7
:1053400049E250E06FEB8C2F57DF40E053E567E018
:1053500070E041505109610971094115510561051C
:105360007105B9F741E150E06FEB8C2F45DFCF912C
:105370000895CF93C82F8EEE92E25DDE40E85AE1A9
:1053800066E070E04150510961097109411551050C
:1053900061057105B9F741E050E06CEB8C2F2CDF13
:1053A00080E090E0019681152AEF9207D9F741E15C
:1053B00050E06FEB8C2F20DF40E450E66AE070E0B5
:1053C0004150510961097109411551056105710586
:1053D000B9F749E250E06FEB8C2F0EDF40E858E35D
:1053E00061E070E0415051096109710941155105B1
:1053F00061057105B9F742E050E06CEB8C2FFCDEE3
:105400004EEF57E06FEB8C2FF7DE40E85AE166E095
:1054100070E041505109610971094115510561055B
:105420007105B9F749EA5AEF6FEB8C2FE5DE80E0A2
:1054300090E0019681152AEF9207D9F74EEF50E0E0
:105440006FEB8C2FD9DE80E090E0019681152AEF7A
:105450009207D9F741E050E06CEB8C2FCDDE80E075
:1054600090E0019681152AEF9207D9F74BE453E0BB
:1054700067EB8C2FC1DECF910895CF93C82F80E0CA
:1054800093E2D9DD43E453E067EB8C2FB5DE20E0F7
:1054900030E02F5F3F4F21158AEF3807D1F741E009
:1054A00050E06CEB8C2FA8DE20E030E02F5F3F4F08
:1054B00021158AEF3807D1F748E250E06FEB8C2FC7
:1054C0009BDE20E030E02F5F3F4F21158AEF380749
:1054D000D1F740E150E06FEB8C2F8EDE80E898E34F
:1054E000A1E0B0E00197A109B1090097A105B105BC
:1054F000C9F7CF910895CF93C82F4AEF50E064EDDC
:105500007BDE60EB8C2FE7DDCF910895CF93C82F22
:1055100040E854E86EE170E04150510961097109B9
:105520004115510561057105B9F781E08093F532A8
:105530008C2FE1DF8832984229F083E193E27BDD12
:1055400080E01DC146E152E061EB8C2F55DE4CE955
:1055500056E062EB8C2F50DE40E258E263EB8C2F7A
:105560004BDE48E354E064EB8C2F46DE40E857E026
:1055700065EB8C2F41DE47E050E266EB8C2F3CDE82
:105580004AE054E169EC8C2F37DE43E050E06EEDE9
:105590008C2F32DE44E050E066ED8C2F2DDE40E3B0
:1055A00050EC6AEB8C2F28DE48E050E06BEB8C2F40
:1055B00023DE41E050E069EB8C2F1EDE41E050E03D
:1055C00064EC8C2F19DE40E45DE063E070E0415054
:1055D0005109610971094115510561057105B9F755
:1055E00042E053E067EB8C2F07DE40E050E068EBD1
:1055F0008C2F02DE42E050E06CEB8C2FFDDD80E072
:1056000090E0019681152AEF9207D9F740EB54E01C
:105610006FEB8C2FF1DD80E090E0019681152AEF91
:105620009207D9F746ED51E06FEB8C2FE5DD80E076
:1056300090E0019681152AEF9207D9F742E453E0F2
:1056400067EB8C2FD9DD80E090E0019681152AEF81
:105650009207D9F740E050E068EB8C2FCDDD80E079
:1056600090E0019681152AEF9207D9F742E050E0C9
:105670006CEB8C2FC1DD80E090E0019681152AEF64
:105680009207D9F74EEF54E06FEB8C2FB5DD80E039
:1056900090E0019681152AEF9207D9F74EE550E088
:1056A0006FEB8C2FA9DD80E090E0019681152AEF49
:1056B0009207D9F744E457E46FEB8C2F9DDD80E02F
:1056C00090E0019681152AEF9207D9F74EEF57E047
:1056D0006FEB8C2F91DD80E090E0019681152AEF31
:1056E0009207D9F749EA5AE66FEB8C2F85DD80E007
:1056F00090E0019681152AEF9207D9F74EEF5AE014
:105700006FEB8C2F79DD20E030E02F5F3F4F2115CC
:105710008AEF3807D1F744E152E56FEB8C2F6CDD4F
:1057200020E030E02F5F3F4F21158AEF3807D1F797
:105730004EEF50E06FEB8C2F5FDD20E030E02F5F0D
:105740003F4F21158AEF3807D1F745E351E06FEB62
:105750008C2F52DD20E030E02F5F3F4F21158AEF84
:105760003807D1F745E550E06FEB8C2F45DD80E041
:1057700090E0019681152AEF9207D9F781E0CF9149
:10578000089584E18093733389E08093743380ECCF
:1057900098E0809377339093783380E069DC80E001
:1057A000B5CE0895E82FF0E0EE0FFF1FEC58FC4C4B
:1057B0008081E82FE695E695E69540E2E49FF001CA
:1057C0001124FA5F877021E030E0A90102C0440F84
:1057D000551F8A95E2F745830895E82FF0E0EE0F14
:1057E000FF1FEC58FC4C8081E82FE695E695E69586
:1057F00040E2E49FF0011124FA5F877021E030E07D
:10580000A90102C0440F551F8A95E2F74683089507
:10581000813099F487E293E20EDC84E0E0E0F6E088
:10582000868380E090E00196803A2FE09207D9F7D6
:1058300084E0E0E0F6E085830895823099F482E325
:1058400093E2F9DB80E1E0E0F6E0868380E090E03F
:105850000196803A2FE09207D9F780E1E0E0F6E088
:10586000858308958DE393E2E6CB089581E0E0E23D
:10587000F6E0868380E090E00196803A2FE0920780
:10588000D9F781E0E0E2F6E085830895CF93C42F55
:10589000813051F480EA9BE00E94FC1E6C2F80EA6C
:1058A0009BE00E94FC1E03C08BE493E2C4DBCF911B
:1058B0000895813051F4606880EA9BE00E94FC1EEC
:1058C00080EA9BE00C94041F08958BE493E2B3DB21
:1058D00080E00895C0EAD0E017E01A830E941D130B
:1058E0001A8310925D3310925E3310925F331092E0
:1058F00060331092613381E0809362330E94701CA8
:105900007DD078940E946F140E9470143ADF0E9438
:105910008CA2E0EAF6E080E4858380E886830E943A
:105920005D199BD68091F832882321F080E021DD3B
:105930001092F8328091F732882321F080E09DDDCB
:105940001092F73281E08093F9320E94600F8093C9
:10595000532FC0E001C0C0E080913933882321F08B
:105960000E941FA7109239338091532F81110E94FA
:105970007A1280E090E00196803921E09207D9F711
:10598000CF5F8091F932882339F3C53628F36FD67B
:105990008091F832882321F01092F83280E0E9DC1F
:1059A0008091F7328823B9F280E067DD1092F732F8
:1059B000C0E0D2CF0C94701408950C947114089523
:1059C0008091F632882321F00E94A0240C947A144E
:1059D000089591E09093F6320E94AEA881E0089578
:1059E0001092F6320C94B9A80895662319F00C941D
:1059F000721408950C9473140895089543E050E0D0
:105A000060E880E496E00E94E41343E050E060E246
:105A100080E496E00E94E41340E050E060E480E41B
:105A200096E00E94E41343E050E060E180E496E0F9
:105A30000E94E41343E050E062E080E296E00E94BE
:105A4000E41341E050E062E080E096E00E94E4135D
:105A500043E050E064E080E096E00E94E41343E01D
:105A600050E061E080EA96E00E94E41343E050E0F9
:105A700060E280E696E00E94E41340E050E064E0DB
:105A800080E696E00E94E41341E050E062E080EAA4
:105A900096E00E94E41341E050E060E480EA96E082
:105AA0000E94E41341E050E060E880EA96E00E9442
:105AB000E41343E050E064E080E496E00E94E413E5
:105AC00043E050E068E080E496E00E94E4136DE07B
:105AD00071E280EA9BE00E941420811103C084E5FA
