:100000006EC70000A4C70000A2C70000A0C7000080
:100010009EC700009CC700009AC7000098C7000058
:1000200096C7000094C7000092C700000C94D60841
:100030008EC700000C943D1E0C940C090C943909D9
:100040000C9466090C9493090C94C0090C94ED0966
:100050000C941A0A0C94470A0C94740A0C94A10A82
:1000600076C7000074C7000072C7000070C70000A8
:100070006EC700006CC700006AC7000068C70000B8
:1000800066C7000064C7000062C7000060C70000C8
:100090005EC700005CC700005AC7000058C70000D8
:1000A00056C7000054C7000052C7000050C70000E8
:1000B0004EC700004CC700000C94641E0C94900CBA
:1000C0000C94BD0C0C94EA0C0C94170D0C94440D7C
:1000D0000C94710D0C949E0D0C94CB0D0C94F80D9A
:1000E0000C94250E34C7000032C7000030C7000052
:1000F0002EC700002CC700002AC7000028C7000038
:1001000026C7000024C7000022C7000020C7000047
:100110001EC700001CC700001AC7000018C7000057
:1001200016C7000014C7000012C7000010C7000067
:100130000EC700000C94CE0A0C94FB0A0C94280BFA
:100140000C94550B0C94820B0C94AF0B0C94DC0BA1
:100150000C94090C0C94360C0C94630CF8C600003B
:10016000F6C60000F4C60000F2C60000F0C60000AB
:10017000EEC60000ECC60000EAC60000E8C60000BB
:10018000E6C60000E4C60000E2C60000E0C60000CB
:10019000DEC60000DCC60000DAC60000D8C60000DB
:1001A000D6C60000D4C60000D2C60000D0C60000EB
:1001B0000C94520E0C947F0E0C94AC0E0C94D90E31
:1001C0000C94060F0C94330FC2C60000C0C600008A
:1001D000BEC60000BCC60000BAC600000C942CA825
:1001E0000C9470A8B4C60000B2C60000B0C60000EF
:1001F000AEC600000C9456260C941A2743223122D6
:10020000342237223A223D22402285306F31733129
:1002100077317B31E231E63187318B318F31E63115
:10022000933197319B319F315D3161317F31833122
:10023000A331AB30B130B830BF30C53027312731B2
:10024000D330DA30E130E830EF30F6302731FD30AE
:1002500004310B3127312731123119312031CC30A3
:10026000BE31C231C631CA31CE31D231D631DA31A6
:1002700007320B320F321332883288327C328032AE
:100280008832883288328832883288328432AC3B75
:10029000B73BC23B463C463C463C463C463C463C63
:1002A000463C463C463C463C463C463C463C463C3E
:1002B000463CCD3BD83BE33B463C463C463C463C7B
:1002C000463C463C463C463C463C463C463CEE3B77
:1002D000F93B043C0F3C463C463C463C463C463CD5
:1002E000463C463C463C463C463C463C463C1A3C2A
:1002F000463C463C463C463C463C463C463C463CEE
:10030000463C463C463C463C463C463C463C253CFE
:10031000303C3B3C235BE35AEE5AE35AFA5AE35A29
:10032000005B0C5BE35A125BE35AE35AE35AE35A6D
:10033000E35AE35AE35AE35AE35AE35AE35AE35AD5
:10034000E35AE35AE35AE35AE35AE35AE35AE35AC5
:10035000E35AE35AE35AE35AE35AE35AE35AE35AB5
:10036000E35AE35AE35AE35AE35AE35AE35AE35AA5
:10037000E35AE35AE35AE35AE35AE35AE35AE35A95
:10038000E35AE35AE35AE35AE35AE35AE35AE35A85
:10039000E35ADD5AE35A235BE35AEE5AE35AF45A1E
:1003A000FA5A005B065BE35A0C5BE35A125BE35AB2
:1003B000E35AE35AE35AE35AE35AE35AE35AE35A55
:1003C000E35AE35AE35AE35AE35AE35AE35AE35A45
:1003D000E35AE35AE35AE35AE35AE35AE35AE35A35
:1003E000E35AE35AE35AE35AE35AE35AE35AE35A25
:1003F000E35AE35AE35AE35AE35AE35AE35AE35A15
:10040000E35AE35AE35AE35AE35AE35AE35AE35A04
:10041000E35AE35ADD5AE35A235BE35AEE5AE35AAE
:10042000F45AFA5AE35A005BE35A065BE35A0C5B50
:10043000125B7B689468AD68C668DF6810694169C3
:100440004A767D797D797D797D797D797D797D7932
:100450007D797D79EF777C78A178C678EB787D79A6
:100460007D795A795A795A795A797D797D797D7968
:100470007D7932785778107935790D7B29808D8098
:1004800012816D812A842A848B829183F48463860D
:10049000018790871F88D688158CEF89158C158C5D
:1004A000158C987F158C1189EC8A198B598B678D67
:1004B0001A8D218D288D2F8D368D3D8D448D4B8D40
:1004C000528D598D608D4B927093DD92EE92FF921A
:1004D000699278929F92AE92BD924B9255925592AC
:1004E000559255927093CC925F925F925F925F9219
:1004F0007093709370937093559255925592559254
:10050000DD94EA948A949B94AC94BD948A949B94D1
:10051000AC94BD94F196F196FC96F1964C97F496B6
:10052000F496F796F4961A99229822981A99229896
:100530001A9922981A9922981A991D982298229805
:100540001D982298189822981A991A992298189802
:100550001898EB9DF19DA99DB19DB79DBD9DC59D31
:10056000CD9DD79D2BA05BA02DA02FA031A033A0A7
:1005700035A037A039A03BA03DA03FA041A043A09B
:1005800045A047A049A04BA04DA04FA051A053A00B
:1005900055A057A066A08CA068A06AA06CA06EA011
:1005A00070A072A074A076A078A07AA07CA07EA093
:1005B00080A082A084A086A088A08AA0A5A3AAA3C8
:1005C000B6A3B6A3B6A3B6A3B6A3B6A3B6A3B6A363
:1005D000B6A3B6A3B6A3B6A3B6A3B6A3B6A3B6A353
:1005E000B6A3B6A398A3B6A3B6A3B6A3B6A311A306
:1005F000B6A3B6A3B6A3B6A3B6A3B6A3B6A3B6A333
:1006000042A3B6A3B6A38BA3B6A322A3B6A3B6A355
:10061000B6A3B6A3B6A3B6A3B6A3B6A3B6A3B6A312
:10062000B6A3B6A398A3B6A3B6A3B6A3B6A311A3C5
:10063000B6A3B6A3B6A3B6A3B6A3B6A3B6A3B6A3F2
:1006400042A3B6A3B6A38BA3B6A322A3E0A379A526
:1006500000A479A579A579A579A579A579A579A524
:1006600039A479A579A579A5E9A379A537A479A5B0
:1006700079A579A579A579A579A579A579A579A58A
:1006800079A579A579A579A579A579A5E0A379A515
:1006900000A479A579A579A579A579A579A579A5E4
:1006A00039A479A579A579A5E9A379A537A474A575
:1006B00077A579A579A579A579A579A579A579A54C
:1006C00079A579A579A579A579A579A579A579A53A
:1006D00079A579A579A579A579A579A579A579A52A
:1006E00079A579A579A579A579A579A579A579A51A
:1006F00079A55FA46BA579A579A579A549A481A45D
:1007000079A579A579A579A579A579A579A579A5F9
:1007100079A579A579A579A579A579A579A579A5E9
:1007200079A579A579A579A579A579A579A579A5D9
:1007300079A55FA46BA579A579A579A549A481A41C
:1007400054A67FA67FA67FA67FA67FA67FA67FA6AC
:100750007FA67FA67FA67FA67FA67FA67FA67FA671
:100760007FA67FA67FA67FA67FA611A67FA67FA6CF
:100770001AA606A67FA67FA67FA659A67FA67FA655
:100780007FA67FA630A637A633A67FA647A67FA65C
:100790007FA67FA67FA67FA67FA67FA67FA67FA631
:1007A0007FA67FA67FA67FA67FA611A67FA67FA68F
:1007B0001AA606A67FA67FA67FA659A67FA67FA615
:1007C0007FA67FA630A637A633A67FA647A6AEA6ED
:1007D0008AA78AA78AA78AA781A7BEA6B4A68AA73E
:1007E000B6A6B2A68AA78AA78AA78AA78AA78AA72F
:1007F000B8A68AA78AA7B0A68EA78AA78AA78AA71B
:100800008AA78AA78AA78AA78AA78AA78AA78AA760
:100810008AA78AA78AA78AA781A7BEA6B4A68AA7FD
:10082000B6A6B2A68AA78AA78AA78AA78AA78AA7EE
:10083000B8A68AA78AA7B0A68EA7CFA68EA78EA78E
:100840008EA78EA78EA78EA78EA78EA752A78EA73C
:100850008EA78EA709A7E9A68EA78EA78EA78EA71B
:100860008EA78EA78EA78EA78EA78EA78EA78EA7E0
:100870008EA78EA78EA78EA78EA7CFA68EA78EA790
:100880008EA78EA78EA78EA78EA78EA752A78EA7FC
:100890008EA78EA709A7E9A6585659434320636F30
:1008A0006C6F72696D657472792064617461004E59
:1008B0006F20636F6C6F72696D657472792064610B
:1008C000746100594342435220636F6C6F7220730E
:1008D0007061636500545620666F726D6174203DCF
:1008E0003E20524742206C696D69746564207261D4
:1008F0006E676500504320666F726D6174203D3EE7
:10090000205247422066756C6C2072616E676500EC
:1009100052474220636F6C6F722073706163650091
:10092000556E6B6E6F776E207265736F6C75746940
:100930006F6E00313430307831303530702F3630D2
:10094000487A207265647563656420626C616E6BC1
:10095000696E6700313430307831303530702F3681
:1009600030487A003133363078373638702F3630A9
:10097000487A005755584741203139323078313262
:100980003030702F3630487A005753584120313676
:1009900038307831303530702F3630487A0055474E
:1009A0004120313630307831323030702F36304897
:1009B0007A00535847412031323830783130323460
:1009C000702F3630487A003132383078393630700E
:1009D0002F3630487A005758474120313238307826
:1009E000373638702F3630487A005847412031303A
:1009F000323478373638702F3630487A00535647BD
:100A0000412038303078363030702F3630487A0018
:100A10005647412036343078343830702F363048DD
:100A20007A00313038307831393230702F363048F2
:100A30007A003139323078313038307035392F36EC
:100A400030487A00373230783438306935392F36CB
:100A500030487A00313932307831303830693539C0
:100A60002F3630487A0031323830783732307035AE
:100A7000392F3630487A0037323078343830703594
:100A8000392F3630487A006572726F6E656F7573F4
:100A9000206576656E7420666F72207374616E6473
:100AA000617264206576656E742063616C6C62614E
:100AB000636B005265706561746572207374617454
:100AC0006520352072656163686564003A2077723D
:100AD0006F6E672076616C756500417564696F2083
:100AE0006672657175656E63793A203A20313932E4
:100AF000206B487A00417564696F20667265717574
:100B0000656E63793A203A203137362E34206B48AF
:100B10007A00417564696F206672657175656E63F0
:100B2000793A203A203936206B487A004175646959
:100B30006F206672657175656E63793A203A203868
:100B4000382E32206B487A00417564696F206672D6
:100B5000657175656E63793A203A203438206B48A8
:100B60007A00417564696F206672657175656E63A0
:100B7000793A203A2034342E31206B487A0041757E
:100B800064696F206672657175656E63793A2033AA
:100B900032206B487A0063616C63756C6174696FB5
:100BA0006E206572726F7200417564696F204453E4
:100BB00054207061636B65747300417564696F20C4
:100BC0004F4241207061636B6574730041756469C5
:100BD0006F20484252207061636B657473004175E9
:100BE00064696F2073616D706C65207061636B6503
:100BF0007473004465657020636F6C6F72206D6F55
:100C000064653A2033362062697473004465657008
:100C100020636F6C6F72206D6F64653A20333020F3
:100C200062697473004465657020636F6C6F722035
:100C30006D6F64653A2032342062697473004156E6
:100C4000204D75746520696E616374697665004135
:100C500056206D757465206163746976650044562D
:100C60004920284F45535329206D6F646500454541
:100C70005353206D6F6465006E6F74204844435079
:100C800020656E6372797074656420004844435037
:100C900020656E6372797074656420004456492043
:100CA0006D6F64650048444D49206D6F6465004177
:100CB00075746F6D617469632064657465637469CC
:100CC0006F6E206F66207265736F6C7574696F6EDE
:100CD0003A20004175746F6D6174696320494E500C
:100CE00055542041204C4F434B4544006572726F70
:100CF0006E656F7573206576656E7420666F722001
:100D0000696E666F6672616D652063616C6C6261AD
:100D1000636B0047616D7574206D65746164617407
:100D200061207061636B65747320726563656976B9
:100D3000656400494E464F4652414D453A204D505C
:100D4000454720726563656976656400494E464F84
:100D50004652414D453A20415544207265636569CC
:100D60007665640057726F6E6720636F6C6F72698F
:100D70006D6574727900636F6C6F72696D65747202
:100D8000793A657874656E6465642028787659438D
:100D9000432900636F6C6F72696D657472793A49AB
:100DA000545537303900636F6C6F72696D657472BA
:100DB000793A534D505445203137304D202F20493A
:100DC000545536303100636F6C6F72696D657472A3
:100DD000793A4E6F20646174610057726F6E6720BC
:100DE000636F6C6F7220696E64696361746F720007
:100DF0004675747572650059436243722034343409
:100E00000059436243722034323200524742004359
:100E10006F6C6F722073706163653D004156493A93
:100E20002077726F6E67207061636B6574207479D0
:100E30007065210041564920526563656976656495
:100E400000414350205265636569766564004953EB
:100E50005243322072656365697665640049535276
:100E6000433120726563656976656400496E666F1B
:100E7000206672616D653A2000526563656976652A
:100E80007220413A005377697463682070726F6210
:100E90006C656D004469676974616C204143544915
:100EA00056495459204445544543544544004469E7
:100EB000676974616C204143544956495459204C28
:100EC0004F535400556E6B6E6F776E3A2000423A66
:100ED0002000413A2000496E707574200000E3EC58
:100EE000F3E3E370FF27ED53FC4C2FEF3FE52C7F3E
:100EF000E217F30758F48EED9DEAAEEBBFEE819357
:100F00009193A193B193E217F307C8F311241FBE85
:100F1000CFEFCDBFDFE5DEBF00E00CBF1EE2A0E0FB
:100F2000B0E2EEEDF7E501E00BBF02C007900D92D5
:100F3000AC37B107D9F723E3ACE7BEE201C01D929D
:100F4000A33CB207E1F70E94CC2B0C94EDAB58C840
:100F5000089580E008953091413320914233822FEB
:100F600090E00397E1F431111CC0809145339091DA
:100F700046330497C1F48CE79EE280934733909305
:100F8000483385ED97E080934B3390934C3384E066
:100F900090E08093493390934A3381E0089580E054
:100FA000089580E0089580E00895089581E0809399
:100FB000E02E08950F931F9302EF17E020E430E036
:100FC00040E85EE260E085E00E9457251F910F91A6
:100FD00008951092E42E1092E22E81E08093E02E8C
:100FE000E9CF0895811101C0E5CF08952BEA37E0DC
:100FF0004CE850E262EE7EE284EE9EE232C008955A
:101000000F931F93CF932091E02E222329F1CFB786
:10101000F89420E2E0ECFEE2DF011D922A95E9F768
:1010200020E2FC01A0ECBEE201900D922A95E1F7CE
:1010300006ED17E020E230E040EC5EE260E084E89C
:101040000E94572591E089278093E02ECFBF909191
:10105000E02E81E0892701C080E0CF911F910F91A0
:101060000895CF93DF93EA0140913F3344230CF07E
:1010700063C0407609F041C0209140332630E9F545
:101080000E945819FC012285213299F520914233A2
:101090002132B9F49C01275F3F4F209347333093AF
:1010A00048338185209145333091463390E02817AD
:1010B000390708F4C9018093493390934A3381E09A
:1010C00064C0FC013785231316C0C0934733D09307
:1010D00048332089318980914533909146332817D0
:1010E000390708F4C9018093493390934A3381E06A
:1010F0004CC080E04AC080E048C04032E9F5209111
:101100004033223019F0233061F038C080934733E8
:101110009093483381E090E08093493390934A3331
:1011200034C0609347337093483381E090E08093FC
:10113000493390934A3329C04076403209F54091B3
:1011400040334A3039F04B3059F04930D9F4F90185
:1011500019951BC020914233FC01208381E015C00A
:101160008091453390914633892B71F480914133BE
:10117000FB01808381E009C080E007C080E005C0FA
:1011800080E003C080E001C080E0DF91CF9108954E
:1011900080E1E0E2F4E08183818184FDFDCFE0E243
:1011A000F4E0648175818681978108951F920F9282
:1011B0000FB60F9211240BB60F922F933F934F93BC
:1011C0005F936F937F938F939F93AF93BF93CF93CF
:1011D000DF93EF93FF93E0E2F4E01282C0911733C4
:1011E000D0911833209719F0D3DFFE011995FF91A4
:1011F000EF91DF91CF91BF91AF919F918F917F91AF
:101200006F915F914F913F912F910F900BBE0F9077
:101210000FBE0F901F9018951F920F920FB60F924E
:1012200011240BB60F922F933F934F935F936F93BD
:101230007F938F939F93AF93BF93EF93FF93E0912F
:101240002C2FF0912D2F309709F01995FF91EF91E8
:10125000BF91AF919F918F917F916F915F914F91CE
:101260003F912F910F900BBE0F900FBE0F901F90CC
:1012700018951F920F920FB60F9211240BB60F9272
:101280002F933F934F935F936F937F938F939F938E
:10129000AF93BF93EF93FF93E0912A2FF0912B2F01
:1012A000309709F01995FF91EF91BF91AF919F9100
:1012B0008F917F916F915F914F913F912F910F90FF
:1012C0000BBE0F900FBE0F901F9018951F920F929C
:1012D0000FB60F9211240BB60F922F933F934F939B
:1012E0005F936F937F938F939F93AF93BF93EF938E
:1012F000FF93E091282FF091292F309709F019954D
:10130000FF91EF91BF91AF919F918F917F916F91DD
:101310005F914F913F912F910F900BBE0F900FBE99
:101320000F901F9018951F920F920FB60F921124D5
:101330000BB60F922F933F934F935F936F937F93CF
:101340008F939F93AF93BF93EF93FF93E091262FDB
:10135000F091272F309709F01995FF91EF91BF91E8
:10136000AF919F918F917F916F915F914F913F913D
:101370002F910F900BBE0F900FBE0F901F901895DE
:101380001F920F920FB60F9211240BB60F922F934C
:101390003F934F935F936F937F938F939F93AF93FD
:1013A000BF93EF93FF93E091242FF091252F309777
:1013B00009F01995FF91EF91BF91AF919F918F9196
:1013C0007F916F915F914F913F912F910F900BBE45
:1013D0000F900FBE0F901F9018951F920F920FB68F
:1013E0000F9211240BB60F922F933F934F935F935D
:1013F0006F937F938F939F93AF93BF93EF93FF93DD
:10140000E091222FF091232F309709F01995FF9149
:10141000EF91BF91AF919F918F917F916F915F916C
:101420004F913F912F910F900BBE0F900FBE0F90D9
:101430001F9018951F920F920FB60F9211240BB6A2
:101440000F922F933F934F935F936F937F938F935D
:101450009F93AF93BF93EF93FF93E091202FF09171
:10146000212F309709F01995FF91EF91BF91AF911E
:101470009F918F917F916F915F914F913F912F91AC
:101480000F900BBE0F900FBE0F901F9018951F92DC
:101490000F920FB60F9211240BB60F922F933F931A
:1014A0004F935F936F937F938F939F93AF93BF936C
:1014B000EF93FF93E0911E2FF0911F2F309709F0CB
:1014C0001995FF91EF91BF91AF919F918F917F916E
:1014D0006F915F914F913F912F910F900BBE0F90A5
:1014E0000FBE0F901F9018951F920F920FB60F927C
:1014F00011240BB60F922F933F934F935F936F93EB
:101500007F938F939F93AF93BF93EF93FF93E0915C
:101510001C2FF0911D2F309709F01995FF91EF9135
:10152000BF91AF919F918F917F916F915F914F91FB
:101530003F912F910F900BBE0F900FBE0F901F90F9
:1015400018951F920F920FB60F9211240BB60F929F
:101550002F933F934F935F936F937F938F939F93BB
:10156000AF93BF93EF93FF93E0911A2FF0911B2F4E
:10157000309709F01995FF91EF91BF91AF919F912D
:101580008F917F916F915F914F913F912F910F902C
:101590000BBE0F900FBE0F901F9018951F920F92C9
:1015A0000FB60F9211240BB60F922F933F934F93C8
:1015B0005F936F937F938F939F93AF93BF93EF93BB
:1015C000FF93E091182FF091192F309709F019959A
:1015D000FF91EF91BF91AF919F918F917F916F910B
:1015E0005F914F913F912F910F900BBE0F900FBEC7
:1015F0000F901F9018951F920F920FB60F92112403
:101600000BB60F922F933F934F935F936F937F93FC
:101610008F939F93AF93BF93EF93FF93E091162F18
:10162000F091172F309709F01995FF91EF91BF9125
:10163000AF919F918F917F916F915F914F913F916A
:101640002F910F900BBE0F900FBE0F901F9018950B
:101650001F920F920FB60F9211240BB60F922F9379
:101660003F934F935F936F937F938F939F93AF932A
:10167000BF93EF93FF93E091142FF091152F3097C4
:1016800009F01995FF91EF91BF91AF919F918F91C3
:101690007F916F915F914F913F912F910F900BBE72
:1016A0000F900FBE0F901F9018951F920F920FB6BC
:1016B0000F9211240BB60F922F933F934F935F938A
:1016C0006F937F938F939F93AF93BF93EF93FF930A
:1016D000E091122FF091132F309709F01995FF9197
:1016E000EF91BF91AF919F918F917F916F915F919A
:1016F0004F913F912F910F900BBE0F900FBE0F9007
:101700001F9018951F920F920FB60F9211240BB6CF
:101710000F922F933F934F935F936F937F938F938A
:101720009F93AF93BF93EF93FF93E091102FF091AE
:10173000112F309709F01995FF91EF91BF91AF915B
:101740009F918F917F916F915F914F913F912F91D9
:101750000F900BBE0F900FBE0F901F9018951F9209
:101760000F920FB60F9211240BB60F922F933F9347
:101770004F935F936F937F938F939F93AF93BF9399
:10178000EF93FF93E0910E2FF0910F2F309709F018
:101790001995FF91EF91BF91AF919F918F917F919B
:1017A0006F915F914F913F912F910F900BBE0F90D2
:1017B0000FBE0F901F9018951F920F920FB60F92A9
:1017C00011240BB60F922F933F934F935F936F9318
:1017D0007F938F939F93AF93BF93EF93FF93E0918A
:1017E0000C2FF0910D2F309709F01995FF91EF9183
:1017F000BF91AF919F918F917F916F915F914F9129
:101800003F912F910F900BBE0F900FBE0F901F9026
:1018100018951F920F920FB60F9211240BB60F92CC
:101820002F933F934F935F936F937F938F939F93E8
:10183000AF93BF93EF93FF93E0910A2FF0910B2F9B
:10184000309709F01995FF91EF91BF91AF919F915A
:101850008F917F916F915F914F913F912F910F9059
:101860000BBE0F900FBE0F901F9018951F920F92F6
:101870000FB60F9211240BB60F922F933F934F93F5
:101880005F936F937F938F939F93AF93BF93EF93E8
:10189000FF93E091082FF091092F309709F01995E7
:1018A000FF91EF91BF91AF919F918F917F916F9138
:1018B0005F914F913F912F910F900BBE0F900FBEF4
:1018C0000F901F9018951F920F920FB60F92112430
:1018D0000BB60F922F933F934F935F936F937F932A
:1018E0008F939F93AF93BF93EF93FF93E091062F56
:1018F000F091072F309709F01995FF91EF91BF9163
:10190000AF919F918F917F916F915F914F913F9197
:101910002F910F900BBE0F900FBE0F901F90189538
:101920001F920F920FB60F9211240BB60F922F93A6
:101930003F934F935F936F937F938F939F93AF9357
:10194000BF93EF93FF93E091042FF091052F309711
:1019500009F01995FF91EF91BF91AF919F918F91F0
:101960007F916F915F914F913F912F910F900BBE9F
:101970000F900FBE0F901F9018951F920F920FB6E9
:101980000F9211240BB60F922F933F934F935F93B7
:101990006F937F938F939F93AF93BF93EF93FF9337
:1019A000E091022FF091032F309709F01995FF91E4
:1019B000EF91BF91AF919F918F917F916F915F91C7
:1019C0004F913F912F910F900BBE0F900FBE0F9034
:1019D0001F9018951F920F920FB60F9211240BB6FD
:1019E0000F922F933F934F935F936F937F938F93B8
:1019F0009F93AF93BF93EF93FF93E091002FF091EC
:101A0000012F309709F01995FF91EF91BF91AF9198
:101A10009F918F917F916F915F914F913F912F9106
:101A20000F900BBE0F900FBE0F901F9018951F9236
:101A30000F920FB60F9211240BB60F922F933F9374
:101A40004F935F936F937F938F939F93AF93BF93C6
:101A5000EF93FF93E091FE2EF091FF2E309709F067
:101A60001995FF91EF91BF91AF919F918F917F91C8
:101A70006F915F914F913F912F910F900BBE0F90FF
:101A80000FBE0F901F9018951F920F920FB60F92D6
:101A900011240BB60F922F933F934F935F936F9345
:101AA0007F938F939F93AF93BF93EF93FF93E091B7
:101AB000FC2EF091FD2E309709F01995FF91EF91D2
:101AC000BF91AF919F918F917F916F915F914F9156
:101AD0003F912F910F900BBE0F900FBE0F901F9054
:101AE00018951F920F920FB60F9211240BB60F92FA
:101AF0002F933F934F935F936F937F938F939F9316
:101B0000AF93BF93EF93FF93E091FA2EF091FB2EEA
:101B1000309709F01995FF91EF91BF91AF919F9187
:101B20008F917F916F915F914F913F912F910F9086
:101B30000BBE0F900FBE0F901F9018951F920F9223
:101B40000FB60F9211240BB60F922F933F934F9322
:101B50005F936F937F938F939F93AF93BF93EF9315
:101B6000FF93E091F82EF091F92E309709F0199536
:101B7000FF91EF91BF91AF919F918F917F916F9165
:101B80005F914F913F912F910F900BBE0F900FBE21
:101B90000F901F9018951F920F920FB60F9211245D
:101BA0000BB60F922F933F934F935F936F937F9357
:101BB0008F939F93AF93BF93EF93FF93E091F62E94
:101BC000F091F72E309709F01995FF91EF91BF91A1
:101BD000AF919F918F917F916F915F914F913F91C5
:101BE0002F910F900BBE0F900FBE0F901F90189566
:101BF0001F920F920FB60F9211240BB60F922F93D4
:101C00003F934F935F936F937F938F939F93AF9384
:101C1000BF93EF93FF93E091F42EF091F52E309760
:101C200009F01995FF91EF91BF91AF919F918F911D
:101C30007F916F915F914F913F912F910F900BBECC
:101C40000F900FBE0F901F9018951F920F920FB616
:101C50000F9211240BB60F922F933F934F935F93E4
:101C60006F937F938F939F93AF93BF93EF93FF9364
:101C7000E091F22EF091F32E309709F01995FF9133
:101C8000EF91BF91AF919F918F917F916F915F91F4
:101C90004F913F912F910F900BBE0F900FBE0F9061
:101CA0001F9018951F920F920FB60F9211240BB62A
:101CB0000F922F933F934F935F936F937F938F93E5
:101CC0009F93AF93BF93EF93FF93E091F02EF0912A
:101CD000F12E309709F01995FF91EF91BF91AF91D7
:101CE0009F918F917F916F915F914F913F912F9134
:101CF0000F900BBE0F900FBE0F901F9018951F9264
:101D00000F920FB60F9211240BB60F922F933F93A1
:101D10004F935F936F937F938F939F93AF93BF93F3
:101D2000EF93FF93E091EE2EF091EF2E309709F0B4
:101D30001995FF91EF91BF91AF919F918F917F91F5
:101D40006F915F914F913F912F910F900BBE0F902C
:101D50000FBE0F901F9018951F920F920FB60F9203
:101D600011240BB60F922F933F934F935F936F9372
:101D70007F938F939F93AF93BF93EF93FF93E091E4
:101D8000EC2EF091ED2E309709F01995FF91EF911F
:101D9000BF91AF919F918F917F916F915F914F9183
:101DA0003F912F910F900BBE0F900FBE0F901F9081
:101DB00018951F920F920FB60F9211240BB60F9227
:101DC0002F933F934F935F936F937F938F939F9343
:101DD000AF93BF93EF93FF93E091EA2EF091EB2E38
:101DE000309709F01995FF91EF91BF91AF919F91B5
:101DF0008F917F916F915F914F913F912F910F90B4
:101E00000BBE0F900FBE0F901F9018951F920F9250
:101E10000FB60F9211240BB60F922F933F934F934F
:101E20005F936F937F938F939F93AF93BF93EF9342
:101E3000FF93E091E82EF091E92E309709F0199583
:101E4000FF91EF91BF91AF919F918F917F916F9192
:101E50005F914F913F912F910F900BBE0F900FBE4E
:101E60000F901F9018951F920F920FB60F9211248A
:101E70000BB60F922F933F934F935F936F937F9384
:101E80008F939F93AF93BF93EF93FF93E091E62ED1
:101E9000F091E72E309709F01995FF91EF91BF91DE
:101EA000AF919F918F917F916F915F914F913F91F2
:101EB0002F910F900BBE0F900FBE0F901F90189593
:101EC0001F93CF93DF93CDB7DEB7C95AD109CDBFEA
:101ED000DEBFCE0101968093D1209093D22043E0C3
:101EE00050E060E280E096E06FD448E150E068E0C6
:101EF00080E696E069D480912E2F811130C080E871
:101F00009AE1A6E0B0E0CF55DF4F88839983AA839A
:101F1000BB83C15AD04088E4C755DF4F8883C95A74
:101F2000D04089E190E0A0E0B0E0CB55DF4F88835E
:101F30009983AA83BB83C55AD04060E483E0EDD384
:101F4000BE016F557F4F80E894E00E948B1E811187
:101F500004C081E080932E2F02C080E0C3C280E2E3
:101F6000E0E0F6E0868380E090E00196803E2EE29D
:101F70009207D9F780E2E0E0F6E0858380E89AE115
:101F8000A6E0B0E00197A109B1090097A105B1054C
:101F9000C9F725E6E0E6F6E00AC0215009F46FC271
:101FA00080E090E00196803A3FE09307D9F7808582
:101FB00083FDF3CF1092CF201092D02082E090E0EA
:101FC0008093D3209093D42041E06BEC70E280E8C2
:101FD00094E00E94A01E811154C281E08093CC2025
:101FE00082E090E08093CF209093D0208EE190E02B
:101FF0008093D3209093D42010E0E0E6F6E00BC06D
:102000001F5F153609F43FC280E090E00196803AE8
:102010002FE09207D9F7808583FFF2CF41E06BEC88
:1020200070E280E894E00E94A01E81112EC280E040
:1020300090E00196803E3EE29307D9F782E1E0E12D
:10204000F2E2DE015F9601900D928A95E1F7BE0102
:102050006F5C7F4F8BE0FB0111928A95E9F788E472
:1020600089AB85E08AAB82E090E08DAB9EABCE0180
:102070004F968FAB98AF82E190E089AF9AAF40E086
:1020800080E894E00E94A01E811101C282E1E0E19B
:10209000F2E2DE01DC9601900D928A95E1F785E08F
:1020A0008AAB1BAA82E090E08DAB9EAB88E489AB43
:1020B000CE01CC968FAB98AF82E190E089AF9AAF1A
:1020C00040E0BE016F5C7F4F80E894E00E94A01E5C
:1020D0008111DFC1CE01825B9F4F25E0E2E2F2E297
:1020E000DC0101900D922A95E1F78FAB98AF85E066
:1020F00090E089AF9AAF40E0BE016F5C7F4F80E80F
:1021000094E00E94A01E8111C6C1CE018D5A9F4F3E
:102110002CE0E7E2F2E2DC0101900D922A95E1F772
:1021200025E02AAB1BAA22E030E02DAB3EAB28E431
:1021300029AB8FAB98AF8CE090E089AF9AAF40E0CD
:10214000BE016F5C7F4F80E894E00E94A01E811169
:10215000A4C1E0E6F6E00BC01F5F153608F09FC192
:1021600080E090E00196803A2FE09207D9F78085D1
:1021700083FDF2CF1092CF201092D02086E090E025
:102180008093D3209093D42041E06BEC70E280E800
:1021900094E00E94A01E811184C1CE01815A9F4FFC
:1021A00022E1E3E3F2E2DC0101900D922A95E1F7EE
:1021B00025E02AAB1BAA22E030E02DAB3EAB28E4A1
:1021C00029AB8FAB98AF82E190E089AF9AAF40E046
:1021D000BE016F5C7F4F80E894E00E94A01E8111D9
:1021E00062C1E0E6F6E00BC01F5F153608F05DC186
:1021F00080E090E00196803A3FE09307D9F7808530
:1022000083FDF2CF1092CF201092D02086E090E094
:102210008093D3209093D42041E06BEC70E280E86F
:1022200094E00E94A01E811142C1CE018F589F4FA1
:1022300022E1E5E4F2E2DC0101900D922A95E1F75A
:1022400025E02AAB1BAA22E030E02DAB3EAB28E410
:1022500029AB8FAB98AF82E190E089AF9AAF40E0B5
:10226000BE016F5C7F4F80E894E00E94A01E811148
:1022700020C1E0E6F6E00BC01F5F153608F01BC179
:1022800080E090E00196803A2FE09207D9F78085B0
:1022900083FDF2CF1092CF201092D02086E090E004
:1022A0008093D3209093D42041E06BEC70E280E8DF
:1022B00094E00E94A01E811100C11092CF201092C4
:1022C000D02086E090E08093D3209093D42041E00A
:1022D0006BEC70E280E894E00E94A01E8111EFC0D8
:1022E0001092CF201092D02086E090E08093D320EF
:1022F0009093D42041E06BEC70E280E894E00E947F
:10230000A01E8111DEC0CE018D579F4F2CE0E7E566
:10231000F2E2DC0101900D922A95E1F725E02AAB6B
:102320001BAA22E030E02DAB3EAB28E429AB8FABFB
:1023300098AF8CE090E089AF9AAF40E0BE016F5C4F
:102340007F4F80E894E00E94A01E8111BCC0E0E6AF
:10235000F6E00BC01F5F153608F0B7C080E090E0D4
:102360000196803A3FE09307D9F7808583FDF2CF4D
:102370001092CF201092D02086E090E08093D3205E
:102380009093D42041E06BEC70E280E894E00E94EE
:10239000A01E81119CC0CE0181579F4F22E1E3E630
:1023A000F2E2DC0101900D922A95E1F725E02AABDB
:1023B0001BAA22E030E02DAB3EAB28E429AB8FAB6B
:1023C00098AF82E190E089AF9AAF40E0BE016F5CC8
:1023D0007F4F80E894E00E94A01E81117AC0E0E661
:1023E000F6E00BC01F5F153608F075C080E090E086
:1023F0000196803A2FE09207D9F7808583FDF2CFCE
:102400001092CF201092D02086E090E08093D320CD
:102410009093D42041E06BEC70E280E894E00E945D
:10242000A01E81115AC01092CF201092D02086E0B9
:1024300090E08093D3209093D42041E06BEC70E245
:1024400080E894E00E94A01E811149C01092CF2024
:102450001092D02086E090E08093D3209093D420F7
:1024600041E06BEC70E280E894E00E94A01E8111D4
:1024700038C081E08093193310921A3333C080E062
:1024800031C080E02FC080E02DC080E02BC080E014
:1024900029C080E027C080E025C080E023C080E024
:1024A00021C080E01FC080E01DC080E01BC080E034
:1024B00019C080E017C080E015C080E013C080E044
:1024C00011C080E00FC080E00DC080E00BC080E054
:1024D00009C080E007C080E005C080E003C080E064
:1024E00001C080E0C755DF4FCDBFDEBFDF91CF9188
:1024F0001F910895CF93DF93CDB7DEB76097CDBF1F
:10250000DEBFE0E6F6E0808583FD2DC01092CF208F
:102510001092D02080E190E08093D3209093D4203B
:10252000CE0101968093D1209093D22041E06BECB4
:1025300070E280E894E00E94A01E8C8180931A33A0
:1025400088E0FE013796ABE1B3E301900D928A95E6
:10255000E1F789E193E30E940008E0E6F6E0808578
:1025600083FFFDCF02C080E001C081E06096CDBF57
:10257000DEBFDF91CF910895CF93DF93CDB7DEB764
:10258000E797CDBFDEBF26E1E5E7F2E2CE01019697
:10259000DC0101900D922A95E1F7BE01695E7F4F43
:1025A0002BE0FB0111922A95E9F728E42F8B25E017
:1025B000288F22E030E02B8F3C8F8D8F9E8F86E11D
:1025C00090E08F8F98A340E080E894E00E94A01EE6
:1025D00081112AC086E1EBE8F2E2DE0192960190D9
:1025E0000D928A95E1F785E0888F198E82E090E060
:1025F0008B8F9C8F88E48F8BCE0182968D8F9E8FE0
:1026000086E190E08F8F98A340E0BE01695E7F4F26
:1026100080E894E00E94A01E811108C086EC92E23E
:102620000E941B2881E003C080E001C080E0E796A3
:10263000CDBFDEBFDF91CF910895CF93DF9300D060
:102640001F92CDB7DEB78FEF80937000809371003B
:102650008093720080937300809374008093750060
:102660008093760064E081E490E00E94711C6CE14C
:1026700070E082E00E944E1D8A836DE170E082E08E
:102680000E944E1D898389819A81019621F480E4FC
:1026900093E289839A8389819A818B839C83E0E684
:1026A000F0E082838C8183838FB7F894E0E5F0E0DB
:1026B0009081926090838FBF818181FFFDCF8FB722
:1026C000F894A0E5B0E016969C911697997F16961F
:1026D0009C931697E0E6F0E090E895839BEB968359
:1026E00016969C911697946016969C939081916093
:1026F00090838FBF61E080E490E00E94711C8FB7EF
:10270000F894E0E5F0E090819E7F90838FBF24965F
:10271000CDBFDEBFDF91CF9108959FB7F894E82F2A
:10272000F0E0E059FF4F60958081682360839FBF90
:1027300008959FB7F894E82FF0E0E059FF4F8081AB
:10274000682B60839FBF0895863011F468E101C053
:1027500060E0E0E5F0E0818181FD24C08FB7F8946E
:102760009081926090838FBF818181FFFDCF8FB771
:10277000F894A0E5B0E016969C911697997F16966E
:102780009C931697E0E6F0E090E895839BEB9683A8
:1027900016969C911697946016969C9390819160E2
:1027A00090838FBF636084E490E00E94711C60E4BA
:1027B00080E0B3CF089560E480E0BBDF60E084E4B4
:1027C00090E00C94711C0895CF93DF93FC017096F8
:1027D00020E030E0C62FD0E0DE01022E02C0B59529
:1027E000A7950A94E2F7A0FD50832F5F3F4F3196E3
:1027F0002830310589F740FF0AC041FF03C0FC01C2
:10280000658302C0FC016683FC01618302C0FC0198
:102810006283DF91CF910895CF93DF93EC01C03CA9
:1028200028E0D20721F468E083E077DF06C0803C2F
:10283000994019F468E084E070DF888180618883C2
:10284000DF91CF910895FF920F931F93CF93DF9362
:10285000EC01F42EB901A80100E016E32EE631E008
:102860000E94581D88234CF088819F2D990F990F45
:102870009C70837FF92EF82AF882DF91CF911F9107
:102880000F91FF900895FB018081E82FE695E69572
:10289000E69540E2E49FF0011124FA5F877021E0A1
:1028A00030E0A90102C0440F551F8A95E2F7468324
:1028B0000895FB018081E82FE695E695E69540E2D4
:1028C000E49FF0011124FA5F877021E030E0A90154
:1028D00002C0440F551F8A95E2F745830895089575
:1028E0000895089508950895089508950895089500
:1028F0000895089508958091463081508093463020
:10290000089580E0089580E0089565E570E380E033
:102910000C94A5A708951092463010925230109250
:10292000533081EA8093483080E28093493010929E
:102930004A3010924B3010924C3010924D3082E061
:1029400090E080934E3090934F3010925030109220
:10295000513080E092ECA1E0B0E08093553090934C
:102960005630A0935730B09358301092593010928F
:102970005A3088E080935B3065E570E380E00E9428
:10298000A5A780E00E944C2C882329F09091463026
:102990009F5F909346300895FF920F931F93CF93BC
:1029A000DF938091332F81119CC00E94982488234B
:1029B00051F0C091342FD091352F0E94A524C81713
:1029C000D90759F48EC0C091342FD091352F0E9471
:1029D000A024C817D90709F484C0DFB7F894C091C0
:1029E000362FEC2FF0E0EE0FFF1FE95CF04D8081F9
:1029F0009181892B09F58091302F9091312F01968B
:102A00008093302F9093312F0E949824811107C01A
:102A10008091302F9091312F8436910558F00E948B
:102A20009824882349F08091302F9091312F803263
:102A3000934010F4DFBF55C01092302F1092312F09
:102A40008091322F811106C081E0C11180E0809316
:102A5000362F04C081E0C11180E0C82F81E080934F
:102A6000332FDFBFD0E0FE01EE0FFF1FE95CF04D1A
:102A7000FF24F394808191818034910509F4F12C35
:102A8000FF2091F00E949824882339F00E94A52409
:102A90008093342F9093352F0BC00E94A0248093F5
:102AA000342F9093352F04C01092342F1092352F6D
:102AB000FE01EE0FFF1FE95CF04D20813181AE0178
:102AC0000024569547950794569547950794542F9B
:102AD000402D445C504D07E715E16F2D81E80E94C1
:102AE0005725DF91CF911F910F91FF90089581118C
:102AF00015C02091362F81E090E0222311F080E074
:102B000090E0FC01EE0FFF1FE95CF04D1082118296
:102B10001092322F1092332F80E03ECF089580E044
:102B20003BCF08950F931F93862F909154309111AE
:102B30001EC040915230509153302091503030910E
:102B400051304217530799F0209152303091533051
:102B500020935030309351300AED15E12AE030E0F7
:102B600048E450E360E00E945725809354301F9161
:102B70000F9108952FB7F894662359F08091523041
:102B800090915330482B592B4093523050935330EF
:102B90000CC080915230909153304095509548230D
:102BA000592340935230509353302FBF63E880E055
:102BB000B9CF089510925430809152309091533093
:102BC00083788093523090935330E0E5F0E3808136
:102BD0009181837880839183642F80E0A3CF0895CF
:102BE00080914530815080934530809145300E94DE
:102BF000532C10924430089580913F338823ECF495
:102C00008076803209F045C080914033813209F0EE
:102C100042C080914533909146330797F1F585E5A1
:102C200090E3809347339093483387E090E080931C
:102C3000493390934A3381E008958076803279F564
:102C400080914033803219F08232D9F02AC08091CD
:102C5000453390914633079731F585E894E18093A9
:102C60004B3390934C3385E590E3809347339093B7
:102C7000483387E090E08093493390934A3381E072
:102C8000089560914133617080E00E94582C81E08A
:102C9000089580E0089580E0089580E0089580E040
:102CA000089580E0089580E0089540E150E061E0FB
:102CB00080E060CF089540E450E061E080E05ACFCA
:102CC00008954FB7F8942091BD2F3091BE2FE09119
:102CD000BF2FF0E0EE0FFF1FE054F04D8081918197
:102CE000821B930B4FBF0895ECDF21E0892B09F481
:102CF00020E0822F08950F931F93CF93DF934FB758
:102D0000F8945091BF2F8091BC2F811110C0209159
:102D1000BD2F3091BE2FC52FD0E0FE01EE0FFF1F5B
:102D2000E054F04D808191812817390718F44FBF86
:102D300080E028C01092BD2F1092BE2F81E051116B
:102D400080E08093BF2F81E08093BC2F4FBF80E055
:102D5000CBDF882319F080E00E9424A8AE01002474
:102D6000569547950794569547950794542F402DAF
:102D70004C53504D09EF16E120E430E061E082E071
:102D80000E945725DF91CF911F910F9108951092C6
:102D900045301092332F1092322F1092362F10920E
:102DA000372F1092382F1092392F10923A2F1092FD
:102DB000342F1092352F80E0EFDD1092BC2F10924F
:102DC000BF2F1092C02F1092C12F1092BD2F1092C2
:102DD000BE2F80E090DF882359F0909145309F5FAF
:102DE0009093453090914530913011F49093443058
:102DF00008950F931F93942F811129C08091BF2FA5
:102E0000E1E08111E0E061157105B1F4F0E000242A
:102E1000F695E7950794F695E7950794FE2FE02D34
:102E2000AF014C53504D09EF16E120E430E061E072
:102E3000892F0E9457250BC0F0E0EE0FFF1FE054D2
:102E4000F04D608371831092BC2F80E054DF1F919E
:102E50000F91089580E048CF08951F93CF93DF939B
:102E600011E080915B30893009F010E060E070E0A3
:102E70003FB7F8948091BD2F9091BE2F2091BF2F26
:102E80003FBF30E0F901EE0FFF1FE054F04D4081ED
:102E900051818417950730F0809144308111E8CF3B
:102EA00090E020C0F9010024F695E7950794F69587
:102EB000E7950794FE2FE02DE80FF91FEC53F04D36
:102EC0002081EB01C22B01968093BD2F9093BE2FE2
:102ED00080E011DF112321F07C2F662710E0C8CF9E
:102EE0008C2F9D2FDF91CF911F91089580E0B5CF5A
:102EF00008955FB7F8942091362FE22FF0E0EE0F9F
:102F0000FF1FE95CF04D8081918141E0211140E09B
:102F1000E42FF0E0EE0FFF1FE95CF04D20813181DE
:102F20008034910589F46091332F61110DC0609157
:102F3000322F611109C081E08093322F4093362FE8
:102F400020E430E080E090E05FBF280F391F80E888
:102F500090E0821B930B0895CCDF21E0892B09F4CC
:102F600020E0822F089580E0F7CF08951F93CF933C
:102F7000DF93162FC72FD1E080915B30893009F0A5
:102F8000D0E080E0E9DF811107C0809144308111F9
:102F9000F8CF80E090E02BC06FB7F8942091362FE7
:102FA00030E0F901EE0FFF1FE95CF04D8081918167
:102FB000AC014F5F5F4F40835183F9010024F695C8
:102FC000E7950794F695E7950794FE2FE02D8E0F71
:102FD0009F1FFC01E45CF04D10836FBFDD2329F0DF
:102FE0001C2FCC0FCC0BD0E0CCCF81E090E0DF9158
:102FF000CF911F910895BC0180E0B8CF08957F92D2
:103000008F929F92AF92BF92CF92DF92EF92FF92F8
:103010000F931F93CF93DF936B018A0180915B30F5
:10302000893011F4000F111F6894AA24A6F8B12C5E
:1030300080E092DF811107C0809144308111F8CF88
:10304000802F912F38C07FB6F8948090362F912C26
:10305000F401EE0FFF1FE95CF04DE080F180C50147
:103060008E199F09E8018017910708F4EC01C4014B
:103070000024969587950794969587950794982FA1
:10308000802D8E0D9F1DAE01B601845C904D0E9477
:10309000F8A8F401EE0FFF1FE95CF04DEC0EFD1EE9
:1030A000E082F1827FBECC0EDD1E0C1B1D0B09F0F1
:1030B000BFCF80E090E0DF91CF911F910F91FF9003
:1030C000EF90DF90CF90BF90AF909F908F907F90C8
:1030D0000895AB01BC0180E092CF0895E09161308A
:1030E000F09162300190F081E02D228133812E0F2A
:1030F0003F1FFC014081E40FF11DE217F307A0F42C
:1031000081818430A1F0861306C014C0818184308F
:10311000A1F08617A9F08081E80FF11DE217F307EF
:10312000A8F380E090E0089580E090E0089580E0CA
:1031300090E008958E2F9F2F089580E090E00895ED
:103140008E2F9F2F0895809141338F770C949A246E
:10315000089590916330992381F1E0916130F0916D
:1031600062300190F081E02D9481891740F5E09361
:103170005F30F0936030228133812E0F3F1FE217C2
:10318000F307F8F49181943061F49281981309C0A7
:103190009381961306C0E0935F30F093603081E036
:1031A00008959081E90FF11DE217F30758F3E093BA
:1031B0005F30F093603080E0089580E0089580E013
:1031C000089580E00895FF920F931F93CF93DF93AC
:1031D000C82F60E0BEDFF82E882381F1A091613016
:1031E000B0916230EC2FF0E0EE0FFF1F12962D91A0
:1031F0003C911397E20FF31F00811181D8011696BD
:10320000ED91FC9117971995682F8C2FA2DFF82E5E
:103210008823A1F0C0915F30D091603065E0CE018D
:103220005DDFEC01009721F08A810E941826F6CF1D
:10323000D8011296ED91FC91139719958F2DDF917E
:10324000CF911F910F91FF9008951F93CF93DF931C
:10325000182F7FDF882341F1C0915F30D09160301B
:1032600065E0CE013BDFEC01009749F04C815D81C8
:103270006B818A810E94B1248111F2CF15C0A09187
:103280006130B0916230812F90E0880F991F1296C3
:10329000ED91FC911397E80FF91F0190F081E02D5B
:1032A0000190F081E02D1995DF91CF911F91089544
:1032B00080915F309091603008950C94222408959D
:1032C000CF93809163308823C1F0E0916130F09119
:1032D00062300190F081E02D8481882371F0C0E09C
:1032E0008C2F71DFCF5FE0916130F09162300190FF
:1032F000F081E02D8481C81798F31092633081E04B
:1033000090E08093643090936530CF9108950E944F
:10331000E523D6CF0895CF9380916330882341F180
:10332000E0916130F0916230A081B18114968C916E
:103330008823F1F0C0E08C2F90E0880F991F028065
:10334000F381E02DE80FF91F0190F081E02D00845A
:10335000F185E02D309709F01995CF5FE09161304C
:10336000F0916230A081B18114968C91C81718F346
:10337000CF910895EF92FF920F931F93CF93DF9316
:103380001092493310924A3310924B3310924C33BF
:1033900010924D3310924E3320913F3322230CF084
:1033A00085C28091453390914633009709F083C2DE
:1033B00079C22F7109F0A4C030914033363089F0C2
:1033C000383009F491C031119BC0029741F462E09A
:1033D00070E084E690E30E94A82401E0E6C100E0EA
:1033E000E4C12091413330914233832F99278230B9
:1033F000910581F08330910579F1019709F06CC056
:103400008091002090910120DC016C9170E00E947D
:10341000A82451C0E0910020F09101208189281753
:1034200008F05CC0C9019927880F991F880F991F60
:10343000E0910220F0910320E80FF91F8081918133
:10344000FC01628173810E94A824E0914733F091CE
:10345000483382E081832FC033272130310589F042
:1034600048F02230310509F42BC22330310509F42C
:103470002BC236C064E070E088E091E20E94A8248C
:103480001AC08FEF90E227E0382FACEEB0E2E82FC1
:10349000F92F819190E08D939D938E2F831B82173E
:1034A000C0F3220F62E0620F6093EA2070E08AEEC0
:1034B00090E20E94A8248091453390914633209158
:1034C000493330914A338217930760F4809349332C
:1034D00090934A3301E069C100E067C100E065C133
:1034E00000E063C101E061C1019741F461E070E077
:1034F00083E690E30E94A82401E057C100E055C193
:10350000213009F040C0309140333A30E1F5019765
:10351000A1F580916330882391F1C0914333D0911C
:103520004433E0906130F0906230D701ED91FC912E
:103530008481C81730F560E08C2F0BDE082F8823BC
:1035400009F433C1CE019927880F991FD70112962C
:10355000ED91FC911397E80FF91F0190F081E02D98
:103560000680F781E02D199580935E3061E070E070
:103570008EE590E30E94A82418C100E016C100E087
:1035800014C100E012C1223009F011C12091403372
:10359000211106C1029789F4809143330E941225BC
:1035A00090E080935C3090935D3062E070E08CE559
:1035B00090E30E94A82401E0F8C000E0F6C02F715B
:1035C00009F091C080914033833009F4EBC018F4C6
:1035D0008130B1F088C0853019F0893061F183C045
:1035E0008091453390914633892B41F483EA98E1E9
:1035F00080934B3390934C3301E0D7C000E0D5C0AB
:103600008091453390914633892B89F480914133E1
:1036100090914233019769F48091643090916530C4
:103620008D7F809364309093653001E0BEC000E0F0
:10363000BCC000E0BAC08091453390914633892BDD
:1036400009F047C00E949D24882309F444C02091BA
:103650004133309142333327E0910020F091012033
:10366000818990E082179307C0F12ADE809141336F
:103670009091423380936330882389F19927815058
:10368000904C880F991F880F991FE0910220F091AC
:103690000320E80FF91FE0936130F093623001904E
:1036A000F081E02D84818823E1F0C0E060E08C2F80
:1036B000CCDD082F882309F478C0CF5FE09161301A
:1036C000F09162300190F081E02D8481C81770F391
:1036D0006CC000E06AC000E068C000E066C001E0C5
:1036E00064C001E062C0213009F5809140338B3025
:1036F000E9F48091453390914633892B99F4809178
:103700006330882389F0C0914333D09141338C2FAB
:103710005ADD082F882309F448C06D2F8C2F95DDC2
:10372000082F43C000E041C000E03FC0223009F054
:103730003EC080914033813019F08330B9F034C0FD
:103740008091453390914633892B61F480914133C8
:1037500090914233892B41F4809143330E942D256F
:10376000082F23C000E021C000E01FC08091453336
:1037700090914633892B81F480914133909142336B
:10378000892B61F4C3E4D3E388810E94DF2588811B
:103790000E943526082F09C000E007C000E005C0E0
:1037A00000E003C000E001C000E0011191C0809181
:1037B0003F338F718130C1F5809163308823A1F14F
:1037C000C0914333D0914433009161301091623005
:1037D000D801ED91FC918481C81730F560E08C2F01
:1037E000B8DC882309F1CE019927880F991FD801E9
:1037F0001296ED91FC911397E80FF91F008111814A
:10380000D8011696ED91FC9117971995682F8C2F7A
:10381000A0DC882349F0D8011496ED91FC9115970E
:103820001995082F811154C080913F338F718230D8
:10383000D9F580916330882389F1E0916130F0916E
:103840006230A081B18114968C91882349F110E0F7
:10385000212F30E0220F331F0280F381E02DE20F91
:10386000F31FC081D181EE81FF811995682F812FCF
:1038700070DC082F882361F1EC81FD811995082FF8
:10388000811126C01F5FE0916130F0916230A0810C
:10389000B18114968C911817D8F21AC000E018C0A4
:1038A00000E016C000E014C000E012C0822F807655
:1038B00009F07DCF84CE322F307609F078CF79CDE4
:1038C00024E08AEF90E2E0CD27E085ED92E2DCCDC6
:1038D000802FDF91CF911F910F91FF90EF9008956E
:1038E00008951BBEFC0128ED24BF60830895E0EC21
:1038F000F1E027852223ECF3ECECF1E02081286055
:103900002083DC01B05F8C919081977F9083089534
:10391000E0ECF1E087858823ECF3E0ECF1E08785CB
:1039200081FF06C086E3828761E08BEC91E0D9CF0E
:103930000895E0ECF1E097859923ECF3ECECF1E0ED
:10394000908198609083A82FB0E0B05F6C938081E5
:10395000877F80830895FF920F931F93CF93DF9308
:10396000182FF92EC62FE0ECF1E00285D1DFE0EC54
:10397000F1E027852223ECF36C2F812FDADFC0ECF6
:10398000D1E01A82F982188385E38A8761E08BECA3
:1039900091E0A7DF0A87DF91CF911F910F91FF90F0
:1039A0000895EF92FF920F931F93CF93DF938C01B3
:1039B000E0ECF1E087858823ECF3780180E2E80E03
:1039C000F11CE8018C2F801B6991B3DFCE15DF0558
:1039D000C9F7DF91CF911F910F91FF90EF9008955C
:1039E0001F93CF93DF93E0ECF1E097859923ECF3FD
:1039F00020E2829FC0011124C0ECD1E01A82998399
:103A000088831A8585E38A8761E08BEC91E069DF22
:103A10001A87DF91CF911F910895CF92DF92EF9295
:103A2000FF920F931F93CF93DF93EC017B018A01E9
:103A30004115510551F1CE018F719927892BB1F4B0
:103A40000032110598F0C701ACDFCE01969587953D
:103A5000929582958F7089279F708927C1DFA096E4
:103A600080E2E80EF11C005211090CC06E01EFEF6C
:103A7000CE1ADE0AF70161917F01CE016CDF0150A1
:103A80001109E60101151105B1F6DF91CF911F91E2
:103A90000F91FF90EF90DF90CF9008954091CA0171
:103AA000E62FF72F8093CA0184914093CA010895AD
:103AB000CF92DF92EF92FF920F931F93CF93DF93FA
:103AC000EC016A017B01DB01CA010197A109B1097F
:103AD000BC01CD01600F711F821F931FA7019601CA
:103AE0000E94C3A82138310541055105F8F421345D
:103AF00060F4213260F4213160F4293060F4253023
:103B000060F4233060F090E00BC093E009C092E0D5
:103B100007C092E805C091E003C091E801C090E8B9
:103B200088818C77892B888381E001C08FEFDF91BA
:103B3000CF911F910F91FF90EF90DF90CF9008955C
:103B4000CF93DF93E0916630F0916730848183FFFB
:103B500008C08860848383E0838386EF809370301D
:103B600089C0982F947131F083E083838FEF809325
:103B7000703080C086FF45C0A0916830B091693038
:103B800080916A3090916B3014962D913C911597ED
:103B9000821793076CF49C012F5F3F4F20936A308C
:103BA00030936B30A80FB91F11968C91878362C038
:103BB00080916C3090916D3018962D913C911997B1
:103BC00082179307C8F420916E30222321F086815A
:103BD000816086834FC016962D913C911797AC015A
:103BE0004F5F5F4F40936C3050936D30D901A80FF9
:103BF000B91F8C9187833EC083E08383109270301D
:103C000039C08823A4F5A0916830B09169308091C3
:103C10006C3090916D3018962D913C9119978217C8
:103C20009307F8F416964D915C9117979C012F5FBE
:103C30003F4F20936C3030936D306781EA01C80F9D
:103C4000D91F688318968D919C9119972817390769
:103C500018F482E083830EC087E083831092703073
:103C600009C083E0838389EF8093703003C08BEFBA
:103C700080937030DF91CF9108951F920F920FB60D
:103C80000F9211240BB60F922F933F934F935F9394
:103C90006F937F938F939F93AF93BF93EF93FF9314
:103CA0004FDFFF91EF91BF91AF919F918F917F91E6
:103CB0006F915F914F913F912F910F900BBE0F909D
:103CC0000FBE0F901F9018951F920F920FB60F9274
:103CD00011240BB60F922F933F934F935F936F93E3
:103CE0007F938F939F93AF93BF93EF93FF9328DFBF
:103CF000FF91EF91BF91AF919F918F917F916F91C4
:103D00005F914F913F912F910F900BBE0F900FBE7F
:103D10000F901F901895FC01DB0114968C91858300
:103D200088EB818381E0848310926F301092703031
:103D3000E0EAF0E0828182608283789480E00895F6
:103D4000009709F453C06115710509F451C0FB01D6
:103D5000328520916F3002C031114CC02111FCCF4F
:103D60002FB7F89431E030936F3030E830937030F3
:103D70002FBF809366309093673060936830709364
:103D8000693010926A3010926B3010926C30109241
:103D90006D3040936E30FB012081522F550F2481EE
:103DA0003581232B11F4411103C0FC01568303C05C
:103DB0005160FC015683E0E7F0E380818038E9F34D
:103DC000E0916630F091673084818370813049F0F2
:103DD000A6E6B0E3ED91FC91119784818370813068
:103DE000C9F78091703010926F30089588EF089570
:103DF00088EF089586EF0895FC01818185FFFDCF4E
:103E0000608380E090E00895FC0181818823ECF7D5
:103E1000808108954F925F926F927F928F929F92CE
:103E2000AF92BF92CF92DF92EF92FF920F931F93C8
:103E3000CF93DF93EC014A015B0128013901D901DD
:103E4000C801689412F8B695A7959795879516942A
:103E5000D1F7B901A801032E36E1769567955795FC
:103E600047953A95D1F7302D2C8122FD08C0B695A3
:103E7000A795979587957695679557954795881552
:103E80009905AA05BB0508F4A6C084169506A606E2
:103E9000B70608F4A2C08C8182FD04C0880C991C6E
:103EA000AA1CBB1CC301B201A50194010E94C3A8B6
:103EB0002F3F31054105510508F491C0C12CD12C8B
:103EC0007601CA9419EF05C02C153D054E055F0516
:103ED00068F0CC0CDD1CEE1CFF1C1D3F14F4689434
:103EE000C0F81F5F173081F7212F50C0212F1123F9
:103EF0000CF04CC0D501C401880F991FAA1FBB1F2D
:103F0000880F991FAA1FBB1F880F991FAA1FBB1FCD
:103F1000481A590A6A0A7B0A1E3FF4F46DEF7FEFD4
:103F2000611B710917FD739504C0440C551C661C78
:103F3000771C6A95D2F7D501C401B695A7959795D8
:103F40008795BC01CD01640D751D861D971DA501CA
:103F500094010E94C3A836C023E0210FD501C401FB
:103F600004C0880F991FAA1FBB1F2A95D2F79C0176
:103F7000AD01B695A79597958795BC01CD01640DC8
:103F8000751D861D971D0E94C3A81CC02D5FD501FD
:103F9000C40104C0880F991FAA1FBB1F2A95D2F71E
:103FA0009C01AD01B695A79597958795BC01CD016C
:103FB000640D751D861D971D0E94C3A821503109EF
:103FC00041095109832F8F701295107F182B1F8381
:103FD0002E8381E018C080E016C080E014C0D501B7
:103FE000C401880F991FAA1FBB1F880F991FAA1F02
:103FF000BB1F880F991FAA1FBB1F481A590A6A0ABC
:104000007B0A19EF8BCFDF91CF911F910F91FF901A
:10401000EF90DF90CF90BF90AF909F908F907F9068
:104020006F905F904F9008950F931F93CF93DF93FE
:10403000EC018B01009709F403C1803C910529F440
:1040400060E180E00E948D13FBC0C03881E0D8079A
:1040500029F462E080E00E948D13F2C0C115E1E016
:10406000DE0729F461E080E00E948D13E9C0C038CA
:10407000F3E0DF0729F461E081E00E948D13E0C0E6
:10408000C03983E0D80729F461E082E00E948D13F3
:10409000D7C0C115E2E0DE0729F462E081E00E94AA
:1040A0008D13CEC0C034F2E0DF0729F462E082E075
:1040B0000E948D13C5C0C03283E0D80729F464E0A4
:1040C00082E00E948D13BCC0C115E8E0DE0729F430
:1040D00061E083E00E948D13B3C0C115F9E0DF07F2
:1040E00029F461E084E00E948D13AAC0C1158AE022
:1040F000D80729F461E085E00E948D13A1C0C115A5
:10410000EBE0DE0729F461E086E00E948D1398C0A1
:10411000C034F8E0DF0729F462E083E00E948D13E9
:104120008FC0C03489E0D80729F462E084E00E949F
:104130008D1386C0C034EAE0DE0729F462E085E032
:104140000E948D137DC0C039F8E0DF0729F464E0D8
:1041500083E00E948D1374C0C03989E0D80729F428
:1041600064E084E00E948D136BC0C039EAE0DE0792
:1041700029F464E085E00E948D1362C0C039FBE041
:10418000DF0729F464E086E00E948D1359C0C03C2B
:1041900088E0D80729F468E083E00E948D1350C0BE
:1041A000C03CE9E0DE0729F468E084E00E948D135A
:1041B00047C0C03AF8E0DF0729F460E183E00E94DD
:1041C0008D133EC0C03A89E0D80729F460E184E04D
:1041D0000E948D1335C0C03AEAE0DE0729F460E1A1
:1041E00085E00E948D132CC0C03AFBE0DF0729F464
:1041F00060E186E00E948D1323C0C03B88E0D807B1
:1042000029F460E283E00E948D131AC0C03BE9E00C
:10421000DE0729F460E284E00E948D1311C0C038EB
:10422000F4E0DF0729F460E483E00E948D1308C006
:10423000C03A84E0D80721F460E485E00E948D1341
:104240008D818F738D83F80194818581892B96816F
:10425000992311F098E001C090E0892B8D83F8013B
:10426000408151816281738100E016E32EE631E0E6
:10427000CE01D0DD9C8198609C839C8190619C8361
:10428000DF91CF911F910F910895811118C09091E6
:10429000D032992389F09FB7F894EAE3F3E32081C1
:1042A000215020839FBF08C09FB7F894EAE3F3E34F
:1042B00020812F5F20839FBF8093D03208959091FB
:1042C000D032992389F3F8CF0F93E8ECF4E08081A2
:1042D0008F7D808380818F7D8083E4E7F2E302E03D
:1042E0000593109276321092773200E2069300E442
:1042F0000693ECE6F2E300E2069300E406931092E4
:104300004B3310924C3310924D3310924E33109227
:10431000493310924A33109250320F9108950F93FF
:1043200085E080935032E5E7F2E304E00593EDE6A3
:10433000F2E304E005930F9108950F9383E08093D7
:1043400050321092763210927732E4E7F2E302E0D4
:1043500006930F910895E0914B33F0914C333097D1
:1043600009F0199508950F93CF93DF938091503200
:10437000833019F4F0DFA8DF60C080914C32909157
:104380004D32C0914933D0914A33C81BD90B71F5D6
:1043900020914E3230914F32820F931F80934E32D4
:1043A00090934F32209145333091463382179307D3
:1043B00021F080917130882341F084E08093503265
:1043C000ECE6F2E302E0069338C0E0914D33F09161
:1043D0004E33309799F01995882381F010924C3222
:1043E00010924D32C0914933D0914A33C034D10537
:1043F00028F010927130C0E4D0E003C081E08093D7
:104400007130C0937632D093773280914C32909154
:104410004D322091473330914833280F391F209374
:10442000783230937932C80FD91FC0934C32D09371
:104430004D32E4E7F2E302E00693DF91CF910F9172
:104440000895FC018181877090E0FC013197E7308D
:10445000F10520F4E250FF4F0C94E5A888E090E0CD
:10446000089580E290E0089580E490E0089580E867
:1044700090E0089580E091E0089580E092E0089552
:104480008FEF93E0089580E190E00895282F2F703A
:1044900030E0220F331F992787FD90958827990FC9
:1044A000881F9927820F931F02979C01220F331FA9
:1044B000220F331F220F331F820F931F8E549E4CE7
:1044C00008950F93CF938091CC0480FF63C081E067
:1044D0008093CC04ECE6F2E300E80693E4E7F2E331
:1044E00000E806938093CA04ECE6F2E300E1069349
:1044F00080915032882329F08350823008F42BDFDA
:10450000E3DE80916E3290916F32089709F044C0DB
:1045100088E0ECE0F2E3AFE3B3E301900D928A951B
:10452000E1F7E8ECF4E08081806280838081806242
:1045300080830E94BA19C82F811103C0F0DEC1E048
:104540002CC080913F3388236CF410924E3210922D
:104550004F3210924C3210924D3282E080935032A2
:1045600002DF1BC02091453330914633232B11F4D9
:10457000E4DE13C010924E3210924F3210924C3241
:1045800010924D3281E080935032ECE6F2E302E08B
:10459000069303C0C0E001C0C1E08C2FCF910F9102
:1045A0000895BF92CF92DF92EF92FF920F931F93E5
:1045B000CF93DF93B82E6ADFEC011B2D111F11275B
:1045C000111F8B2D8F70E82EF12CEE0CFF1CE10ECD
:1045D000F11CC701880F991F880F991F880F991F19
:1045E0009C0124593D4C7901C9012BDF6C01112339
:1045F00009F45BC0D70116962D913C9117978D81D8
:104600009E81280F391F2D833E838B819C81281723
:104610003907C9F1FC01E21BF30B9F012115F4E0FE
:104620003F0740F02FEF33E0C901B6010E94AFA869
:10463000281B390B888181FF0AC0C901B6010E947D
:10464000AFA841E0892B09F040E0942F01C090E031
:10465000888190FB81F98883D70116961D921C9260
:10466000179712962D933C93139729813A818D8148
:104670009E81820F931F14968D939C931597F7013B
:1046800002E0069398C0888181FF87C08D7F888370
:10469000D70116961D921C92179712961D921C9286
:1046A0001397F70102E0069386C0D70112960D9189
:1046B0001C911397888182FF15C0E981FA812D81B1
:1046C0003E818B819C81B6010E94AFA8B0E4BB9E65
:1046D000B00111246E5C7F4CAC01CF01820F931F9F
:1046E0000E94F8A82D813E81200F311F2D833E832B
:1046F000EB81FC81E217F30710F4ED83FE83D70111
:1047000016968D919C9117978017910709F045C0D7
:104710008D819E81E817F90709F43FC0E81BF90B6A
:10472000E115B4E0FB0748F0EFEFF3E0CF01B6018D
:104730000E94AFA8E81BF90B06C0CF01B6010E948A
:10474000AFA8E81BF90BD70112961D921C92139784
:10475000EC15FD0578F4888184608883B0E4BB9E05
:10476000C00111248E5C9F4CF70184839583C6821F
:10477000D7820FC029813A818D819E81820F931F3C
:10478000D70114968D939C9315971696ED93FC93F1
:104790001797F70102E006930EC0888180FF0BC0D7
:1047A0008E7F8883EF81F885309729F06D817E8137
:1047B0004B2D80E01995DF91CF911F910F91FF90C4
:1047C000EF90DF90CF90BF900895CF93CFB7F8943C
:1047D000E1ECF4E080818E7F80831092C00410822F
:1047E0000E94DB1380E051DD8FB7F894EEE3F3E332
:1047F0009081915090838FBFCFBFCF910895CF9379
:10480000CFB7F89481E041DDEAECF4E080E4808306
:1048100080E28083E1ECF4E0808181608083A9EC18
:10482000B4E08C9182608C93E8ECF4E08081806449
:1048300080838C9181608C93808180688083CFBFDE
:10484000CF910895CF93DF93C0E6D0E0188280E344
:104850000E94A413E0ECF4E080818064808381E016
:104860008883CFB7F89480E090E0FC01EE0FFF1F43
:10487000EE0FFF1FEE0FFF1FE359FD4C1082019654
:104880008C30910591F780E090E0FC01EE0FFF1F66
:10489000EE0FFF1FEE0FFF1FE80FF91FEE54FE4C47
:1048A00020812E7F208301968A30910571F76AE17D
:1048B00070E082E0F3D88F3F19F08093FA0403C0D0
:1048C0008FE18093FA046BE170E082E0E7D88F3FDC
:1048D00019F08093FB0403C08FE18093FB04E0ECAC
:1048E000F4E080818560808380818068808380811E
:1048F000806180838CE692E38683978380818062E7
:1049000080838FEF8093C504E8ECF4E080818160C0
:1049100080831092D0328FB7F894EEE3F3E3908166
:104920009F5F90838FBF6BDFCFBFDF91CF910895E3
:1049300080E008958093C30408958091C30408958E
:104940008091CC329091CD32089580E090E008952E
:1049500080934733909348336093493370934A333D
:104960000895E82FEF70F0E0EE0FFF1F992787FD05
:1049700090958827990F881F9927E80FF91FEE0F48
:10498000FF1FEE0FFF1FEE0FFF1FE459FD4C81814B
:10499000807C09F043C06370613029F010F480E43A
:1049A00003C080E801C080EC40385105E1F050F4CC
:1049B00040325105A1F04034510599F04031510584
:1049C00061F419C0411592E0590789F04F3F93E017
:1049D000590779F04115514041F020E00DC022E027
:1049E0000BC023E009C024E007C025E005C026E095
:1049F00003C027E001C021E0118296E09083822B62
:104A000081838181807C803C21F481818770873023
:104A100039F081818062818381E0089580E008958A
:104A200081E00895E82FEF70F0E0EE0FFF1F992767
:104A300087FD90958827990F881F9927E80FF91F00
:104A4000EE0FFF1FEE0FFF1FEE0FFF1FE459FD4C8F
:104A5000818182FB882780F90895E82FEF70F0E0CC
:104A6000EE0FFF1F282F332727FD30952227330F06
:104A7000221F3327E20FF31FEE0FFF1FEE0FFF1F62
:104A8000EE0FFF1FE459FD4C918192FF0EC0918102
:104A90009B7F9183FBDCFC01808180FF06C08E7FC1
:104AA00080830780F085E02D199581E008957F923D
:104AB0008F929F92AF92BF92CF92DF92EF92FF922E
:104AC0000F931F93CF93DF93982E862E5A0169017F
:104AD000DDDC7C01792C771C7724771CC92DCF7005
:104AE000D0E0CC0FDD1FC70DD11DCC0FDD1FCC0FCB
:104AF000DD1FCC0FDD1FC459DD4C8981807C09F49A
:104B00004CC08981807C803C19F0898182FD47C03E
:104B10008FB7F894F701908190FF03C08FBF712C7D
:104B20003FC0F7019081916090838FBFF701A18210
:104B3000B282C382D48215821682078310878110C5
:104B400006C091E0C114D10419F090E001C091E0D9
:104B5000F701808190FB81F98B7F8083772019F0AA
:104B60001E821F8215C08981807C803C69F4CE0141
:104B700068DCBC01C6010E94AFA8892B29F0F701AF
:104B800080818E7F80830CC01A821B821E821F82CE
:104B9000892D07DD7724739403C0712C01C0712C1B
:104BA000872DDF91CF911F910F91FF90EF90DF90B4
:104BB000CF90BF90AF909F908F907F900895FF927D
:104BC0000F931F93CF93DF93182FF82EFF1CFF2412
:104BD000FF1CC82FCF70D0E0CC0FDD1FCF0DD11D33
:104BE000CC0FDD1FCC0FDD1FCC0FDD1FC459DD4CFA
:104BF0004DDCDC01FE0102E005938C9180FF12C0C8
:104C00008E7F8C931796ED91FC911897309751F009
:104C1000FF2019F06E817F8102C06A817B81412F64
:104C200081E01995DF91CF911F910F91FF90089529
:104C3000CF93C82FC4DFEC2FEF70F0E0EE0FFF1F13
:104C40008C2F992787FD90958827990F881F992782
:104C5000E80FF91FEE0FFF1FEE0FFF1FEE0FFF1FF4
:104C6000E459FD4C1182CF9108950F93E82FEF7016
:104C7000F0E0EE0FFF1F282F332727FD3095222766
:104C8000330F221F3327E20FF31FEE0FFF1FEE0F2C
:104C9000FF1FEE0FFF1FE459FD4C9181946091833B
:104CA00001E006938CDF81E00F9108951F920F922F
:104CB0000FB60F9211240BB60F920F932F933F93C1
:104CC0004F935F936F937F938F939F93AF93BF9314
:104CD000CF93EF93FF938091CB0488233CF480E83B
:104CE0008093CA040E948B19CFD58FC08091CB04CA
:104CF00082FF20C084E08093CA048091743286FFD2
:104D000084C08091CC0481FD80C0DBDB81117DC03B
:104D100080915032813011F410DB77C0843009F07B
:104D200074C0E5E7F2E304E00593EDE6F2E304E0A6
:104D300005936BC08091CB0481FF62C082E08093B9
:104D4000CA0480916C3286FF60C08091CC0481FDE2
:104D50005CC0B7DB811159C080915032823041F480
:104D600084E080935032ECE6F2E302E006934DC01B
:104D7000833009F04AC0E5E7F2E304E00593EDE68D
:104D8000F2E304E0059341C080E18093CA04C1E0EE
:104D90008C2F15DF8C2F806812DFCF5FC530C1F7F5
:104DA0000E9460191092C304EDE6F2E3108296E0CF
:104DB00090936C3283E48083E5E7F2E31082909372
:104DC000743280838CE092E38093703290937132DE
:104DD0007BDA1BC08091CB0486FF07C080E4809300
:104DE000CA0480E052DA4AD510C08091CB0485FF16
:104DF0000CC080E28093CA0481E047DA42D505C046
:104E00008091CB0484FDC0CFE5CFFF91EF91CF918E
:104E1000BF91AF919F918F917F916F915F914F91D2
:104E20003F912F910F910F900BBE0F900FBE0F90DF
:104E30001F9018951F920F920FB60F9211240BB668
:104E40000F920F931F932F933F934F935F936F9303
:104E50007F938F939F93AF93BF93CF93DF93EF9302
:104E6000FF938091CC0481FD03C02BDB8111B9C07D
:104E700082E08093CC048091C5048195880FECE694
:104E8000F2E3E81BF109208131812C56324336953B
:104E900027953695279536952795822F869520FF5D
:104EA00002C090E801C090E0890FE82FEF70F0E0B9
:104EB000EE0FFF1F282F332727FD30952227330FB2
:104EC000221F3327E20FF31FEE0FFF1FEE0FFF1F0E
:104ED000EE0FFF1FE459FD4C908195FF82C000E268
:104EE0000693811179C080915032843019F433DAFD
:104EF000EBD977C0C0916E32D0916F328091493337
:104F000090914A3300914C3210914D3298012C0F00
:104F10003D1F8217930718F4EC01C01BD10B809141
:104F2000473390914833AE016CE072E3800F911FDC
:104F30000E94F8A80C0F1D1F00934C3210934D32A5
:104F4000C034D10569F480914E3290914F32800F78
:104F5000911F20914533309146338217930788F093
:104F60000093493310934A33E0914D33F0914E331F
:104F7000309729F01995811102C0D1D932C0DDD9FD
:104F800030C08091493390914A3308171907F9F4DA
:104F9000E0914D33F0914E33309711F4C0D921C0D8
:104FA0001995811102C0BBD91CC020914E3230919D
:104FB0004F3280914C3290914D32820F931F8093EB
:104FC0004E3290934F3210924C3210924D32ECE6AA
:104FD000F2E302E0069305C0803811F4C4D901C0A1
:104FE000E0DAFF91EF91DF91CF91BF91AF919F9167
:104FF0008F917F916F915F914F913F912F911F9171
:105000000F910F900BBE0F900FBE0F901F90189531
:105010000E948719EEEFF0E082E08CBF19940895AA
:10502000FC0101900020E9F73197BF01681B790B63
:105030000C9469180895CF93DF93EC01F1DF8DEDA7
:1050400092E2EEDF60EE72E2CE010E9401A9892BAE
:1050500019F48DED92E2E4DFDF91CF910895209174
:105060000C21622309F0E7CF089580930C21089565
:10507000CF92DF92EF92FF920F931F93CF93DF9324
:10508000082F10E0000F111FE801CD5ADC4C888179
:1050900099810E940C14B801615B7C4CFB01C080BB
:1050A000D12CE12CF12C00E412E42FE030E040E0C0
:1050B000888199810E942314E881F981808180642C
:1050C000808381E0DF91CF911F910F91FF90EF904E
:1050D000DF90CF90089508950895BF92CF92DF9208
:1050E000EF92FF920F931F93CF93DF93B62EC82FAB
:1050F000D0E06E01CC0CDD1C8601015B1C4CA601CE
:105100004D5A5C4C7A01B801DA018D919C910E9454
:105110004314F601E05BFC4C8081E82FE695E695B0
:10512000E695B0E2EB9FF0011124FA5F877021E071
:1051300030E0A90102C0440F551F8A95E2F746836B
:10514000D701ED91FC911197B382ED91FC91828191
:105150008823ECF78AEF8383FE01EE0FFF1FED5AE1
:10516000FC4C0190F081E02D82818823ECF7CE0188
:10517000880F991FDC01A05BBC4C2C91A22FA69537
:10518000A695A69530E2A39FD0011124BA5F27709F
:1051900041E050E0BA0102C0660F771F2A95E2F79E
:1051A00015966C932FEF2383FC01ED5AFC4C019074
:1051B000F081E02D82818823ECF7F3808FEF8383E9
:1051C000CC0FDD1FCD5ADC4CE881F9818281882328
:1051D000ECF7C381B801CF010E9459148C2F90E0E5
:1051E000982F88278F0D911DDF91CF911F910F91DF
:1051F000FF90EF90DF90CF90BF9008959F92AF9275
:10520000BF92CF92DF92EF92FF920F931F93CF93B3
:10521000DF93962EA42EB52E082F10E06801CC0C3B
:10522000DD1CA601415B5C4C7A01E601CD5ADC4CE9
:10523000BA01888199810E944314F601E05BFC4C1D
:105240008081E82FE695E695E69550E2E59FF0012E
:105250001124FA5F877021E030E0B90102C0660FC7
:10526000771F8A95E2F76683E881F9819382E88166
:10527000F98182818823ECF7C801880F991FDC012E
:10528000A05BBC4C2C91A22FA695A695A69570E28A
:10529000A79FD0011124BA5F277041E050E0BA0106
:1052A00002C0660F771F2A95E2F715966C93A382CA
:1052B000FC01ED5AFC4C0190F081E02D82818823A5
:1052C000ECF7B382F801EE0FFF1FED5AFC4C019092
:1052D000F081E02D82818823ECF7B701CF010E9495
:1052E0005914DF91CF911F910F91FF90EF90DF90B4
:1052F000CF90BF90AF909F900895CF93C82F48E272
:1053000050E06FEB7BDF40E053E567E070E0415039
:105310005109610971094115510561057105B9F717
:1053200040E150E06FEB8C2F69DF40E059E06DE326
:1053300070E041505109610971094115510561053C
:105340007105B9F749E250E06FEB8C2F57DF40E071
:1053500053E567E070E04150510961097109411559
:10536000510561057105B9F741E150E06FEB8C2FF4
:1053700045DFCF9108957F928F929F92AF92BF9217
:10538000CF92DF92EF92FF920F931F93CF93DF9311
:10539000762E842E952EA22EB32E082F10E06801B3
:1053A000CC0CDD1CE601C15BDC4CA6014D5A5C4C0B
:1053B0007A01BE01DA018D919C910E944314F6019D
:1053C000E05BFC4C8081E82FE695E695E695B0E23F
:1053D000EB9FF0011124FA5F877021E030E0A90112
:1053E00002C0440F551F8A95E2F74683D701ED911D
:1053F000FC9111977382ED91FC9182818823ECF7E7
:10540000C801880F991FDC01A05BBC4C2C91A22F16
:10541000A695A695A69530E2A39FD0011124BA5F68
:10542000277041E050E0BA0102C0660F771F2A954D
:10543000E2F715966C938382FC01ED5AFC4C0190C7
:10544000F081E02D82818823ECF79382F801EE0F42
:10545000FF1FED5AFC4C0190F081E02D82818823E2
:10546000ECF7A382F801EE0FFF1FED5AFC4C019000
:10547000F081E02D82818823ECF7B382F801EE0FF2
:10548000FF1FED5AFC4C0190F081E02D82818823B2
:10549000ECF7BE01CF010E945914DF91CF911F910B
:1054A0000F91FF90EF90DF90CF90BF90AF909F90C3
:1054B0008F907F900895CF93C82F4AEF50E064ED0E
:1054C0009DDE60EB8C2F09DECF910895CF93C82F1E
:1054D00040E854E86EE170E04150510961097109FA
:1054E0004115510561057105B9F781E08093D1320D
:1054F0008C2FE1DF8832984229F08EEE92E29BDD1C
:1055000080E09FC046E152E061EB8C2F77DE40E304
:1055100056E062EB8C2F72DE4CE858E263EB8C2F86
:105520006DDE48E354E064EB8C2F68DE40E857E022
:1055300065EB8C2F63DE47E050E266EB8C2F5EDE7E
:105540004AE054E169EC8C2F59DE43E050E06EED07
:105550008C2F54DE44E050E066ED8C2F4FDE40E3AC
:1055600050EC6AEB8C2F4ADE48E050E06BEB8C2F5E
:1055700045DE41E050E069EB8C2F40DE41E050E039
:1055800064EC8C2F3BDE40E45DE063E070E0415072
:105590005109610971094115510561057105B9F795
:1055A00042E053E067EB8C2F29DE40E050E068EBEF
:1055B0008C2F24DE43E050E06CEB8C2F1FDE2FEFAE
:1055C00030E041E55FE06FEB8C2FD5DE42E050E04C
:1055D0006CEB8C2F13DE43E554E06FEB8C2F0EDE6B
:1055E00045E550E06FEB8C2F09DE42E453E067EBBA
:1055F0008C2F04DE40E050E068EB8C2FFFDD41E0B3
:1056000050E06CEB8C2FFADD49E250E06FEB8C2F11
:10561000F5DD40E053E567E070E041505109610974
:1056200071094115510561057105B9F741E150E076
:105630006FEB8C2FE3DD4BE453E067EB8C2FDEDD6B
:1056400081E0CF91089584E180934F3389E0809386
:10565000503380EC98E0809353339093543380E040
:1056600007DD80E033CF0895E82FF0E0EE0FFF1F55
:10567000E05BFC4C8081E82FE695E695E69540E2FC
:10568000E49FF0011124FA5F877021E030E0A90166
:1056900002C0440F551F8A95E2F745830895E82F0D
:1056A000F0E0EE0FFF1FE05BFC4C8081E82FE695F9
:1056B000E695E69540E2E49FF0011124FA5F8770D9
:1056C00021E030E0A90102C0440F551F8A95E2F79E
:1056D00046830895813099F482E093E2ACDC84E063
:1056E000E0E0F6E0868380E090E00196803A2FE0EB
:1056F0009207D9F784E0E0E0F6E0858308958230F0
:1057000099F48DE093E297DC80E1E0E0F6E08683B7
:1057100080E090E00196803A2FE09207D9F780E18F
:10572000E0E0F6E08583089588E193E284CC089573
:1057300081E0E0E2F6E0868380E090E00196803A46
:105740002FE09207D9F781E0E0E2F6E08583089543
:10575000CF93C42F813051F480EA9BE00E94FC1E5D
:105760006C2F80EA9BE00E94FC1E03C086E293E25D
:1057700062DCCF910895813051F4606880EA9BE04B
:105780000E94FC1E80EA9BE00C94041F089586E2B0
:1057900093E251DC80E00895C0EAD0E017E01A837C
:1057A0000E941D131A831092393310923A331092CB
:1057B0003B3310923C3310923D3381E080933E3373
:1057C0000E94701C7ED078940E946F140E94701406
:1057D0003ADF0E94EEA1E0EAF6E080E4858380E80B
:1057E00086830E945D199BD68091D432882321F054
:1057F00080E071DC1092D4328091D332882321F082
:1058000080E06ADC1092D33281E08093D5320E942E
:10581000600F80932F2FC0E001C0C0E0809115334E
:10582000882321F00E9481A61092153380E090E039
:105830000196803921E09207D9F780912F2F8111AD
:105840000E947A12CF5F8091D532882339F3C53612
:1058500028F36FD68091D432882331F01092D4325D
:1058600080E034DE80E037DC8091D3328823A9F2F7
:1058700080E032DC1092D332C0E0D0CF0C947014B0
:1058800008950C94711408958091D232882319F0F0
:1058900057D80C947A14089591E09093D2320E94D4
:1058A00010A881E008951092D2320C941BA808959C
:1058B000662319F00C94721408950C9473140895CF
:1058C000089543E050E060E880E496E00E94E4132D
:1058D00043E050E060E280E496E00E94E41340E0A0
:1058E00050E060E480E496E00E94E41343E050E07E
:1058F00060E180E496E00E94E41343E050E062E05F
:1059000080E296E00E94E41341E050E062E080E033
:1059100096E00E94E41343E050E064E080E096E00B
:105920000E94E41343E050E061E080EA96E00E94C8
:10593000E41343E050E060E280E696E00E94E41366
:1059400040E050E064E080E696E00E94E41341E02D
:1059500050E062E080EA96E00E94E41341E050E00B
:1059600060E480EA96E00E94E41341E050E060E8E1
:1059700080EA96E00E94E41343E050E064E080E4B3
:1059800096E00E94E41343E050E068E080E496E093
:105990000E94E4136DE071E280EA9BE00E94142013
:1059A000811103C08FE293E246DB43E050E061E007
:1059B00080E296E00E94E41343E050E061E080EA78
:1059C00096E00C94E4130895CF93DF93CDB7DEB740
:1059D000A897CDBFDEBFFC01DE011196CE018996EE
:1059E00024912D93222321F03196A817B907C1F7EE
:1059F00018A6CE0101961FDBA896CDBFDEBFDF91B2
:105A0000CF910895CF93DF93D82FC62F8EE393E2E3
:105A100012DB86ED9EE0D8DFCC2319F0C13029F0EF
:105A200008C082ED9EE0D0DF07C08EEC9EE0CCDFA8
:105A300003C084EC9EE0C8DFDD2319F0D13069F0AB
:105A40001AC084E99EE0C0DF81E08093D8321092D2
:105A5000D9328FEF80933A2111C08EEA9EE0B4DFF5
:105A60008FEF80933A2181E08093D3321092D83225
:105A70001092D93203C084EC9EE0A6DFDF91CF9173
:105A80000895EF92FF920F931F93CF93DF93CDB7BB
:105A9000DEB76497CDBFDEBF8C017B01009709F4B0
:105AA00045C0FF926F931F938F938BE493E29F9374
:105AB0008F93CE0101969F938F930E9437A9CDBFFC
:105AC000DEBF073E93E0190799F4FF92EF9283E55A
:105AD00093E29F938F93CE0101969F938F930E94A1
