:100000006EC70000A4C70000A2C70000A0C7000080
:100010009EC700009CC700009AC7000098C7000058
:1000200096C7000094C7000092C700000C94D60841
:100030008EC700000C94821D0C940C090C94390995
:100040000C9466090C9493090C94C0090C94ED0966
:100050000C941A0A0C94470A0C94740A0C94A10A82
:1000600076C7000074C7000072C7000070C70000A8
:100070006EC700006CC700006AC7000068C70000B8
:1000800066C7000064C7000062C7000060C70000C8
:100090005EC700005CC700005AC7000058C70000D8
:1000A00056C7000054C7000052C7000050C70000E8
:1000B0004EC700004CC700000C94A91D0C94900C76
:1000C0000C94BD0C0C94EA0C0C94170D0C94440D7C
:1000D0000C94710D0C949E0D0C94CB0D0C94F80D9A
:1000E0000C94250E34C7000032C7000030C7000052
:1000F0002EC700002CC700002AC7000028C7000038
:1001000026C7000024C7000022C7000020C7000047
:100110001EC700001CC700001AC7000018C7000057
:1001200016C7000014C7000012C7000010C7000067
:100130000EC700000C94CE0A0C94FB0A0C94280BFA
:100140000C94550B0C94820B0C94AF0B0C94DC0BA1
:100150000C94090C0C94360C0C94630CF8C600003B
:10016000F6C60000F4C60000F2C60000F0C60000AB
:10017000EEC60000ECC60000EAC60000E8C60000BB
:10018000E6C60000E4C60000E2C60000E0C60000CB
:10019000DEC60000DCC60000DAC60000D8C60000DB
:1001A000D6C60000D4C60000D2C60000D0C60000EB
:1001B0000C94520E0C947F0E0C94AC0E0C94D90E31
:1001C0000C94060F0C94330FC2C60000C0C600008A
:1001D000BEC60000BCC60000BAC600000C9463A7EF
:1001E0000C94A7A7B4C60000B2C60000B0C60000B9
:1001F000AEC600000C949B250C945F2688217621C6
:1002000079217C217F2182218521BC2FA630AA3033
:10021000AE30B23019311D31BE30C230C6301D3162
:10022000CA30CE30D230D63094309830B630BA3072
:10023000DA30E22FE82FEF2FF62FFC2F5E305E3002
:100240000A30113018301F3026302D305E303430F7
:100250003B3042305E305E304930503057300330F2
:10026000F530F930FD300131053109310D311131F1
:100270003E31423146314A31BF31BF31B331B731FE
:10028000BF31BF31BF31BF31BF31BF31BB31E33AC5
:10029000EE3AF93A7D3B7D3B7D3B7D3B7D3B7D3BB3
:1002A0007D3B7D3B7D3B7D3B7D3B7D3B7D3B7D3B8E
:1002B0007D3B043B0F3B1A3B7D3B7D3B7D3B7D3BC8
:1002C0007D3B7D3B7D3B7D3B7D3B7D3B7D3B253BC6
:1002D000303B3B3B463B7D3B7D3B7D3B7D3B7D3B24
:1002E0007D3B7D3B7D3B7D3B7D3B7D3B7D3B513B7A
:1002F0007D3B7D3B7D3B7D3B7D3B7D3B7D3B7D3B3E
:100300007D3B7D3B7D3B7D3B7D3B7D3B7D3B5C3B4E
:10031000673B723B5A5A1A5A255A1A5A315A1A5A74
:10032000375A435A1A5A495A1A5A1A5A1A5A1A5AB8
:100330001A5A1A5A1A5A1A5A1A5A1A5A1A5A1A5A1D
:100340001A5A1A5A1A5A1A5A1A5A1A5A1A5A1A5A0D
:100350001A5A1A5A1A5A1A5A1A5A1A5A1A5A1A5AFD
:100360001A5A1A5A1A5A1A5A1A5A1A5A1A5A1A5AED
:100370001A5A1A5A1A5A1A5A1A5A1A5A1A5A1A5ADD
:100380001A5A1A5A1A5A1A5A1A5A1A5A1A5A1A5ACD
:100390001A5A145A1A5A5A5A1A5A255A1A5A2B5A67
:1003A000315A375A3D5A1A5A435A1A5A495A1A5AFE
:1003B0001A5A1A5A1A5A1A5A1A5A1A5A1A5A1A5A9D
:1003C0001A5A1A5A1A5A1A5A1A5A1A5A1A5A1A5A8D
:1003D0001A5A1A5A1A5A1A5A1A5A1A5A1A5A1A5A7D
:1003E0001A5A1A5A1A5A1A5A1A5A1A5A1A5A1A5A6D
:1003F0001A5A1A5A1A5A1A5A1A5A1A5A1A5A1A5A5D
:100400001A5A1A5A1A5A1A5A1A5A1A5A1A5A1A5A4C
:100410001A5A1A5A145A1A5A5A5A1A5A255A1A5AF7
:100420002B5A315A1A5A375A1A5A3D5A1A5A435A9B
:10043000495AB267CB67E467FD6716684768786812
:100440008175B478B478B478B478B478B478B47882
:10045000B478B4782677B377D877FD772278B478F4
:10046000B4789178917891789178B478B478B478B8
:10047000B47869778E7747786C78447A607FC47FE8
:100480004980A48061836183C281C8822B849A855C
:100490003886C78656870D884C8B26894C8B4C8BAB
:1004A0004C8BCF7E4C8B4888238A508A908A9E8CB6
:1004B000518C588C5F8C668C6D8C748C7B8C828C90
:1004C000898C908C978C8291A79214922592369267
:1004D000A091AF91D691E591F49182918C918C91FC
:1004E0008C918C91A7920392969196919691969168
:1004F000A792A792A792A7928C918C918C918C91A4
:1005000014942194C193D293E393F493C193D2931F
:10051000E393F493289628963396289683962B9601
:100520002B962E962B9651985997599751985997E3
:100530005198599751985997519854975997599755
:10054000549759974F9759975198519859974F9752
:100550004F97229D289DE09CE89CEE9CF49CFC9C7F
:10056000049D0E9D629F929F649F669F689F6A9FF5
:100570006C9F6E9F709F729F749F769F789F7A9FEB
:100580007C9F7E9F809F829F849F869F889F8A9F5B
:100590008C9F8E9F9D9FC39F9F9FA19FA39FA59F61
:1005A000A79FA99FAB9FAD9FAF9FB19FB39FB59FE3
:1005B000B79FB99FBB9FBD9FBF9FC19FDCA2E1A218
:1005C000EDA2EDA2EDA2EDA2EDA2EDA2EDA2EDA2B3
:1005D000EDA2EDA2EDA2EDA2EDA2EDA2EDA2EDA2A3
:1005E000EDA2EDA2CFA2EDA2EDA2EDA2EDA248A256
:1005F000EDA2EDA2EDA2EDA2EDA2EDA2EDA2EDA283
:1006000079A2EDA2EDA2C2A2EDA259A2EDA2EDA2A5
:10061000EDA2EDA2EDA2EDA2EDA2EDA2EDA2EDA262
:10062000EDA2EDA2CFA2EDA2EDA2EDA2EDA248A215
:10063000EDA2EDA2EDA2EDA2EDA2EDA2EDA2EDA242
:1006400079A2EDA2EDA2C2A2EDA259A217A3B0A475
:1006500037A3B0A4B0A4B0A4B0A4B0A4B0A4B0A474
:1006600070A3B0A4B0A4B0A420A3B0A46EA3B0A4FF
:10067000B0A4B0A4B0A4B0A4B0A4B0A4B0A4B0A4DA
:10068000B0A4B0A4B0A4B0A4B0A4B0A417A3B0A464
:1006900037A3B0A4B0A4B0A4B0A4B0A4B0A4B0A434
:1006A00070A3B0A4B0A4B0A420A3B0A46EA3ABA4C4
:1006B000AEA4B0A4B0A4B0A4B0A4B0A4B0A4B0A49C
:1006C000B0A4B0A4B0A4B0A4B0A4B0A4B0A4B0A48A
:1006D000B0A4B0A4B0A4B0A4B0A4B0A4B0A4B0A47A
:1006E000B0A4B0A4B0A4B0A4B0A4B0A4B0A4B0A46A
:1006F000B0A496A3A2A4B0A4B0A4B0A480A3B8A3AD
:10070000B0A4B0A4B0A4B0A4B0A4B0A4B0A4B0A449
:10071000B0A4B0A4B0A4B0A4B0A4B0A4B0A4B0A439
:10072000B0A4B0A4B0A4B0A4B0A4B0A4B0A4B0A429
:10073000B0A496A3A2A4B0A4B0A4B0A480A3B8A36C
:100740008BA5B6A5B6A5B6A5B6A5B6A5B6A5B6A5FC
:10075000B6A5B6A5B6A5B6A5B6A5B6A5B6A5B6A5C1
:10076000B6A5B6A5B6A5B6A5B6A548A5B6A5B6A51F
:1007700051A53DA5B6A5B6A5B6A590A5B6A5B6A5A5
:10078000B6A5B6A567A56EA56AA5B6A57EA5B6A5AC
:10079000B6A5B6A5B6A5B6A5B6A5B6A5B6A5B6A581
:1007A000B6A5B6A5B6A5B6A5B6A548A5B6A5B6A5DF
:1007B00051A53DA5B6A5B6A5B6A590A5B6A5B6A565
:1007C000B6A5B6A567A56EA56AA5B6A57EA5E5A53D
:1007D000C1A6C1A6C1A6C1A6B8A6F5A5EBA5C1A68E
:1007E000EDA5E9A5C1A6C1A6C1A6C1A6C1A6C1A67F
:1007F000EFA5C1A6C1A6E7A5C5A6C1A6C1A6C1A66B
:10080000C1A6C1A6C1A6C1A6C1A6C1A6C1A6C1A6B0
:10081000C1A6C1A6C1A6C1A6B8A6F5A5EBA5C1A64D
:10082000EDA5E9A5C1A6C1A6C1A6C1A6C1A6C1A63E
:10083000EFA5C1A6C1A6E7A5C5A606A6C5A6C5A6DD
:10084000C5A6C5A6C5A6C5A6C5A6C5A689A6C5A68C
:10085000C5A6C5A640A620A6C5A6C5A6C5A6C5A66A
:10086000C5A6C5A6C5A6C5A6C5A6C5A6C5A6C5A630
:10087000C5A6C5A6C5A6C5A6C5A606A6C5A6C5A6DF
:10088000C5A6C5A6C5A6C5A6C5A6C5A689A6C5A64C
:10089000C5A6C5A640A620A6585659434320636F57
:1008A0006C6F72696D657472792064617461004E59
:1008B0006F20636F6C6F72696D657472792064610B
:1008C000746100594342435220636F6C6F7220730E
:1008D0007061636500545620666F726D6174203DCF
:1008E0003E20524742206C696D69746564207261D4
:1008F0006E676500504320666F726D6174203D3EE7
:10090000205247422066756C6C2072616E676500EC
:1009100052474220636F6C6F722073706163650091
:10092000556E6B6E6F776E207265736F6C75746940
:100930006F6E00313430307831303530702F3630D2
:10094000487A207265647563656420626C616E6BC1
:10095000696E6700313430307831303530702F3681
:1009600030487A003133363078373638702F3630A9
:10097000487A005755584741203139323078313262
:100980003030702F3630487A005753584120313676
:1009900038307831303530702F3630487A0055474E
:1009A0004120313630307831323030702F36304897
:1009B0007A00535847412031323830783130323460
:1009C000702F3630487A003132383078393630700E
:1009D0002F3630487A005758474120313238307826
:1009E000373638702F3630487A005847412031303A
:1009F000323478373638702F3630487A00535647BD
:100A0000412038303078363030702F3630487A0018
:100A10005647412036343078343830702F363048DD
:100A20007A00313038307831393230702F363048F2
:100A30007A003139323078313038307035392F36EC
:100A400030487A00373230783438306935392F36CB
:100A500030487A00313932307831303830693539C0
:100A60002F3630487A0031323830783732307035AE
:100A7000392F3630487A0037323078343830703594
:100A8000392F3630487A006572726F6E656F7573F4
:100A9000206576656E7420666F72207374616E6473
:100AA000617264206576656E742063616C6C62614E
:100AB000636B005265706561746572207374617454
:100AC0006520352072656163686564003A2077723D
:100AD0006F6E672076616C756500417564696F2083
:100AE0006672657175656E63793A203A20313932E4
:100AF000206B487A00417564696F20667265717574
:100B0000656E63793A203A203137362E34206B48AF
:100B10007A00417564696F206672657175656E63F0
:100B2000793A203A203936206B487A004175646959
:100B30006F206672657175656E63793A203A203868
:100B4000382E32206B487A00417564696F206672D6
:100B5000657175656E63793A203A203438206B48A8
:100B60007A00417564696F206672657175656E63A0
:100B7000793A203A2034342E31206B487A0041757E
:100B800064696F206672657175656E63793A2033AA
:100B900032206B487A0063616C63756C6174696FB5
:100BA0006E206572726F7200417564696F204453E4
:100BB00054207061636B65747300417564696F20C4
:100BC0004F4241207061636B6574730041756469C5
:100BD0006F20484252207061636B657473004175E9
:100BE00064696F2073616D706C65207061636B6503
:100BF0007473004465657020636F6C6F72206D6F55
:100C000064653A2033362062697473004465657008
:100C100020636F6C6F72206D6F64653A20333020F3
:100C200062697473004465657020636F6C6F722035
:100C30006D6F64653A2032342062697473004156E6
:100C4000204D75746520696E616374697665004135
:100C500056206D757465206163746976650044562D
:100C60004920284F45535329206D6F646500454541
:100C70005353206D6F6465006E6F74204844435079
:100C800020656E6372797074656420004844435037
:100C900020656E6372797074656420004456492043
:100CA0006D6F64650048444D49206D6F6465004177
:100CB00075746F6D617469632064657465637469CC
:100CC0006F6E206F66207265736F6C7574696F6EDE
:100CD0003A20004175746F6D6174696320494E500C
:100CE00055542041204C4F434B4544006572726F70
:100CF0006E656F7573206576656E7420666F722001
:100D0000696E666F6672616D652063616C6C6261AD
:100D1000636B0047616D7574206D65746164617407
:100D200061207061636B65747320726563656976B9
:100D3000656400494E464F4652414D453A204D505C
:100D4000454720726563656976656400494E464F84
:100D50004652414D453A20415544207265636569CC
:100D60007665640057726F6E6720636F6C6F72698F
:100D70006D6574727900636F6C6F72696D65747202
:100D8000793A657874656E6465642028787659438D
:100D9000432900636F6C6F72696D657472793A49AB
:100DA000545537303900636F6C6F72696D657472BA
:100DB000793A534D505445203137304D202F20493A
:100DC000545536303100636F6C6F72696D657472A3
:100DD000793A4E6F20646174610057726F6E6720BC
:100DE000636F6C6F7220696E64696361746F720007
:100DF0004675747572650059436243722034343409
:100E00000059436243722034323200524742004359
:100E10006F6C6F722073706163653D004156493A93
:100E20002077726F6E67207061636B6574207479D0
:100E30007065210041564920526563656976656495
:100E400000414350205265636569766564004953EB
:100E50005243322072656365697665640049535276
:100E6000433120726563656976656400496E666F1B
:100E7000206672616D653A2000526563656976652A
:100E80007220413A005377697463682070726F6210
:100E90006C656D004469676974616C204143544915
:100EA00056495459204445544543544544004469E7
:100EB000676974616C204143544956495459204C28
:100EC0004F535400556E6B6E6F776E3A2000423A66
:100ED0002000413A2000496E707574200000EBEB51
:100EE000F3E3E370FF27E554FC4C2FEF3FE52C7F45
:100EF000E217F30758F48EED9DEAAEEBBFEE819357
:100F00009193A193B193E217F307C8F311241FBE85
:100F1000CFEFCDBFDFE5DEBF00E00CBF1EE2A0E0FB
:100F2000B0E2ECE4F6E501E00BBF02C007900D92E1
:100F3000A637B107D9F723E3A6E7BEE201C01D92A9
:100F4000AB3BB207E1F70E94112B0C9424AB58C8BD
:100F5000089580E008953091393320913A33822FFB
:100F600090E00397E1F431111CC080913D339091E2
:100F70003E330497C1F486E79EE280933F3390931B
:100F8000403385ED97E0809343339093443384E07E
:100F900090E0809341339093423381E0089580E064
:100FA000089580E0089580E00895089581E0809399
:100FB000DA2E08950F931F9302EF17E020E430E03C
:100FC0004AE75EE260E085E00E949C241F910F9159
:100FD00008951092DE2E1092DC2E81E08093DA2E9E
:100FE000E9CF0895811101C0E5CF08952BEA37E0DC
:100FF0004CE850E26CED7EE28EED9EE232C0089548
:101000000F931F93CF932091DA2E222329F1CFB78C
:10101000F89420E2EAEBFEE2DF011D922A95E9F75F
:1010200020E2FC01AAEBBEE201900D922A95E1F7C5
:1010300006ED17E020E230E04AEB5EE260E084E893
:101040000E949C2491E089278093DA2ECFBF909153
:10105000DA2E81E0892701C080E0CF911F910F91A6
:101060000895CF93DF93EA014091373344230CF086
:1010700063C0407609F041C0209138332630E9F54D
:101080000E949D18FC012285213299F520913A3366
:101090002132B9F49C01275F3F4F20933F333093B7
:1010A0004033818520913D3330913E3390E02817C5
:1010B000390708F4C901809341339093423381E0AA
:1010C00064C0FC013785231316C0C0933F33D0930F
:1010D00040332089318980913D3390913E332817E8
:1010E000390708F4C901809341339093423381E07A
:1010F0004CC080E04AC080E048C04032E9F5209111
:101100003833223019F0233061F038C080933F33F8
:101110009093403381E090E0809341339093423349
:1011200034C060933F337093403381E090E080930C
:1011300041339093423329C04076403209F54091C3
:1011400038334A3039F04B3059F04930D9F4F9018D
:1011500019951BC020913A33FC01208381E015C012
:1011600080913D3390913E33892B71F480913933D6
:10117000FB01808381E009C080E007C080E005C0FA
:1011800080E003C080E001C080E0DF91CF9108954E
:1011900080E1E0E2F4E08183818184FDFDCFE0E243
:1011A000F4E0648175818681978108951F920F9282
:1011B0000FB60F9211240BB60F922F933F934F93BC
:1011C0005F936F937F938F939F93AF93BF93CF93CF
:1011D000DF93EF93FF93E0E2F4E01282C0910F33CC
:1011E000D0911033209719F0D3DFFE011995FF91AC
:1011F000EF91DF91CF91BF91AF919F918F917F91AF
:101200006F915F914F913F912F910F900BBE0F9077
:101210000FBE0F901F9018951F920F920FB60F924E
:1012200011240BB60F922F933F934F935F936F93BD
:101230007F938F939F93AF93BF93EF93FF93E0912F
:10124000262FF091272F309709F01995FF91EF91F4
:10125000BF91AF919F918F917F916F915F914F91CE
:101260003F912F910F900BBE0F900FBE0F901F90CC
:1012700018951F920F920FB60F9211240BB60F9272
:101280002F933F934F935F936F937F938F939F938E
:10129000AF93BF93EF93FF93E091242FF091252F0D
:1012A000309709F01995FF91EF91BF91AF919F9100
:1012B0008F917F916F915F914F913F912F910F90FF
:1012C0000BBE0F900FBE0F901F9018951F920F929C
:1012D0000FB60F9211240BB60F922F933F934F939B
:1012E0005F936F937F938F939F93AF93BF93EF938E
:1012F000FF93E091222FF091232F309709F0199559
:10130000FF91EF91BF91AF919F918F917F916F91DD
:101310005F914F913F912F910F900BBE0F900FBE99
:101320000F901F9018951F920F920FB60F921124D5
:101330000BB60F922F933F934F935F936F937F93CF
:101340008F939F93AF93BF93EF93FF93E091202FE1
:10135000F091212F309709F01995FF91EF91BF91EE
:10136000AF919F918F917F916F915F914F913F913D
:101370002F910F900BBE0F900FBE0F901F901895DE
:101380001F920F920FB60F9211240BB60F922F934C
:101390003F934F935F936F937F938F939F93AF93FD
:1013A000BF93EF93FF93E0911E2FF0911F2F309783
:1013B00009F01995FF91EF91BF91AF919F918F9196
:1013C0007F916F915F914F913F912F910F900BBE45
:1013D0000F900FBE0F901F9018951F920F920FB68F
:1013E0000F9211240BB60F922F933F934F935F935D
:1013F0006F937F938F939F93AF93BF93EF93FF93DD
:10140000E0911C2FF0911D2F309709F01995FF9155
:10141000EF91BF91AF919F918F917F916F915F916C
:101420004F913F912F910F900BBE0F900FBE0F90D9
:101430001F9018951F920F920FB60F9211240BB6A2
:101440000F922F933F934F935F936F937F938F935D
:101450009F93AF93BF93EF93FF93E0911A2FF09177
:101460001B2F309709F01995FF91EF91BF91AF9124
:101470009F918F917F916F915F914F913F912F91AC
:101480000F900BBE0F900FBE0F901F9018951F92DC
:101490000F920FB60F9211240BB60F922F933F931A
:1014A0004F935F936F937F938F939F93AF93BF936C
:1014B000EF93FF93E091182FF091192F309709F0D7
:1014C0001995FF91EF91BF91AF919F918F917F916E
:1014D0006F915F914F913F912F910F900BBE0F90A5
:1014E0000FBE0F901F9018951F920F920FB60F927C
:1014F00011240BB60F922F933F934F935F936F93EB
:101500007F938F939F93AF93BF93EF93FF93E0915C
:10151000162FF091172F309709F01995FF91EF9141
:10152000BF91AF919F918F917F916F915F914F91FB
:101530003F912F910F900BBE0F900FBE0F901F90F9
:1015400018951F920F920FB60F9211240BB60F929F
:101550002F933F934F935F936F937F938F939F93BB
:10156000AF93BF93EF93FF93E091142FF091152F5A
:10157000309709F01995FF91EF91BF91AF919F912D
:101580008F917F916F915F914F913F912F910F902C
:101590000BBE0F900FBE0F901F9018951F920F92C9
:1015A0000FB60F9211240BB60F922F933F934F93C8
:1015B0005F936F937F938F939F93AF93BF93EF93BB
:1015C000FF93E091122FF091132F309709F01995A6
:1015D000FF91EF91BF91AF919F918F917F916F910B
:1015E0005F914F913F912F910F900BBE0F900FBEC7
:1015F0000F901F9018951F920F920FB60F92112403
:101600000BB60F922F933F934F935F936F937F93FC
:101610008F939F93AF93BF93EF93FF93E091102F1E
:10162000F091112F309709F01995FF91EF91BF912B
:10163000AF919F918F917F916F915F914F913F916A
:101640002F910F900BBE0F900FBE0F901F9018950B
:101650001F920F920FB60F9211240BB60F922F9379
:101660003F934F935F936F937F938F939F93AF932A
:10167000BF93EF93FF93E0910E2FF0910F2F3097D0
:1016800009F01995FF91EF91BF91AF919F918F91C3
:101690007F916F915F914F913F912F910F900BBE72
:1016A0000F900FBE0F901F9018951F920F920FB6BC
:1016B0000F9211240BB60F922F933F934F935F938A
:1016C0006F937F938F939F93AF93BF93EF93FF930A
:1016D000E0910C2FF0910D2F309709F01995FF91A3
:1016E000EF91BF91AF919F918F917F916F915F919A
:1016F0004F913F912F910F900BBE0F900FBE0F9007
:101700001F9018951F920F920FB60F9211240BB6CF
:101710000F922F933F934F935F936F937F938F938A
:101720009F93AF93BF93EF93FF93E0910A2FF091B4
:101730000B2F309709F01995FF91EF91BF91AF9161
:101740009F918F917F916F915F914F913F912F91D9
:101750000F900BBE0F900FBE0F901F9018951F9209
:101760000F920FB60F9211240BB60F922F933F9347
:101770004F935F936F937F938F939F93AF93BF9399
:10178000EF93FF93E091082FF091092F309709F024
:101790001995FF91EF91BF91AF919F918F917F919B
:1017A0006F915F914F913F912F910F900BBE0F90D2
:1017B0000FBE0F901F9018951F920F920FB60F92A9
:1017C00011240BB60F922F933F934F935F936F9318
:1017D0007F938F939F93AF93BF93EF93FF93E0918A
:1017E000062FF091072F309709F01995FF91EF918F
:1017F000BF91AF919F918F917F916F915F914F9129
:101800003F912F910F900BBE0F900FBE0F901F9026
:1018100018951F920F920FB60F9211240BB60F92CC
:101820002F933F934F935F936F937F938F939F93E8
:10183000AF93BF93EF93FF93E091042FF091052FA7
:10184000309709F01995FF91EF91BF91AF919F915A
:101850008F917F916F915F914F913F912F910F9059
:101860000BBE0F900FBE0F901F9018951F920F92F6
:101870000FB60F9211240BB60F922F933F934F93F5
:101880005F936F937F938F939F93AF93BF93EF93E8
:10189000FF93E091022FF091032F309709F01995F3
:1018A000FF91EF91BF91AF919F918F917F916F9138
:1018B0005F914F913F912F910F900BBE0F900FBEF4
:1018C0000F901F9018951F920F920FB60F92112430
:1018D0000BB60F922F933F934F935F936F937F932A
:1018E0008F939F93AF93BF93EF93FF93E091002F5C
:1018F000F091012F309709F01995FF91EF91BF9169
:10190000AF919F918F917F916F915F914F913F9197
:101910002F910F900BBE0F900FBE0F901F90189538
:101920001F920F920FB60F9211240BB60F922F93A6
:101930003F934F935F936F937F938F939F93AF9357
:10194000BF93EF93FF93E091FE2EF091FF2E30971F
:1019500009F01995FF91EF91BF91AF919F918F91F0
:101960007F916F915F914F913F912F910F900BBE9F
:101970000F900FBE0F901F9018951F920F920FB6E9
:101980000F9211240BB60F922F933F934F935F93B7
:101990006F937F938F939F93AF93BF93EF93FF9337
:1019A000E091FC2EF091FD2E309709F01995FF91F2
:1019B000EF91BF91AF919F918F917F916F915F91C7
:1019C0004F913F912F910F900BBE0F900FBE0F9034
:1019D0001F9018951F920F920FB60F9211240BB6FD
:1019E0000F922F933F934F935F936F937F938F93B8
:1019F0009F93AF93BF93EF93FF93E091FA2EF091F3
:101A0000FB2E309709F01995FF91EF91BF91AF919F
:101A10009F918F917F916F915F914F913F912F9106
:101A20000F900BBE0F900FBE0F901F9018951F9236
:101A30000F920FB60F9211240BB60F922F933F9374
:101A40004F935F936F937F938F939F93AF93BF93C6
:101A5000EF93FF93E091F82EF091F92E309709F073
:101A60001995FF91EF91BF91AF919F918F917F91C8
:101A70006F915F914F913F912F910F900BBE0F90FF
:101A80000FBE0F901F9018951F920F920FB60F92D6
:101A900011240BB60F922F933F934F935F936F9345
:101AA0007F938F939F93AF93BF93EF93FF93E091B7
:101AB000F62EF091F72E309709F01995FF91EF91DE
:101AC000BF91AF919F918F917F916F915F914F9156
:101AD0003F912F910F900BBE0F900FBE0F901F9054
:101AE00018951F920F920FB60F9211240BB60F92FA
:101AF0002F933F934F935F936F937F938F939F9316
:101B0000AF93BF93EF93FF93E091F42EF091F52EF6
:101B1000309709F01995FF91EF91BF91AF919F9187
:101B20008F917F916F915F914F913F912F910F9086
:101B30000BBE0F900FBE0F901F9018951F920F9223
:101B40000FB60F9211240BB60F922F933F934F9322
:101B50005F936F937F938F939F93AF93BF93EF9315
:101B6000FF93E091F22EF091F32E309709F0199542
:101B7000FF91EF91BF91AF919F918F917F916F9165
:101B80005F914F913F912F910F900BBE0F900FBE21
:101B90000F901F9018951F920F920FB60F9211245D
:101BA0000BB60F922F933F934F935F936F937F9357
:101BB0008F939F93AF93BF93EF93FF93E091F02E9A
:101BC000F091F12E309709F01995FF91EF91BF91A7
:101BD000AF919F918F917F916F915F914F913F91C5
:101BE0002F910F900BBE0F900FBE0F901F90189566
:101BF0001F920F920FB60F9211240BB60F922F93D4
:101C00003F934F935F936F937F938F939F93AF9384
:101C1000BF93EF93FF93E091EE2EF091EF2E30976C
:101C200009F01995FF91EF91BF91AF919F918F911D
:101C30007F916F915F914F913F912F910F900BBECC
:101C40000F900FBE0F901F9018951F920F920FB616
:101C50000F9211240BB60F922F933F934F935F93E4
:101C60006F937F938F939F93AF93BF93EF93FF9364
:101C7000E091EC2EF091ED2E309709F01995FF913F
:101C8000EF91BF91AF919F918F917F916F915F91F4
:101C90004F913F912F910F900BBE0F900FBE0F9061
:101CA0001F9018951F920F920FB60F9211240BB62A
:101CB0000F922F933F934F935F936F937F938F93E5
:101CC0009F93AF93BF93EF93FF93E091EA2EF09130
:101CD000EB2E309709F01995FF91EF91BF91AF91DD
:101CE0009F918F917F916F915F914F913F912F9134
:101CF0000F900BBE0F900FBE0F901F9018951F9264
:101D00000F920FB60F9211240BB60F922F933F93A1
:101D10004F935F936F937F938F939F93AF93BF93F3
:101D2000EF93FF93E091E82EF091E92E309709F0C0
:101D30001995FF91EF91BF91AF919F918F917F91F5
:101D40006F915F914F913F912F910F900BBE0F902C
:101D50000FBE0F901F9018951F920F920FB60F9203
:101D600011240BB60F922F933F934F935F936F9372
:101D70007F938F939F93AF93BF93EF93FF93E091E4
:101D8000E62EF091E72E309709F01995FF91EF912B
:101D9000BF91AF919F918F917F916F915F914F9183
:101DA0003F912F910F900BBE0F900FBE0F901F9081
:101DB00018951F920F920FB60F9211240BB60F9227
:101DC0002F933F934F935F936F937F938F939F9343
:101DD000AF93BF93EF93FF93E091E42EF091E52E44
:101DE000309709F01995FF91EF91BF91AF919F91B5
:101DF0008F917F916F915F914F913F912F910F90B4
:101E00000BBE0F900FBE0F901F9018951F920F9250
:101E10000FB60F9211240BB60F922F933F934F934F
:101E20005F936F937F938F939F93AF93BF93EF9342
:101E3000FF93E091E22EF091E32E309709F019958F
:101E4000FF91EF91BF91AF919F918F917F916F9192
:101E50005F914F913F912F910F900BBE0F900FBE4E
:101E60000F901F9018951F920F920FB60F9211248A
:101E70000BB60F922F933F934F935F936F937F9384
:101E80008F939F93AF93BF93EF93FF93E091E02ED7
:101E9000F091E12E309709F01995FF91EF91BF91E4
:101EA000AF919F918F917F916F915F914F913F91F2
:101EB0002F910F900BBE0F900FBE0F901F90189593
:101EC0001F93CF93DF93CDB7DEB7C259D109CDBFF2
:101ED000DEBFCE0101968093D1209093D22043E0C3
:101EE00050E060E280E096E0B4D348E150E068E082
:101EF00080E696E0AED38091282F811130C080EF2C
:101F000099E4A2E0B0E0C657DF4F88839983AA83A3
:101F1000BB83CA58D04088E4CE56DF4F8883C2596D
:101F2000D0408BE490E0A0E0B0E0C257DF4F888360
:101F30009983AA83BB83CE58D04060E483E032D338
:101F4000BE0166577F4F80E894E00E94D01D81114A
:101F500004C081E08093282F02C080E009C280E2A3
:101F6000E0E0F6E0868380E090E00196803E2EE29D
:101F70009207D9F780E2E0E0F6E0858380E89AE115
:101F8000A6E0B0E00197A109B1090097A105B1054C
:101F9000C9F725E6E0E6F6E00AC0215009F4C5C11C
:101FA00080E090E00196803A3FE09307D9F7808582
:101FB00083FDF3CF1092CF201092D02082E090E0EA
:101FC0008093D3209093D42041E06BEC70E280E8C2
:101FD00094E00E94E51D8111AAC181E08093CC208C
:101FE00082E090E08093CF209093D0208EE190E02B
:101FF0008093D3209093D42010E0E0E6F6E00BC06D
:102000001F5F153609F495C180E090E00196803A93
:102010002FE09207D9F7808583FFF2CF41E06BEC88
:1020200070E280E894E00E94E51D811184C180E0A7
:1020300090E00196803E3EE29307D9F789E1E0E126
:10204000F2E2DE015F9601900D928A95E1F7BE0102
:10205000685C7F4F8BE0FB0111928A95E9F788E479
:1020600088AF85E089AF82E090E08CAF9DAFCE0174
:102070004F968EAF9FAF89E190E022968EAF9FAFD3
:10208000229740E080E894E00E94E51D811155C14F
:10209000CE018D5B9F4F22E1E9E2F2E2DC0101908B
:1020A0000D922A95E1F725E029AF1AAE22E030E043
:1020B0002CAF3DAF28E428AF8EAF9FAF82E190E018
:1020C00022968EAF9FAF229740E0BE01685C7F4FA3
:1020D00080E894E00E94E51D811131C1CE018B5A48
:1020E0009F4F25E0EBE3F2E2DC0101900D922A958F
:1020F000E1F78EAF9FAF85E090E022968EAF9FAF65
:10210000229740E0BE01685C7F4F80E894E00E9427
:10211000E51D811116C1CE01865A9F4F2CE0E0E4E7
:10212000F2E2DC0101900D922A95E1F725E029AF5A
:102130001AAE22E030E02CAF3DAF28E428AF8EAFDE
:102140009FAF8CE090E022968EAF9FAF229740E049
:10215000BE01685C7F4F80E894E00E94E51D81111C
:10216000F2C0E0E6F6E00BC01F5F153608F0EDC0E8
:1021700080E090E00196803A2FE09207D9F78085C1
:1021800083FDF2CF1092CF201092D02086E090E015
:102190008093D3209093D42041E06BEC70E280E8F0
:1021A00094E00E94E51D8111D2C0CE018A599F4F53
:1021B00022E1ECE4F2E2DC0101900D922A95E1F7D4
:1021C00025E029AF1AAE22E030E02CAF3DAF28E485
:1021D00028AF8EAF9FAF82E190E022968EAF9FAF87
:1021E000229740E0BE01685C7F4F80E894E00E9447
:1021F000E51D8111AEC0E0E6F6E00BC01F5F1536AD
:1022000008F0A9C080E090E00196803A3FE0930793
:10221000D9F7808583FDF2CF1092CF201092D02085
:1022200086E090E08093D3209093D42041E06BEC43
:1022300070E280E894E00E94E51D81118EC0CE011D
:1022400088589F4F22E1EEE5F2E2DC0101900D9209
:102250002A95E1F725E029AF1AAE22E030E02CAF55
:102260003DAF28E428AF8EAF9FAF82E190E0229689
:102270008EAF9FAF229740E0BE01685C7F4F80E841
:1022800094E00E94E51D81116AC0E0E6F6E00BC013
:102290001F5F153608F065C080E090E00196803A37
:1022A0002FE09207D9F7808583FDF2CF1092CF20DF
:1022B0001092D02086E090E08093D3209093D42099
:1022C00041E06BEC70E280E894E00E94E51D811132
:1022D0004AC01092CF201092D02086E090E08093E8
:1022E000D3209093D42041E06BEC70E280E894E03E
:1022F0000E94E51D811139C01092CF201092D0208C
:1023000086E090E08093D3209093D42041E06BEC62
:1023100070E280E894E00E94E51D811128C081E010
:10232000809311331092123323C080E021C080E0EB
:102330001FC080E01DC080E01BC080E019C080E0AD
:1023400017C080E015C080E013C080E011C080E0BD
:102350000FC080E00DC080E00BC080E009C080E0CD
:1023600007C080E005C080E003C080E001C080E0DD
:10237000CE56DF4FCDBFDEBFDF91CF911F910895C5
:10238000CF93DF93CDB7DEB76097CDBFDEBFE0E67A
:10239000F6E0808583FD2EC01092CF201092D020D1
:1023A00080E190E08093D3209093D420CE010196D9
:1023B0008093D1209093D22041E06BEC70E280E8D2
:1023C00094E00E94E51D8C818093123388E0FE0129
:1023D0003796A3E1B3E301900D928A95E1F7E0E629
:1023E000F6E0808583FFFDCF81E193E30E94000842
:1023F00081E001C080E06096CDBFDEBFDF91CF916C
:102400000895CF93DF93CDB7DEB7E797CDBFDEBF9B
:1024100026E1E0E7F2E2CE010196DC0101900D92A7
:102420002A95E1F7BE01695E7F4F2BE0FB01119217
:102430002A95E9F728E42F8B25E0288F22E030E069
:102440002B8F3C8F8D8F9E8F86E190E08F8F98A38E
:1024500040E080E894E00E94E51D81112AC086E1F9
:10246000E6E8F2E2DE01929601900D928A95E1F79C
:1024700085E0888F198E82E090E08B8F9C8F88E4B6
:102480008F8BCE0182968D8F9E8F86E190E08F8F0D
:1024900098A340E0BE01695E7F4F80E894E00E940F
:1024A000E51D811108C081EC92E20E94602781E065
:1024B00003C080E001C080E0E796CDBFDEBFDF91C2
:1024C000CF910895CF93DF9300D01F92CDB7DEB7A1
:1024D0008FEF8093700080937100809372008093DF
:1024E000730080937400809375008093760064E09D
:1024F00081E490E00E94B61B6CE170E082E00E94F3
:10250000931C8A836DE170E082E00E94931C8983B2
:1025100089819A81019621F480E493E289839A83E8
:1025200089819A818B839C83E0E6F0E082838C81B1
:1025300083838FB7F894E0E5F0E090819260908318
:102540008FBF818181FFFDCF8FB7F894A0E5B0E008
:1025500016969C911697997F16969C931697E0E68F
:10256000F0E090E895839BEB968316969C911697E6
:10257000946016969C939081916090838FBF61E0E8
:1025800080E490E00E94B61B8FB7F894E0E5F0E09D
:1025900090819E7F90838FBF2496CDBFDEBFDF9159
:1025A000CF9108959FB7F894E82FF0E0E059FF4FDE
:1025B00060958081682360839FBF08959FB7F894DA
:1025C000E82FF0E0E059FF4F8081682B60839FBFC8
:1025D0000895863011F468E101C060E0E0E5F0E0C4
:1025E000818181FD24C08FB7F8949081926090839F
:1025F0008FBF818181FFFDCF8FB7F894A0E5B0E058
:1026000016969C911697997F16969C931697E0E6DE
:10261000F0E090E895839BEB968316969C91169735
:10262000946016969C939081916090838FBF6360B5
:1026300084E490E00E94B61B60E480E0B3CF08958C
:1026400060E480E0BBDF60E084E490E00C94B61BC3
:102650000895CF93DF93FC01709620E030E0C62F01
:10266000D0E0DE01022E02C0B595A7950A94E2F7EC
:10267000A0FD50832F5F3F4F31962830310589F7F9
:1026800040FF0AC041FF03C0FC01658302C0FC019A
:102690006683FC01618302C0FC016283DF91CF91FC
:1026A0000895CF93DF93EC01C03C28E0D20721F4DA
:1026B00068E083E077DF06C0803C994019F468E069
:1026C00084E070DF888180618883DF91CF910895F5
:1026D000FF920F931F93CF93DF93EC01F42EB90178
:1026E000A80100E016E32EE631E00E949D1C88233D
:1026F0004CF088819F2D990F990F9C70837FF92E44
:10270000F82AF882DF91CF911F910F91FF900895E1
:10271000FB018081E82FE695E695E69540E2E49F8F
:10272000F0011124FA5F877021E030E0A90102C0B6
:10273000440F551F8A95E2F746830895FB01808177
:10274000E82FE695E695E69540E2E49FF001112436
:10275000FA5F877021E030E0A90102C0440F551FE5
:102760008A95E2F745830895089508950895089598
:102770000895089508950895089508950895089571
:1027800080914030815080934030089580E00895DA
:1027900080E008956FE470E380E00C94DCA6089577
:1027A0001092403010924C3010924D3081EA80935C
:1027B000423080E280934330109244301092453092
:1027C000109246301092473082E090E0809348307B
:1027D0009093493010924A3010924B3080E092EC46
:1027E000A1E0B0E080934F3090935030A0935130EF
:1027F000B0935230109253301092543088E080934E
:1028000055306FE470E380E00E94DCA680E00E9417
:102810008A2B882329F0909140309F5F909340301D
:102820000895FF920F931F93CF93DF9380912D2FE5
:1028300081119CC00E94DD23882351F0C0912E2F6E
:10284000D0912F2F0E94EA23C817D90759F48EC0C0
:10285000C0912E2FD0912F2F0E94E523C817D907A2
:1028600009F484C0DFB7F894C091302FEC2FF0E06A
:10287000EE0FFF1FEF5CF04D80819181892B09F5F0
:1028800080912A2F90912B2F019680932A2F90933D
:102890002B2F0E94DD23811107C080912A2F909158
:1028A0002B2F8436910558F00E94DD23882349F0B0
:1028B00080912A2F90912B2F8032934010F4DFBF0C
:1028C00055C010922A2F10922B2F80912C2F8111FE
:1028D00006C081E0C11180E08093302F04C081E008
:1028E000C11180E0C82F81E080932D2FDFBFD0E0A1
:1028F000FE01EE0FFF1FEF5CF04DFF24F39480818B
:1029000091818034910509F4F12CFF2091F00E940F
:10291000DD23882339F00E94EA2380932E2F9093A1
:102920002F2F0BC00E94E52380932E2F90932F2FE3
:1029300004C010922E2F10922F2FFE01EE0FFF1FBA
:10294000EF5CF04D20813181AE0100245695479512
:102950000794569547950794542F402D4A5C504D47
:102960000CEB14E16F2D81E80E949C24DF91CF9144
:102970001F910F91FF900895811115C02091302F64
:1029800081E090E0222311F080E090E0FC01EE0F66
:10299000FF1FEF5CF04D1082118210922C2F1092CD
:1029A0002D2F80E03ECF089580E03BCF08950F9318
:1029B0001F93862F90914E3091111EC040914C3044
:1029C00050914D3020914A3030914B30421753078F
:1029D00099F020914C3030914D3020934A30309313
:1029E0004B300FE115E12AE030E042E450E360E0D3
:1029F0000E949C2480934E301F910F9108952FB711
:102A0000F894662359F080914C3090914D30482BCA
:102A1000592B40934C3050934D300CC080914C302A
:102A200090914D30409550954823592340934C3018
:102A300050934D302FBF63E880E0B9CF08951092D6
:102A40004E3080914C3090914D30837880934C3053
:102A500090934D30EAE4F0E3808191818378808324
:102A60009183642F80E0A3CF089580913F308150FF
:102A700080933F3080913F300E94912B10923E30E6
:102A80000895809137338823ECF48076803209F002
:102A900045C080913833813209F042C080913D3386
:102AA00090913E330797F1F58FE490E380933F33A5
:102AB0009093403387E090E080934133909342338A
:102AC00081E008958076803279F5809138338032C4
:102AD00019F08232D9F02AC080913D3390913E3373
:102AE000079731F58AEC93E1809343339093443315
:102AF0008FE490E380933F339093403387E090E0FE
:102B0000809341339093423381E00895609139334B
:102B1000617080E00E94962B81E0089580E0089526
:102B200080E0089580E0089580E0089580E00895B1
:102B300080E0089540E150E061E080E060CF0895DA
:102B400040E450E061E080E05ACF08954FB7F89438
:102B50002091B72F3091B82FE091B92FF0E0EE0F10
:102B6000FF1FE654F04D80819181821B930B4FBF74
:102B70000895ECDF21E0892B09F420E0822F0895ED
:102B80000F931F93CF93DF934FB7F8945091B92FC2
:102B90008091B62F811110C02091B72F3091B82F9E
:102BA000C52FD0E0FE01EE0FFF1FE654F04D8081EF
:102BB00091812817390718F44FBF80E028C0109280
:102BC000B72F1092B82F81E0511180E08093B92F78
:102BD00081E08093B62F4FBF80E0CBDF882319F0D0
:102BE00080E00E945BA7AE010024569547950794AC
:102BF000569547950794542F402D4254504D0EE35F
:102C000016E120E430E061E082E00E949C24DF9144
:102C1000CF911F910F91089510923F3010922D2F58
:102C200010922C2F1092302F1092312F1092322FA1
:102C30001092332F1092342F10922E2F10922F2F8C
:102C400080E0EFDD1092B62F1092B92F1092BA2FBC
:102C50001092BB2F1092B72F1092B82F80E090DF08
:102C6000882359F090913F309F5F90933F3090912F
:102C70003F30913011F490933E3008950F931F939D
:102C8000942F811129C08091B92FE1E08111E0E0FA
:102C900061157105B1F4F0E00024F695E79507940D
:102CA000F695E7950794FE2FE02DAF014254504D65
:102CB0000EE316E120E430E061E0892F0E949C24BD
:102CC0000BC0F0E0EE0FFF1FE654F04D6083718300
:102CD0001092B62F80E054DF1F910F91089580E08D
:102CE00048CF08951F93CF93DF9311E08091553023
:102CF000893009F010E060E070E03FB7F89480910F
:102D0000B72F9091B82F2091B92F3FBF30E0F90134
:102D1000EE0FFF1FE654F04D408151818417950757
:102D200030F080913E308111E8CF90E020C0F90171
:102D30000024F695E7950794F695E7950794FE2FFE
:102D4000E02DE80FF91FE254F04D2081EB01C22B7A
:102D500001968093B72F9093B82F80E011DF112355
:102D600021F07C2F662710E0C8CF8C2F9D2FDF919C
:102D7000CF911F91089580E0B5CF08955FB7F89483
:102D80002091302FE22FF0E0EE0FFF1FEF5CF04DAF
:102D90008081918141E0211140E0E42FF0E0EE0FCD
:102DA000FF1FEF5CF04D208131818034910589F463
:102DB00060912D2F61110DC060912C2F611109C000
:102DC00081E080932C2F4093302F20E430E080E08E
:102DD00090E05FBF280F391F80E890E0821B930BC3
:102DE0000895CCDF21E0892B09F420E0822F08959B
:102DF00080E0F7CF08951F93CF93DF93162FC72F4F
:102E0000D1E080915530893009F0D0E080E0E9DFF1
:102E1000811107C080913E308111F8CF80E090E0B1
:102E20002BC06FB7F8942091302F30E0F901EE0FEE
:102E3000FF1FEF5CF04D80819181AC014F5F5F4FD0
:102E400040835183F9010024F695E7950794F695A0
:102E5000E7950794FE2FE02D8E0F9F1FFC01EA5C83
:102E6000F04D10836FBFDD2329F01C2FCC0FCC0B4E
:102E7000D0E0CCCF81E090E0DF91CF911F91089519
:102E8000BC0180E0B8CF08957F928F929F92AF925D
:102E9000BF92CF92DF92EF92FF920F931F93CF9347
:102EA000DF936B018A0180915530893011F4000F56
:102EB000111F6894AA24A6F8B12C80E092DF81113A
:102EC00007C080913E308111F8CF802F912F38C0FC
:102ED0007FB6F8948090302F912CF401EE0FFF1FF5
:102EE000EF5CF04DE080F180C5018E199F09E8018B
:102EF0008017910708F4EC01C4010024969587958A
:102F00000794969587950794982F802D8E0D9F1D79
:102F1000AE01B6018A5C904D0E942FA8F401EE0F1D
:102F2000FF1FEF5CF04DEC0EFD1EE082F1827FBED4
:102F3000CC0EDD1E0C1B1D0B09F0BFCF80E090E016
:102F4000DF91CF911F910F91FF90EF90DF90CF9085
:102F5000BF90AF909F908F907F900895AB01BC0180
:102F600080E092CF0895E0915B30F0915C30019069
:102F7000F081E02D228133812E0F3F1FFC01408123
:102F8000E40FF11DE217F307A0F481818430A1F072
:102F9000861306C014C081818430A1F08617A9F081
:102FA0008081E80FF11DE217F307A8F380E090E0BD
:102FB000089580E090E0089580E090E008958E2FDD
:102FC0009F2F089580E090E008958E2F9F2F089501
:102FD000809139338F770C94DF23089590915D3081
:102FE000992381F1E0915B30F0915C300190F081A8
:102FF000E02D9481891740F5E0935930F0935A30D1
:10300000228133812E0F3F1FE217F307F8F49181DD
:10301000943061F49281981309C09381961306C08D
:10302000E0935930F0935A3081E008959081E90F90
:10303000F11DE217F30758F3E0935930F0935A303B
:1030400080E0089580E0089580E0089580E008958C
:10305000FF920F931F93CF93DF93C82F60E0BEDFE3
:10306000F82E882381F1A0915B30B0915C30EC2F79
:10307000F0E0EE0FFF1F12962D913C911397E20F97
:10308000F31F00811181D8011696ED91FC911797DD
:103090001995682F8C2FA2DFF82E8823A1F0C091FC
:1030A0005930D0915A3065E0CE015DDFEC010097D8
:1030B00021F08A810E945D25F6CFD8011296ED910C
:1030C000FC91139719958F2DDF91CF911F910F913F
:1030D000FF9008951F93CF93DF93182F7FDF8823EE
:1030E00041F1C0915930D0915A3065E0CE013BDFBB
:1030F000EC01009749F04C815D816B818A810E94CF
:10310000F6238111F2CF15C0A0915B30B0915C30F5
:10311000812F90E0880F991F1296ED91FC911397E3
:10312000E80FF91F0190F081E02D0190F081E02D72
:103130001995DF91CF911F91089580915930909109
:103140005A3008950C9467230895CF9380915D3091
:103150008823C1F0E0915B30F0915C300190F08108
:10316000E02D8481882371F0C0E08C2F71DFCF5F68
:10317000E0915B30F0915C300190F081E02D848132
:10318000C81798F310925D3081E090E080935E3034
:1031900090935F30CF9108950E942A23D6CF08954F
:1031A000CF9380915D30882341F1E0915B30F091C5
:1031B0005C30A081B18114968C918823F1F0C0E03D
:1031C0008C2F90E0880F991F0280F381E02DE80F8B
:1031D000F91F0190F081E02D0084F185E02D3097FA
:1031E00009F01995CF5FE0915B30F0915C30A081E0
:1031F000B18114968C91C81718F3CF910895EF926E
:10320000FF920F931F93CF93DF931092413310924D
:10321000423310924333109244331092453310924C
:1032200046332091373322230CF085C280913D3301
:1032300090913E33009709F083C279C22F7109F053
:10324000A4C030913833363089F0383009F491C059
:1032500031119BC0029741F462E070E08EE590E38B
:103260000E94ED2301E0E6C100E0E4C12091393382
:1032700030913A33832F99278230910581F0833042
:10328000910579F1019709F06CC08091002090912F
:103290000120DC016C9170E00E94ED2351C0E091AF
:1032A0000020F09101208189281708F05CC0C90135
:1032B0009927880F991F880F991FE0910220F0919C
:1032C0000320E80FF91F80819181FC0162817381E5
:1032D0000E94ED23E0913F33F091403382E08183FF
:1032E0002FC033272130310589F048F022303105D5
:1032F00009F42BC22330310509F42BC236C064E037
:1033000070E088E091E20E94ED231AC08FEF90E216
:1033100027E0382FACEEB0E2E82FF92F819190E052
:103320008D939D938E2F831B8217C0F3220F62E033
:10333000620F6093EA2070E08AEE90E20E94ED2333
:1033400080913D3390913E3320914133309142330F
:103350008217930760F4809341339093423301E0E6
:1033600069C100E067C100E065C100E063C101E040
:1033700061C1019741F461E070E08DE590E30E9446
:10338000ED2301E057C100E055C1213009F040C0F4
:10339000309138333A30E1F50197A1F580915D30F5
:1033A000882391F1C0913B33D0913C33E0905B3066
:1033B000F0905C30D701ED91FC918481C81730F515
:1033C00060E08C2F0BDE082F882309F433C1CE0177
:1033D0009927880F991FD7011296ED91FC911397A9
:1033E000E80FF91F0190F081E02D0680F781E02DB4
:1033F00019958093583061E070E088E590E30E9471
:10340000ED2318C100E016C100E014C100E012C1B4
:10341000223009F011C120913833211106C10297E1
:1034200089F480913B330E94572490E0809356307A
:103430009093573062E070E086E590E30E94ED23C0
:1034400001E0F8C000E0F6C02F7109F091C0809152
:103450003833833009F4EBC018F48130B1F088C000
:10346000853019F0893061F183C080913D339091AE
:103470003E33892B41F488EE97E180934333909358
:10348000443301E0D7C000E0D5C080913D33909136
:103490003E33892B89F48091393390913A330197E7
:1034A00069F480915E3090915F308D7F80935E30C3
:1034B00090935F3001E0BEC000E0BCC000E0BAC045
:1034C00080913D3390913E33892B09F047C00E9493
:1034D000E223882309F444C02091393330913A33F0
:1034E0003327E0910020F0910120818990E082173C
:1034F0009307C0F12ADE8091393390913A3380935B
:103500005D30882389F199278150904C880F991F4D
:10351000880F991FE0910220F0910320E80FF91F16
:10352000E0935B30F0935C300190F081E02D84817A
:103530008823E1F0C0E060E08C2FCCDD082F8823E9
:1035400009F478C0CF5FE0915B30F0915C3001907E
:10355000F081E02D8481C81770F36CC000E06AC070
:1035600000E068C000E066C001E064C001E062C045
:10357000213009F5809138338B30E9F480913D3367
:1035800090913E33892B99F480915D30882389F0A6
:10359000C0913B33D09139338C2F5ADD082F8823CB
:1035A00009F448C06D2F8C2F95DD082F43C000E033
:1035B00041C000E03FC0223009F03EC08091383366
:1035C000813019F08330B9F034C080913D3390914F
:1035D0003E33892B61F48091393390913A33892BB2
:1035E00041F480913B330E947224082F23C000E0F5
:1035F00021C000E01FC080913D3390913E33892B64
:1036000081F48091393390913A33892B61F4CBE383
:10361000D3E388810E94242588810E947A25082F7F
:1036200009C000E007C000E005C000E003C000E002
:1036300001C000E0011191C0809137338F7181305A
:10364000C1F580915D308823A1F1C0913B33D091C9
:103650003C3300915B3010915C30D801ED91FC91CE
:103660008481C81730F560E08C2FB8DC882309F11D
:10367000CE019927880F991FD8011296ED91FC91E0
:103680001397E80FF91F00811181D8011696ED916B
:10369000FC9117971995682F8C2FA0DC882349F08F
:1036A000D8011496ED91FC9115971995082F811169
:1036B00054C0809137338F718230D9F580915D305D
:1036C000882389F1E0915B30F0915C30A081B18179
:1036D00014968C91882349F110E0212F30E0220FBD
:1036E000331F0280F381E02DE20FF31FC081D181EF
:1036F000EE81FF811995682F812F70DC082F8823B8
:1037000061F1EC81FD811995082F811126C01F5FA1
:10371000E0915B30F0915C30A081B18114968C9186
:103720001817D8F21AC000E018C000E016C000E078
:1037300014C000E012C0822F807609F07DCF84CEC5
:10374000322F307609F078CF79CD24E08AEF90E2FD
:10375000E0CD27E080ED92E2DCCD802FDF91CF91AC
:103760001F910F91FF90EF90089508951BBEFC01EB
:1037700028ED24BF60830895E0ECF1E02785222343
:10378000ECF3ECECF1E0208128602083DC01B05FF9
:103790008C919081977F90830895E0ECF1E087858C
:1037A0008823ECF3E0ECF1E0878581FF06C086E337
:1037B000828761E08BEC91E0D9CF0895E0ECF1E0F5
:1037C00097859923ECF3ECECF1E09081986090837D
:1037D000A82FB0E0B05F6C938081877F80830895CD
:1037E000FF920F931F93CF93DF93182FF92EC62FBD
:1037F000E0ECF1E00285D1DFE0ECF1E02785222367
:10380000ECF36C2F812FDADFC0ECD1E01A82F98261
:10381000188385E38A8761E08BEC91E0A7DF0A8754
:10382000DF91CF911F910F91FF900895EF92FF923A
:103830000F931F93CF93DF938C01E0ECF1E087852A
:103840008823ECF3780180E2E80EF11CE8018C2F6C
:10385000801B6991B3DFCE15DF05C9F7DF91CF91EA
:103860001F910F91FF90EF9008951F93CF93DF93D7
:10387000E0ECF1E097859923ECF320E2829FC00110
:103880001124C0ECD1E01A82998388831A8585E3DC
:103890008A8761E08BEC91E069DF1A87DF91CF9135
:1038A0001F910895CF92DF92EF92FF920F931F9393
:1038B000CF93DF93EC017B018A014115510551F152
:1038C000CE018F719927892BB1F40032110598F040
:1038D000C701ACDFCE0196958795929582958F7042
:1038E00089279F708927C1DFA09680E2E80EF11C2E
:1038F000005211090CC06E01EFEFCE1ADE0AF7017B
:1039000061917F01CE016CDF01501109E6010115C3
:103910001105B1F6DF91CF911F910F91FF90EF90BC
:10392000DF90CF9008954091CA01E62FF72F809342
:10393000CA0184914093CA010895CF92DF92EF9219
:10394000FF920F931F93CF93DF93EC016A017B01EA
:10395000DB01CA010197A109B109BC01CD01600FCA
:10396000711F821F931FA70196010E94FAA7213899
:10397000310541055105F8F4213460F4213260F439
:10398000213160F4293060F4253060F4233060F098
:1039900090E00BC093E009C092E007C092E805C038
:1039A00091E003C091E801C090E888818C77892B71
:1039B000888381E001C08FEFDF91CF911F910F913C
:1039C000FF90EF90DF90CF900895CF93DF93E09139
:1039D0006030F0916130848183FF08C08860848307
:1039E00083E0838386EF80936A3089C0982F947137
:1039F00031F083E083838FEF80936A3080C086FF4D
:103A000045C0A0916230B091633080916430909154
:103A1000653014962D913C911597821793076CF49D
:103A20009C012F5F3F4F2093643030936530A80F87
:103A3000B91F11968C91878362C0809166309091F6
:103A4000673018962D913C91199782179307C8F407
:103A500020916830222321F08681816086834FC0C7
:103A600016962D913C911797AC014F5F5F4F409395
:103A7000663050936730D901A80FB91F8C918783A6
:103A80003EC083E0838310926A3039C08823A4F556
:103A9000A0916230B0916330809166309091673030
:103AA00018962D913C91199782179307F8F4169662
:103AB0004D915C9117979C012F5F3F4F209366308B
:103AC000309367306781EA01C80FD91F6883189661
:103AD0008D919C9119972817390718F482E08383F8
:103AE0000EC087E0838310926A3009C083E083832D
:103AF00089EF80936A3003C08BEF80936A30DF9147
:103B0000CF9108951F920F920FB60F9211240BB60A
:103B10000F922F933F934F935F936F937F938F9366
:103B20009F93AF93BF93EF93FF934FDFFF91EF917D
:103B3000BF91AF919F918F917F916F915F914F91C5
:103B40003F912F910F900BBE0F900FBE0F901F90C3
:103B500018951F920F920FB60F9211240BB60F9269
:103B60002F933F934F935F936F937F938F939F9385
:103B7000AF93BF93EF93FF9328DFFF91EF91BF9136
:103B8000AF919F918F917F916F915F914F913F91F5
:103B90002F910F900BBE0F900FBE0F901F90189596
:103BA000FC01DB0114968C91858388EB818381E095
:103BB00084831092693010926A30E0EAF0E08281EA
:103BC00082608283789480E00895009709F453C05E
:103BD0006115710509F451C0FB01328520916930EE
:103BE00002C031114CC02111FCCF2FB7F89431E045
:103BF0003093693030E830936A302FBF8093603063
:103C000090936130609362307093633010926430AF
:103C10001092653010926630109267304093683091
:103C2000FB012081522F550F24813581232B11F464
:103C3000411103C0FC01568303C05160FC0156834F
:103C4000EAE6F0E380818038E9F3E0916030F091BA
:103C5000613084818370813049F0A0E6B0E3ED915A
:103C6000FC911197848183708130C9F780916A300B
:103C700010926930089588EF089588EF089586EFCF
:103C80000895FC01818185FFFDCF608380E090E095
:103C90000895FC0181818823ECF7808108954F927B
:103CA0005F926F927F928F929F92AF92BF92CF92CC
:103CB000DF92EF92FF920F931F93CF93DF93EC016C
:103CC0004A015B0128013901D901C801689412F841
:103CD000B695A795979587951694D1F7B901A80140
:103CE000032E36E176956795579547953A95D1F726
:103CF000302D2C8122FD08C0B695A7959795879504
:103D0000769567955795479588159905AA05BB053A
:103D100008F4A6C084169506A606B70608F4A2C045
:103D20008C8182FD04C0880C991CAA1CBB1CC30199
:103D3000B201A50194010E94FAA72F3F3105410568
:103D4000510508F491C0C12CD12C7601CA9419EF09
:103D500005C02C153D054E055F0568F0CC0CDD1C3B
:103D6000EE1CFF1C1D3F14F46894C0F81F5F173051
:103D700081F7212F50C0212F11230CF04CC0D50109
:103D8000C401880F991FAA1FBB1F880F991FAA1F64
:103D9000BB1F880F991FAA1FBB1F481A590A6A0A1E
:103DA0007B0A1E3FF4F46DEF7FEF611B710917FD75
:103DB000739504C0440C551C661C771C6A95D2F799
:103DC000D501C401B695A79597958795BC01CD01FE
:103DD000640D751D861D971DA50194010E94FAA70B
:103DE00036C023E0210FD501C40104C0880F991FFC
:103DF000AA1FBB1F2A95D2F79C01AD01B695A795C6
:103E000097958795BC01CD01640D751D861D971D85
:103E10000E94FAA71CC02D5FD501C40104C0880F01
:103E2000991FAA1FBB1F2A95D2F79C01AD01B69519
:103E3000A79597958795BC01CD01640D751D861DCD
:103E4000971D0E94FAA72150310941095109832F7A
:103E50008F701295107F182B1F832E8381E018C05E
:103E600080E016C080E014C0D501C401880F991FFE
:103E7000AA1FBB1F880F991FAA1FBB1F880F991F5E
:103E8000AA1FBB1F481A590A6A0A7B0A19EF8BCF6F
:103E9000DF91CF911F910F91FF90EF90DF90CF9026
:103EA000BF90AF909F908F907F906F905F904F905A
:103EB00008950F931F93CF93DF93EC018B0100972D
:103EC00009F403C1803C910529F460E180E00E947F
:103ED000D212FBC0C03881E0D80729F462E080E04C
:103EE0000E94D212F2C0C115E1E0DE0729F461E0C0
:103EF00080E00E94D212E9C0C038F3E0DF0729F465
:103F000061E081E00E94D212E0C0C03983E0D807AE
:103F100029F461E082E00E94D212D7C0C115E2E02C
:103F2000DE0729F462E081E00E94D212CEC0C034E4
:103F3000F2E0DF0729F462E082E00E94D212C5C0FD
:103F4000C03283E0D80729F464E082E00E94D212F4
:103F5000BCC0C115E8E0DE0729F461E083E00E94FF
:103F6000D212B3C0C115F9E0DF0729F461E084E0A3
:103F70000E94D212AAC0C1158AE0D80729F461E0D4
:103F800085E00E94D212A1C0C115EBE0DE0729F442
:103F900061E086E00E94D21298C0C034F8E0DF07EA
:103FA00029F462E083E00E94D2128FC0C03489E01D
:103FB000D80729F462E084E00E94D21286C0C0349F
:103FC000EAE0DE0729F462E085E00E94D2127DC0BB
:103FD000C039F8E0DF0729F464E083E00E94D212E0
:103FE00074C0C03989E0D80729F464E084E00E94F5
:103FF000D2126BC0C039EAE0DE0729F464E085E044
:104000000E94D21262C0C039FBE0DF0729F464E0ED
:1040100086E00E94D21259C0C03C88E0D80729F43B
:1040200068E083E00E94D21250C0C03CE9E0DE07A5
:1040300029F468E084E00E94D21247C0C03AF8E058
:10404000DF0729F460E183E00E94D2123EC0C03A4B
:1040500089E0D80729F460E184E00E94D21235C0DB
:10406000C03AEAE0DE0729F460E185E00E94D2125E
:104070002CC0C03AFBE0DF0729F460E186E00E9433
:10408000D21223C0C03B88E0D80729F460E283E065
:104090000E94D2121AC0C03BE9E0DE0729F460E2B8
:1040A00084E00E94D21211C0C038F4E0DF0729F486
:1040B00060E483E00E94D21208C0C03A84E0D807CE
:1040C00021F460E485E00E94D2128D818F738D838C
:1040D000F80194818581892B9681992311F098E0CC
:1040E00001C090E0892B8D83F8014081518162816C
:1040F000738100E016E32EE631E0CE01D0DD9C8135
:1041000098609C839C8190619C83DF91CF911F91EB
:104110000F910895811118C09091C832992389F0A8
:104120009FB7F894E2E3F3E32081215020839FBFFF
:1041300008C09FB7F894E2E3F3E320812F5F208368
:104140009FBF8093C83208959091C832992389F314
:10415000F8CF0F93E8ECF4E080818F7D808380813D
:104160008F7D8083ECE6F2E302E0059310926E32DD
:1041700010926F3200E2069300E40693E4E6F2E365
:1041800000E2069300E40693109243331092443306
:1041900010924533109246331092413310924233BD
:1041A00010924A320F9108950F9385E080934A321E
:1041B000EDE6F2E304E00593E5E6F2E304E00593BF
:1041C0000F9108950F9383E080934A3210926E32DC
:1041D00010926F32ECE6F2E302E006930F9108953D
:1041E000E0914333F0914433309709F019950895E5
:1041F0000F93CF93DF9380914A32833019F4F0DF2D
:10420000A8DF60C08091463290914732C09141331F
:10421000D0914233C81BD90B71F5209148323091AF
:104220004932820F931F80934832909349322091F4
:104230003D3330913E338217930721F080916B30EC
:10424000882341F084E080934A32E4E6F2E302E01E
:10425000069338C0E0914533F0914633309799F09A
:104260001995882381F01092463210924732C091FE
:104270004133D0914233C034D10528F010926B30D5
:10428000C0E4D0E003C081E080936B30C0936E3215
:10429000D0936F32809146329091473220913F33D4
:1042A00030914033280F391F209370323093713290
:1042B000C80FD91FC0934632D0934732ECE6F2E3E1
:1042C00002E00693DF91CF910F910895FC01818167
:1042D000877090E0FC013197E730F10520F4E2505F
:1042E000FF4F0C941CA888E090E0089580E290E0D5
:1042F000089580E490E0089580E890E0089580E0DB
:1043000091E0089580E092E008958FEF93E00895A2
:1043100080E190E00895282F2F7030E0220F331FA6
:10432000992787FD90958827990F881F9927820FD5
:10433000931F02979C01220F331F220F331F220F5E
:10434000331F820F931F84559E4C08950F93CF9374
:104350008091CC0480FF63C081E08093CC04E4E6CC
:10436000F2E300E80693ECE6F2E300E806938093BC
:10437000CA04E4E6F2E300E1069380914A3288231E
:1043800029F08350823008F42BDFE3DE809166321F
:1043900090916732089709F044C088E0E6E0F2E3C4
:1043A000A7E3B3E301900D928A95E1F7E8ECF4E01E
:1043B0008081806280838081806280830E94FF1878
:1043C000C82F811103C0F0DEC1E02CC080913733CB
:1043D00088236CF41092483210924932109246327F
:1043E0001092473282E080934A3202DF1BC0209154
:1043F0003D3330913E33232B11F4E4DE13C0109291
:10440000483210924932109246321092473281E07F
:1044100080934A32E4E6F2E302E0069303C0C0E090
:1044200001C0C1E08C2FCF910F910895BF92CF9220
:10443000DF92EF92FF920F931F93CF93DF93B82EEB
:104440006ADFEC011B2D111F1127111F8B2D8F709F
:10445000E82EF12CEE0CFF1CE10EF11CC701880FB9
:10446000991F880F991F880F991F9C012C593D4C4B
:104470007901C9012BDF6C01112309F45BC0D7015D
:1044800016962D913C9117978D819E81280F391F8B
:104490002D833E838B819C8128173907C9F1FC014C
:1044A000E21BF30B9F012115F4E03F0740F02FEFD3
:1044B00033E0C901B6010E94E6A7281B390B8881A9
:1044C00081FF0AC0C901B6010E94E6A741E0892B1D
:1044D00009F040E0942F01C090E0888190FB81F9C1
:1044E0008883D70116961D921C92179712962D93CA
:1044F0003C93139729813A818D819E81820F931F6E
:1045000014968D939C931597F70102E0069398C03B
:10451000888181FF87C08D7F8883D70116961D9281
:104520001C92179712961D921C921397F70102E0A6
:10453000069386C0D70112960D911C91139788811E
:1045400082FF15C0E981FA812D813E818B819C819A
:10455000B6010E94E6A7B0E4BB9EB0011124645DE1
:104560007F4CAC01CF01820F931F0E942FA82D8199
:104570003E81200F311F2D833E83EB81FC81E217AA
:10458000F30710F4ED83FE83D70116968D919C916D
:1045900017978017910709F045C08D819E81E81714
:1045A000F90709F43FC0E81BF90BE115B4E0FB077C
:1045B00048F0EFEFF3E0CF01B6010E94E6A7E81B59
:1045C000F90B06C0CF01B6010E94E6A7E81BF90B64
:1045D000D70112961D921C921397EC15FD0578F4E5
:1045E000888184608883B0E4BB9EC0011124845D0F
:1045F0009F4CF70184839583C682D7820FC029819F
:104600003A818D819E81820F931FD70114968D93DD
:104610009C9315971696ED93FC931797F70102E07C
:1046200006930EC0888180FF0BC08E7F8883EF8148
:10463000F885309729F06D817E814B2D80E01995AA
:10464000DF91CF911F910F91FF90EF90DF90CF906E
:10465000BF900895CF93CFB7F894E1ECF4E0808158
:104660008E7F80831092C00410820E94201380E00D
:1046700051DD8FB7F894E6E3F3E390819150908396
:104680008FBFCFBFCF910895CF93CFB7F89481E07C
:1046900041DDEAECF4E080E4808380E28083E1ECB9
:1046A000F4E0808181608083A9ECB4E08C91826029
:1046B0008C93E8ECF4E08081806480838C9181604D
:1046C0008C93808180688083CFBFCF910895CF93F2
:1046D000DF93C0E6D0E0188280E30E94E912E0ECAC
:1046E000F4E080818064808381E08883CFB7F89490
:1046F00080E090E0FC01EE0FFF1FEE0FFF1FEE0FBA
:10470000FF1FEB59FD4C108201968C30910591F7FB
:1047100080E090E0FC01EE0FFF1FEE0FFF1FEE0F99
:10472000FF1FE80FF91FE455FE4C20812E7F2083E8
:1047300001968A30910571F76AE170E082E0F3D862
:104740008F3F19F08093FA0403C08FE18093FA043D
:104750006BE170E082E0E7D88F3F19F08093FB04B3
:1047600003C08FE18093FB04E0ECF4E0808185607E
:10477000808380818068808380818061808384E6FB
:1047800092E3868397838081806280838FEF80931A
:10479000C504E8ECF4E08081816080831092C83227
:1047A0008FB7F894E6E3F3E390819F5F90838FBF28
:1047B0006BDFCFBFDF91CF91089580E008958093A4
:1047C000C30408958091C30408958091C4329091E8
:1047D000C532089580E090E0089580933F33909330
:1047E000403360934133709342330895E82FEF7064
:1047F000F0E0EE0FFF1F992787FD90958827990F0E
:10480000881F9927E80FF91FEE0FFF1FEE0FFF1FFC
:10481000EE0FFF1FEC59FD4C8181807C09F043C0F5
:104820006370613029F010F480E403C080E801C0B7
:1048300080EC40385105E1F050F440325105A1F0D0
:104840004034510599F04031510561F419C04115CA
:1048500092E0590789F04F3F93E0590779F04115ED
:10486000514041F020E00DC022E00BC023E009C020
:1048700024E007C025E005C026E003C027E001C012
:1048800021E0118296E09083822B81838181807C5C
:10489000803C21F481818770873039F0818180628A
:1048A000818381E0089580E0089581E00895E82FF4
:1048B000EF70F0E0EE0FFF1F992787FD9095882796
:1048C000990F881F9927E80FF91FEE0FFF1FEE0FB2
:1048D000FF1FEE0FFF1FEC59FD4C818182FB8827E3
:1048E00080F90895E82FEF70F0E0EE0FFF1F282FFA
:1048F000332727FD30952227330F221F3327E20F5E
:10490000F31FEE0FFF1FEE0FFF1FEE0FFF1FEC59FF
:10491000FD4C918192FF0EC091819B7F9183FBDCC6
:10492000FC01808180FF06C08E7F80830780F08538
:10493000E02D199581E008957F928F929F92AF921A
:10494000BF92CF92DF92EF92FF920F931F93CF937C
:10495000DF93982E862E5A016901DDDC7C01792CCB
:10496000771C7724771CC92DCF70D0E0CC0FDD1FCA
:10497000C70DD11DCC0FDD1FCC0FDD1FCC0FDD1FF0
:10498000CC59DD4C8981807C09F44CC08981807CC4
:10499000803C19F0898182FD47C08FB7F894F701F8
:1049A000908190FF03C08FBF712C3FC0F7019081B1
:1049B000916090838FBFF701A182B282C382D482BB
:1049C0001582168207831087811006C091E0C114FA
:1049D000D10419F090E001C091E0F701808190FBD3
:1049E00081F98B7F8083772019F01E821F8215C08A
:1049F0008981807C803C69F4CE0168DCBC01C60101
:104A00000E94E6A7892B29F0F70180818E7F8083A1
:104A10000CC01A821B821E821F82892D07DD77241B
:104A2000739403C0712C01C0712C872DDF91CF913D
:104A30001F910F91FF90EF90DF90CF90BF90AF90BC
:104A40009F908F907F900895FF920F931F93CF9325
:104A5000DF93182FF82EFF1CFF24FF1CC82FCF70E8
:104A6000D0E0CC0FDD1FCF0DD11DCC0FDD1FCC0F43
:104A7000DD1FCC0FDD1FCC59DD4C4DDCDC01FE0110
:104A800002E005938C9180FF12C08E7F8C93179665
:104A9000ED91FC911897309751F0FF2019F06E813D
:104AA0007F8102C06A817B81412F81E01995DF916E
:104AB000CF911F910F91FF900895CF93C82FC4DF1E
:104AC000EC2FEF70F0E0EE0FFF1F8C2F992787FD82
:104AD00090958827990F881F9927E80FF91FEE0FE7
:104AE000FF1FEE0FFF1FEE0FFF1FEC59FD4C118251
:104AF000CF9108950F93E82FEF70F0E0EE0FFF1FB6
:104B0000282F332727FD30952227330F221F3327E5
:104B1000E20FF31FEE0FFF1FEE0FFF1FEE0FFF1F41
:104B2000EC59FD4C91819460918301E006938CDFF8
:104B300081E00F9108951F920F920FB60F921124EA
:104B40000BB60F920F932F933F934F935F936F93F7
:104B50007F938F939F93AF93BF93CF93EF93FF93E5
:104B60008091CB0488233CF480E88093CA040E949F
:104B7000D018C8D58FC08091CB0482FF20C084E0BC
:104B80008093CA0480916C3286FF84C08091CC04EB
:104B900081FD80C0DBDB81117DC080914A32813094
:104BA00011F410DB77C0843009F074C0EDE6F2E355
:104BB00004E00593E5E6F2E304E005936BC0809121
:104BC000CB0481FF62C082E08093CA04809164328A
:104BD00086FF60C08091CC0481FD5CC0B7DB811191
:104BE00059C080914A32823041F484E080934A3245
:104BF000E4E6F2E302E006934DC0833009F04AC0D8
:104C0000EDE6F2E304E00593E5E6F2E304E0059364
:104C100041C080E18093CA04C1E08C2F15DF8C2F46
:104C2000806812DFCF5FC530C1F70E94A5181092CF
:104C3000C304E5E6F2E3108296E09093643283E4E5
:104C40008083EDE6F2E3108290936C32808386E0FD
:104C500092E380936832909369327BDA1BC0809133
:104C6000CB0486FF07C080E48093CA0480E052DA58
:104C700043D510C08091CB0485FF0CC080E28093A7
:104C8000CA0481E047DA3BD505C08091CB0484FD9E
:104C9000C0CFE5CFFF91EF91CF91BF91AF919F91A1
:104CA0008F917F916F915F914F913F912F910F91D4
:104CB0000F900BBE0F900FBE0F901F9018951F9274
:104CC0000F920FB60F9211240BB60F920F931F93F2
:104CD0002F933F934F935F936F937F938F939F9304
:104CE000AF93BF93CF93DF93EF93FF938091CC0467
:104CF00081FD03C02BDB8111B9C082E08093CC041D
:104D00008091C5048195880FE4E6F2E3E81BF10980
:104D10002081318124563243369527953695279543
:104D200036952795822F869520FF02C090E801C016
:104D300090E0890FE82FEF70F0E0EE0FFF1F282FB3
:104D4000332727FD30952227330F221F3327E20F09
:104D5000F31FEE0FFF1FEE0FFF1FEE0FFF1FEC59AB
:104D6000FD4C908195FF82C000E20693811179C0CD
:104D700080914A32843019F433DAEBD977C0C0918C
:104D80006632D091673280914133909142330091E5
:104D900046321091473298012C0F3D1F821793071E
:104DA00018F4EC01C01BD10B80913F33909140333C
:104DB000AE0166E072E3800F911F0E942FA80C0FD6
:104DC0001D1F0093463210934732C034D10569F459
:104DD0008091483290914932800F911F20913D334C
:104DE00030913E338217930788F00093413310933C
:104DF0004233E0914533F0914633309729F01995CD
:104E0000811102C0D1D932C0DDD930C08091413387
:104E10009091423308171907F9F4E0914533F09166
:104E20004633309711F4C0D921C01995811102C0C1
:104E3000BBD91CC020914832309149328091463212
:104E400090914732820F931F80934832909349325A
:104E50001092463210924732E4E6F2E302E0069303
:104E600005C0803811F4C4D901C0E0DAFF91EF9198
:104E7000DF91CF91BF91AF919F918F917F916F9172
:104E80005F914F913F912F911F910F910F900BBE0A
:104E90000F900FBE0F901F9018950E94CC18EEEF48
:104EA000F0E082E08CBF19940895FC01019000208D
:104EB000E9F73197BF01681B790B0C94AE17089581
:104EC000CF93DF93EC01F1DF88ED92E2EEDF6BED43
:104ED00072E2CE010E9438A8892B19F488ED92E283
:104EE000E4DFDF91CF91089520910C21622309F036
:104EF000E7CF089580930C210895CF92DF92EF922F
:104F0000FF920F931F93CF93DF93082F10E0000FB2
:104F1000111FE801C55BDC4C888199810E94511307
:104F2000B801695B7C4CFB01C080D12CE12CF12CD9
:104F300000E412E42FE030E040E0888199810E9493
:104F40006813E881F98180818064808381E0DF914A
:104F5000CF911F910F91FF90EF90DF90CF90089528
:104F600008950895BF92CF92DF92EF92FF920F9330
:104F70001F93CF93DF93B62EC82FD0E06E01CC0CD9
:104F8000DD1C8601095B1C4CA601455B5C4C7A016B
:104F9000B801DA018D919C910E948813F601E85BBB
:104FA000FC4C8081E82FE695E695E695B0E2EB9F14
:104FB000F0011124FA5F877021E030E0A90102C0FE
:104FC000440F551F8A95E2F74683D701ED91FC9176
:104FD0001197B382ED91FC9182818823ECF78AEFDF
:104FE0008383FE01EE0FFF1FE55BFC4C0190F08117
:104FF000E02D82818823ECF7CE01880F991FDC0118
:10500000A85BBC4C2C91A22FA695A695A69530E244
:10501000A39FD0011124BA5F277041E050E0BA018C
:1050200002C0660F771F2A95E2F715966C932FEF53
:105030002383FC01E55BFC4C0190F081E02D828133
:105040008823ECF7F3808FEF8383CC0FDD1FC55BE4
:10505000DC4CE881F98182818823ECF7C381B801B7
:10506000CF010E949E138C2F90E0982F88278F0DE0
:10507000911DDF91CF911F910F91FF90EF90DF90E5
:10508000CF90BF9008959F92AF92BF92CF92DF9240
:10509000EF92FF920F931F93CF93DF93962EA42E40
:1050A000B52E082F10E06801CC0CDD1CA601495B71
:1050B0005C4C7A01E601C55BDC4CBA0188819981C0
:1050C0000E948813F601E85BFC4C8081E82FE6958E
:1050D000E695E69550E2E59FF0011124FA5F8770AE
:1050E00021E030E0B90102C0660F771F8A95E2F730
:1050F0006683E881F9819382E881F981828188233E
:10510000ECF7C801880F991FDC01A85BBC4C2C91FF
:10511000A22FA695A695A69570E2A79FD00111246F
:10512000BA5F277041E050E0BA0102C0660F771FF6
:105130002A95E2F715966C93A382FC01E55BFC4C83
:105140000190F081E02D82818823ECF7B382F80191
:10515000EE0FFF1FE55BFC4C0190F081E02D82819A
:105160008823ECF7B701CF010E949E13DF91CF9106
:105170001F910F91FF90EF90DF90CF90BF90AF9075
:105180009F900895CF93C82F48E250E06FEB7BDFEC
:1051900040E053E567E070E0415051096109710951
:1051A0004115510561057105B9F740E150E06FEB1C
:1051B0008C2F69DF40E059E06DE370E04150510908
:1051C000610971094115510561057105B9F749E298
:1051D00050E06FEB8C2F57DF40E053E567E070E065
:1051E0004150510961097109411551056105710568
:1051F000B9F741E150E06FEB8C2F45DFCF91089577
:105200007F928F929F92AF92BF92CF92DF92EF9256
:10521000FF920F931F93CF93DF93762E842E952EBC
:10522000A22EB32E082F10E06801CC0CDD1CE60185
:10523000C95BDC4CA601455B5C4C7A01BE01DA011E
:105240008D919C910E948813F601E85BFC4C808153
:10525000E82FE695E695E695B0E2EB9FF001112484
:10526000FA5F877021E030E0A90102C0440F551FAA
:105270008A95E2F74683D701ED91FC9111977382ED
:10528000ED91FC9182818823ECF7C801880F991F6A
:10529000DC01A85BBC4C2C91A22FA695A695A695E7
:1052A00030E2A39FD0011124BA5F277041E050E0A3
:1052B000BA0102C0660F771F2A95E2F715966C9324
:1052C0008382FC01E55BFC4C0190F081E02D828142
:1052D0008823ECF79382F801EE0FFF1FE55BFC4C8F
:1052E0000190F081E02D82818823ECF7A382F80100
:1052F000EE0FFF1FE55BFC4C0190F081E02D8281F9
:105300008823ECF7B382F801EE0FFF1FE55BFC4C3E
:105310000190F081E02D82818823ECF7BE01CF015E
:105320000E949E13DF91CF911F910F91FF90EF90FC
:10533000DF90CF90BF90AF909F908F907F90089517
:10534000CF93C82F4AEF50E064ED9DDE60EB8C2FC9
:1053500009DECF910895CF93C82F40E854E86EE15D
:1053600070E041505109610971094115510561050C
:105370007105B9F781E08093C9328C2FE1DF883263
:10538000984229F089EE92E29BDD80E09FC046E1E1
:1053900052E061EB8C2F77DE40E356E062EB8C2F1E
:1053A00072DE4CE858E263EB8C2F6DDE48E354E08C
:1053B00064EB8C2F68DE40E857E065EB8C2F63DEF2
:1053C00047E050E266EB8C2F5EDE4AE054E169EC88
:1053D0008C2F59DE43E050E06EED8C2F54DE44E01C
:1053E00050E066ED8C2F4FDE40E350EC6AEB8C2FE3
:1053F0004ADE48E050E06BEB8C2F45DE41E050E0A8
:1054000069EB8C2F40DE41E050E064EC8C2F3BDEFA
:1054100040E45DE063E070E04150510961097109C9
:105420004115510561057105B9F742E053E067EB9D
:105430008C2F29DE40E050E068EB8C2F24DE43E027
:1054400050E06CEB8C2F1FDE2FEF30E041E55FE08A
:105450006FEB8C2FD5DE42E050E06CEB8C2F13DE2F
:1054600043E554E06FEB8C2F0EDE45E550E06FEB2B
:105470008C2F09DE42E453E067EB8C2F04DE40E022
:1054800050E068EB8C2FFFDD41E050E06CEB8C2F9F
:10549000FADD49E250E06FEB8C2FF5DD40E053E59B
:1054A00067E070E0415051096109710941155105EA
:1054B00061057105B9F741E150E06FEB8C2FE3DD39
:1054C0004BE453E067EB8C2FDEDD81E0CF91089554
:1054D00084E18093473389E08093483380EC98E0FF
:1054E00080934B3390934C3380E007DD80E033CFE3
:1054F0000895E82FF0E0EE0FFF1FE85BFC4C808181
:10550000E82FE695E695E69540E2E49FF001112448
:10551000FA5F877021E030E0A90102C0440F551FF7
:105520008A95E2F745830895E82FF0E0EE0FFF1F1C
:10553000E85BFC4C8081E82FE695E695E69540E235
:10554000E49FF0011124FA5F877021E030E0A901A7
:1055500002C0440F551F8A95E2F7468308958130B3
:1055600099F48DEF92E2ACDC84E0E0E0F6E0868333
:1055700080E090E00196803A2FE09207D9F784E02E
:10558000E0E0F6E085830895823099F488E093E2C4
:1055900097DC80E1E0E0F6E0868380E090E0019631
:1055A000803A2FE09207D9F780E1E0E0F6E08583CA
:1055B000089583E193E284CC089581E0E0E2F6E08F
:1055C000868380E090E00196803A2FE09207D9F739
:1055D00081E0E0E2F6E085830895CF93C42F813027
:1055E00051F480EA9BE00E94411E6C2F80EA9BE010
:1055F0000E94411E03C081E293E262DCCF910895D4
:10560000813051F4606880EA9BE00E94411E80EA8C
:105610009BE00C94491E089581E293E251DC80E006
:105620000895C0EAD0E017E01A830E9462121A833C
:10563000109231331092323310923333109234334C
:105640001092353381E0809336330E94B51B77D0BA
:1056500078940E94B4130E94B5133ADF0E94600F41
:105660008093292F0E9425A1E0EAF6E080E485835B
:1056700080E886830E94A21889D68091CC32882344
:1056800021F080E06DDC1092CC328091CB32882307
:1056900021F080E066DC1092CB3281E08093CD3245
:1056A00080910D33882321F00E94B8A510920D330C
:1056B00080E090E00196803A2FE09207D9F7809140
:1056C000292F81110E94C0118091CD32882341F38E
:1056D00067D68091CC32882331F01092CC3280E0B2
:1056E0003ADE80E03DDC8091CB328823C9F280E055
:1056F00038DC1092CB32D4CF0C94B51308950C94AF
:10570000B61308958091CA32882319F05ED80C949C
:10571000BF13089591E09093CA320E9447A781E099
:1057200008951092CA320C9452A70895662319F076
:105730000C94B71308950C94B8130895089543E09A
:1057400050E060E880E496E00E94291343E050E0D6
:1057500060E280E496E00E94291340E050E060E4BB
:1057600080E496E00E94291343E050E060E180E489
:1057700096E00E94291343E050E062E080E296E068
:105780000E94291341E050E062E080E096E00E9430
:10579000291343E050E064E080E096E00E94291382
:1057A00043E050E061E080EA96E00E94291343E084
:1057B00050E060E280E696E00E94291340E050E06D
:1057C00064E080E696E00E94291341E050E062E048
:1057D00080EA96E00E94291341E050E060E480EA0C
:1057E00096E00E94291341E050E060E880EA96E0EC
:1057F0000E94291343E050E064E080E496E00E94B8
:10580000291343E050E068E080E496E00E94291309
:105810006DE071E280EA9BE00E94591F811103C094
:105820008AE293E24DDB43E050E061E080E296E003
:105830000C9429130895CF93DF93CDB7DEB7A897C3
:10584000CDBFDEBFFC01DE011196CE018996249109
:105850002D93222321F03196A817B907C1F718A676
:10586000CE0101962DDBA896CDBFDEBFDF91CF9193
:105870000895CF93DF93D82FC62F89E393E220DBDF
:1058800086ED9EE0D8DFCC2319F0C13029F008C0A6
:1058900082ED9EE0D0DF07C08EEC9EE0CCDF03C03F
:1058A00084EC9EE0C8DFDD2319F0D13069F01AC026
:1058B00084E99EE0C0DF81E08093D0321092D13243
:1058C0008FEF80933A2111C08EEA9EE0B4DF8FEF14
:1058D00080933A2181E08093CB321092D0321092A3
:1058E000D13203C084EC9EE0A6DFDF91CF91089512
:1058F000EF92FF920F931F93CF93DF93CDB7DEB755
:105900006497CDBFDEBF8C017B01009709F445C0D1
:10591000FF926F931F938F9386E493E29F938F93ED
:10592000CE0101969F938F930E946EA8CDBFDEBFDC
:10593000073E93E0190799F4FF92EF928EE493E209
:105940009F938F93CE0101969F938F930E946EA891
:105950000F900F900F900F900F900F9004C080E267
:1059600090E089839A8387EEE81683E0F80691F445
:105970001F930F938EE493E29F938F93CE01019632
:105980009F938F930E946EA80F900F900F900F908F
:105990000F900F90CE01019693DA6496CDBFDEBFD3
:1059A000DF91CF911F910F91FF90EF9008950F938A
:1059B0001F93CF93DF93CDB7DEB76297CDBFDEBF26
:1059C00010924F3310925033109251338091D23253
:1059D00081112DC060E070E08EEC92E30E94698B33
:1059E000DC01CB016CE072E083DF61E08091CE32BC
:1059F0009091CF320E9482A0DC01CB0160E172E085
:105A000077DF09EA1FE227E231E349E35CE260E085
:105A100070E08091CE329091CF320E94ED90DC0107
:105A2000CB0161E372E064DF81E08093D23211E068
:105A300010935233109253331092543310935533C2
:105A400062E573E38091CE329091CF320E941B8E3B
:105A5000DC01CB0164E472E04BDF28E044E354E274
:105A600060E474E28091CE329091CF320E947F9EAA
:105A7000DC01CB016FE472E03BDF4EE254E268E30D
:105A800074E28091CE329091CF320E94199FDC0156
:105A9000CB0164E572E02CDF62E08091CE32909120
:105AA000CF320E9482A0DC01CB0168E572E020DFEA
:105AB00060E08091CE329091CF320E948693DC01DB
:105AC000CB0169E672E014DF20E030E040E050E016
:105AD00060E08091CE329091CF320E946898DC01D4
